:020000041000EA
:1000000000B5324B212058609868022188439860DF
:10001000D860186158612E4B002199600221596106
:100020000121F02299502B49196001219960352056
:1000300000F044F80222904214D00621196600F024
:1000400034F8196E01211966002018661A6600F04E
:100050002CF8196E196E196E052000F02FF8012189
:100060000842F9D1002199601B49196000215960AB
:100070001A491B48016001219960EB211966A021F2
:10008000196600F012F800219960164914480160C1
:100090000121996001BC002800D000471248134993
:1000A000086003C880F30888084703B5996A0420EC
:1000B0000142FBD001200142F8D103BD02B5186610
:1000C0001866FFF7F2FF186E186E02BD00000240BE
:1000D000000000180000070000035F00212200005C
:1000E000F4000018222000A00001001008ED00E03C
:1000F00000000000000000000000000074B24E7A12
:1001000000200420F7010010C3010010C5010010F9
:10011000C1010010C1010010C1010010C101001097
:10012000C1010010C1010010C1010010C701001081
:10013000C1010010C1010010C9010010CB01001065
:10014000CD010010CD010010CD010010CD01001037
:10015000CD010010CD010010CD010010CD01001027
:10016000CD010010CD010010CD010010CD01001017
:10017000CD010010CD010010CD010010CD01001007
:10018000CD010010CD010010CD010010CD010010F7
:10019000CD010010CD010010CD010010CD010010E7
:1001A000CD010010CD010010CD010010CD010010D7
:1001B000CD010010CD010010CD010010CD010010C7
:1001C00000BE00BE00BE00BE00BE00BEEFF3058054
:1001D000103800BEF2EB887118DF00103CDF001011
:1001E0003802001090A31AE71E481F49086006C88D
:1001F00081F3088810471D480068002801D019487D
:10020000F3E70DA40ECC002902D000F012F8F9E7B4
:100210001749184A002000E001C19142FCD116495B
:100220008847164988471649884700BEFDE701C937
:1002300001C29A42FBD370473CDF0010C00000208F
:10024000B81A002034F90010000004200000042037
:1002500034F90010001004200010042000000000F9
:10026000704700000000000008ED00E0000000D032
:10027000B81A0020EC2B00208D8E0010E103001036
:10028000858E0010F8B5C04606480749091A8B103C
:10029000C90FC91810B5491003D0044B002B00D06A
:1002A000984710BDB81A0020B81A002000000000BE
:1002B000054B10B5002B03D00449054800E000BFF2
:1002C000FFF7E2FF10BDC04600000000642B0020D5
:1002D000D4CA00107047C04670B5062003F014FE63
:1002E000274808F0ABFF274B2748197809F02AF870
:1002F000264808F0A3FF264B2648197809F022F873
:10030000254809F01FF8254D2B78002B08D0002434
:10031000234E305D08F048FF2B780134A342F8DC0F
:10032000204808F08BFF29781F4809F00BF81F4B75
:100330001F481A685B6809F005F81E4808F07EFF40
:100340001D4B1E481A685B6808F0FCFF1C4B1D48DB
:10035000198808F0F7FF1C4808F070FF1B4B1C4879
:10036000197808F0EFFF1B4808F068FF1A4B1B488C
:10037000197808F0E7FF002003F0C6FD70BDC04605
:10038000D8CA0010E22B0020E8CA001000CB0010F1
:10039000E02B002024CB00106CCB0010D80F0020E5
:1003A000DC0F002084CB00108CCB00101810002034
:1003B000B4CB0010E0CB001010100020E8CB0010F0
:1003C0000E10002014CC001034CC001008100020B7
:1003D00038CC00105CCC00108014002064CC0010DD
:1003E000F0B5D024042583B0240608F08DFE022049
:1003F00004F0FCFE0A20656204F0F8FE8023DB00B6
:100400000B20636204F0F2FE80231B010D20636267
:1004100004F0ECFE80239B010F20636204F0E6FEF3
:1004200080231B020E20636204F0E0FE8023DB01C8
:100430001020636204F0DAFE80235B021120636205
:1004400004F0D4FE80239B021220636204F0CEFEEF
:100450008023DB021420636204F0C8FE80235B0368
:100460001520A36204F0C2FE80239B031620A36222
:1004700004F0BCFE8023DB030820A36204F0B6FE78
:1004800080235B000920636204F0B0FE80239B00A0
:10049000A362656102F0CAFC002200218020A561F0
:1004A00000F092FC254B00221868596801F0F8F919
:1004B00023480BF07BFB002350210093214A224864
:1004C00001330BF0F9FC00282ED0032003F01CFDB3
:1004D0001E4808F0B3FE002003F016FDD02480264D
:1004E0000125FF2004F098F8FFF7F6FE184808F001
:1004F00029FF184F2406360103F0B2FC04F038F847
:1005000004F0C4FA3B785A08154206D066611D42D1
:1005100006D08023DB006361EEE7A6611D42F8D1BF
:100520008023DB00A361E7E7022003F0EDFC0A482B
:1005300008F084FE002003F0E7FCCFE7181000204D
:10054000D5020010E12B00204815002088CC0010B7
:10055000B4CC0010E22B00209CCC0010F0B5454636
:1005600057464E46DE46E0B58FB08A4691468046F5
:100570000D000990142900D963E100D15DE10D2936
:1005800000D2B3E000D1ADE04B46002B00D0B4E088
:10059000CD4B64221C78CD4BA400E05800210023F1
:1005A00006F086FE06000F00C94BCA4AE058C11784
:1005B0004308C9071943C007002306F07BF832003F
:1005C0003B0006F075FE4900C00F08430200C31748
:1005D000B6185F41404632003B00290006F082F821
:1005E00004000E2800D93CE1310F3B010B433201DE
:1005F000921BBB4190461D00290032003B00404643
:1006000006F070F80393039D0292D30E690119431B
:10061000029A039B5001801A9941C50D4B022B434E
:1006200042020298039912184B41950E99019001CC
:100630002943801A9941029A039B8018594132003C
:100640003B0006F04FF8002800D11EE1C50128004C
:10065000A14906F009F810270B0C7F421F430B0A33
:10066000DBB22800CEB29C49984605F0FDFF42233C
:1006700040259946FFB2994BE4019C4664442418F6
:10068000142006F027FF4A462D022A431500A30333
:100690009B0F1B041D434346220A3F02E4B21B0486
:1006A0003C431C431A2312061543360608AA13734B
:1006B000344308AB9C4601000560446083460D202E
:1006C0000822604406F042FF00230BAA0093602139
:1006D000093383480BF0E6FB824B099A1A605246B5
:1006E0005A60A0E0804B984200D34DE77E4B0D2529
:1006F00098464B46002B00D14AE77C4B64221C787D
:10070000724BA400E0580021002306F0D1FD704B8D
:100710000690E0580791C1174308C9076D4A19436D
:10072000C007002305F0C6FF069A079B06F0C0FD30
:10073000069B079C4900C00F08430600C7179B197A
:100740007C4140461A001E002900230005F0CAFF24
:10075000270004000E2800D977E0310F3B010B433E
:100760003201921BBB4190461D00290032003B0024
:10077000404605F0B7FF0593059D0492D30E69012D
:100780001943049A059B5001801A9941C50D4B02EB
:100790002B4342020498059912184B41950E99017A
:1007A00090012943801A9941049A059B8018594168
:1007B00032003B0005F096FF00285ED0C5012800FE
:1007C000454905F051FF10270B0C7F421F430B0AD0
:1007D000DBB22800CEB24049984605F045FF4023E1
:1007E0004225FFB202933D4BE4019C466444241829
:1007F000142006F06FFE029B3F021A02A3039B0F18
:100800001B0415431D434346220AE4B21B043C4328
:100810001C434B4612063606154334438346056097
:100820004460012B37D0584606F072FE0FB0F0BC82
:10083000BB46B246A946A046F0BD2D4B984200D813
:10084000A2E62B4B142598469EE65A2800D88CE742
:100850005A2200233000390006F02AFD80460D00A0
:1008600083E75A2800D8C7E65A220023300039000F
:1008700006F01EFD80460D00BEE6002398460133BB
:100880000026002700250293ADE7002300269846A6
:1008900000270125EFE6213308AA137308AB9C4615
:1008A00001000D200822604406F050FE00230BAA30
:1008B0000093602109330A480BF0F4FA0D4B099AB2
:1008C0001A6052465A60AEE7E72B0020D02B00207A
:1008D0009C2B002000CA9A3B40420F0000FEFFFF05
:1008E00048150020881C0020005847F8E82B0020FD
:1008F00000046BF4901C0020F0B5DE4657464E46CF
:100900004546E0B5002787B0FC4DFD4B05AC238084
:10091000220002236021280000970BF0C3FAF94B54
:100920002200238060210223280000970BF0BAFAEE
:10093000F54B2200238060210223280000970BF052
:10094000B1FAF24B22002380602102232800009795
:100950000BF0A8FAEE4B220023806021022328002E
:1009600000970BF09FFAEB4B2200238060210223BB
:10097000280000970BF096FAE74B220023806021B5
:100980000223280000970BF08DFAE44B220023800D
:1009900060210223280000970BF084FAC1231B0179
:1009A0002380220002236021280000970BF07AFAAE
:1009B000DB4B2200238060210223280000970BF0EC
:1009C00071FAD84B2200238060210223280000976F
:1009D0000BF068FAD44B2200238060210223280008
:1009E00000970BF05FFAD14B220023806021022395
:1009F000280000970BF056FACD4B2200238060218F
:100A00000223280000970BF04DFACA4B22002380E6
:100A100060210223280000970BF044FAC64B220005
:100A2000238060210223280000970BF03BFA00226C
:100A30001221C248FFF792FD01221221BF48FFF7A1
:100A40008DFDBF4B04AE984642461F60BD4B6021F2
:100A50005360102301229A462370BB4B91460393A7
:100A60001B782800337002930092012322000BF0C0
:100A700019FA012332006021280000970BF01CFABC
:100A800052463378227010329343934663702200AB
:100A900002236021280000970BF004FA42461770E9
:100AA0001122924622704A46029B60213370280030
:100AB0000123009222000BF0F5F90123320060219E
:100AC000280000970BF0F8F9524622705A46337806
:100AD00060219343637022000223280000970BF0EB
:100AE000E1F9424657701222924622704A46029B12
:100AF0006021337028000123009222000BF0D2F90C
:100B0000012332006021280000970BF0D5F95246EE
:100B100022705A4633786021934363702200022387
:100B2000280000970BF0BEF94246977013229246B8
:100B300022704A46029B60213370280001230092F4
:100B400022000BF0AFF9012332006021280000974A
:100B50000BF0B2F9524622705A4633786021934323
:100B6000637022000223280000970BF09BF9424695
:100B7000D7701422924622704A46029B602133703D
:100B800028000123009222000BF08CF9012332008F
:100B90006021280000970BF08FF9524622705A46C8
:100BA000337860219343637022000223280000976A
:100BB0000BF078F9424617711522924622704A4688
:100BC000029B6021337028000123009222000BF069
:100BD00069F9012332006021280000970BF06CF9BD
:100BE000524622705A463378602193436370220044
:100BF0000223280000970BF055F942465771162240
:100C0000924622704A46029B6021337028000123DD
:100C1000009222000BF046F90123320060212800E7
:100C200000970BF049F95246227020229246524614
:100C30003378602113436370220002232800009759
:100C40000BF030F942464946917117229346029BB8
:100C50002270337022004B46009128005F310BF068
:100C600021F9012332006021280000970BF024F9BC
:100C70005A46227052463378602113436370220033
:100C80000223280000970BF00DF943464A46DA711B
:100C9000A223220023806021A03B280000970BF0B4
:100CA00001F9A323220023806021A13B28000097A3
:100CB0000BF0F8F8A423220023806021A23B280037
:100CC00000970BF0EFF8214B2200238060210223D4
:100CD000280000970BF0E6F81D4B220023806021CE
:100CE0000223280000970BF0DDF81A4BA8469B461C
:100CF000194B029303239A4630E0C0464815002062
:100D00001080FFFF1180FFFF1280FFFF1380FFFFA5
:100D10001480FFFF1580FFFF1680FFFF1780FFFF85
:100D2000110C0000120C0000130C0000140C000049
:100D3000150C0000160C0000170C000000205FA02E
:100D4000842B00200000010158CC0010B1200000CD
:100D5000B180FFFFB81A0020B026002059460022BB
:100D600000230CC153462370039B00251B782200EF
:100D700033704B468B4600936021012340460BF0B5
:100D800091F8012332006021404600950BF094F861
:100D9000524622704A46BA4033786021134363704A
:100DA00022000223404600950BF07CF8029BDB19E1
:100DB00001371D70082FD1D107B0F0BCBB46B24639
:100DC000A946A046F0BDC046F0B5DE4657464E46A1
:100DD0004546474BE0B59B4687B003925A46454B84
:100DE000454E13600023454A02901370444A8A46D8
:100DF0001370444A4449300013700BF02BF8032160
:100E0000042004F0C5F90321052004F0C1F90022F3
:100E10000121042004F0D6F900220121052004F06C
:100E2000D1F93A4B00271B7805AD99460123984626
:100E300004AC4B46237043462A0060212F703000DB
:100E4000009301230BF02EF80123220060213000D3
:100E500000970BF031F82378DB09012BE9D0B72399
:100E6000029A2B70783B9A431300122213436B7043
:100E70002A0002236021300000970BF013F853463C
:100E8000002B1AD15A461B4B1360039A204B1A6051
:100E9000204B002218685968FFF760FB1E4B0122A7
:100EA00018685968FFF75AFBFFF726FD07B0F0BC3A
:100EB000BB46B246A946A046F0BD184B9A4509D993
:100EC000174B184A5344934208D853465A465B0876
:100ED0001360DAE75B4652461A60D6E7124B134AB4
:100EE00053449342D1D853465A469B081360CCE7EB
:100EF000D02B002040787D0148150020E72B0020F2
:100F0000E82B0020DE2B0020801A060058CC0010B1
:100F10009C2B0020881C0020901C002080C3C9014D
:100F20007F3C36FE7FC3C901FF786CFCFF5962022B
:100F3000F0B5DE4645464E465746E0B591B01D1C1D
:100F400008930B931AAB1B78884603931BAB1B7853
:100F500007929B461CAB1B780A92049353BA6A46CD
:100F6000040014205383099106F0B4FA4346DBB21F
:100F700006006DBA0593052C00D876E0063CE4B275
:100F8000012C68D8E04BA4001B590DAC9F4652239E
:100F90002B7006AB9C461D200024604408223100C3
:100FA00006F0D4FA09232A006021380000940AF0E0
:100FB00079FF15232B7053464A461B786021137026
:100FC00001232A00009338000AF06CFF01234A46EF
:100FD0006021380000940AF06FFF4B46039A1B789B
:100FE000012A00D1A5E240229343152200242A7051
:100FF0006B702A0002236021380000940AF052FF2F
:1010000054232B7053464A461B78602113700123EA
:101010002A00009338000AF045FF01234A46602168
:10102000380000940AF048FF4B467C221B7893431B
:10103000049A002A01D00C22134354222A705A46E3
:10104000120113436B7000232A00009360213800C3
:1010500002330AF027FF300006F05AFA11B0F0BC54
:10106000BB46B246A946A046F0BDE30005802C333E
:101070000DAD2B700CAB99464A46A44BA44F9A4633
:101080001B786021137001232A00009338000AF0B6
:1010900009FF00234A4660210093380001330AF01B
:1010A0000BFF4B461A78434603211B0C8A430B4027
:1010B0001343B37043461B0AF370059B079A3371C1
:1010C000089B0C311B0B120C8B4311400B437371AB
:1010D0006B465B8BA400F3808E4B1B599F465B23B2
:1010E00000278B4D2370059B220063706021022333
:1010F000280000970AF0D6FE5C23237098460CABBC
:1011000099464A46814B60211B78280013700123C1
:10111000220000930AF0C6FE01234A4660212800FF
:1011200000970AF0C9FE4B4670221B7893431A00C1
:10113000434623705B461B01134363702200022366
:101140006021280000970AF0ADFE84E75A230027AB
:101150006F4D2370059B22006370602102232800DD
:1011600000970AF09FFE5C23237098460CAB9946CB
:101170004A46664B60211B78280013700123220029
:1011800000930AF08FFE01234A4660212800009751
:101190000AF092FE4B4607221B7893434246227088
:1011A0005A461A431300C8E742232B7006AB9C46ED
:1011B0001D20002460440822310006F0C7F90923ED
:1011C0002A006021380000940AF06CFE13232B7073
:1011D00053464A461B786021137001232A0000936E
:1011E00038000AF05FFE01234A466021380000946F
:1011F0000AF062FE4B46039A1B78012A00D192E165
:1012000040229343132200242A706B702A00022389
:101210006021380000940AF045FE44232B705346A9
:101220004A461B786021137001232A00009338007E
:101230000AF038FE01234A466021380000940AF083
:101240003BFE4B467C221B789343049A002A01D034
:101250000C2213434422F1E63A232B7006AB9C4642
:101260001D20002460440822310006F06FF9092394
:101270002A006021380000940AF014FE12232B701B
:1012800053464A461B786021137001232A000093BD
:1012900038000AF007FE01234A4660213800009416
:1012A0000AF00AFE4B46039A1B78012A00D149E155
:1012B00040229343122200242A706B702A000223DA
:1012C0006021380000940AF0EDFD3C232B7053465A
:1012D0004A461B786021137001232A0000933800CE
:1012E0000AF0E0FD01234A466021380000940AF02C
:1012F000E3FD4B467C221B789343049A002A01D0DD
:101300000C2213433C2299E670D8001058CC0010F0
:101310004815002078D800104A232B7006AB9C4655
:101320001D20002460440822310006F00FF9092333
:101330002A006021380000940AF0B4FD14232B70B9
:1013400053464A461B786021137001232A000093FC
:1013500038000AF0A7FD01234A46602138000094B6
:101360000AF0AAFD4B46039A1B78012A00D1E6E059
:1013700040229343142200242A706B702A00022317
:101380006021380000940AF08DFD4C232B705346E9
:101390004A461B786021137001232A00009338000D
:1013A0000AF080FD01234A466021380000940AF0CB
:1013B00083FD4B467C221B789343049A002A01D07C
:1013C0000C2213434C2239E632232B7006AB9C4689
:1013D0001D20002460440822310006F0B7F80923DC
:1013E0002A006021380000940AF05CFD11232B7064
:1013F00053464A461B786021137001232A0000934C
:1014000038000AF04FFD01234A466021380000945D
:101410000AF052FD4B46039A1B78012A00D18BE05B
:1014200040229343112200242A706B702A00022369
:101430006021380000940AF035FD34232B705346A8
:101440004A461B786021137001232A00009338005C
:101450000AF028FD01234A466021380000940AF072
:101460002BFD4B467C221B789343049A002A01D023
:101470000C2213433422E1E52A232B7006AB9C4651
:101480001D20002460440822310006F05FF8092383
:101490002A006021380000940AF004FD10232B700C
:1014A00053464A461B786021137001232A0000939B
:1014B00038000AF0F7FC01234A4660213800009406
:1014C0000AF0FAFC4B46039A1B78012A2ED04022E0
:1014D0009343102200242A706B702A00022360219B
:1014E000380000940AF0DEFC2C232B7053464A4649
:1014F0001B786021137001232A00009338000AF042
:10150000D1FC01234A466021380000940AF0D4FC43
:101510004B467C221B789343049A002A01D00C226C
:1015200013432C228AE53F3213436BE63F321343C9
:10153000CFE73F32134358E53F32134372E73F3260
:10154000134317E73F321343B4E6C046F0B5CE4627
:101550004746032380B585B003AC237002AB9946A0
:1015600001254A46174B184E1B78804613700F0012
:10157000012322006021009530000AF093FC002333
:101580004A4600936021013330000AF095FC4B4637
:1015900042461B789540012F11D02B43DBB263707C
:1015A00003220023227060210093220030000233C6
:1015B0000AF078FC05B0C0BCB946B046F0BDAB43FC
:1015C000EDE7C04658CC001048150020F0B5C646DF
:1015D00000B51E4B84B01B7802AD2B701C4B103035
:1015E00098460123C4B203AE320034700F0000935A
:1015F000602140460AF056FC00232A006021009337
:10160000404601330AF058FC2A780323110099431D
:101610000B00022F16D0032F11D0012F01D1012270
:1016200013437370002334703200009360214046EE
:1016300002330AF037FC04B080BCB846F0BD032387
:101640001343EEE702221343EBE7C04658CC0010E9
:101650004815002010B584B0002803D001280DD013
:1016600004B010BD6A460B4B0B4C93816021009077
:101670000223200003AA0AF015FCF1E76A46074B93
:1016800060219381002303AA0093034802330AF0E8
:1016900009FCE5E7B120000048150020B180FFFFFC
:1016A000F0B557464E464546DE46E0B585B09A460B
:1016B0000E9B0090019191460099019A9846052A47
:1016C00074D870D00099019A002A00D088E06C4B41
:1016D000994200D984E04B465246134300D1AFE013
:1016E00000230025674C009322002B0048465146FA
:1016F00004F0F8FF06228346052805D9E123DB0024
:10170000984208D9E122D20000234846514604F00D
:10171000E9FF04000D0022002B004846514604F06A
:10172000E1FF03930292D30E039A51011943029BE6
:101730005801029A039B801A9941C30D9C460600EA
:101740004B02614672020B430298039912184B41F7
:10175000910E8C4616001F00990163463200194312
:101760003B00B001801A9941029A039B80185941AD
:101770002B00220004F0B6FF009B00285BD0012B59
:1017800062D0C6013000404904F06EFF30000F0007
:101790003D4904F069FF3C4A3C495B468C46DB010D
:1017A0006344C0180FE03A4B99428BD90525384C59
:1017B0004B465246134334D1002000270122A30F89
:1017C000AD001D43A40043462900186020005F605F
:1017D0009A6005B0F0BCBB46B246A946A046F0BD33
:1017E000009B019C032C46D841D04B4652461343E4
:1017F0001AD1009A019B1421264804F073FF0600B9
:101800000B00072822D000980199320005F050FD06
:101810001E4B0D009C460400F0016044002701228D
:10182000D1E7012300935FE7009A019B1D0000238D
:101830001400009358E700270122012BACD1C2E726
:1018400014251548134CE9E70020E7E70029DAD111
:101850000098019902000B0012184B4112184B41DD
:10186000802092185B41400014001D00D6E70B4B0E
:10187000009A9A42B9D9009A019B14001D0097E77B
:101880007FF0FA0280F0FA0240420F0000FEFFFFF4
:1018900000C11A3D00046BF400820300FFD5117EE5
:1018A000F0B557464E464546DE46E0B50F00060009
:1018B000150001225242D31792197B418FB01100BB
:1018C000052D00D9F4E0002B39D1CD4B994236D803
:1018D000CC4BEA009B180022CB4908A806C3CB4B8F
:1018E0000E0005935B5D17008346002B00D1ABE330
:1018F000720EFB011A4317000724F601C44B5B5D0F
:10190000002B00D0ACE2C34B59461A685B6830002C
:1019100000913900FFF7C4FE0023029300935B4659
:1019200001945A68280008999B68FFF701FB002082
:101930000FB0F0BCBB46B246A946A046F0BD052F8D
:1019400001D800F01EFF0527B34EAE4C6368022B92
:1019500000D8A9E1002D01D100F036FCAC4B9A462D
:101960005A5D1B789A4200D1B4E1E368022B00D99A
:10197000A7E1022B04D1A94BA2689A4200D9A0E1A9
:101980006369022B00D9AFE104D1A44B22699A42CA
:1019900000D9A9E1E369022B04D80CD19F4BA269BD
:1019A0009A4208D9032D00D138E353465A5DDB78BB
:1019B0009A4200D18EE1636A022B04D80CD1974B76
:1019C000226A9A4208D9042D00D131E353465A5D68
:1019D0001B799A4200D17DE1E36A022B00D98EE1A6
:1019E00004D18E4BA26A9A4200D988E1874B98466F
:1019F0005B5D994608AB9B464B46002B00D1F6E158
:101A0000EB00E3181E605F60032F00D9E6E100D110
:101A1000E0E13B0032001421814804F063FE80467F
:101A20000B00072800D0AAE2002900D0A7E23B0063
:101A3000320092197B4192197B4192185B418027B9
:101A40009946100005927F005A460023089753607C
:101A500001339360534649465A5DFEF77FFD534676
:101A60005A5D002398462B002500444698462E6870
:101A70006F6833003B4304D053461B5D934200D153
:101A800048E101340835062CF1D1002A00D1DBE110
:101A9000012A00D04BE76A46624B60219385002300
:101AA000614800930BAA02330AF0FCF900203FE7DB
:101AB000002B00D0D0E05D4B994200D9CCE000244F
:101AC000514B27001E004F4C062D00D1CEE0236B5A
:101AD000626B134300D1C5E1554B1A685B689146B0
:101AE000984632003B004846414604F0FBFD0100A9
:101AF0001A430120002A00D01AE7C90700D517E7CA
:101B000030003900EB00E318186059600123494A9E
:101B10005B42801859410A1E01D100F094FC012358
:101B200030003900444A5B42801859410A1E00D1F6
:101B300026E3012330003900404A5B4280185941B6
:101B40000A1E01D100F0D9FC0123300039003C4AC3
:101B50005B42801859410A1E01D100F030FD01237B
:101B600030003900374A5B42801859410A1E01D1C2
:101B700000F097FD012330003900334A5B428018A2
:101B800059410A1E01D100F0BAFD0123300039008D
:101B90002E4A5B42801859410A1E01D000F08FFD89
:101BA0002B4B984201D900F08AFD33003C009B1971
:101BB0007C4127001E0001243200B2463E1E03D1A4
:101BC000244B9A4200D29A4642464B461343524611
:101BD00001D100F0F6FB33004846414604F082FD97
:101BE0001A4301D000F03DFC08A9831F8B46F82B57
:101BF00000D991E6C0B208904A608A608CE6C0467F
:101C00007E1A0600B81A0020801A0600B0260020AE
:101C1000842B0020881C002000C11A3D00E40B54D6
:101C200000046BF4B180FFFF4815002096281C00CB
:101C3000901C002068D7E3FFD0AEC7FFA05D8FFFE8
:101C400040BB1EFF80763DFE00ED7AFC00DAF5F821
:101C5000FF250A0780F0FA02032F3DD90324CE4B5B
:101C600027001E00CD4C062D00D030E7A36BE26BA1
:101C7000134300D10EE3CA4B1A685B68914698463D
:101C800032003B004846414604F02CFD01001A4357
:101C90000120002A00D04BE6C90700D548E63000F5
:101CA00039002063616331E7022B04D1BD4B226808
:101CB0009A4200D94EE6BC4B9A46E368022B00D804
:101CC00057E6012D00D1A1E253465A5D5B789A4256
:101CD00000D055E601202BE6032F00D0F3E6AE4BF3
:101CE000B34200D3EFE6B9E7022D00D18CE15346B1
:101CF0005A5D9B789A4200D04CE6012018E6052DEB
:101D000000D173E653465A795B5D9A4200D06DE686
:101D100001200DE60123A54A5B4292197B41110087
:101D2000002B00D13EE20123A14A5B4292197B4184
:101D30001100002B00D165E301239E4A5B429219FA
:101D40007B411100002B00D1F1E101239A4A5B4253
:101D500092197B411100002B00D1A4E30123974A83
:101D60005B4292197B411100002B01D100F0DFFB97
:101D70000123934A5B4292197B411100002B01D150
:101D800000F062FC01238F4A5B4292197B411100F3
:101D9000002B01D000F0EAFB8B4B994201D900F0F7
:101DA000E5FB300039000BAB059A009380197941AF
:101DB0009B464B46FFF774FC0122002302930093DD
:101DC0005B4601920ECBE0B2FFF7B2F853464246B3
:101DD0009A5C56E6704B9E4200D81AE6B30FBA00E2
:101DE0001A43B30091460027180005932CE604A976
:101DF00003330B775946754B75481B780BAA0B704C
:101E00000121012300915F3105900AF04BF84B4608
:101E10005A4660210093059801230AF04DF80322E9
:101E200004A95B460A77023AAA401B7805989343B7
:101E30004B774B46602100930BAA02230AF032F83D
:101E4000434601215955DBE56946624B60488B8565
:101E50000092022360210BAA0AF024F8002067E513
:101E60004F4B51E5EB00E4180123300039005A4A8A
:101E70005B4220606160801859410A1E00D173E105
:101E8000012330003900554A5B42801859410A1E2F
:101E900000D126E3012330003900514A5B4280180B
:101EA00059410A1E00D177E30123300039004D4A21
:101EB0005B42801859410A1E01D100F0E5FB012365
:101EC00030003900484A5B42801859410A1E01D14E
:101ED00000F004FC012330003900444A5B428018C2
:101EE00059410A1E01D100F024FC012330003900C1
:101EF0003F4A5B42801859410A1E01D000F0FCFBAA
:101F00003C4B984201D900F0F7FB33003C009B1991
:101F10007C4127001E000124B846002F03D1364B18
:101F20009E4200D21E00434632001421334804F082
:101F3000D9FB0123471C9F43FE2F00D9FE27320007
:101F400043463800002105F0B3F9142904D800D025
:101F500025E22B4B984206D9023F32004346380017
:101F6000002105F0A5F908AB9B4600235A460897C7
:101F7000536093600C4B5A5DFEF7F0FACCE43900E5
:101F80004246300005F094F94346DF011D4B894677
:101F90009C460590674457E5FFD5117EB81A00208E
:101FA000901C002000E40B54842B002080E5F9FFF6
:101FB00000CBF3FF0096E7FF002CCFFF00589EFFF9
:101FC00000B03CFF006079FEFF9F860158CC0010F6
:101FD00048150020B120000068D7E3FFD0AEC7FF4E
:101FE000A05D8FFF40BB1EFF80763DFE00ED7AFCBA
:101FF00000DAF5F8FF250A0780F0FA02002375EEF3
:1020000000046BF400FEFFFFE369022B00D9CCE46F
:1020100004D1914BA2699A4200D9C6E4636A022BAB
:1020200000D9D3E404D18C4B226A9A4200D9CDE482
:10203000E36A022B00D965E600D0D7E4864BA26A9A
:102040009A4200D95EE6D1E4002300240693079467
:1020500003240BAB98461C7008AB9B465A467F4B3B
:102060007F481B78602113700123424600939A46F3
:10207000814609F017FF00235A4660210093484625
:10208000013309F019FF5A4613784246147052463C
:10209000AA40934342465370002360210093484670
:1020A000023309F0FFFE5346059A5355079B002B58
:1020B00072D001236B4A5B4292197B411100002BC5
:1020C00000D1B1E10123684A5B4292197B411100C2
:1020D000002B3ED00123654A5B4292197B411100DF
:1020E000002B00D1F1E10123614A5B4292197B414F
:1020F0001100002B00D12DE201235E4A5B429219B0
:102100007B411100002B00D1B2E201235A4A5B420D
:1021100092197B411100002B00D049E2574B9942A4
:1021200000D945E2B6197F410124FFF7E7FB544B84
:10213000994200D909E6F30E790119430BAB059AD0
:1021400000939B4670014B46FFF7AAFA0522002335
:1021500034E64B4B9942BDD8F20E7B011A4317006F
:1021600005247601FFF7CAFB464B984200D987E663
:10217000720EFB01F1011A430E0017000724CBE693
:10218000414B984200D9D4E4B20EBB01B1011A43CD
:102190000E00170006240FE53C4B069A9A4288D899
:1021A000FFF7A6FB394B994200D9BCE5730EF90144
:1021B00019430BAB059A00939B46F0014B46FFF782
:1021C0006FFA07220023F9E5E368022B00D937E113
:1021D00004D1214BA2689A4200D931E16369022BF4
:1021E00000D95CE104D11C4B22699A4200D956E126
:1021F000E369022B00D9DEE104D1174BA2699A42B0
:1022000000D9D8E1224B9A46FFF7D5FB6369022B30
:1022100000D96CE504D1104B22699A4200D966E5D9
:10222000E369022B01D9FFF7C0FB05D10A4BA26974
:102230009A4201D9FFF7B9FB636A022B01D9FFF774
:10224000C5FB01D0FFF7C8FB034B226A9A4201D9B4
:10225000FFF7BCFBFFF7C0FB00E40B5458CC0010A9
:102260004815002000CBF3FF0096E7FF002CCFFFBE
:1022700000589EFF00B03CFF006079FEFF9F860182
:10228000FF69180097281C002F5138007F1A06009C
:10229000842B0020012330003900D04A5B422063A8
:1022A0006163801859410A1E00D134E101233000D6
:1022B0003900CB4A5B42801859410A1E00D1B7E170
:1022C000012330003900C74A5B42801859410A1E79
:1022D00000D1F7E1012330003900C34A5B42801886
:1022E00059410A1E00D118E2012330003900BF4ACB
:1022F0005B42801859410A1E00D128E201233000B8
:102300003900BB4A5B42801859410A1E00D12CE2B9
:10231000012330003900B74A5B42801859410A1E38
:1023200000D020E2B44B984200D91CE233003C00BC
:102330009B197C4127001E000124B846002F03D1C1
:10234000AE4B9E4200D21E00434632001421AC48E0
:1023500004F0C8F90123471C9F43FE2F00D9FE2734
:10236000320043463800002104F0A2FF142903D8AC
:102370007BD1A44B984206D9023F32004346380035
:10238000002104F095FF08AB9B4600235A460897AE
:10239000536093600122FEF7E1F8FFF7BDFA0D29C3
:1023A00000D9E0E503D1984B984200D9DBE502372C
:1023B000434638003200002104F07AFFFF231F401B
:1023C000D1E5330014218E4804F08CF90123471C19
:1023D0009F43FE2F00D9FE275246330038000021CC
:1023E00004F066FF142903D84FD1864B984200D9D8
:1023F000023F08AB9B4600235A4608975360936000
:10240000FFF78AFA814B994200D995E4B30EB901DE
:1024100019430BAB059A00939B46B0014B46FFF75F
:102420003FF906220023C9E4784B994200D949E6D6
:10243000B20EBB011A4317000624B601FFF75EFA7D
:10244000734B9A4640E4734B984201D9FFF767FB00
:10245000720EFB01F1011A430E0017000724FFF76B
:10246000ABFB08AB9B46FFF757FA0D298BD802D17F
:10247000654B984287D80237434638003200002126
:1024800004F016FFFF231F407DE70D29B1D802D1CC
:102490005D4B9842ADD8FF2302371F40A9E75C4B44
:1024A0009A46FFF724FC5C4B994200D956E4330F5F
:1024B000390119430BAB059A00939B4630014B46FB
:1024C000FFF7EEF80422002378E4534B994200D939
:1024D00009E6320F3B011A43170004243601FFF7C7
:1024E0000DFA4E4B984200D9D4E4B20EBB01B101B3
:1024F0001A430E00170006240EE5494B984201D9F5
:10250000FFF722FBF20E7B0171011A430E00170048
:102510000524FFF751FB3F4B984200D9C6E6720EE7
:10252000FB01F1011A430E001700072405E73D4B9C
:10253000994201D9FFF71CFC730FF90019430BAB4B
:10254000059A00939B46F0004B46FFF7A9F803223B
:10255000002333E4334B994200D9CDE5720FFB00E1
:102560001A4317000324F600FFF7C8F90BAB0093DA
:102570009B4630004B463900059AFFF791F801233E
:10258000032F01D804D000230022DBB2FFF716FC92
:10259000254A9642F8D8F6E7214B984200D983E4C1
:1025A000F20E7B0171011A430E0017000524B3E4FB
:1025B0000024FFF7A3F9164B9A46FFF7F6F91B4BD9
:1025C000984201D9FFF7CBFA320F3B0131011A4390
:1025D0000E0017000424FFF7EFFAC04668D7E3FFA8
:1025E000D0AEC7FFA05D8FFF40BB1EFF80763DFED3
:1025F00000ED7AFC00DAF5F8FF250A0780F0FA0210
:10260000002375EE00046BF4FF5747F8FF340C000D
:10261000842B002097281C00FFD330002F51380056
:102620005FA27000FFA76100FFD5117EBF44E100EB
:10263000674B984200D943E6B20EBB01B1011A4381
:102640000E001700062478E6624B994201D9FFF785
:1026500099FBB30FB90019430BAB059A00939B4646
:10266000B0004B46FFF71CF802220023FFF7A6FB41
:10267000584B994200D948E5B20FBB001A431700E6
:102680000224B600FFF73AF9534B984201D9FFF7FD
:1026900016FC320F3B0131011A430E0017000424CF
:1026A0003AE44E4B984201D9FFF764FA720FFB00EF
:1026B000F1001A430E0017000324FFF77DFA0024EF
:1026C000FFF77AFA464B984200D903E6F20E7B01F7
:1026D00071011A430E00170005242EE63F4B984265
:1026E00001D9FFF7F7FB720FFB00F1001A430E0050
:1026F00017000324FFF710FC0024FFF70DFC394BF3
:10270000984201D9FFF741FAB20FBB00B1001A435A
:102710000E0017000224FFF74FFA2F4B984200D902
:10272000E2E5320F3B0131011A430E001700042489
:1027300003E62C4B984201D9FFF7D7FBB20FBB0041
:10274000B1001A430E0017000224FFF7E5FB234BEC
:10275000984200D9D2E5720FFB00F1001A430E0037
:1027600017000324E9E50024E7E51E4B984200D951
:10277000CEE5B20FBB00B1001A430E0017000224D1
:10278000DBE5052F04D1184B9E4201D9FFF7DBF89A
:10279000022F01D9FFF7D9F814D00123134A5B4265
:1027A00092197B4106920793114BEA009B181E6019
:1027B0005F60104B08AA05935B5D9346002B00D029
:1027C00074E445E40C4B9E42E7D9FFF7BEF8C046DF
:1027D0002F513800FF4FC300BF44E1007F89C20181
:1027E0005FA27000FF12850300C11A3D80E5F9FF6A
:1027F000B81A0020B026002000E40B54F0B506689B
:10280000476801253F4C6D42A4197D41002D34D00D
:1028100001253D4C6D42A4197D41002D38D0012584
:102820003A4C6D42A4197D41002D47D00125384C0A
:102830006D42A4197D41002D35D00125354C6D42E6
:10284000A4197D41002D46D00125334C6D42A419B9
:102850007D41002D4AD00125304C6D42A4197D41A7
:10286000002D36D12E498C4233D832003B009219CC
:102870007B4102604360012009E02A498C42C7D8AD
:10288000710EFB010B43F201436002600720F0BDB3
:1028900025498C42C3D8B10EBB010B43B201436042
:1028A00002600620F3E721498C42C6D8310F3B0174
:1028B0000B433201436002600420E8E71C498C426C
:1028C000B4D8F10E7B010B43720143600260052016
:1028D000DDE70020DBE717498C42B5D8710FFB001C
:1028E0000B43F200436002600320D0E712498C42A0
:1028F000B1D8B10FBB000B43B200436002600220AD
:10290000C5E7C04680E5F9FF00CBF3FF0096E7FF7F
:10291000002CCFFF00589EFF00B03CFF006079FE06
:10292000FF9F86017F1A0600FF340C00FFD33000A2
:10293000FF691800FFA76100FF4FC300F0B5160044
:102940001F0004000D0002000B00A41BBD419219E2
:102950007B41122189B0069407952448244C254ECA
:102960000492059300222060616030607160FDF781
:10297000F5FD04A8FFF742FF1F4D287006A8FFF7DA
:102980003DFF1E4B1870226863681D4C0498059922
:102990000094FEF785FE3268736806980799194E11
:1029A00000960026FEF77CFE02962B780096019397
:1029B000A368216862680020FEF7BAFA0020FEF7DB
:1029C00049FE02962B78009601930ECC0020FEF76C
:1029D000AFFAD02380221B0612029A618022D20114
:1029E0005A61802252005A6109B0F0BD00205FA0F8
:1029F00020100020801C0020E92B0020EA2B002062
:102A0000482B0020542B002000B585B0002815D19C
:102A1000164A02901278164B019200900ECBFEF7E8
:102A200087FAD02380221B0612025A618022D2012B
:102A30009A61802252009A6105B000BD00220D49C2
:102A4000029209780C4B019100920ECB0020FEF708
:102A50006FFAD02380221B0612029A618022D201D3
:102A60005A61802252005A61E6E7C046EA2B0020F4
:102A7000542B0020E92B0020482B002010B5002803
:102A800003D10021FEF762FD10BD01210020FEF7F9
:102A90005DFDF9E7010010B50020032900D910BD44
:102AA000024B1970FEF792FD0120F8E7E02B0020A1
:102AB000F8B5DE4657464E464546E0B52A4E070075
:102AC000335C9B06DB0F9846284B9B461B684345AF
:102AD00001D1002946D00020FFF796FF8023434410
:102AE0009A46012300249946214D0021288803F0AD
:102AF00029FA5346F05C4B46204101341840FFF759
:102B000083FF052CF1D10021288803F01BFA012056
:102B1000FFF77AFF5B4642461A60164B0021188881
:102B200003F010FA0020FFF76FFF012300249846FE
:102B30000021288803F006FAF05D43462041013465
:102B40001840FFF761FF052CF2D12888002103F01F
:102B5000F9F90120FFF758FFF0BCBB46B246A94681
:102B6000A046F8BD024DDDE7281000203C2B0020D8
:102B70000C1000200A100020124B10B5188804F029
:102B8000D5FB011C104804F0B6FB104904F0ADFB66
:102B900004F0F4FB0E4A0F4B944680B21880604458
:102BA0000D4B400018800D490D4B086849681A68A4
:102BB0005B68FFF7C3FE0120FFF726FF0120FFF748
:102BC0005DFF10BD0E100020002474490000524427
:102BD000B8FCFFFF0C1000200A1000201810002085
:102BE00010100020114B10B5188804F09FFB011C39
:102BF0000F4804F080FB0F4904F077FB04F0BEFBA4
:102C00000D4A0E4B944680B218800D4B6044400034
:102C100018800C490C4B086849681A685B68FFF714
:102C20008DFE0120FFF7F0FE10BDC0460E10002003
:102C30000024744900005244B8FCFFFF0C1000202F
:102C40000A10002018100020101000200B4B10B5A7
:102C5000188004F06BFB011C094804F04CFB094987
:102C600004F043FB04F08AFB074A084B944680B209
:102C70001880074B60444000188010BD0E100020E3
:102C80000024744900005244B8FCFFFF0C100020DF
:102C90000A10002010B5054B002218685968FEF78D
:102CA000FFFD0020FFF7EAFE10BDC046181000200F
:102CB0000F4B10B5186859680022FEF7F1FD0D4B57
:102CC0000D4C187804F032FB0C4904F014FB0C494D
:102CD00004F025FB011CFE20800504F00CFB0949D3
:102CE00004F01DFB04F050FB2060616010BDC04685
:102CF0001810002008100020001000200000704272
:102D000000004842002474490C4B10B5187004F0C0
:102D10000DFB0B4904F0EFFA0A4904F000FB011C1B
:102D2000FE20800504F0E7FA074904F0F8FA04F001
:102D30002BFB064C2060616010BDC04608100020CF
:102D40000000704200004842002474490010002036
:102D5000F8B50300DE4657464E464546613BE0B5B2
:102D6000192B55D84038C3B22D4A9B009A5892016E
:102D700091462C4A9D58063527D401239846802336
:102D8000D026DB019A46284F36064B462C00EB40F6
:102D9000203CE4171C40434623409B461800FFF7A5
:102DA0006DFE5B46002B19D05346736180231B02D6
:102DB000736180235B0073614346386879681C4205
:102DC00019D103F0BFF8013DDFD20020FFF756FE16
:102DD000F0BCBB46B246A946A046F8BD5346B36117
:102DE00080231B02B36180235B00B36143463868D4
:102DF00079681C42E5D0CB0740081843490803F026
:102E0000A1F83868796803F09DF8013DBDD2DCE790
:102E10002038C0B21F233B28A6D80300A4E7C04631
:102E200098110020AC1000200010002010B506F012
:102E30001FFD002809D1012003F0B8F803F078F84D
:102E4000002902D1064B9842F1D9064806F07AFAD9
:102E5000054806F0F3F9054806F074FA10BDC046BF
:102E6000404B4C00B8CC0010C0CC0010D8CC0010A7
:102E7000F0B5DE4657464E464546E0B5D5488DB0DE
:102E80000378682B5ED14378652B00D014E18378FA
:102E90006C2B00D010E1C378702B00D00CE1CE4831
:102EA00006F050FACD4806F0C9F9CD4806F0C6F94B
:102EB000CC4806F0C3F9CC4806F0C0F9CB4806F080
:102EC000BDF9CB4806F0BAF9CA4806F0B7F9CA4CC2
:102ED000200006F0B3F9200006F0B0F9C74806F06C
:102EE000ADF9C74806F0AAF9C64806F0A7F9C648E2
:102EF00006F0A4F9C54806F0A1F9C54806F09EF908
:102F0000C44806F09BF9C44806F098F9C34806F097
:102F100095F9C34806F092F9C24806F08FF9C24805
:102F200006F08CF9C14806F089F9C14806F086F927
:102F3000C04806F007FA0DB0F0BCBB46B246A94641
:102F4000A046F0BD632B00D002E143786F2B0ED179
:102F500083786E2B0BD1C378662B08D10379692B4C
:102F600005D14379672B02D1FDF7B6F9E3E7437842
:102F7000662B54D18378722B01D000F02AFEC378DF
:102F8000652B01D000F025FE0379712B01D000F0F4
:102F900020FE4379202B01D000F01BFE063008F004
:102FA0009BFFC317C018584001210200C317A24855
:102FB000494280185941040000290BD09F4806F06F
:102FC000C1F99F4A9F49A04806F0BCF9994806F00C
:102FD000B9F9B0E79D498C42F0D89D4C9D482260DC
:102FE000636006F0AFF9226863689B4806F0AAF9AF
:102FF000904806F0A7F9994B1B78022B0CD0032BB5
:1030000007D0012B01D1FFF753FEFF2001F032F969
:1030100091E702F029F8F8E7FFF7E4FDF5E7772BF1
:1030200001D000F0D6FD8378732B01D000F0D1FDE4
:10303000C378702B01D000F0CCFD0379652B01D053
:1030400000F0C7FD4379652B01D000F0C2FD837904
:10305000642B01D000F0BDFDC379202B01D000F01E
:10306000B8FD083008F038FFC317C01858400200F8
:1030700001246442E517C31712196B41002B11D1CB
:10308000622A0FD8764CC0B22070FFF73DFE71481F
:1030900006F058F92178734806F054F9654806F0AF
:1030A00051F9B2E7654806F04DF96F4806F0C6F8E9
:1030B000604806F047F93EE74378652B01D000F001
:1030C00088FD83786C2B01D000F083FDC3786C2BD6
:1030D00001D000F07EFD0379732B01D000F079FD63
:1030E0004379702B01D000F074FD8379652B01D0FA
:1030F00000F06FFDC379652B01D000F06AFD037A03
:10310000642B01D000F065FD437A202B01D000F044
:1031100060FD564808F0DAFE9422C317C0185840E4
:1031200080B2431F9BB25200934201D300F05CFD7A
:1031300001F0B6FF474806F005F94D4B4D481978A8
:1031400006F000F94C4B19884C4806F0FBF84FE7A5
:10315000622B00D09CE04378612B01D000F039FD58
:103160008378752B01D000F034FDC378642B01D037
:1031700000F02FFD0379202B01D000F02AFD05304F
:1031800008F0A4FE9422C317C018584080B2431F11
:103190009BB25200934210D2FFF758FD2D4806F023
:1031A000D1F8374B3748198806F0CCF8364B1988D8
:1031B000D2239B009C466144C6E7204806F0C2F833
:1031C000324896220521520006F0BCF8194806F054
:1031D000B9F8B0E6E0260020E0CC0010E8CC001002
:1031E000FCCC001030CD001044CD001064CD001098
:1031F0009CCD0010F4CD001048CE001058CE001029
:103200006CCE00107CCE001098CE0010BCCE00100A
:10321000F0CE001030CF001060CF00109CCF001017
:10322000CCCF0010F4CF001038D0001054D00010D4
:1032300090D00010D8CC0010F0D8FFFF08D10010BB
:1032400000C2EB0B102700005CD10010F09AEB0BD2
:1032500018100020D0D0001038D10010E22B002030
:1032600008100020C4D10010DCD10010EA26002094
:10327000801400209CD5001082140020F4D000108F
:103280000E100020D8D000100C10002010D100101B
:10329000732B32D14378662B00D0A7E08378722B52
:1032A00000D0A3E0C378652B00D09FE00379712B99
:1032B00000D09BE04379202B00D097E0063008F047
:1032C0000BFEC317C01858400200C3170520404228
:1032D000C11780185941040000296ED1C3498C429E
:1032E0006BD8C34CC3482260636006F02BF8226899
:1032F0006368C14806F026F87AE6742B00D0A5E191
:103300004378782B1ED18378652B1BD1C3786E2B25
:1033100018D10379202B15D1053008F0D7FDC2173D
:1033200083185340DBB2002B53D10020FFF7A6FBDC
:10333000B24806F007F8B24805F080FFB14806F041
:1033400001F8F8E54378782B00D0DBE083786D2B2B
:1033500000D0D7E0C3786F2B00D0D3E00379642B83
:1033600000D0CFE04379652B00D0CBE08379202BD0
:1033700000D0C7E0073008F0A9FDC21783185340FA
:10338000DBB2032B56D8A04D2B70022B00D12AE1C3
:10339000032B00D124E1012B01D1FFF77BFCFF209F
:1033A00000F068FF934805F0CDFF2978974805F0B5
:1033B000C9FF944805F0C6FFBDE5954805F0C2FF7A
:1033C0000521944A944805F0BDFF8E4805F0BAFFE8
:1033D000B1E50120FFF752FB884805F0B3FF8F48A5
:1033E00005F02CFF874805F0ADFFA4E54378612B7D
:1033F0002AD18378762B27D1C378652B24D1037902
:10340000702B21D14379202B1ED1063008F05EFDB0
:10341000C317C0185840C0B200F02CFF002867D076
:10342000744805F08FFF7E4805F008FF754805F0E9
:1034300089FF80E5764805F085FF7A4805F0FEFEB5
:10344000704805F07FFF76E54378652B00D0C0E338
:103450008378742B00D0BCE3C378742B00D0B8E31E
:103460000379652B00D0B4E34379782B00D0B0E327
:103470008379742B00D0ACE3002005F049FE6A4C40
:1034800004AE207020220021300004F059F80025FD
:10349000002005F03DFE42B22270931CF8D0082AAD
:1034A0001DD0032A00D10CE30A2A00D126E20D2AFE
:1034B00000D123E21F2D0ED80300203BDBB25E2B90
:1034C00009D8100005F070FE237873550135EDB270
:1034D00000232370DCE7012002F068FDF8E7002DEF
:1034E000F9D00821013D5148EDB205F02BFFEFE77F
:1034F000474805F027FF4E4805F0A0FE414805F07B
:1035000021FF18E54378782B00D018E28378742BDC
:1035100000D014E2C378652B00D010E20379782B39
:1035200000D00CE24379742B00D008E2364D2B78A2
:10353000002B00D1CFE100242E4F380005F002FF10
:103540003C4805F0FFFE3C4805F0FCFE3B4E3C4A83
:1035500033789046A34207D04346185D05F024FE19
:1035600033780134A342F7DC380005F0EBFE354830
:1035700005F064FE344805F0E5FE3378002B00D1F9
:10358000E1E32F4F387805F00FFE2B78022B00D1A6
:10359000B0E30022244C90461CE0012B02D1387885
:1035A000FFF7D6FB002005F0B3FD40B220700328E2
:1035B00000D1B8E3434601331A0098463378013707
:1035C000934200DCBFE3387805F0EEFD2B78022B48
:1035D00000D19DE3032BE0D1387801F077FDE1E7DE
:1035E00001F022FDDBE6FFF7C7FAD8E60B27000063
:1035F00010100020D0D0001080D10010B8CC0010E6
:1036000000D20010D8CC0010E22B002038D20010DD
:1036100008D1001010270000A0D100100CD200101B
:1036200080D2001048D20010DD2B0020D0D4001032
:1036300090D2001048D5001030D30010D80F0020D1
:10364000DC0F002060D500107CD500106D2B00D061
:10365000B9E04378612B26D183786E2B23D1C378D0
:10366000722B20D10379742B1DD14379742B1AD17D
:103670008379792B17D1C379742B14D1037A782BE2
:1036800011D1CD4C200005F05DFECC4B1B78022BF8
:1036900027D0CB4805F056FECA4805F0CFFD2000E4
:1036A00005F050FE47E44378612B00D0CEE08378EC
:1036B0006E2B00D0CAE0C378632B00D0C6E003793C
:1036C000772B00D0C2E04379742B00D0BEE0837921
:1036D000782B00D0BAE0B94B1B78012B4FD0B64CF9
:1036E000D7E701212020FFF7E3F9D02380221B0632
:1036F0009201B54EB54F5A61002005F009FD45B263
:103700000400AB1C37D00A2D1CD00D2D1AD0280078
:1037100005F04AFD0021E0B2FFF7CAF93188AC4854
:1037200002F07AFFC11702F00DFC032DE4D1D02383
:1037300080221B06920103219A61A64805F002FE31
:10374000FFF7F9FB0A2005F02FFD00210A20FFF703
:10375000AFF93B8800219800C01802F0F3FB00216C
:103760000D20FFF7A5F93188994802F055FFC117E0
:1037700002F0E8FBC0E7012002F018FCBCE72020C3
:10378000FFF7E6FAD02380221B0692015A6100203F
:1037900005F0BEFC45B20400AB1C10D00A2D0AD0C7
:1037A0000D2D08D0280005F0FFFCE0B2FFF7D0FA9D
:1037B000032DECD1BBE70A2005F0F6FCE7E701207A
:1037C00002F0F4FBE3E7732B00D10FE66C2B00D083
:1037D00010E243786F2B00D0FBE18378612B00D09F
:1037E000F7E1C378642B00D0F3E10379702B00D0AC
:1037F000EFE14379202B00D0EBE1063008F066FBC7
:10380000C317C0185840C0B200F006FF00280AD005
:10381000714805F097FD714805F010FD664805F008
:1038200091FDFFF788FB664805F08CFD6C4805F0BC
:1038300005FD614805F086FDFFF77DFB742B00D187
:1038400060E6682B00D137E46D2B75D14378612B8E
:1038500000D0BEE183786E2B00D0BAE1C378682B2C
:1038600000D0B6E10379652B00D0B2E143796C2B2F
:1038700000D0AEE183796C2B00D0AAE1C379742B20
:1038800000D0A6E1037A782B00D0A2E14B4B4A4C42
:103890001B78032B00D0FCE6202001F017FCD0237E
:1038A00080221B0692015A61002005F031FC44B2CF
:1038B0000500A31C00D119E20A2C00D112E20D2C44
:1038C00000D10FE2200005F06FFCE8B201F0FEFB32
:1038D000032CE9D12BE7D0240425394805F032FD2B
:1038E000404805F0ABFC2406334805F02BFD64206E
:1038F000656102F05BFBA561FFF71DFB002D04D0A5
:103900002A003100384803F021FE384BFF201D709B
:103910000023237000F0AEFC2F4805F013FD34485F
:1039200005F08CFC244805F00DFD002005F0F0FBAF
:103930000230FAD1FFF7FFFA742B00D049E1437847
:10394000782B00D045E18378622B00D041E1C37829
:10395000652B00D03DE10379612B00D039E143793B
:10396000632B00D035E183796F2B00D031E1C3792F
:103970006E2B00D02DE1114D2B78002BABD01D48C4
:1039800008F0A4FAC317C2185A401B4B90469A4637
:103990001A000123104F1370380005F0D3FC1748AC
:1039A00005F0D0FC164B00241800994605F0CAFC1F
:1039B0000D4B0E4E9B462AE0D8CC0010E22B002087
:1039C00008D1001018D200100E1000200A1000209C
:1039D00040420F0084CC0010D0D00010CCD2001098
:1039E000DCD200100CD50010DC0F0020D80F002016
:1039F000F0D40010E8260020DB2B0020FCD50010BE
:103A000030D300105B46185D05F0CEFB01343378EF
:103A1000A342F7DC380005F095FCD34805F092FC92
:103A2000484605F08FFC4346DCB22100CF4805F044
:103A300089FC380005F086FCCD4805F0FFFBCD4839
:103A400005F080FC6300CC4CB046A1462E009B469E
:103A5000CA4B0293CA4B039353461B78002B00D1E9
:103A60009EE0C64B0093C64B019343461B78002B48
:103A700065D0C44C207805F097FB3378022B35D005
:103A80000027039D17E0012B02D12078FFF760F992
:103A9000002005F03DFB40B2287003283ED043468D
:103AA0001B7801370134BB4249DD207805F07CFBEF
:103AB0003378022B27D0032BE5D1207801F006FBC9
:103AC000E6E7B14805F03EFCB04805F03BFCAA48EB
:103AD00005F038FC0023AE48237005F033FC0020CD
:103AE00005F016FB0230FAD1FFF725FA0121207804
:103AF000FEF7DEFF009B002118880027400002F03F
:103B000021FA019DC4E720780021FEF7D1FF029B36
:103B100000211888400002F015FAB9E79D4805F029
:103B200011FC9D4805F00EFC484605F00BFC0020FA
:103B300005F0EEFA0230FAD10023524613700A2043
:103B400005F032FB3378022B33D05B46002B22D0BA
:103B500000248B4D06E0FA200134400002F026FAE2
:103B60005C4518D0002005F0D3FA40B22870032835
:103B7000F1D1884805F0E6FB874805F0E3FB4846AD
:103B800005F0E0FB002005F0C3FA0230FAD1002373
:103B90005246137060E753461B78002B00D064E751
:103BA0004C460A2005F000FB200005F0CBFBFFF798
:103BB000C2F900210A20FEF77BFF0520774B002188
:103BC0001B88584302F0BEF900210D20FEF770FF5C
:103BD000BBE76D4805F0B6FB714805F02FFB664862
:103BE00005F0B0FBFFF7A7F9674805F0ABFB6D48A0
:103BF000FFF7E7FA642B00D020E64378722B32D12E
:103C00008378692BE5D1C378762BE2D10379652BD4
:103C1000DFD14379732BDCD18379202BD9D10730C5
:103C200008F054F9C317C4185C40E5B2032D4ED810
:103C30005D4805F087FB2800FEF72CFF5B4805F088
:103C400081FB5B4805F07EFBFF232340022B00D164
:103C5000E6E000DDDDE0002B00D1D5E0554805F0C1
:103C6000EDFAFFF71BFA652BB3D18378662BB0D141
:103C7000C378612BADD10379752BAAD143796C2B15
:103C8000A7D18379742BA4D1424D280005F05AFBAB
:103C9000494805F0D3FA494805F0D0FA484805F0FC
:103CA000CDFA484805F0CAFA002005F031FA344C44
:103CB000454E2070002005F02BFA40B203004E3B29
:103CC000DBB220702B2BF5D89B00F3589F462E4873
:103CD00005F038FB3D4805F0B1FA274805F032FB06
:103CE000FFF729F90A2005F05FFADDE5012002F06F
:103CF0005DF9D9E501213878FEF7DAFE1F4B002186
:103D00001888400002F01EF900231D4C984649E433
:103D100038780021FEF7CCFE184B002118884000AF
:103D200002F010F93EE41B4805F00CFB284805F0B2
:103D300009FB114C200005F005FB002005F0E8F917
:103D40000230FAD12DE70C4C2BE70F4805F0FAFAB8
:103D5000204805F073FA01F063F9134805F0F2FA10
:103D60001D4805F06BFA3AE710D6001018D600107F
:103D70001CD600107CD50010D8CC00100C100020F0
:103D8000DD2B0020DC0F002008D10010D8D400105B
:103D9000B4CC0010B8CC001044D600100A1000209B
:103DA00058D60010B8D50010D0D0001018D300108D
:103DB00030D3001040D30010A8D30010E0D300107F
:103DC00008D4001040D4001090D800106CD300101C
:103DD00084D5001068D400108CD40010174805F06A
:103DE000B1FA174805F02AFA00F01AFF154805F055
:103DF000A9FA154805F022FAF1E6280005F0A2FA22
:103E0000124805F01BFAEAE6114805F017FAFFF729
:103E100045F9032B09D10F4805F010FAFFF73EF9D9
:103E20000D4805F00BFAFFF739F9044805F08AFA56
:103E30000A4805F003FAFFF731F9C04608D100102F
:103E400068D40010D0D00010A4D40010BCD400104E
:103E500038D30010A0D3001048D3001050D3001066
:103E600070B5002005F054F9224C42B22270931C28
:103E700020D0082A15D00A2A25D00D2A23D01E4D7D
:103E80002B781F2B11D82038C0B25E280DD8100017
:103E900005F08AF92B78194A2178D15401332B7017
:103EA00006E0154A1378002B05D1012002F07EF8B8
:103EB0000023237070BD013B1370082108221048B5
:103EC00005F040FAF4E70A2005F06EF9FEF7D0FF9E
:103ED0000022094B22701A7000210848203203F09A
:103EE0002FFB084805F02EFA002005F011F90230EA
:103EF000FAD1DFE7DD2B0020DF2B0020E0260020B9
:103F0000D0D40010B4CC001010B5082803D8144B3E
:103F100080001B589F46134805F014FA10BD124844
:103F200005F010FAFAE7114805F00CFAF6E7104828
:103F300005F008FAF2E70F4805F004FAEEE70E483C
:103F400005F000FAEAE70D4805F0FCF9E6E70C4851
:103F500005F0F8F9E2E70B4805F0F4F9DEE7C046B2
:103F600040D90010D8CC00107CD5001080D60010AD
:103F700008D10010D0D00010B8CC001030D3001001
:103F800084CB0010E0CC0010F0B5CE46474680B59B
:103F900000270500914685B0414E03AC984643BAD0
:103FA0002380A2700323220050213000009707F0E5
:103FB00079FF052001F0FAFF6B1C5BBA23804B46AA
:103FC0001B0A2200A370502103233000009707F042
:103FD00069FF052001F0EAFFAB1C5BBA23804B466A
:103FE0001B0C2200A370502103233000009707F020
:103FF00059FF052001F0DAFFEB1C5BBA23804B462A
:104000001B0E2200A370502103233000009707F0FD
:1040100049FF052001F0CAFF2B1D5BBA23804346F0
:104020002200A370502103233000009707F03AFFCD
:10403000052001F0BBFF6B1D5BBA238043461B0AC2
:104040002200A370502103233000009707F02AFFBD
:10405000052001F0ABFFAB1D5BBA238043461B0C70
:104060002200A370502103233000009707F01AFFAD
:10407000052001F09BFF434607356DBA1B0EA37068
:1040800022000323502125803000009707F00AFF0B
:10409000052001F08BFF05B0C0BCB946B046F0BDAD
:1040A00048150020F0B5DE4657464E464546E0B579
:1040B000030085B06A4607335BBA0B24002793815F
:1040C000012380466A4E6C449946277003AA0093E8
:1040D00050213000013307F0E5FE2200012350217A
:1040E0003000009707F0E8FE23786A461B029A46E4
:1040F000434606335BBA93814B46277003AA00936D
:1041000050213000013307F0CDFE22000123502161
:104110003000009707F0D0FE534625786A461D43CD
:10412000434605335BBA93814B46277003AA00933D
:1041300050213000013307F0B5FE22000123502149
:104140003000009707F0B8FE23782D021D43434648
:104150006A4604335BBA93814B46277003AA0093E7
:1041600050213000013307F09DFE22000123502131
:104170003000009707F0A0FE23782D022B432A0E73
:104180001D02434692466A4603335BBA93814B460F
:10419000277003AA009350213000013307F082FEFC
:1041A0002200012350213000009707F085FE514680
:1041B00022782B0E2A430D021D4313029B464346D1
:1041C0006A4602335BBA93814B46277003AA009379
:1041D00050213000013307F065FE220001235021F9
:1041E0003000009707F068FE5B4622782D021A43E4
:1041F0001B0E1D4313029A4643466A4601335BBABF
:1042000093814B46277003AA00935021300001335D
:1042100007F048FE2200012350213000009707F0EC
:104220004BFE534622782D021A431B0E1D431302E8
:104230009A4643466A465BBA93814B46277003AA67
:10424000009350213000013307F02CFE012322009F
:1042500050213000009707F02FFE534629002078A8
:10426000184305B0F0BCBB46B246A946A046F0BD17
:1042700048150020F0B5D6464F464646C0B584B036
:10428000072800D8AFE0FF2811D0D0240425240649
:10429000AC4804F0D3FF6420656101F087FE002084
:1042A000A56104B0E0BCBA46B146A846F0BD002501
:1042B000A54BA64E1B7803AC50212200A37025808D
:1042C00003233000009507F0EDFD052001F06EFEA0
:1042D0009F4B01201A685B68FFF756FE9D4B092033
:1042E0001A685B68FFF750FE9B4B22001F888823EB
:1042F0005B0150212380A77003233000009507F055
:10430000D1FD052001F052FE90233F0A5B012200FF
:1043100050212380A77003233000009507F0C2FDD1
:10432000052001F043FE98228C4B52011B7850214E
:104330002280A370220003233000009507F0B2FD15
:10434000052001F033FEA022854B52011B7850213D
:104350002280A370220003233000009507F0A2FD05
:10436000052001F023FEA8227E4B52011B7850212C
:104370002280A370220003233000009507F092FDF5
:10438000052001F013FEF822774B520198461B7866
:104390002280A3702200032350213000009507F0F3
:1043A00081FD052001F002FE43461B78002B18D04A
:1043B0006E4B002799464B462A005B5D20326270A7
:1043C000A37022000323502127703000009707F0CC
:1043D00069FD052001F0EAFD43461B780135AB423B
:1043E000E9DC01205DE70027574B01308501574E7E
:1043F0001B7803AC6ABA50212280A37022000323E9
:104400003000009707F04EFD052001F0CFFD504B26
:10441000681C1A685B68FFF7B7FD28004D4B093030
:104420001A685B68FFF7B0FD4B4B22001B885021D8
:1044300098462B0011335BBA238043463000A370AB
:104440000323009707F02EFD052001F0AFFD2B00A0
:1044500012335BBA238043461B0A22005021A3700B
:1044600030000323009707F01DFD052001F09EFD9D
:104470003A4B50211A782B0013335BBA2380A27079
:10448000032322003000009707F00CFD052001F007
:104490008DFD334B50211A782B0014335BBA2380E7
:1044A000A270032322003000009707F0FBFC0520D8
:1044B00001F07CFD2B4B50211A782B0015335BBA91
:1044C0002380A270032322003000009707F0EAFC4B
:1044D000052001F06BFD244B50211A7898462B00E3
:1044E0001F335BBA2380A2700323220030000097A1
:1044F00007F0D8FC052001F059FD43461B78002B3E
:1045000000D16EE7194B0027994600239A462035C3
:104510004B46DB5D6ABAA3705346228050212200CD
:1045200000933000032307F0BDFC052001F03EFDA1
:1045300043461B7801350137ADB2BB42E8DC0120B0
:10454000AFE6C04688D60010E22B002048150020B8
:1045500018100020101000200E100020081000205D
:10456000E02B002080140020D80F0020DC0F00205A
:1045700070B5274C2378DA0734D5D0228021120673
:10458000490251619A0727D5D0228021120689025B
:1045900051615B071AD5D02380221B06D2025A61D3
:1045A000D0231B065A68802315005B031D401A4266
:1045B00003D1184E3378012B1AD0D0231B065B6829
:1045C000DB0202D50122134B1A7070BDD02380226A
:1045D0001B06D2029A61E3E7D022802112068902EB
:1045E0009161D6E7D0228021120649029161C9E784
:1045F000642001F0DBFC07222900237835700133A9
:10460000DBB29A4269414A4213402370DDE7C0465B
:10461000A6120020A5120020F0B5DE4657464E46F1
:104620004546E0B587B0072800D815E1FF2812D02D
:10463000D024042524067D4804F000FE6420656132
:1046400001F0B4FC0020A56107B0F0BCBB46B24647
:10465000A946A046F0BD02AB9C4600230B240026D1
:1046600099460123724F644405AD98462A005021B3
:1046700026702E8038000093013307F013FC0123CD
:10468000220050213800009607F016FC694A237872
:10469000012013700392FFF705FD674B1860596006
:1046A0000920FFF7FFFC654B2A00186059604B4654
:1046B000237090235B012B804346502100933800E8
:1046C000013307F0EFFB0123220050213800009650
:1046D00007F0F2FB23782A001B029A464B46237010
:1046E00088235B012B80434650210093380001331F
:1046F00007F0D8FB0123220050213800009607F074
:10470000DBFB22784E4B52441A804B462370982391
:104710005B012B8043462A0050210093380001336F
:1047200007F0C0FB0123220050213800009607F05B
:10473000C3FB2278434B50211A704B462370A023B1
:104740005B012B8043462A0000933800013307F0B9
:10475000A9FB0123220050213800009607F0ACFB92
:104760002278394B50211A704B462370A8235B01E5
:104770002B8043462A0000933800013307F092FB58
:104780000123220050213800009607F095FB227883
:104790002E4B50211A704B462370F8235B012B805F
:1047A00043462A0000933800013307F07BFB0123C6
:1047B000220050213800009607F07EFB244B22781F
:1047C0009B461A70002A24D0224B002699460023CB
:1047D000984601339A46434623702B7033002033AA
:1047E0006B7053462A00502100933800022307F0D3
:1047F00059FB43462200009350210123380007F063
:104800005BFB4A46237893555B461B780136B342DF
:10481000E1DC039B1B78022B00D116E1032B00D1B6
:104820001BE1012B00D114E101200DE7BCD60010E3
:1048300048150020E22B0020181000201010002046
:104840000E10002008100020E02B00208014002013
:10485000D80F0020DC0F002002AB9C460B24002365
:10486000013064448601984605AD237073BA2B80ED
:1048700001237C4F99462A005021009338000133D0
:1048800007F010FB4346220050210093380001330B
:1048900007F012FB744A2378701C13700392FFF721
:1048A00001FC724B1860596030000930FFF7FAFBC9
:1048B0006F4B2A001860596043462370330012334F
:1048C0005BBA2B804B46502100933800013307F030
:1048D000E9FA43462200502100933800013307F0E3
:1048E000EBFA23782A001B029A46434623703300D2
:1048F00011335BBA2B804B465021009338000133B3
:1049000007F0D0FA434622005021009338000133CB
:1049100007F0D2FA2278574B52441A80434623704C
:10492000330013335BBA2B804B462A00502100938F
:104930003800013307F0B6FA4346220050210093B5
:104940003800013307F0B8FA22784B4B50211A7027
:1049500043462370330014335BBA2B804B462A0046
:1049600000933800013307F09DFA4346220050219E
:1049700000933800013307F09FFA22783F4B502113
:104980001A7043462370330015335BBA2B804B46B5
:104990002A0000933800013307F084FA43462200CE
:1049A000502100933800013307F086FA2278344B07
:1049B00050211A704346237033001F335BBA2B809B
:1049C0004B462A0000933800013307F06BFA434648
:1049D0002200009350210133380007F06DFA294B73
:1049E00022789B461A70002A00D112E700239846CD
:1049F000254B2036994600239A463B002F00250080
:104A00004446984653462B7073BA3B8001233A00C4
:104A1000502100934046013307F044FA53462A00E0
:104A2000009350210123404607F046FA4A462B786E
:104A3000013613555B461B780134B6B2A342E1DC64
:104A4000039B1B78022B00D0E8E6FEF795F80120C7
:104A5000FAE5FEF71FF90120F6E500F0E5FA01207E
:104A6000F2E5C04648150020E22B00201810002077
:104A7000101000200E10002008100020E02B002055
:104A800080140020D80F0020DC0F0020F8B5D024BF
:104A9000CE4647462406636880B55B0203D4564D74
:104AA0002E78012E0BD0D0231B065B685B0202D54B
:104AB0000122514B1A70C0BCB946B046F8BD8027E0
:104AC00080237F029B026761994663618023DB023A
:104AD00064206361984601F069FA4B46A761A361BF
:104AE00043466420A36101F061FA444B98461B7869
:104AF0001E4227D067619A0773D5D0228021120603
:104B0000890251615B0766D5D02380221B06D20241
:104B10005A61322001F04AFA43461878FFF77CFDCB
:104B20000023374F2B703B78002B0DD1D024042568
:104B30002406344804F082FB6420656101F036FAF3
:104B4000A561B8E7A761D6E72F4804F0FBFB2F4E1D
:104B50003378002B0AD02E4B002498464346185D2C
:104B600004F022FB33780134A342F7DC294804F037
:104B700065FB3378002B2AD0254B002598461C0076
:104B800013E0022B06D1002D31D1434601211878C4
:104B9000FDF78EFF002004F0BBFA40B203280ED0D0
:104BA000337801350134AB4211DD207804F0FCFA92
:104BB0003B78012BE5D12078FEF7CAF8EAE71648E2
:104BC00004F0C0FB002004F0A3FA0230FAD113482D
:104BD00004F0B8FB6FE7D02380221B06D2029A6153
:104BE00097E7D02280211206890291618AE700218D
:104BF0002078FDF75DFFCDE7A4120020A61200206B
:104C0000E22B00200CD5001048D50010D80F002052
:104C1000DC0F002060D5001084D50010F0D6001005
:104C2000F0B55746DE4645464E460023E0B5002720
:104C30009B469A46E44B87B09846E44B05AC0393F9
:104C400053461B0A23705B46220050216370A770F5
:104C500003234046009707F025F9052001F0A6F947
:104C6000534601339BB21B0A23705B4601336370CA
:104C7000602322005021A37040465D3B009707F05F
:104C800011F9052001F092F9534602339BB21B0A39
:104C900023705B4602336370562322005021A370B9
:104CA0004046533B009707F0FDF8052001F07EF9E0
:104CB000534603339BB21B0A23705B460333637076
:104CC0006C2322005021A3704046693B009707F0F7
:104CD000E9F8052001F06AF9534604339BB21B0A38
:104CE00023705B460433220050216370A7700323B6
:104CF0004046009707F0D6F8052001F057F95346D3
:104D000005339BB21B0A23705B46053322005021FA
:104D10006370A77003234046009707F0C3F805208F
:104D200001F044F9534606339BB21B0A23705B46DD
:104D30000633220050216370A7700323404600977A
:104D400007F0B0F8052001F031F9534607339BB264
:104D50001B0A23705B460733220050216370A77043
:104D600003234046009707F09DF8052001F01EF947
:104D7000534608339BB21B0A23705B46083322005C
:104D800050216370A77003234046009707F08AF80C
:104D9000052001F00BF9534609339BB21B0A23701F
:104DA0005B467D250933220050216370A5700323E3
:104DB0004046009707F076F8052001F0F7F85346D3
:104DC0000A339BB21B0A23705B460A332200502130
:104DD0006370A77003234046009707F063F805202F
:104DE00001F0E4F853460B339BB21B0A23705B4679
:104DF0000B33220050216370A770032340460097B5
:104E000007F050F8052001F0D1F853460C339BB25F
:104E10001B0A23705B460C33220050216370A7707D
:104E200003234046009707F03DF8052001F0BEF847
:104E300053460D339BB21B0A23705B460D33220091
:104E400050216370A77003234046009707F02AF8AB
:104E5000052001F0ABF853460E339BB21B0A2370BA
:104E60005B460E33220050216370A7700323404637
:104E7000009707F017F8052001F098F853460F3314
:104E80009BB21B0A23705B460F33220050216370D4
:104E9000A77003234046009707F004F8052001F0AF
:104EA00085F8534610339BB21B0A23705B461033C0
:104EB000220050216370A77003234046009706F03C
:104EC000F1FF052001F072F8534611339BB21B0A23
:104ED00023705B4611336370322322005021A3708C
:104EE00040462F3B009706F0DDFF052001F05EF8FD
:104EF000534612339BB21B0A23705B4612332200C7
:104F000050216370A77003234046009706F0CAFF44
:104F1000052001F04BF8534613339BB21B0A237054
:104F20005B4613336370142322005021A370404664
:104F3000113B009706F0B6FF052001F037F8534605
:104F400014339BB21B0A23705B461433220050219A
:104F50006370A77003234046009706F0A3FF052067
:104F600001F024F8534615339BB21B0A23705B46AD
:104F70001533220050216370A5700323404600972B
:104F800006F090FF052001F011F853461F339BB245
:104F90001B0A23705B461F33637020232200A3701B
:104FA00050211D3B4046009706F07CFF052000F095
:104FB000FDFF20229446039B55461E0063449946FC
:104FC0002035ADB204E0C046481500208412002010
:104FD00033786ABA2280A37022000323502140460E
:104FE000009706F05FFF01350520013600F0DEFF77
:104FF000ADB2B145ECD1534640339BB29A465B46C5
:105000004033DBB29B4690239B009A4500D017E6C5
:1050100007B0F0BCBB46B246A946A046F0BDC046AC
:1050200010B5FFF7FDFD10BD10B50B4B0B4C1878FC
:1050300002F07CF9011C0A4802F05DF902F09EF9C9
:10504000084B0022208018685968FCF729FC0020D2
:10505000FDF714FD10BDC04680140020821400200E
:10506000002474491810002010B5094B094C187819
:1050700002F05CF9011C084802F03DF902F07EF9EB
:10508000064B2080002218685968FCF709FC10BD07
:10509000801400208214002000247449181000207D
:1050A000074BC0B210B5187002F040F9011C05485A
:1050B00002F021F902F062F9034C208010BDC046D5
:1050C000801400200024744982140020F8B50300E5
:1050D000DE4657464E464546613BE0B5192B4BD858
:1050E0004038C2B2284BD2009B181A685B68D026A1
:1050F0009946264B93469846202330249A4601270A
:1051000036060DE0736180231B02736180235B0010
:10511000736143460021188800F014FF013C1AD344
:105120002300203B20D44D46DD403D402800FDF7C4
:10513000A5FC8023DB01002DE4D1B36180231B0299
:10514000B36180235B00B36143460021188800F0FF
:10515000F9FE013CE4D20020FDF790FCF0BCBB4618
:10516000B246A946A046F8BD53464A465D461B1BBB
:105170009A40E5401543D8E72038C0B21F223B28AB
:10518000B0D80200AEE7C046A8120020821400206A
:10519000094A83009A1810B514684022544080329E
:1051A0002240064CC000A44663441A60044B9C464F
:1051B0006044416010BDC04604C0014004D00140BD
:1051C00000400140074B8000C3181B68C9009200D3
:1051D0000A435A400C231340034A94466044036038
:1051E0007047C04604C0014004D001400123D022D2
:1051F0008340120693629361094A83009A181168EA
:105200004022514080320A400649C0008C46634427
:105210001A60054B9C460523604443607047C046B6
:1052200004C0014004D00140004001408023DB0560
:105230001868000F7047C0460FB400B5084883B027
:1052400003F0FCFF049B002B07D005A91800019177
:1052500003F0E4FD034803F0F1FF012003F0F6FD45
:10526000F4D6001084CC001070B5EFF3108C72B639
:105270000D4D2B68002BFCD0BFF35F8F0724CB08AC
:10528000C618C05C01230C40A3401C00044003422C
:1052900007D118433070BFF35F8F2C608CF31088F8
:1052A00070BD1000FFF7C8FF2C0100D0F8B54746CD
:1052B000CE46884680B5EFF3108C72B61C4D2C6834
:1052C000002CFCD0BFF35F8F9A4222D80721012621
:1052D000894602E00132934218D34D46370015400B
:1052E000AF40D4080119045D2742F3D110003C43BC
:1052F0000C70BFF35F8F00220D4B1A608CF3108887
:1053000000280EDBC0BCB946B046F8BD01204042C3
:10531000EFE7BFF35F8F00232B608CF31088012031
:1053200040424346002BEDD00898FFF785FFC0466A
:105330002C0100D0044A1078431CDBB2172B00D993
:10534000102313707047C0468414002010B5064B1C
:10535000064C82B00100009318221F232000FFF7A3
:10536000A5FF02B010BDC04604D70010A82600203B
:105370000021044B044ABFF35F8F02C39342FAD16A
:105380007047C046000100D0800100D0054B064A9E
:105390001360064A136053609360D36013615361D6
:1053A000936170478080808000E400E004E400E0C6
:1053B0001F2318401E3B8340002905D0C021044A0A
:1053C0004900535013607047802201498B50FAE71F
:1053D00000E100E001228240034B1B6813405A1E8B
:1053E0009341D8B27047C04600E100E001238340FA
:1053F000014A13607047C04600E200E0064B1030DF
:105400009B688000C358054A00209B1A2F229A42AD
:105410004041C0B27047C04600ED00E08814002053
:1054200070B50D00EFF3108672B60F4A1368002BAB
:10543000FCD0BFF35F8F0D4B10309B6884001B596D
:105440000B4A934203D09D4201D000F0F3FF074B7B
:105450009B681D51BFF35F8FBFF35F8F0022024B2C
:105460001A6086F3108870BD240100D000ED00E0C2
:10547000CD010010F0B557464E46DE464546E0B534
:1054800085B0060000911700EFF3108B72B66A4AE0
:105490001368002BFCD0BFF35F8F0025674B5D576F
:1054A0009A46002D00DAA9E06B00654C01935B1968
:1054B0009B009846A146C1444B4652469B79103604
:1054C0001370604BB6009B6899590B1B2F2B33D977
:1054D0005D4B994200D0ACE0019B42469C465B4B41
:1054E0006544AD0063535A4B0232A218043B9B1A29
:1054F0001B05584A5B0D651913436B80564B012100
:10550000AB80FF23AB71009BEF71AB604B460B434D
:1055100019004C4B9B689951BFF35F8FBFF35F8FAE
:105520000022454B1A608BF3108805B0F0BCBB46D7
:10553000B246A946A046F0BD01200A008243D379B5
:105540008C46BB4231D84546130044491B1B5B4186
:105550005943090D3D4B63533D4B02356519043BDF
:105560005B1B1B053B4D5B0D2B43AA464D466B80D9
:105570000425AC465546E044131F44441B1B1B0541
:105580005B0D1D434B46997100999D80996049467A
:10559000DF71334B01431360BBE75800C018800034
:1055A0002018C179B9422FD902000623D356002B07
:1055B000F3DA02932B4B61460393131D9A4604239F
:1055C0005B429C46E14450464B461B1A1B055B0D53
:1055D0009C46204B95719846634640460343938012
:1055E000019B5A199200039BA418A380029B1C4A9A
:1055F000A371009B2260E771A3608AE700F01AFFA5
:10560000002553465D574FE7908802934005131DD0
:105610009A46031561469C464046D444634604308E
:105620002018181AE0230005400D1B0218430390B0
:10563000C5E700F0FFFE4FE7240100D0E32B002078
:105640008814002000ED00E0CD01001000A1FFFF54
:10565000B814002000E0FFFF01BDFFFFAAAA000070
:105660000148804701BD000070B501240443EFF3F9
:105670000581EFF3108C72B6214A1368002BFCD021
:10568000BFF35F8F1F4B05001F4AED1A6D416A4340
:10569000120D1E4D8900AE6852B27658A6421CD03B
:1056A0000621595691421CD012215956914222D0BE
:1056B0001E215956914220D02A2159560324914245
:1056C00010D0134B19781A708171BFF35F8F0022CD
:1056D0000B4B1A608CF3108870BDAB680D4C5C509E
:1056E000EFE700246100091989005B18FF21997117
:1056F00009499980E5E70124F4E70224F2E7C0466E
:10570000240100D088140020AAAA000000ED00E0C7
:10571000E32B0020CD01001001BDFFFF10B5084BA9
:10572000084C82B001000093002205232000FFF7FF
:10573000BDFD002801DB1F23181A02B010BDC046B2
:1057400020D70010EB2B0020024B9C4661448900BF
:10575000016070474000003470B5114C114DAC42EF
:105760000FD2FF262368002B0CD0FFF7E3FD0100CA
:105770002000FFF7E9FFA680BFF35F8F0834AC423B
:10578000F0D370BDFFF7D6FD01002000FFF7DCFF6E
:105790002671BFF35F8F0834AC42E3D3F1E7C04614
:1057A000A81A0020B81A002010B50400FFF7C2FDA7
:1057B00001002000FFF7C8FFFF232371BFF35F8FB5
:1057C00010BDC04610B504000120FFF7BFFD034B1C
:1057D000C3189B002360BFF35F8F10BD40000034EF
:1057E000034B9C46614489000160BFF35F8F7047A3
:1057F000400000340A4B1968EFF3108072B60A6853
:10580000002AFCD0BFF35F8F1B68BFF35F8F0022BD
:105810001A6080F3108840BF002000217047C04606
:10582000B02B0020F0B5DE4657464E464546E0B563
:1058300087B0EFF30583032201251A4095409100BC
:105840008846A946B34B03925C58B34B1D60B34BDB
:1058500004934B46B24843630823E55E002D37DAD4
:10586000A3881BB2002B00DBADE0A379002B00D096
:10587000EEE00823E05E002820DB430062691B188D
:10588000DB00D3189E68DD68731C00D111E1A448C9
:1058900001004144826A0B69B71A9B1A9F4215D3D3
:1058A0000123026A039883401A420FD09C4800F0FB
:1058B00037FB8D4202DCCCD18642CAD940BF07B04B
:1058C000F0BCBB46B246A946A046F0BD0E61EDE76E
:1058D00062696B0092465B19DB009A4453469E68EE
:1058E000DF6800F01DFB8F42BADC00D103E1002F1E
:1058F00000DAE8E05246534652691B699346049A1F
:10590000934200D1D9E052460821605E52880004DB
:10591000594610439847009001910099019A0B0055
:105920001000134300D1CEE013000A00B61A9F41C5
:10593000002806DB7A4800F0F3FA009E019F361833
:105940004F4153469E60DF6000229A5E002A00DAD3
:1059500086E7530099186069C900411802938B6863
:10596000C9689B46B94200DD7AE702D1B34200D94B
:1059700076E708239C46A444059565462281A44603
:10598000029B2C0006E053009918C90041188D684D
:10599000C968AB469B18DB00C318B94206DC00D1CE
:1059A000B3E01C000023E25E002AECDA2300644628
:1059B0009C4653461A806346059D1D80A3881BB2F2
:1059C000002B00DA51E72269EFF3108172B61368F9
:1059D000002BFCD0BFF35F8F0123A7885B42A3801D
:1059E0003FB22369BFF35F8F00221A6081F31088F2
:1059F000002F00DA39E72300083322009A4666694F
:105A00007B00DB19DB00F318996850468C460824AC
:105A1000115FDD68002910DB029306E0AB4244D041
:105A20000023E15E2000002906DB4C006418E4003E
:105A30003419E368AB42F1DD029B078000201F5E52
:105A40001980002FDCDA1400A379002B00D110E7B5
:105A50000023A37126000823E15E08364B1C00D109
:105A60002CE70800A246656902E03E004B1C1AD0F4
:105A70004B005B18DB00EF180A008C46E95E7B8860
:105A80001BB2002BF1DA01235B42DC17BB60FC6028
:105A9000824205D0534631801B893B8053461A8190
:105AA00060464B1CE4D15446E5E6A3686345B7D98C
:105AB000C2E76B1C00D0EAE6F8E65B4658461B6975
:105AC000984700281BD153461B8822692381EFF396
:105AD000108372B611680029FCD0BFF35F8F514666
