:020000041000EA
:1000000000B5324B212058609868022188439860DF
:10001000D860186158612E4B002199600221596106
:100020000121F02299502B49196001219960352056
:1000300000F044F80222904214D00621196600F024
:1000400034F8196E01211966002018661A6600F04E
:100050002CF8196E196E196E052000F02FF8012189
:100060000842F9D1002199601B49196000215960AB
:100070001A491B48016001219960EB211966A021F2
:10008000196600F012F800219960164914480160C1
:100090000121996001BC002800D000471248134993
:1000A000086003C880F30888084703B5996A0420EC
:1000B0000142FBD001200142F8D103BD02B5186610
:1000C0001866FFF7F2FF186E186E02BD00000240BE
:1000D000000000180000070000035F00212200005C
:1000E000F4000018222000A00001001008ED00E03C
:1000F00000000000000000000000000074B24E7A12
:1001000000200420F7010010C3010010C5010010F9
:10011000C1010010C1010010C1010010C101001097
:10012000C1010010C1010010C1010010C701001081
:10013000C1010010C1010010C9010010CB01001065
:10014000CD010010CD010010CD010010CD01001037
:10015000CD010010CD010010CD010010CD01001027
:10016000CD010010CD010010CD010010CD01001017
:10017000CD010010CD010010CD010010CD01001007
:10018000CD010010CD010010CD010010CD010010F7
:10019000CD010010CD010010CD010010CD010010E7
:1001A000CD010010CD010010CD010010CD010010D7
:1001B000CD010010CD010010CD010010CD010010C7
:1001C00000BE00BE00BE00BE00BE00BEEFF3058054
:1001D000103800BEF2EB8871A4E50010C8E50010ED
:1001E0003802001090A31AE71E481F49086006C88D
:1001F00081F3088810471D480068002801D019487D
:10020000F3E70DA40ECC002902D000F012F8F9E7B4
:100210001749184A002000E001C19142FCD116495B
:100220008847164988471649884700BEFDE701C937
:1002300001C29A42FBD37047C8E50010C0000020FD
:10024000B81A0020C0FF00100000042000000420A5
:10025000C0FF001000100420001004200000000067
:10026000704700000000000008ED00E0000000D032
:10027000B81A0020EC2B002059990010E50300105B
:1002800051990010F8B5C04606480749091A8B1065
:10029000C90FC91810B5491003D0044B002B00D06A
:1002A000984710BDB81A0020B81A002000000000BE
:1002B000054B10B5002B03D00449054800E000BFF2
:1002C000FFF7E2FF10BDC04600000000642B0020D5
:1002D0001CD400107047C04670B5294809F098FD3D
:1002E000284809F011FD284B2848197809F090FD9D
:1002F000274809F009FD274B2748197809F088FDA0
:10030000264809F085FD264D2B78002B08D00024C7
:10031000244E305D09F0AEFC2B780134A342F8DCAA
:100320000A2009F0A7FC29781F4809F071FD1F4B2E
:100330001F481A685B6809F06BFD1E4809F0E4FC71
:100340001D4B1E481A685B6809F062FD1C4B1D4876
:10035000198809F05DFD1C4809F0D6FC1B4B1C48B0
:10036000197809F055FD1B4809F0CEFC1A4B1B48C3
:10037000197809F04DFD1A4809F0C6FC70BDC04659
:1003800020D4001028D40010E12B002038D4001015
:1003900044D40010DF2B002068D40010A0D400103B
:1003A000D80F0020DC0F0020B0D40010181000205F
:1003B000C8D40010E4D4001010100020ECD40010B9
:1003C0000E10002008D500101CD5001008100020C9
:1003D00020D5001034D50010801400203CD500102A
:1003E00050D50010F0B5D024042583B0240609F0C0
:1003F000F1FB022004F092FD0A20656204F08EFDFC
:100400008023DB000B20636204F088FD80231B0146
:100410000D20636204F082FD80239B010F20636244
:1004200004F07CFD80231B020E20636204F076FD45
:100430008023DB011020636204F070FD80235B02E7
:100440001120636204F06AFD80239B021220636224
:1004500004F064FD8023DB021420636204F05EFD7F
:1004600080235B031520A36204F058FD80239B03C7
:100470001620A36204F052FD8023DB030820A36250
:1004800004F04CFD80235B000920636204F046FD0C
:1004900080239B00A362656102F0BEFC0022002164
:1004A0008020A56100F086FC1F4B00221868596867
:1004B00001F0ECF91D480CF0DFF800235021009307
:1004C0001B4A1C4801330CF05DFA002828D01A485A
:1004D00009F01AFCD02480260125FF2003F0BCFF80
:1004E000FFF7FAFE154809F093FC154F2406360174
:1004F00003F03AFC03F05CFF04F09AF93B785A08E9
:10050000154206D066611D4206D08023DB00636180
:10051000EEE7A6611D42F8D18023DB00A361E7E787
:10052000084809F0F1FBD5E718100020D5020010AB
:10053000E02B00204815002058D5001084D500106D
:10054000E12B00206CD50010F0B5454657464E46CD
:10055000DE46E0B58FB08A46914680460D00099090
:10056000142900D963E100D15DE10D2900D2B3E087
:1005700000D1ADE04B46002B00D0B4E0CD4B64225F
:100580001C78CD4BA400E0580021002307F0F6FBB7
:1005900006000F00C94BCA4AE058C1174308C907F3
:1005A0001943C007002305F01DFF32003B0007F090
:1005B000E5FB4900C00F08430200C317B6185F41AE
:1005C000404632003B00290005F024FF04000E28BD
:1005D00000D93CE1310F3B010B433201921BBB417F
:1005E00090461D00290032003B00404605F012FFF6
:1005F0000393039D0292D30E69011943029A039B50
:100600005001801A9941C50D4B022B4342020298BA
:10061000039912184B41950E990190012943801AB4
:100620009941029A039B8018594132003B0005F022
:10063000F1FE002800D11EE1C5012800A14905F006
:10064000ABFE10270B0C7F421F430B0ADBB22800C6
:10065000CEB29C49984605F09FFE4223402599461C
:10066000FFB2994BE4019C4664442418142007F01F
:1006700097FC4A462D022A431500A3039B0F1B0437
:100680001D434346220A3F02E4B21B043C431C4381
:100690001A2312061543360608AA1373344308AB0F
:1006A0009C4601000560446083460D20082260449A
:1006B00007F0B2FC00230BAA0093602109338348A2
:1006C0000CF056F9824B099A1A6052465A60A0E023
:1006D000804B984200D34DE77E4B0D2598464B4604
:1006E000002B00D14AE77C4B64221C78724BA4009B
:1006F000E0580021002307F041FB704B0690E058C2
:100700000791C1174308C9076D4A1943C007002361
:1007100005F068FE069A079B07F030FB069B079CD6
:100720004900C00F08430600C7179B197C4140468B
:100730001A001E002900230005F06CFE27000400AB
:100740000E2800D977E0310F3B010B433201921B99
:10075000BB4190461D00290032003B00404605F099
:1007600059FE0593059D0492D30E69011943049A1D
:10077000059B5001801A9941C50D4B022B43420243
:100780000498059912184B41950E9901900129433F
:10079000801A9941049A059B8018594132003B0008
:1007A00005F038FE00285ED0C5012800454905F057
:1007B000F3FD10270B0C7F421F430B0ADBB228000E
:1007C000CEB24049984605F0E7FD40234225FFB2EE
:1007D00002933D4BE4019C4664442418142007F026
:1007E000DFFB029B3F021A02A3039B0F1B0415436E
:1007F0001D434346220AE4B21B043C431C434B46C0
:100800001206360615433443834605604460012BC7
:1008100037D0584607F0E2FB0FB0F0BCBB46B246FB
:10082000A946A046F0BD2D4B984200D8A2E62B4B1E
:10083000142598469EE65A2800D88CE75A220023B1
:100840003000390007F09AFA80460D0083E75A28F5
:1008500000D8C7E65A2200233000390007F08EFA8C
:1008600080460D00BEE6002398460133002600278F
:1008700000250293ADE700230026984600270125B6
:10088000EFE6213308AA137308AB9C4601000D2044
:100890000822604407F0C0FB00230BAA00936021EC
:1008A00009330A480CF064F80D4B099A1A60524655
:1008B0005A60AEE7E62B0020D02B00209C2B0020B6
:1008C00000CA9A3B40420F0000FEFFFF481500207F
:1008D000881C0020005847F8E72B002000046BF428
:1008E000901C0020F0B5DE4657464E464546E0B522
:1008F000002787B0FC4DFD4B05AC2380220002236E
:100900006021280000970CF033F8F94B2200238077
:1009100060210223280000970CF02AF8F54B2200F2
:10092000238060210223280000970CF021F8F24B6D
:100930002200238060210223280000970CF018F881
:10094000EE4B2200238060210223280000970CF048
:100950000FF8EB4B22002380602102232800009730
:100960000CF006F8E74B22002380602102232800C8
:1009700000970BF0FDFFE44B22002380602102234F
:10098000280000970BF0F4FFC1231B0123802200F5
:1009900002236021280000970BF0EAFFDB4B2200C6
:1009A000238060210223280000970BF0E1FFD84B41
:1009B0002200238060210223280000970BF0D8FF3B
:1009C000D44B2200238060210223280000970BF0E3
:1009D000CFFFD14B22002380602102232800009703
:1009E0000BF0C6FFCD4B220023806021022328009C
:1009F00000970BF0BDFFCA4B220023806021022329
:100A0000280000970BF0B4FFC64B22002380602122
:100A10000223280000970BF0ABFF00221221C248EE
:100A2000FFF792FD01221221BF48FFF78DFDBF4B5A
:100A300004AE984642461F60BD4B602153601023B0
:100A400001229A462370BB4B914603931B782800E2
:100A5000337002930092012322000BF089FF0123DF
:100A600032006021280000970BF08CFF524633784B
:100A70002270103293439346637022000223602158
:100A8000280000970BF074FF42461770112292461F
:100A900022704A46029B6021337028000123009295
:100AA00022000BF065FF012332006021280000972F
:100AB0000BF068FF524622705A4633786021934308
:100AC000637022000223280000970BF051FF42467A
:100AD00057701222924622704A46029B6021337060
:100AE00028000123009222000BF042FF0123320074
:100AF0006021280000970BF045FF524622705A46AD
:100B0000337860219343637022000223280000970A
:100B10000BF02EFF424697701322924622704A46EF
:100B2000029B6021337028000123009222000BF009
:100B30001FFF012332006021280000970BF022FFE5
:100B4000524622705A4633786021934363702200E4
:100B50000223280000970BF00BFF4246D7701422A7
:100B6000924622704A46029B60213370280001237E
:100B7000009222000BF0FCFE0123320060212800CD
:100B800000970BF0FFFE524622705A4633786021E0
:100B90009343637022000223280000970BF0E8FEC5
:100BA000424617711522924622704A46029B6021E6
:100BB000337028000123009222000BF0D9FE01239C
:100BC00032006021280000970BF0DCFE52462270B4
:100BD0005A46337860219343637022000223280031
:100BE00000970BF0C5FE42465771162292462270BE
:100BF0004A46029B602133702800012300922200A4
:100C00000BF0B6FE012332006021280000970BF0A4
:100C1000B9FE524622702022924652463378602115
:100C20001343637022000223280000970BF0A0FEFC
:100C300042464946917117229346029B22703370B7
:100C400022004B46009128005F310BF091FE0123FA
:100C500032006021280000970BF094FE5A46227063
:100C60005246337860211343637022000223280028
:100C700000970BF07DFE43464A46DA71A22322001C
:100C800023806021A03B280000970BF071FEA32376
:100C9000220023806021A13B280000970BF068FE12
:100CA000A423220023806021A23B280000970BF0A0
:100CB0005FFE214B22002380602102232800009741
:100CC0000BF056FE1D4B22002380602102232800DA
:100CD00000970BF04DFE1A4BA8469B46194B02930A
:100CE00003239A4630E0C046481500201080FFFFDD
:100CF0001180FFFF1280FFFF1380FFFF1480FFFFB2
:100D00001580FFFF1680FFFF1780FFFF110C00000A
:100D1000120C0000130C0000140C0000150C000055
:100D2000160C0000170C000000205FA0842B002090
:100D30000000010140DA0010B1200000B180FFFF87
:100D4000B81A0020B02600205946002200230CC10A
:100D500053462370039B00251B78220033704B46BB
:100D60008B4600936021012340460BF001FE0123D6
:100D700032006021404600950BF004FE524622707E
:100D80004A46BA403378602113436370220002233D
:100D9000404600950BF0ECFD029BDB1901371D70FE
:100DA000082FD1D107B0F0BCBB46B246A946A04639
:100DB000F0BDC046F0B5DE4657464E464546474B69
:100DC000E0B59B4687B003925A46454B454E1360AB
:100DD0000023454A02901370444A8A461370444ADD
:100DE0004449300013700BF09BFD0321042004F0F4
:100DF00067F80321052004F063F800220121042094
:100E000004F078F800220121052004F073F83A4B31
:100E100000271B7805AD99460123984604AC4B4644
:100E2000237043462A0060212F7030000093012375
:100E30000BF09EFD012322006021300000970BF093
:100E4000A1FD2378DB09012BE9D0B723029A2B708F
:100E5000783B9A431300122213436B702A0002233B
:100E60006021300000970BF083FD5346002B1AD110
:100E70005A461B4B1360039A204B1A60204B0022EA
:100E800018685968FFF760FB1E4B01221868596803
:100E9000FFF75AFBFFF726FD07B0F0BCBB46B24692
:100EA000A946A046F0BD184B9A4509D9174B184AD8
:100EB0005344934208D853465A465B081360DAE716
:100EC0005B4652461A60D6E7124B134A534493428C
:100ED000D1D853465A469B081360CCE7D02B00204C
:100EE00040787D0148150020E62B0020E72B0020EC
:100EF000DD2B0020801A060040DA00109C2B002019
:100F0000881C0020901C002080C3C9017F3C36FE55
:100F10007FC3C901FF786CFCFF596202F0B5DE4661
:100F200045464E465746E0B591B01D1C08930B93BD
:100F30001AAB1B78884603931BAB1B7807929B4622
:100F40001CAB1B780A92049353BA6A46040014201F
:100F50005383099107F024F84346DBB206006DBACB
:100F60000593052C00D876E0063CE4B2012C68D845
:100F7000E04BA4001B590DAC9F4652232B7006ABCF
:100F80009C461D20002460440822310007F044F8EC
:100F900009232A006021380000940BF0E9FC152396
:100FA0002B7053464A461B786021137001232A0098
:100FB000009338000BF0DCFC01234A466021380026
:100FC00000940BF0DFFC4B46039A1B78012A00D1FA
:100FD000A5E240229343152200242A706B702A0058
:100FE00002236021380000940BF0C2FC54232B70C4
:100FF00053464A461B786021137001232A00009350
:1010000038000BF0B5FC01234A46602138000094FB
:101010000BF0B8FC4B467C221B789343049A002AC1
:1010200001D00C22134354222A705A461201134352
:101030006B7000232A0000936021380002330BF00C
:1010400097FC300006F0CAFF11B0F0BCBB46B246B8
:10105000A946A046F0BDE30005802C330DAD2B70F2
:101060000CAB99464A46A44BA44F9A461B78602184
:10107000137001232A00009338000BF079FC002341
:101080004A4660210093380001330BF07BFC4B464D
:101090001A78434603211B0C8A430B401343B37059
:1010A00043461B0AF370059B079A3371089B0C316A
:1010B0001B0B120C8B4311400B4373716B465B8B04
:1010C000A400F3808E4B1B599F465B2300278B4D5A
:1010D0002370059B22006370602102232800009783
:1010E0000BF046FC5C23237098460CAB99464A46AD
:1010F000814B60211B78280013700123220000938C
:101100000BF036FC01234A466021280000970BF0C3
:1011100039FC4B4670221B7893431A0043462370D8
:101120005B461B01134363702200022360212800E9
:1011300000970BF01DFC84E75A2300276F4D2370A6
:10114000059B2200637060210223280000970BF0AA
:101150000FFC5C23237098460CAB99464A46664BBD
:1011600060211B78280013700123220000930BF0EC
:10117000FFFB01234A466021280000970BF002FC88
:101180004B4607221B789343424622705A461A4325
:101190001300C8E742232B7006AB9C461D20002499
:1011A00060440822310006F037FF09232A0060213D
:1011B000380000940BF0DCFB13232B7053464A4697
:1011C0001B786021137001232A00009338000BF074
:1011D000CFFB01234A466021380000940BF0D2FB7C
:1011E0004B46039A1B78012A00D192E14022934397
:1011F000132200242A706B702A0002236021380019
:1012000000940BF0B5FB44232B7053464A461B78E1
:101210006021137001232A00009338000BF0A8FB13
:1012200001234A466021380000940BF0ABFB4B468B
:101230007C221B789343049A002A01D00C2213438A
:101240004422F1E63A232B7006AB9C461D20002475
:1012500060440822310006F0DFFE09232A006021E5
:10126000380000940BF084FB12232B7053464A463F
:101270001B786021137001232A00009338000BF0C3
:1012800077FB01234A466021380000940BF07AFB7B
:101290004B46039A1B78012A00D149E1402293432F
:1012A000122200242A706B702A0002236021380069
:1012B00000940BF05DFB3C232B7053464A461B7891
:1012C0006021137001232A00009338000BF050FBBB
:1012D00001234A466021380000940BF053FB4B4633
:1012E0007C221B789343049A002A01D00C221343DA
:1012F0003C2299E624E0001040DA00104815002056
:101300002CE000104A232B7006AB9C461D200024C5
:1013100060440822310006F07FFE09232A00602184
:10132000380000940BF024FB14232B7053464A46DC
:101330001B786021137001232A00009338000BF002
:1013400017FB01234A466021380000940BF01AFB7A
:101350004B46039A1B78012A00D1E6E040229343D2
:10136000142200242A706B702A00022360213800A6
:1013700000940BF0FDFA4C232B7053464A461B7821
:101380006021137001232A00009338000BF0F0FA5B
:1013900001234A466021380000940BF0F3FA4B46D3
:1013A0007C221B789343049A002A01D00C22134319
:1013B0004C2239E632232B7006AB9C461D200024BC
:1013C00060440822310006F027FE09232A0060212C
:1013D000380000940BF0CCFA11232B7053464A4688
:1013E0001B786021137001232A00009338000BF052
:1013F000BFFA01234A466021380000940BF0C2FA7C
:101400004B46039A1B78012A00D18BE0402293437C
:10141000112200242A706B702A00022360213800F8
:1014200000940BF0A5FA34232B7053464A461B78E0
:101430006021137001232A00009338000BF098FA02
:1014400001234A466021380000940BF09BFA4B467A
:101450007C221B789343049A002A01D00C22134368
:101460003422E1E52A232B7006AB9C461D20002484
:1014700060440822310006F0CFFD09232A006021D4
:10148000380000940BF074FA10232B7053464A4630
:101490001B786021137001232A00009338000BF0A1
:1014A00067FA01234A466021380000940BF06AFA7B
:1014B0004B46039A1B78012A2ED0402293431022D8
:1014C00000242A706B702A000223602138000094E7
:1014D0000BF04EFA2C232B7053464A461B786021A2
:1014E000137001232A00009338000BF041FA012306
:1014F0004A466021380000940BF044FA4B467C22A7
:101500001B789343049A002A01D00C2213432C2207
:101510008AE53F3213436BE63F321343CFE73F3256
:10152000134358E53F32134372E73F32134317E743
:101530003F321343B4E6C046F0B5CE4647460323D8
:1015400080B585B003AC237002AB994601254A46AD
:10155000174B184E1B78804613700F000123220092
:101560006021009530000BF003FA00234A460093F7
:101570006021013330000BF005FA4B4642461B78E0
:101580009540012F11D02B43DBB26370032200235F
:101590002270602100932200300002330BF0E8F942
:1015A00005B0C0BCB946B046F0BDAB43EDE7C046A0
:1015B00040DA001048150020F0B5C64600B51E4BB5
:1015C00084B01B7802AD2B701C4B10309846012361
:1015D000C4B203AE320034700F0000936021404665
:1015E0000BF0C6F900232A00602100934046013326
:1015F0000BF0C8F92A780323110099430B00022F3E
:1016000016D0032F11D0012F01D101221343737083
:1016100000233470320000936021404602330BF007
:10162000A7F904B080BCB846F0BD03231343EEE72E
:1016300002221343EBE7C04640DA001048150020B1
:1016400010B584B0002803D001280DD004B010BD1F
:101650006A460B4B0B4C93816021009002232000C3
:1016600003AA0BF085F9F1E76A46074B60219381E5
:10167000002303AA0093034802330BF079F9E5E74E
:10168000B120000048150020B180FFFFF0B557469B
:101690004E464546DE46E0B585B09A460E9B009024
:1016A000019191460099019A9846052A74D870D004
:1016B0000099019A002A00D088E06C4B994200D929
:1016C00084E04B465246134300D1AFE0002300258F
:1016D000674C009322002B004846514604F09AFEC6
:1016E00006228346052805D9E123DB00984208D964
:1016F000E122D20000234846514604F08BFE04004C
:101700000D0022002B004846514604F083FE03934F
:101710000292D30E039A51011943029B5801029A77
:10172000039B801A9941C30D9C4606004B026146FB
:1017300072020B430298039912184B41910E8C468A
:1017400016001F0099016346320019433B00B001A7
:10175000801A9941029A039B801859412B0022005C
:1017600004F058FE009B00285BD0012B62D0C6011C
:101770003000404904F010FE30000F003D4904F0F5
:101780000BFE3C4A3C495B468C46DB016344C01877
:101790000FE03A4B99428BD90525384C4B465246BF
:1017A000134334D1002000270122A30FAD001D43B5
:1017B000A40043462900186020005F609A6005B0CD
:1017C000F0BCBB46B246A946A046F0BD009B019CBA
:1017D000032C46D841D04B46524613431AD1009AA7
:1017E000019B1421264804F015FE06000B00072873
:1017F00022D000980199320006F0C0FA1E4B0D006D
:101800009C460400F001604400270122D1E7012337
:1018100000935FE7009A019B1D00002314000093D2
:1018200058E700270122012BACD1C2E71425154847
:10183000134CE9E70020E7E70029DAD10098019985
:1018400002000B0012184B4112184B4180209218D5
:101850005B41400014001D00D6E70B4B009A9A42F2
:10186000B9D9009A019B14001D0097E77FF0FA0296
:1018700080F0FA0240420F0000FEFFFF00C11A3D57
:1018800000046BF400820300FFD5117EF0B55746CB
:101890004E464546DE46E0B50F0006001500012223
:1018A0005242D31792197B418FB01100052D00D9F8
:1018B000F4E0002B39D1CD4B994236D8CC4BEA001D
:1018C0009B180022CB4908A806C3CB4B0E000593FA
:1018D0005B5D17008346002B00D1ABE3720EFB016A
:1018E0001A4317000724F601C44B5B5D002B00D0A0
:1018F000ACE2C34B59461A685B683000009139006E
:10190000FFF7C4FE0023029300935B4601945A68DC
:10191000280008999B68FFF701FB00200FB0F0BC7E
:10192000BB46B246A946A046F0BD052F01D800F03F
:101930001EFF0527B34EAE4C6368022B00D8A9E109
:10194000002D01D100F036FCAC4B9A465A5D1B7855
:101950009A4200D1B4E1E368022B00D9A7E1022B3F
:1019600004D1A94BA2689A4200D9A0E16369022B75
:1019700000D9AFE104D1A44B22699A4200D9A9E170
:10198000E369022B04D80CD19F4BA2699A4208D973
:10199000032D00D138E353465A5DDB789A4200D1DB
:1019A0008EE1636A022B04D80CD1974B226A9A42CB
:1019B00008D9042D00D131E353465A5D1B799A4270
:1019C00000D17DE1E36A022B00D98EE104D18E4B78
:1019D000A26A9A4200D988E1874B98465B5D994696
:1019E00008AB9B464B46002B00D1F6E1EB00E31819
:1019F0001E605F60032F00D9E6E100D1E0E13B000B
:101A000032001421814804F005FD80460B000728B0
:101A100000D0AAE2002900D0A7E23B0032009219D0
:101A20007B4192197B4192185B41802799461000B7
:101A300005927F005A460023089753600133936054
:101A4000534649465A5DFEF77FFD53465A5D0023D3
:101A500098462B002500444698462E686F68330050
:101A60003B4304D053461B5D934200D148E101340F
:101A70000835062CF1D1002A00D1DBE1012A00D083
:101A80004BE76A46624B60219385002361480093CF
:101A90000BAA02330AF06CFF00203FE7002B00D0B6
:101AA000D0E05D4B994200D9CCE00024514B270097
:101AB0001E004F4C062D00D1CEE0236B626B13430A
:101AC00000D1C5E1554B1A685B68914698463200D3
:101AD0003B004846414604F09DFC01001A430120AA
:101AE000002A00D01AE7C90700D517E730003900EF
:101AF000EB00E318186059600123494A5B428018E3
:101B000059410A1E01D100F094FC01233000390034
:101B1000444A5B42801859410A1E00D126E3012342
:101B200030003900404A5B42801859410A1E01D1F9
:101B300000F0D9FC0123300039003C4A5B42801898
:101B400059410A1E01D100F030FD01233000390057
:101B5000374A5B42801859410A1E01D100F097FDB7
:101B6000012330003900334A5B42801859410A1E74
:101B700001D100F0BAFD0123300039002E4A5B424A
:101B8000801859410A1E01D000F08FFD2B4B98425E
:101B900001D900F08AFD33003C009B197C412700ED
:101BA0001E0001243200B2463E1E03D1244B9A424D
:101BB00000D29A4642464B461343524601D100F0AA
:101BC000F6FB33004846414604F024FC1A4301D09A
:101BD00000F03DFC08A9831F8B46F82B00D991E645
:101BE000C0B208904A608A608CE6C0467E1A060041
:101BF000B81A0020801A0600B0260020842B00208E
:101C0000881C002000C11A3D00E40B5400046BF452
:101C1000B180FFFF4815002096281C00901C002072
:101C200068D7E3FFD0AEC7FFA05D8FFF40BB1EFFAC
:101C300080763DFE00ED7AFC00DAF5F8FF250A0714
:101C400080F0FA02032F3DD90324CE4B27001E005B
:101C5000CD4C062D00D030E7A36BE26B134300D1CF
:101C60000EE3CA4B1A685B689146984632003B0007
:101C70004846414604F0CEFB01001A430120002AE9
:101C800000D04BE6C90700D548E630003900206394
:101C9000616331E7022B04D1BD4B22689A4200D91F
:101CA0004EE6BC4B9A46E368022B00D857E6012D5E
:101CB00000D1A1E253465A5D5B789A4200D055E6C6
:101CC00001202BE6032F00D0F3E6AE4BB34200D346
:101CD000EFE6B9E7022D00D18CE153465A5D9B78BF
:101CE0009A4200D04CE6012018E6052D00D173E69B
:101CF00053465A795B5D9A4200D06DE601200DE6AD
:101D00000123A54A5B4292197B411100002B00D1AF
:101D10003EE20123A14A5B4292197B411100002B54
:101D200000D165E301239E4A5B4292197B41110079
:101D3000002B00D1F1E101239A4A5B4292197B41C9
:101D40001100002B00D1A4E30123974A5B429219B2
:101D50007B411100002B01D100F0DFFB0123934AEE
:101D60005B4292197B411100002B01D100F062FC13
:101D700001238F4A5B4292197B411100002B01D055
:101D800000F0EAFB8B4B994201D900F0E5FB3000F3
:101D900039000BAB059A0093801979419B464B465D
:101DA000FFF774FC01220023029300935B4601922B
:101DB0000ECBE0B2FFF7B2F8534642469A5C56E6C5
:101DC000704B9E4200D81AE6B30FBA001A43B30014
:101DD00091460027180005932CE604A903330B77DE
:101DE0005946754B75481B780BAA0B7001210123CE
:101DF00000915F3105900AF0BBFD4B465A466021C9
:101E00000093059801230AF0BDFD032204A95B4657
:101E10000A77023AAA401B78059893434B774B46C2
:101E2000602100930BAA02230AF0A2FD4346012180
:101E30005955DBE56946624B60488B850092022369
:101E400060210BAA0AF094FD002067E54F4B51E595
:101E5000EB00E4180123300039005A4A5B4220604D
:101E60006160801859410A1E00D173E101233000DE
:101E70003900554A5B42801859410A1E00D126E3B9
:101E8000012330003900514A5B42801859410A1E33
:101E900000D177E30123300039004D4A5B428018BE
:101EA00059410A1E01D100F0E5FB01233000390041
:101EB000484A5B42801859410A1E01D100F004FCD7
:101EC000012330003900444A5B42801859410A1E00
:101ED00001D100F024FC0123300039003F4A5B426D
:101EE000801859410A1E01D000F0FCFB3C4B98427F
:101EF00001D900F0F7FB33003C009B197C4127001F
:101F00001E000124B846002F03D1364B9E4200D25A
:101F10001E00434632001421334804F07BFA0123AB
:101F2000471C9F43FE2F00D9FE273200434638004E
:101F3000002105F023FF142904D800D025E22B4B03
:101F4000984206D9023F320043463800002105F08E
:101F500015FF08AB9B4600235A46089753609360D1
:101F60000C4B5A5DFEF7F0FACCE4390042463000E3
:101F700005F004FF4346DF011D4B89469C46059052
:101F8000674457E5FFD5117EB81A0020901C002049
:101F900000E40B54842B002080E5F9FF00CBF3FF15
:101FA0000096E7FF002CCFFF00589EFF00B03CFFDB
:101FB000006079FEFF9F860140DA0010481500207E
:101FC000B120000068D7E3FFD0AEC7FFA05D8FFF50
:101FD00040BB1EFF80763DFE00ED7AFC00DAF5F88E
:101FE000FF250A0780F0FA02002375EE00046BF467
:101FF00000FEFFFFE369022B00D9CCE404D1914B32
:10200000A2699A4200D9C6E4636A022B00D9D3E4DC
:1020100004D18C4B226A9A4200D9CDE4E36A022BA8
:1020200000D965E600D0D7E4864BA26A9A4200D96F
:102030005EE6D1E4002300240693079403240BAB4F
:1020400098461C7008AB9B465A467F4B7F481B78CE
:10205000602113700123424600939A4681460AF09C
:1020600087FC00235A4660210093484601330AF05A
:1020700089FC5A461378424614705246AA4093434C
:1020800042465370002360210093484602330AF011
:102090006FFC5346059A5355079B002B72D00123C2
:1020A0006B4A5B4292197B411100002B00D1B1E1D8
:1020B0000123684A5B4292197B411100002B3ED0FC
:1020C0000123654A5B4292197B411100002B00D12C
:1020D000F1E10123614A5B4292197B411100002B1F
:1020E00000D12DE201235E4A5B4292197B4111002F
:1020F000002B00D1B2E201235A4A5B4292197B4184
:102100001100002B00D049E2574B994200D945E21B
:10211000B6197F410124FFF7E7FB544B994200D9E0
:1021200009E6F30E790119430BAB059A00939B4620
:1021300070014B46FFF7AAFA0522002334E64B4B09
:102140009942BDD8F20E7B011A431700052476018F
:10215000FFF7CAFB464B984200D987E6720EFB0197
:10216000F1011A430E0017000724CBE6414B9842B9
:1021700000D9D4E4B20EBB01B1011A430E0017001E
:1021800006240FE53C4B069A9A4288D8FFF7A6FB37
:10219000394B994200D9BCE5730EF90119430BABD9
:1021A000059A00939B46F0014B46FFF76FFA072212
:1021B0000023F9E5E368022B00D937E104D1214B74
:1021C000A2689A4200D931E16369022B00D95CE12F
:1021D00004D11C4B22699A4200D956E1E369022BD3
:1021E00000D9DEE104D1174BA2699A4200D9D8E1A7
:1021F000224B9A46FFF7D5FB6369022B00D96CE5A9
:1022000004D1104B22699A4200D966E5E369022B9A
:1022100001D9FFF7C0FB05D10A4BA2699A4201D947
:10222000FFF7B9FB636A022B01D9FFF7C5FB01D0A9
:10223000FFF7C8FB034B226A9A4201D9FFF7BCFBA8
:10224000FFF7C0FB00E40B5440DA001048150020F3
:1022500000CBF3FF0096E7FF002CCFFF00589EFF56
:1022600000B03CFF006079FEFF9F8601FF69180007
:1022700097281C002F5138007F1A0600842B00205D
:10228000012330003900D04A5B422063616380182B
:1022900059410A1E00D134E1012330003900CB4AF4
:1022A0005B42801859410A1E00D1B7E1012330007A
:1022B0003900C74A5B42801859410A1E00D1F7E134
:1022C000012330003900C34A5B42801859410A1E7D
:1022D00000D118E2012330003900BF4A5B42801868
:1022E00059410A1E00D128E2012330003900BB4ABF
:1022F0005B42801859410A1E00D12CE201233000B4
:102300003900B74A5B42801859410A1E00D020E2CA
:10231000B44B984200D91CE233003C009B197C412D
:1023200027001E000124B846002F03D1AE4B9E4269
:1023300000D21E00434632001421AC4804F06AF873
:102340000123471C9F43FE2F00D9FE27320043463E
:102350003800002105F012FD142903D87BD1A44BCD
:10236000984206D9023F320043463800002105F06A
:1023700005FD08AB9B4600235A46089753609360BF
:102380000122FEF7E1F8FFF7BDFA0D2900D9E0E5DB
:1023900003D1984B984200D9DBE502374346380019
:1023A0003200002105F0EAFCFF231F40D1E5330095
:1023B00014218E4804F02EF80123471C9F43FE2F62
:1023C00000D9FE27524633003800002105F0D6FC24
:1023D000142903D84FD1864B984200D9023F08AB4D
:1023E0009B4600235A46089753609360FFF78AFA8A
:1023F000814B994200D995E4B30EB90119430BAB57
:10240000059A00939B46B0014B46FFF73FF9062221
:102410000023C9E4784B994200D949E6B20EBB01CA
:102420001A4317000624B601FFF75EFA734B9A466B
:1024300040E4734B984201D9FFF767FB720EFB0132
:10244000F1011A430E0017000724FFF7ABFB08AB9E
:102450009B46FFF757FA0D298BD802D1654B98425E
:1024600087D80237434638003200002105F086FC49
:10247000FF231F407DE70D29B1D802D15D4B984263
:10248000ADD8FF2302371F40A9E75C4B9A46FFF700
:1024900024FC5C4B994200D956E4330F39011943AF
:1024A0000BAB059A00939B4630014B46FFF7EEF8C5
:1024B0000422002378E4534B994200D909E6320FF5
:1024C0003B011A43170004243601FFF70DFA4E4B67
:1024D000984200D9D4E4B20EBB01B1011A430E00F8
:1024E000170006240EE5494B984201D9FFF722FB5D
:1024F000F20E7B0171011A430E0017000524FFF74D
:1025000051FB3F4B984200D9C6E6720EFB01F10128
:102510001A430E001700072405E73D4B994201D9E5
:10252000FFF71CFC730FF90019430BAB059A0093DE
:102530009B46F0004B46FFF7A9F80322002333E443
:10254000334B994200D9CDE5720FFB001A431700B7
:102550000324F600FFF7C8F90BAB00939B4630004D
:102560004B463900059AFFF791F80123032F01D854
:1025700004D000230022DBB2FFF716FC254A964266
:10258000F8D8F6E7214B984200D983E4F20E7B019C
:1025900071011A430E0017000524B3E40024FFF76D
:1025A000A3F9164B9A46FFF7F6F91B4B984201D94F
:1025B000FFF7CBFA320F3B0131011A430E0017002F
:1025C0000424FFF7EFFAC04668D7E3FFD0AEC7FF99
:1025D000A05D8FFF40BB1EFF80763DFE00ED7AFCC4
:1025E00000DAF5F8FF250A0780F0FA02002375EEFD
:1025F00000046BF4FF5747F8FF340C00842B0020D5
:1026000097281C00FFD330002F5138005FA27000C4
:10261000FFA76100FFD5117EBF44E100674B9842E0
:1026200000D943E6B20EBB01B1011A430E001700F8
:10263000062478E6624B994201D9FFF799FBB30F64
:10264000B90019430BAB059A00939B46B0004B466B
:10265000FFF71CF802220023FFF7A6FB584B994214
:1026600000D948E5B20FBB001A4317000224B60098
:10267000FFF73AF9534B984201D9FFF716FC320F96
:102680003B0131011A430E00170004243AE44E4B7B
:10269000984201D9FFF764FA720FFB00F1001A4368
:1026A0000E0017000324FFF77DFA0024FFF77AFAE3
:1026B000464B984200D903E6F20E7B0171011A43A2
:1026C0000E00170005242EE63F4B984201D9FFF774
:1026D000F7FB720FFB00F1001A430E0017000324F2
:1026E000FFF710FC0024FFF70DFC394B984201D98D
:1026F000FFF741FAB20FBB00B1001A430E001700FA
:102700000224FFF74FFA2F4B984200D9E2E5320F2F
:102710003B0131011A430E001700042403E62C4B41
:10272000984201D9FFF7D7FBB20FBB00B1001A43A3
:102730000E0017000224FFF7E5FB234B984200D957
:10274000D2E5720FFB00F1001A430E0017000324BC
:10275000E9E50024E7E51E4B984200D9CEE5B20F2B
:10276000BB00B1001A430E0017000224DBE5052F61
:1027700004D1184B9E4201D9FFF7DBF8022F01D993
:10278000FFF7D9F814D00123134A5B4292197B4119
:1027900006920793114BEA009B181E605F60104B76
:1027A00008AA05935B5D9346002B00D074E445E4D2
:1027B0000C4B9E42E7D9FFF7BEF8C0462F513800B8
:1027C000FF4FC300BF44E1007F89C2015FA27000D8
:1027D000FF12850300C11A3D80E5F9FFB81A0020F9
:1027E000B026002000E40B54F0B5066847680125C8
:1027F0003F4C6D42A4197D41002D34D001253D4C44
:102800006D42A4197D41002D38D001253A4C6D420E
:10281000A4197D41002D47D00125384C6D42A419E3
:102820007D41002D35D00125354C6D42A4197D41E7
:10283000002D46D00125334C6D42A4197D41002D59
:102840004AD00125304C6D42A4197D41002D36D16E
:102850002E498C4233D832003B0092197B410260F2
:102860004360012009E02A498C42C7D8710EFB0160
:102870000B43F201436002600720F0BD25498C4202
:10288000C3D8B10EBB010B43B20143600260062006
:10289000F3E721498C42C6D8310F3B010B4332018B
:1028A000436002600420E8E71C498C42B4D8F10E72
:1028B0007B010B437201436002600520DDE70020CD
:1028C000DBE717498C42B5D8710FFB000B43F200D0
:1028D000436002600320D0E712498C42B1D8B10FA7
:1028E000BB000B43B200436002600220C5E7C04654
:1028F00080E5F9FF00CBF3FF0096E7FF002CCFFF48
:1029000000589EFF00B03CFF006079FEFF9F8601EB
:102910007F1A0600FF340C00FFD33000FF69180057
:10292000FFA76100FF4FC300F0B516001F000400B1
:102930000D0002000B00A41BBD4192197B41122126
:1029400089B0069407952448244C254E049205939B
:1029500000222060616030607160FDF7F5FD04A821
:10296000FFF742FF1F4D287006A8FFF73DFF1E4BE3
:102970001870226863681D4C049805990094FEF74E
:1029800085FE3268736806980799194E00960026EE
:10299000FEF77CFE02962B7800960193A3682168CF
:1029A00062680020FEF7BAFA0020FEF749FE0296A0
:1029B0002B78009601930ECC0020FEF7AFFAD023BF
:1029C00080221B0612029A618022D2015A61802263
:1029D00052005A6109B0F0BD00205FA02010002015
:1029E000801C0020E82B0020E92B0020482B002031
:1029F000542B002000B585B0002815D1164A02904E
:102A00001278164B019200900ECBFEF787FAD02376
:102A100080221B0612025A618022D2019A61802212
:102A200052009A6105B000BD00220D49029209785A
:102A30000C4B019100920ECB0020FEF76FFAD023D1
:102A400080221B0612029A618022D2015A618022E2
:102A500052005A61E6E7C046E92B0020542B0020C3
:102A6000E82B0020482B002010B5002803D10021BE
:102A7000FEF762FD10BD01210020FEF75DFDF9E7C4
:102A8000010010B50020032900D910BD024B1970B8
:102A9000FEF792FD0120F8E7DF2B0020F8B5DE46B7
:102AA00057464E464546E0B52A4E0700335C9B0626
:102AB000DB0F9846284B9B461B68434501D10029F4
:102AC00046D00020FFF796FF802343449A46012317
:102AD00000249946214D0021288803F0CBF8534665
:102AE000F05C4B46204101341840FFF783FF052C72
:102AF000F1D10021288803F0BDF80120FFF77AFF0B
:102B00005B4642461A60164B0021188803F0B2F863
:102B10000020FFF76FFF012300249846002128883A
:102B200003F0A8F8F05D4346204101341840FFF758
:102B300061FF052CF2D12888002103F09BF80120C9
:102B4000FFF758FFF0BCBB46B246A946A046F8BD09
:102B5000024DDDE7281000203C2B00200C10002047
:102B60000A100020124B10B5188805F045F9011C19
:102B7000104805F026F9104905F01DF905F064F933
:102B80000E4A0F4B944680B2188060440D4B4000B3
:102B900018800D490D4B086849681A685B68FFF793
:102BA000C3FE0120FFF726FF0120FFF75DFF10BDE8
:102BB0000E1000200024744900005244B8FCFFFFAE
:102BC0000C1000200A100020181000201010002007
:102BD000114B10B5188805F00FF9011C0F4805F0CE
:102BE000F0F80F4905F0E7F805F02EF90D4A0E4B05
:102BF000944680B218800D4B6044400018800C4908
:102C00000C4B086849681A685B68FFF78DFE012065
:102C1000FFF7F0FE10BDC0460E10002000247449DE
:102C200000005244B8FCFFFF0C1000200A100020E6
:102C300018100020101000200B4B10B5188005F064
:102C4000DBF8011C094805F0BCF8094905F0B3F8A8
:102C500005F0FAF8074A084B944680B21880074BF3
:102C600060444000188010BD0E10002000247449FC
:102C700000005244B8FCFFFF0C1000200A10002096
:102C800010B5054B002218685968FEF7FFFD0020BB
:102C9000FFF7EAFE10BDC046181000200F4B10B51C
:102CA000186859680022FEF7F1FD0D4B0D4C18789D
:102CB00005F0A2F80C4905F084F80C4905F095F8E8
:102CC000011CFE20800505F07CF8094905F08DF80F
:102CD00005F0C0F82060616010BDC04618100020EB
:102CE0000810002000100020000070420000484240
:102CF000002474490C4B10B5187005F07DF80B4991
:102D000005F05FF80A4905F070F8011CFE20800507
:102D100005F057F8074905F068F805F09BF8064CF0
:102D20002060616010BDC0460810002000007042A5
:102D3000000048420024744900100020F8B5030048
:102D4000DE4657464E464546613BE0B5192B55D801
:102D50004038C3B22D4A9B009A58920191462C4AA2
:102D60009D58063527D4012398468023D026DB01C1
:102D70009A46284F36064B462C00EB40203CE41781
:102D80001C40434623409B461800FFF76DFE5B4600
:102D9000002B19D05346736180231B02736180237B
:102DA0005B0073614346386879681C4219D102F0B0
:102DB00061FF013DDFD20020FFF756FEF0BCBB46AD
:102DC000B246A946A046F8BD5346B36180231B0214
:102DD000B36180235B00B3614346386879681C4265
:102DE000E5D0CB0740081843490802F043FF386894
:102DF000796802F03FFF013DBDD2DCE72038C0B268
:102E00001F233B28A6D80300A4E7C0469811002042
:102E1000AC1000200010002010B507F08FFA002839
:102E200009D1012002F05AFF02F01AFF002902D155
:102E3000034B9842F1D9034806F066FF10BDC04627
:102E4000404B4C0088D50010F0B5D6464F4646465C
:102E5000C0B500293DD08246214B00209A444B1E2C
:102E6000994600211EE003F079FD02000B000020CE
:102E70001C4904F081F9434606000F0058B203F0E4
:102E80006DFD32003B0003F0F2FC2B00220003F04A
:102E9000C7FC03F0B7FD01239C464B46E244013BCF
:102EA00019D3994603F0A2FD5346040018780D008B
:102EB0003038C3B298464846092BD4D903F04EFDAA
:102EC00002000B000020074904F056F900220023FD
:102ED000D9E700200021E0BCBA46B146A846F0BDC3
:102EE000E026002000002440F0B5DE4657464E465E
:102EF0004546E0B5AC4B8BB01A78682A5ED15A785B
:102F0000652A00D016E19A786C2A00D012E1DA78AE
:102F1000702A00D00EE1A54806F07AFFA44806F01A
:102F2000F3FEA44806F0F0FEA34806F0EDFEA34829
:102F300006F0EAFEA24806F0E7FEA24806F0E4FE2C
:102F4000A14806F0E1FEA14C200006F0DDFE2000C5
:102F500006F0DAFE9E4806F0D7FE9E4806F0D4FE44
:102F60009D4806F0D1FE9D4806F0CEFE9C4806F036
:102F7000CBFE9C4806F0C8FE9B4806F0C5FE9B4869
:102F800006F0C2FE9A4806F0BFFE9A4806F0BCFE64
:102F9000994806F0B9FE994806F0B6FE984806F042
:102FA000B3FE984806F0B0FE974806F0ADFE0BB0B1
:102FB000F0BCBB46B246A946A046F0BD632A00D08D
:102FC0009EE15A786F2A0ED19A786E2A0BD1DA7860
:102FD000662A08D11A79692A05D15A79672A02D155
:102FE000FDF77AF9E3E75A78662A00D028E19A7863
:102FF000722A00D09EE0DA78652A00D09AE01A7929
:10300000712A00D096E05A79202A00D092E09A796D
:10301000303A092A6FD8DA79303A092A6BD81A7A05
:10302000303A092A67D85A7A303A092A63D89A7A04
:10303000303A092A5FD8DA7A303A092A5BD81A7B03
:10304000303A092A57D85A7B303A092A53D89A7B02
:10305000303A092A4FD89A1D91460F229246013ADA
:103060009046002400259A44984421E043464A466D
:10307000981A03F073FC02000B000020634904F06F
:103080007BF85B460090019158B203F067FC009A10
:10309000019B03F0ECFB3B00320003F0C1FB03F0AB
:1030A000B1FC01239C46E14404000D00D1451AD037
:1030B0002000290003F09AFC4B46060018780F0008
:1030C0003038C3B29B46092BD0D943464A46981A9A
:1030D00003F044FC02000B0000204C4904F04CF8C3
:1030E00000220023D5E70123494A5B4212196B41B4
:1030F0001100002B03D0474806F006FE57E7464B69
:103100009942F8D8454B46481C605D602B00220070
:1031100006F07EFE434B1B78012B41D0022B01D1E0
:10312000FFF756FDFF2000F0E9FF40E7732A01D1C9
:1031300000F068FC00223C499C5C885C844200D022
:1031400045E30132062AF7D1364D2B78002B00D00B
:10315000D6E3D02404252406344806F0D5FD6420A7
:10316000656102F0BBFDA56121E79422431F9BB27C
:103170005200934200D31FE1FFF75EFD2C4B2D4818
:10318000198806F045FE2C4B2C481988D2239B0049
:103190009C46614406F03CFE224B1B78012BBDD1BE
:1031A000FFF77CFDBEE7C046E0260020A0D500105A
:1031B000A8D50010BCD50010F0D5001004D6001022
:1031C00024D600105CD60010B4D6001008D700102A
:1031D00018D700102CD700103CD7001058D700107B
:1031E0007CD70010B0D70010F0D7001020D8001006
:1031F0005CD800108CD80010B4D80010F8D800109B
:1032000014D9001050D9001050D5001000002440EF
:10321000F0D8FFFFF8D90010F09AEB0B181000203F
:10322000D4D90010E12B00200CDD001014DD0010BB
:103230000E10002090D900100C100020ACD9001006
:10324000772A00D076E79A78732A00D072E7DA7886
:10325000702A00D06EE71A79652A00D06AE75A7999
:10326000652A00D066E79A79642A00D062E7DA79A5
:10327000202A00D05EE7187A3038C0B2092837D843
:103280005B7A303BDBB29846092B31D840B203F071
:1032900065FB0022D14B03F0EAFA0022002303F081
:1032A000BFFA03F0AFFB03F0A1FB4346060058B2A0
:1032B0000F0003F053FB02000B003000390003F055
:1032C000AFFA03F09FFB01225242D31704000D0016
:1032D00012196B41002B0FD1622A0DD8C04CC0B21D
:1032E0002070FFF707FD2178BE4806F091FD19E731
:1032F000BD4806F009FD15E7BC4806F005FD11E7DD
:10330000622A5DD15A78612A00D013E79A78752A2B
:1033100000D00FE7DA78642A00D00BE71A79202A68
:1033200000D007E75A79303A092A45D89A79303AD5
:10333000092A41D8DB79303B092B3DD8AC4B002022
:103340009A460223994620E003F008FB02000B0096
:103350000020A24903F010FF434606000F0058B2B8
:1033600003F0FCFA32003B0003F081FA2B0022004C
:1033700003F056FA03F02EFB01239C464B4680B225
:10338000E244013B00D2F0E6994603F0E7FA5346E7
:10339000040018780D003038C3B298464846092B0F
:1033A000D2D903F0DBFA02000B0000208B4903F0B6
:1033B000E3FE00220023D7E78E4806F0A5FCF6E5E1
:1033C000732A00D09AE05A78662A00D025E19A78CC
:1033D000722A00D021E1DA78652A00D01DE11A793D
:1033E000712A00D019E15A79202A00D015E19A7982
:1033F000303A092A00D97EE6DA79303A092A00D92A
:1034000079E61A7A303A092A00D974E65A7A303ABB
:10341000092A00D96FE69A7A303A092A00D96AE671
:10342000DA7A303A092A00D965E61A7B303A092A55
:1034300000D960E65A7B303A092A00D95BE69A7BCC
:10344000303A092A00D956E69A1D91460F22924633
:10345000013A9346002400259A449B4421E05B46B0
:103460004A46981A03F07AFA02000B0000205B49E2
:1034700003F082FE43460090019158B203F06EFAC9
:10348000009A019B03F0F3F93B00320003F0C8F906
:1034900003F0B8FA01239C46E14404000D00D14535
:1034A0001AD02000290003F0A1FA4B460600187834
:1034B0000F003038C3B29846092BD0D95B464A4634
:1034C000981A03F04BFA02000B000020434903F066
:1034D00053FE00220023D5E705225242D3171219CA
:1034E0006B411100002B00D005E6434B994200D9F7
:1034F00001E6424B42481C605D6007E6742A00D03A
:10350000B6E05A78782A23D19A78652A20D1DA78D9
:103510006E2A1DD11A79202A1AD158793038C0B2B2
:10352000092811D840B203F019FA0022002303F051
:1035300077F903F067FA084349D10020FFF794FABE
:10354000304806F0E1FB32E5274806F0DDFB2EE5CA
:103550005A78782A00D0EDE59A786D2A00D0E9E50E
:10356000DA786F2A00D0E5E51A79642A00D0E1E51F
:103570005A79652A00D0DDE59A79202A00D0D9E56C
:10358000D8793038C0B20928DED840B203F0E6F965
:103590000022002303F044F903F034FA002963D138
:1035A000032861D8184DC3B22B70022B00D121E241
:1035B000032B00D1EDE1012B01D1FFF761FBFF20CF
:1035C00000F09CFD2978114806F022FCEFE4012070
:1035D000FFF74AFA0E4806F097FBE8E400002440A3
:1035E000081000202CDA001054DA001044DA001021
:1035F000E5260020C0D900100B2700001010002085
:103600000CDA001064DA0010E12B00209CDA0010C4
:1036100070DA0010732A00D048E15A78612A00D08D
:10362000F0E19A78762A00D0ECE1DA78652A00D0C9
:10363000E8E11A79702A00D0E4E15A79202A00D012
:10364000E0E19B79303B092B00D97DE70121062081
:10365000FFF7FAFBC0B200F051FD002800D1CCE129
:10366000CD4806F051FBA2E4CC4806F04DFB9EE4A9
:103670006D2ACFD15A78612A1CD19A786E2A19D135
:10368000DA78722A16D11A79742A13D15A79742ADF
:1036900010D19A79792A0DD1DA79742A0AD11A7A55
:1036A000782A07D1BE4B1B78022B48D0BD4806F0C4
:1036B0002BFB7CE45A78612A00D03BE59A786E2A8D
:1036C00000D037E5DA78632A00D033E51A79772A13
:1036D00000D02FE55A79742A00D02BE59A79782A00
:1036E00000D027E5AE4B1B78012BDFD12020FFF760
:1036F00025FBD02380221B0692015A61002006F090
:103700006DFA45B20400AB1C5DD00A2D13D00D2D0F
:1037100011D0280006F0AEFAE0B2FFF70FFB032D40
:10372000ECD1D02380221B06920103219A619E488E
:1037300006F06EFB3BE40A2006F09CFADEE701216E
:103740002020FFF7ABF9D02380221B069201974E71
:10375000974F5A61002006F041FA45B20400AB1CB5
:103760002DD00A2D12D00D2D10D0280006F082FA8F
:103770000021E0B2FFF792F931888E4802F0E4FDB3
:10378000C11702F077FA032DE4D1CAE70A2006F048
:1037900071FA00210A20FFF781F93B880021980087
:1037A000C01802F067FA00210D20FFF777F9318881
:1037B000804802F0C9FDC11702F05CFACAE7012097
:1037C00002F08CFAC6E7012002F088FA96E70022A0
:1037D00079499C5C885C844200D052E201320A2A1A
:1037E000F7D19A7A303A092A00D954E1DA7A303A94
:1037F000092A00D94FE11B7B303B092B00D94AE154
:103800000023994618006D4B9B4602239A4603F00D
:10381000A5F85B464A460400985C0D003038C3B2F8
:103820009846092B01D9002398464A465346981AD0
:1038300003F094F802000B000020614903F09CFCA7
:10384000434606000F0058B203F088F832003B00F0
:1038500003F00DF82B00220002F0E2FF03F0BAF8AB
:1038600001239C46E1444B4680B2032BCFD19422E6
:10387000431F9BB25200934200D30CE101F0A8FA1F
:10388000504B5148197806F0C3FA504B50481988EC
:1038900006F0BEFA424B1B78022B00D140E4032B0A
:1038A00000D11DE2012B00D17AE43BE46C2A00D068
:1038B0002EE15A786F2A00D03CE49A78612A00D031
:1038C00038E4DA78642A00D034E41A79702A00D017
:1038D00030E45A79202A00D02CE49B79303B092B24
:1038E00000D931E601210620FFF7AEFAC0B200F0A0
:1038F000B3FD002848D0374806F006FAFFF757FB1B
:10390000354806F085FA354B00249846344F03E0DD
:10391000385D06F0AFF9013443461B78A342F7DC6B
:10392000304806F0F1F9304B3C000026994612E091
:10393000032B00D11FE1012B02D12078FFF7FEF904
:10394000002006F04BF9294B40B2187001340328CF
:1039500000D114E1013643461B78B34200DC16E186
:10396000207806F087F92B78022BE1D1002E00D0C9
:1039700012E138780121FFF791F81B4B00211888DC
:10398000400002F077F9DBE7194806F0BDF9FFF7D0
:103990000EFB01F005FA12E6C0DA0010ACDA0010F6
:1039A000E12B00207CDA001030D500100E10002032
:1039B0000A10002040420F009CDD0010E526002088
:1039C0000000244080140020A8DD00108214002094
:1039D000ACD900100CDB001050DD0010D80F002017
:1039E000DC0F002068DD00100C100020DC2B002014
:1039F0001CDB0010FFF7B6F8E1E5BF4806F084F9DC
:103A0000FFF7D5FA5A78652A01D0FFF793FB9A7829
:103A1000742A01D0FFF78EFBDA78742A01D0FFF701
:103A200089FB1A79652A01D0FFF784FB5A79782A35
:103A300001D0FFF77FFB9A79742A01D0FFF77AFB58
:103A4000002006F0CBF8AD4C02AE20702022002101
:103A5000300004F0DBFA0025002006F0BFF841B288
:103A600021708B1CF8D0082949D0032938D00A29A5
:103A70001DD00D291BD01F2D15D82038C0B25E28AF
:103A800011D8080006F0F6F8237873550135EDB229
:103A900000232370E0E7962205215200984806F0A3
:103AA000B7F9FFF784FA012002F018F9F0E70023D4
:103AB000944A02E0F15CD15401339D42FADC924B0E
:103AC000FF201D700023237000F018FB8F4806F0C4
:103AD0001BF9002006F082F80230FAD1FFF767FAEE
:103AE0008B4806F095F900238A48237006F090F978
:103AF000002006F073F80230FAD1FFF758FA002DD3
:103B0000D1D00A00013D8448EDB206F081F9BFE74B
:103B1000642A01D0FFF70AFB5A78722A5BD19A789F
:103B2000692A58D1DA78762A55D11A79652A52D17C
:103B30005A79732A4FD19A79202A4CD1DB79303BBC
:103B4000092B00D900E501210720FFF77DF9C4B258
:103B5000032C3BD82000FEF793FF704806F058F97D
:103B6000022C2ED0032C27D0012C20D06C4806F03C
:103B7000CBF8FFF7D7FA207801F040F9E0E6694882
:103B800006F046F9002006F029F80230FAD10A20A2
:103B900006F070F8FFF70BFA20780021FEF77EFFA1
:103BA0004B4618880021400002F064F8C8E65E48E1
:103BB00006F0AAF8FFF7B6FA5C4806F0A5F8FFF79A
:103BC000B1FA5B4806F0A0F8FFF7ACFA594806F0E6
:103BD0009BF8FFF7ECF95A78652A01D0FFF7AAFAAB
:103BE0009A78662A01D0FFF7A5FADA78612A01D01F
:103BF000FFF7A0FA1A79752A01D0FFF79BFA5A79D4
:103C00006C2A01D0FFF796FA9A79742A01D0FFF74F
:103C100091FA494806F078F8484806F075F848489F
:103C200006F072F8474806F06FF8002005F0D6FF5E
:103C3000324C454D2070002005F0D0FF40B203000B
:103C40004E3BDBB220702B2BF5D89B00EB589F46E8
:103C50003E4806F059F801F09FF83D4806F054F848
:103C6000FFF7A5F9394806F04FF800F0ABFE3948E8
:103C700006F04AF8FFF79BF9374806F045F8FFF7DA
:103C800096F9002235499C5C885C844223D101323C
:103C9000072AF8D1324B1B78032B00D006E52020F1
:103CA00001F0ACF8D02380221B0692015A6100205B
:103CB00005F094FF44B20500A31C19D00A2C13D0C0
:103CC0000D2C11D0200005F0D5FFE8B201F096F8D8
:103CD000032CECD125E5234806F016F8FFF767F929
:103CE00001F06CF8FFF71EFA0A2005F0C3FFDEE7CB
:103CF000012001F0F3FFDAE7D0DA0010DC2B00201E
:103D0000C4DD0010DC0F0020D80F0020F0DC001014
:103D1000D8DC001084D50010D0DC001058DB001077
:103D200070DB001084DD001078DB001088DB0010F1
:103D300080DB001090DB0010A8DB0010E0DB00103F
:103D400008DC001040DC001044E0001068DC0010CB
:103D50008CDC0010A4DC0010BCDC001008DE0010BD
:103D6000E12B002014DE001070B5002005F036FFB6
:103D7000224C42B22270931C20D0082A15D00A2A65
:103D800025D00D2A23D01E4D2B781F2B11D820387B
:103D9000C0B25E280DD8100005F06CFF2B78194AD0
:103DA0002178D15401332B7006E0154A1378002B8B
:103DB00005D1012001F092FF0023237070BD013B6B
:103DC000137008210822104806F022F8F4E70A20B0
:103DD00005F050FFFFF788F80022094B22701A7097
:103DE00000210848203204F011F9084806F010F8C4
:103DF000002005F0F3FE0230FAD1DFE7DC2B0020D3
:103E0000DE2B0020E0260020D0DC001084D500103E
:103E1000F0B5CE46474680B500270500914685B0EF
:103E2000414E03AC984643BA2380A270032322007C
:103E300050213000009708F09BFD052001F04EFF57
:103E40006B1C5BBA23804B461B0A2200A3705021D7
:103E500003233000009708F08BFD052001F03EFFA2
:103E6000AB1C5BBA23804B461B0C2200A370502175
:103E700003233000009708F07BFD052001F02EFFA2
:103E8000EB1C5BBA23804B461B0E2200A370502113
:103E900003233000009708F06BFD052001F01EFFA2
:103EA0002B1D5BBA238043462200A37050210323BD
:103EB0003000009708F05CFD052001F00FFF6B1D3E
:103EC0005BBA238043461B0A2200A37050210323C0
:103ED0003000009708F04CFD052001F0FFFEAB1DFF
:103EE0005BBA238043461B0C2200A370502103239E
:103EF0003000009708F03CFD052001F0EFFE43463E
:103F000007356DBA1B0EA3702200032350212580B4
:103F10003000009708F02CFD052001F0DFFE05B011
:103F2000C0BCB946B046F0BD48150020F0B5DE462D
:103F300057464E464546E0B5030085B06A4607330E
:103F40005BBA0B2400279381012380466A4E6C44A0
:103F50009946277003AA009350213000013308F0DE
:103F600007FD2200012350213000009708F00AFDD0
:103F700023786A461B029A46434606335BBA93810E
:103F80004B46277003AA009350213000013308F0FC
:103F9000EFFC2200012350213000009708F0F2FCD2
:103FA000534625786A461D43434605335BBA9381E1
:103FB0004B46277003AA009350213000013308F0CC
:103FC000D7FC2200012350213000009708F0DAFCD2
:103FD00023782D021D4343466A4604335BBA93811E
:103FE0004B46277003AA009350213000013308F09C
:103FF000BFFC2200012350213000009708F0C2FCD2
:1040000023782D022B432A0E1D02434692466A4610
:1040100003335BBA93814B46277003AA0093502168
:104020003000013308F0A4FC2200012350213000AD
:10403000009708F0A7FC514622782B0E2A430D0268
:104040001D4313029B4643466A4602335BBA938183
:104050004B46277003AA009350213000013308F02B
:1040600087FC2200012350213000009708F08AFCD1
:104070005B4622782D021A431B0E1D4313029A46FB
:1040800043466A4601335BBA93814B46277003AAC5
:10409000009350213000013308F06AFC2200012314
:1040A00050213000009708F06DFC534622782D0215
:1040B0001A431B0E1D4313029A4643466A465BBAD7
:1040C00093814B46277003AA00935021300001339F
:1040D00008F04EFC0123220050213000009708F028
:1040E00051FC534629002078184305B0F0BCBB466C
:1040F000B246A946A046F0BD48150020F0B5D64608
:104100004F464646C0B584B0072800D89FE0FF2838
:1041100011D0D024042524069B4805F0F5FD642029
:10412000656101F0DBFD0020A56104B0E0BCBA468A
:10413000B146A846F0BD0025944B954E1B7803ACC4
:1041400050212200A370258003233000009508F041
:104150000FFC052001F0C2FD8E4B01201A685B6840
:10416000FFF756FE8C4B09201A685B68FFF750FE7C
:104170008A4B22001F8888235B0150212380A7706F
:1041800003233000009508F0F3FB052001F0A6FDA5
:1041900090233F0A5B01220050212380A770032354
:1041A0003000009508F0E4FB052001F097FD98220F
:1041B0007B4B52011B7850212280A37022000323E5
:1041C0003000009508F0D4FB052001F087FDA02207
:1041D000744B52011B7850212280A37022000323CC
:1041E0003000009508F0C4FB052001F077FDF822AF
:1041F0006D4B520198461B782280A3702200032346
:1042000050213000009508F0B3FB052001F066FD59
:1042100043461B78002B18D0644B002799464B4629
:104220002A005B5D20326270A370220003235021BC
:1042300027703000009708F09BFB052001F04EFD31
:1042400043461B780135AB42E9DC01206DE70027CE
:104250004E4B013085014E4E1B7803AC6ABA50219B
:104260002280A370220003233000009708F080FB17
:10427000052001F033FD474B681C1A685B68FFF7A7
:10428000C7FD2800444B09301A685B68FFF7C0FD82
:10429000424B22001B88502198462B0011335BBAF9
:1042A000238043463000A3700323009708F060FB8F
:1042B000052001F013FD2B0012335BBA2380434627
:1042C0001B0A22005021A37030000323009708F03E
:1042D0004FFB052001F002FD314B50211A782B00D5
:1042E00013335BBA2380A2700323220030000097AF
:1042F00008F03EFB052001F0F1FC2A4B50211A7812
:104300002B0014335BBA2380A270032322003000F9
:10431000009708F02DFB052001F0E0FC224B502116
:104320001A7898462B001F335BBA2380A2700323B0
:1043300022003000009708F01BFB052001F0CEFCA6
:1043400043461B78002B00D17FE7184B0027994686
:1043500000239A4620354B46DB5D6ABAA37053466C
:1043600022805021220000933000032308F000FB3C
:10437000052001F0B3FC43461B7801350137ADB28F
:10438000BB42E8DC0120D0E63CDE0010E12B00203F
:104390004815002018100020101000200E100020DA
:1043A00008100020DF2B0020D80F0020DC0F002099
:1043B00070B5274C2378DA0734D5D0228021120635
:1043C000490251619A0727D5D0228021120689021D
:1043D00051615B071AD5D02380221B06D2025A6195
:1043E000D0231B065A68802315005B031D401A4228
:1043F00003D1184E3378012B1AD0D0231B065B68EB
:10440000DB0202D50122134B1A7070BDD02380222B
:104410001B06D2029A61E3E7D022802112068902AC
:104420009161D6E7D0228021120649029161C9E745
:10443000642001F053FC07222900237835700133F2
:10444000DBB29A4269414A4213402370DDE7C0461D
:10445000A6120020A5120020F0B5DE4657464E46B3
:104460004546E0B587B0072800D8E5E0FF2812D020
:10447000D02404252406E44805F046FC6420656148
:1044800001F02CFC0020A56107B0F0BCBB46B24691
:10449000A946A046F0BD02AB9C4600230B24002693
:1044A00099460123D94F644405AD98462A0050210E
:1044B00026702E8038000093013308F059FA01234A
:1044C000220050213800009608F05CFAD04A237888
:1044D000012013700392FFF729FDCE4B186059603D
:1044E0000920FFF723FDCC4B2A00186059604B468A
:1044F000237090235B012B804346502100933800AA
:10450000013308F035FA01232200502138000096CB
:1045100008F038FA23782A001B029A464B4623708B
:1045200088235B012B8043465021009338000133E0
:1045300008F01EFA0123220050213800009608F0EE
:1045400021FA2278B54B52441A804B4623709823A7
:104550005B012B8043462A00502100933800013331
:1045600008F006FA0123220050213800009608F0D6
:1045700009FA2278AA4B50211A704B462370A023C7
:104580005B012B8043462A0000933800013308F07A
:10459000EFF90123220050213800009608F0F2F9CB
:1045A0002278A04B50211A704B462370F8235B01F0
:1045B0002B8043462A0000933800013308F0D8F9D5
:1045C0000123220050213800009608F0DBF9964BB9
:1045D00022789B461A70002A24D0944B00269946D4
:1045E0000023984601339A46434623702B703300CC
:1045F00020336B7053462A00502100933800022369
:1046000008F0B6F9434622000093502101233800F8
:1046100008F0B8F94A46237893555B461B78013673
:10462000B342E1DC039B1B78012B00D1E4E0022BB9
:1046300000D1E5E0012027E702AB9C460B240023D4
:10464000013064448601984605AD237073BA2B800F
:1046500001236E4F99462A00502100933800013300
:1046600008F086F9434622005021009338000133B8
:1046700008F088F9664A2378701C13700392FFF7DC
:1046800055FC644B1860596030000930FFF74EFC50
:10469000614B2A001860596043462370330012337F
:1046A0005BBA2B804B46502100933800013308F051
:1046B0005FF943462200502100933800013308F08F
:1046C00061F923782A001B029A464346237033007F
:1046D00011335BBA2B804B465021009338000133D5
:1046E00008F046F943462200502100933800013378
:1046F00008F048F92278494B52441A804346237007
:10470000330013335BBA2B804B462A0050210093B1
:104710003800013308F02CF9434622005021009361
:104720003800013308F02EF922783D4B50211A70E1
:1047300043462370330014335BBA2B804B462A0068
:1047400000933800013308F013F94346220050214A
:1047500000933800013308F015F92278314B5021CD
:104760001A704346237033001F335BBA2B804B46CD
:104770002A0000933800013308F0FAF8434622007B
:10478000009350210133380008F0FCF8264B2278C2
:104790009B461A70002A00D144E700239846234B19
:1047A0002036994600239A463B002F0025004446B8
:1047B000984653462B7073BA3B8001233A00502130
:1047C00000934046013308F0D3F853462A00009383
:1047D00050210123404608F0D5F84A462B7801368F
:1047E00013555B461B780134B6B2A342E1DC039B50
:1047F0001B78012B00D01AE7FEF742FA012043E6AE
:10480000FEF7B0F901203FE670DE001048150020E9
:10481000E12B002018100020101000200E100020A6
:1048200008100020DF2B0020D80F0020DC0F002014
:10483000F8B5D024CE4647462406636880B55B02AF
:1048400003D4564D2E78012E0BD0D0231B065B6867
:104850005B0202D50122514B1A70C0BCB946B0466A
:10486000F8BD802780237F029B02676199466361C0
:104870008023DB0264206361984601F02FFA4B46E7
:10488000A761A36143466420A36101F027FA444B6A
:1048900098461B781E4227D067619A0773D5D022AD
:1048A00080211206890251615B0766D5D0238022E0
:1048B0001B06D2025A61322001F010FA43461878E2
:1048C000FFF7CAFD0023374F2B703B78002B0DD12B
:1048D000D02404252406344805F016FA64206561C6
:1048E00001F0FCF9A561B8E7A761D6E72F4805F00C
:1048F0008FFA2F4E3378002B0AD02E4B0024984687
:104900004346185D05F0B6F933780134A342F7DC6D
:10491000294805F0F9F93378002B2AD0254B0025DA
:1049200098461C0013E0022B06D1002D31D14346DE
:1049300001211878FEF7B2F8002005F04FF940B2D7
:1049400003280ED0337801350134AB4211DD2078D5
:1049500005F090F93B78012BE5D12078FEF7EEF9D0
:10496000EAE7164805F054FA002005F037F902305E
:10497000FAD1134805F04CFA6FE7D02380221B06CA
:10498000D2029A6197E7D0228021120689029161B2
:104990008AE700212078FEF781F8CDE7A4120020F5
:1049A000A6120020E12B002014DD001050DD0010C5
:1049B000D80F0020DC0F002068DD001084DD00101F
:1049C000A4DE0010F0B55746DE4645464E460023AD
:1049D000E0B500279B469A46ED4B87B09846ED4BD5
:1049E00005AC039353461B0A23705B4622005021FB
:1049F0006370A77003234046009707F0B9FF0520B6
:104A000001F06CF9534601339BB21B0A23705B46DD
:104A100001336370602322005021A37040465D3B48
:104A2000009707F0A5FF052001F058F9534602331F
:104A30009BB21B0A23705B4602336370562322002D
:104A40005021A3704046533B009707F091FF05208B
:104A500001F044F9534603339BB21B0A23705B46B3
:104A6000033363706C2322005021A3704046693BDE
:104A7000009707F07DFF052001F030F9534604331D
:104A80009BB21B0A23705B460433220050216370E3
:104A9000A77003234046009707F06AFF052001F046
:104AA0001DF9534605339BB21B0A23705B46053341
:104AB000220050216370A77003234046009707F03F
:104AC00057FF052001F00AF9534606339BB21B0A33
:104AD00023705B460633220050216370A7700323C6
:104AE0004046009707F044FF052001F0F7F85346D1
:104AF00007339BB21B0A23705B4607332200502109
:104B00006370A77003234046009707F031FF05202C
:104B100001F0E4F8534608339BB21B0A23705B464E
:104B20000833220050216370A7700323404600978A
:104B300007F01EFF052001F0D1F8534609339BB260
:104B40001B0A23705B46093363707D2322005021CA
:104B5000A37040467A3B009707F00AFF052001F05A
:104B6000BDF853460A339BB21B0A23705B460A33D7
:104B7000220050216370A77003234046009707F07E
:104B8000F7FE052001F0AAF853460B339BB21B0A2F
:104B900023705B460B33220050216370A770032300
:104BA0004046009707F0E4FE052001F097F85346D1
:104BB0000C339BB21B0A23705B460C33220050213E
:104BC0006370A77003234046009707F0D1FE0520CD
:104BD00001F084F853460D339BB21B0A23705B46E9
:104BE0000D33220050216370A770032340460097C5
:104BF00007F0BEFE052001F071F853460E339BB25C
:104C00001B0A23705B460E33220050216370A7708D
:104C100003234046009707F0ABFE052001F05EF845
:104C200053460F339BB21B0A23705B460F3322009F
:104C300050216370A77003234046009707F098FE49
:104C4000052001F04BF8534610339BB21B0A23702A
:104C50005B461033220050216370A7700323404647
:104C6000009707F085FE052001F038F85346113310
:104C70009BB21B0A23705B46113363703223220000
:104C80005021A37040462F3B009707F071FE05208E
:104C900001F024F8534612339BB21B0A23705B4683
:104CA0001233220050216370A770032340460097FF
:104CB00007F05EFE052001F011F8534613339BB256
:104CC0001B0A23705B4613336370142322005021A8
:104CD000A3704046113B009707F04AFE052000F004
:104CE000FDFF534614339BB21B0A23705B461433FB
:104CF000220050216370A77003234046009707F0FD
:104D000037FE052000F0EAFF53461F339BB21B0A13
:104D100023705B461F33637020232200A370502151
:104D20001D3B4046009707F023FE052000F0D6FF0C
:104D300020229446039B55461E0063449946203525
:104D4000ADB233786ABA2280A370220003235021C7
:104D50004046009707F00CFE01350520013600F0B3
:104D6000BDFFADB2B145ECD1534640339BB29A463C
:104D70005B464033DBB29B4690239B009A4500D0B4
:104D800030E607B0F0BCBB46B246A946A046F0BD2F
:104D9000481500208412002010B5FFF713FE10BD47
:104DA00010B5054B002218685968FCF76FFD00200C
:104DB000FDF75AFE10BDC0461810002010B5034B79
:104DC000002218685968FCF761FD10BD181000201A
:104DD000074BC0B210B5187003F00EF8011C05485F
:104DE00002F0EFFF03F030F8034C208010BDC04606
:104DF000801400200024744982140020F8B50300B8
:104E0000DE4657464E464546613BE0B5192B4BD82A
:104E10004038C2B2284BD2009B181A685B68D02673
:104E20009946264B93469846202330249A460127DC
:104E300036060DE0736180231B02736180235B00E3
:104E4000736143460021188800F014FF013C1AD317
:104E50002300203B20D44D46DD403D402800FDF797
:104E600003FE8023DB01002DE4D1B36180231B020C
:104E7000B36180235B00B36143460021188800F0D2
:104E8000F9FE013CE4D20020FDF7EEFDF0BCBB468C
:104E9000B246A946A046F8BD53464A465D461B1B8E
:104EA0009A40E5401543D8E72038C0B21F223B287E
:104EB000B0D80200AEE7C046A8120020821400203D
:104EC000094A83009A1810B5146840225440803271
:104ED0002240064CC000A44663441A60044B9C4622
:104EE0006044416010BDC04604C0014004D0014090
:104EF00000400140074B8000C3181B68C9009200A6
:104F00000A435A400C231340034A9446604403600A
:104F10007047C04604C0014004D001400123D022A4
:104F20008340120693629361094A83009A181168BC
:104F30004022514080320A400649C0008C466344FA
:104F40001A60054B9C460523604443607047C04689
:104F500004C0014004D00140004001408023DB0533
:104F60001868000F7047C0460FB400B5084883B0FA
:104F700004F0CAFE049B002B07D005A9180001917C
:104F800004F0B2FC034804F0BFFE012004F0C4FCAE
:104F9000A8DE001030D5001070B5EFF3108C72B69B
:104FA0000D4D2B68002BFCD0BFF35F8F0724CB087F
:104FB000C618C05C01230C40A3401C0004400342FF
:104FC00007D118433070BFF35F8F2C608CF31088CB
:104FD00070BD1000FFF7C8FF2C0100D0F8B54746A0
:104FE000CE46884680B5EFF3108C72B61C4D2C6807
:104FF000002CFCD0BFF35F8F9A4222D807210126F4
:10500000894602E00132934218D34D4637001540DD
:10501000AF40D4080119045D2742F3D110003C438E
:105020000C70BFF35F8F00220D4B1A608CF3108859
:1050300000280EDBC0BCB946B046F8BD0120404296
:10504000EFE7BFF35F8F00232B608CF31088012004
:1050500040424346002BEDD00898FFF785FFC0463D
:105060002C0100D0044A1078431CDBB2172B00D966
:10507000102313707047C0468414002010B5064BEF
:10508000064C82B00100009318221F232000FFF776
:10509000A5FF02B010BDC046B8DE0010A826002053
:1050A0000021044B044ABFF35F8F02C39342FAD13D
:1050B0007047C046000100D0800100D0054B064A71
:1050C0001360064A136053609360D36013615361A9
:1050D000936170478080808000E400E004E400E099
:1050E0001F2318401E3B8340002905D0C021044ADD
:1050F0004900535013607047802201498B50FAE7F2
:1051000000E100E001228240034B1B6813405A1E5D
:105110009341D8B27047C04600E100E001238340CC
:10512000014A13607047C04600E200E0064B1030B1
:105130009B688000C358054A00209B1A2F229A4280
:105140004041C0B27047C04600ED00E08814002026
:1051500070B50D00EFF3108672B60F4A1368002B7E
:10516000FCD0BFF35F8F0D4B10309B6884001B5940
:105170000B4A934203D09D4201D000F0F3FF074B4E
:105180009B681D51BFF35F8FBFF35F8F0022024BFF
:105190001A6086F3108870BD240100D000ED00E095
:1051A000CD010010F0B557464E46DE464546E0B507
:1051B00085B0060000911700EFF3108B72B66A4AB3
:1051C0001368002BFCD0BFF35F8F0025674B5D5742
:1051D0009A46002D00DAA9E06B00654C01935B193B
:1051E0009B009846A146C1444B4652469B791036D7
:1051F0001370604BB6009B6899590B1B2F2B33D94A
:105200005D4B994200D0ACE0019B42469C465B4B13
:105210006544AD0063535A4B0232A218043B9B1AFB
:105220001B05584A5B0D651913436B80564B0121D2
:10523000AB80FF23AB71009BEF71AB604B460B4320
:1052400019004C4B9B689951BFF35F8FBFF35F8F81
:105250000022454B1A608BF3108805B0F0BCBB46AA
:10526000B246A946A046F0BD01200A008243D37988
:105270008C46BB4231D84546130044491B1B5B4159
:105280005943090D3D4B63533D4B02356519043BB2
:105290005B1B1B053B4D5B0D2B43AA464D466B80AC
:1052A0000425AC465546E044131F44441B1B1B0514
:1052B0005B0D1D434B46997100999D80996049464D
:1052C000DF71334B01431360BBE75800C018800007
:1052D0002018C179B9422FD902000623D356002BDA
:1052E000F3DA02932B4B61460393131D9A46042372
:1052F0005B429C46E14450464B461B1A1B055B0D26
:105300009C46204B957198466346404603439380E4
:10531000019B5A199200039BA418A380029B1C4A6C
:10532000A371009B2260E771A3608AE700F01AFF77
:10533000002553465D574FE7908802934005131DA3
:105340009A46031561469C464046D4446346043061
:105350002018181AE0230005400D1B021843039083
:10536000C5E700F0FFFE4FE7240100D0E22B00204C
:105370008814002000ED00E0CD01001000A1FFFF27
:10538000B814002000E0FFFF01BDFFFFAAAA000043
:105390000148804701BD000070B501240443EFF3CC
:1053A0000581EFF3108C72B6214A1368002BFCD0F4
:1053B000BFF35F8F1F4B05001F4AED1A6D416A4313
:1053C000120D1E4D8900AE6852B27658A6421CD00E
:1053D0000621595691421CD012215956914222D091
:1053E0001E215956914220D02A2159560324914218
:1053F00010D0134B19781A708171BFF35F8F0022A0
:105400000B4B1A608CF3108870BDAB680D4C5C5070
:10541000EFE700246100091989005B18FF219971E9
:1054200009499980E5E70124F4E70224F2E7C04640
:10543000240100D088140020AAAA000000ED00E09A
:10544000E22B0020CD01001001BDFFFF10B5084B7D
:10545000084C82B001000093002205232000FFF7D2
:10546000BDFD002801DB1F23181A02B010BDC04685
:10547000D4DE0010EA2B0020024B9C4661448900D8
:10548000016070474000003470B5114C114DAC42C2
:105490000FD2FF262368002B0CD0FFF7E3FD01009D
:1054A0002000FFF7E9FFA680BFF35F8F0834AC420E
:1054B000F0D370BDFFF7D6FD01002000FFF7DCFF41
:1054C0002671BFF35F8F0834AC42E3D3F1E7C046E7
:1054D000A81A0020B81A002010B50400FFF7C2FD7A
:1054E00001002000FFF7C8FFFF232371BFF35F8F88
:1054F00010BDC04610B504000120FFF7BFFD034BEF
:10550000C3189B002360BFF35F8F10BD40000034C1
:10551000034B9C46614489000160BFF35F8F704775
:10552000400000340A4B1968EFF3108072B60A6825
:10553000002AFCD0BFF35F8F1B68BFF35F8F002290
:105540001A6080F3108840BF002000217047C046D9
:10555000B02B0020F0B5DE4657464E464546E0B536
:1055600087B0EFF30583032201251A40954091008F
:105570008846A946B34B03925C58B34B1D60B34BAE
:1055800004934B46B24843630823E55E002D37DAA7
:10559000A3881BB2002B00DBADE0A379002B00D069
:1055A000EEE00823E05E002820DB430062691B1860
:1055B000DB00D3189E68DD68731C00D111E1A4489C
:1055C00001004144826A0B69B71A9B1A9F4215D3A6
:1055D0000123026A039883401A420FD09C4800F0CE
:1055E00037FB8D4202DCCCD18642CAD940BF07B01E
:1055F000F0BCBB46B246A946A046F0BD0E61EDE741
:1056000062696B0092465B19DB009A4453469E68C0
:10561000DF6800F01DFB8F42BADC00D103E1002FF0
:1056200000DAE8E05246534652691B699346049AF1
:10563000934200D1D9E052460821605E52880004AE
:10564000594610439847009001910099019A0B0028
:105650001000134300D1CEE013000A00B61A9F4198
:10566000002806DB7A4800F0F3FA009E019F361806
:105670004F4153469E60DF6000229A5E002A00DAA6
:1056800086E7530099186069C900411802938B6836
:10569000C9689B46B94200DD7AE702D1B34200D91E
:1056A00076E708239C46A444059565462281A446D6
:1056B000029B2C0006E053009918C90041188D6820
:1056C000C968AB469B18DB00C318B94206DC00D1A1
:1056D000B3E01C000023E25E002AECDA23006446FB
:1056E0009C4653461A806346059D1D80A3881BB2C5
:1056F000002B00DA51E72269EFF3108172B61368CC
:10570000002BFCD0BFF35F8F0123A7885B42A380EF
:105710003FB22369BFF35F8F00221A6081F31088C4
:10572000002F00DA39E72300083322009A46666921
:105730007B00DB19DB00F318996850468C4608247F
:10574000115FDD68002910DB029306E0AB4244D014
:105750000023E15E2000002906DB4C006418E40011
:105760003419E368AB42F1DD029B078000201F5E25
:105770001980002FDCDA1400A379002B00D110E788
:105780000023A37126000823E15E08364B1C00D1DC
:105790002CE70800A246656902E03E004B1C1AD0C7
:1057A0004B005B18DB00EF180A008C46E95E7B8833
:1057B0001BB2002BF1DA01235B42DC17BB60FC60FB
:1057C000824205D0534631801B893B8053461A8163
:1057D00060464B1CE4D15446E5E6A3686345B7D95F
:1057E000C2E76B1C00D0EAE6F8E65B4658461B6948
:1057F000984700281BD153461B8822692381EFF369
:10580000108372B611680029FCD0BFF35F8F514638
:1058100062880A8022696580BFF35F8F0021116072
:1058200083F31088B4E6864200D8F8E6B0E65B461B
:105830001A685B680092019307E7B34500D848E710
:105840004CE7C0468C2B00203C700540555500109D
:105850000040054070B52E4C2569002D04D00A216A
:105860002C48FFF709FE70BD2B4E0321300000F0DD
:10587000E5F9E660FFF7F6FB284B03229C46D023B0
:1058800022701B061B6801216370254B6044A360D6
:105890000F23800020610220638063694942A18058
:1058A00019800231198647311D83585218315A52D6
:1058B00075325C39995218320131995218320131DE
:1058C0009952183201319952083518329D520231DD
:1058D00018329952183201319952183201319952C5
:1058E000183201319952183201319952183201316E
:1058F00099520C4B0C49DC6001303562FFF728FCF3
:1059000001210320FFF7ECFB084B1D60A7E7C04611
:10591000D0140020B02B002000400540400000348F
:10592000FFFF10008C2B00205555001038600540FB
:1059300000487047D0140020F8B51F0008AB1B7852
:1059400004001600002B08D100F08AF932003B0059
:10595000121A8B41002B00DA52E02269EFF310801B
:1059600072B61368002BFCD0BFF35F8F0223E15E99
:1059700063694A005218D2009B182269002936DB5D
:105980001D886580BFF35F8F0025156080F3108848
:10599000069A9E60DF601A61079A5A615A8801323E
:1059A0005204520C101C002A1FD082B258800804E6
:1059B00010432669EFF3108772B63268002AFCD0D4
:1059C000BFF35F8FA2881A80A1802369BFF35F8F26
:1059D00000221A6087F310880A4923788C46013226
:1059E0009A40E36863441A60F8BD0120DDE7BFF325
:1059F0005F8F0023136080F3108801204042F3E79B
:105A00000020F1E73C20000070B501000469EFF3CD
:105A1000108C72B620680028FCD0BFF35F8F022084
:105A20000D5E4C6968004019C00024180869002DFB
:105A300036DB26884E80BFF35F8F002606608CF32E
:105A40001088E36063880498013320615B04059843
:105A50005B0CA26060611A1C002B1FD093B228045B
:105A6000628018430A69EFF3108C72B61368002B3A
:105A7000FCD0BFF35F8F8B8823808D800B69BFF3D1
:105A80005F8F00221A608CF310880B7801329A40E5
:105A9000CB6808498C4663441A6070BD0122DDE77B
:105AA000BFF35F8F002303608CF310880120404216
:105AB000F3E7C0463C20000010B543890A14934226
:105AC0001ADD53009B184269DB00D3180469EFF319
:105AD000108C72B62268002AFCD0BFF35F8F5A8800
