:020000041000EA
:1000000000B5324B212058609868022188439860DF
:10001000D860186158612E4B002199600221596106
:100020000121F02299502B49196001219960352056
:1000300000F044F80222904214D00621196600F024
:1000400034F8196E01211966002018661A6600F04E
:100050002CF8196E196E196E052000F02FF8012189
:100060000842F9D1002199601B49196000215960AB
:100070001A491B48016001219960EB211966A021F2
:10008000196600F012F800219960164914480160C1
:100090000121996001BC002800D000471248134993
:1000A000086003C880F30888084703B5996A0420EC
:1000B0000142FBD001200142F8D103BD02B5186610
:1000C0001866FFF7F2FF186E186E02BD00000240BE
:1000D000000000180000070000035F00212200005C
:1000E000F4000018222000A00001001008ED00E03C
:1000F00000000000000000000000000074B24E7A12
:1001000000200420F7010010C3010010C5010010F9
:10011000C1010010C1010010C1010010C101001097
:10012000C1010010C1010010C1010010C701001081
:10013000C1010010C1010010C9010010CB01001065
:10014000CD010010CD010010CD010010CD01001037
:10015000CD010010CD010010CD010010CD01001027
:10016000CD010010CD010010CD010010CD01001017
:10017000CD010010CD010010CD010010CD01001007
:10018000CD010010CD010010CD010010CD010010F7
:10019000CD010010CD010010CD010010CD010010E7
:1001A000CD010010CD010010CD010010CD010010D7
:1001B000CD010010CD010010CD010010CD010010C7
:1001C00000BE00BE00BE00BE00BE00BEEFF3058054
:1001D000103800BEF2EB8871DCE6001000E700107A
:1001E0003802001090A31AE71E481F49086006C88D
:1001F00081F3088810471D480068002801D019487D
:10020000F3E70DA40ECC002902D000F012F8F9E7B4
:100210001749184A002000E001C19142FCD116495B
:100220008847164988471649884700BEFDE701C937
:1002300001C29A42FBD3704700E70010C0000020C3
:10024000B81A0020F800011000000420000004206B
:10025000F80001100010042000100420000000002D
:10026000704700000000000008ED00E0000000D032
:10027000B81A0020EC2B0020919A0010E503001022
:10028000899A0010F8B5C04606480749091A8B102C
:10029000C90FC91810B5491003D0044B002B00D06A
:1002A000984710BDB81A0020B81A002000000000BE
:1002B000054B10B5002B03D00449054800E000BFF2
:1002C000FFF7E2FF10BDC04600000000642B0020D5
:1002D00054D500107047C04670B5294809F034FE67
:1002E000284809F0ADFD284B2848197809F02CFE64
:1002F000274809F0A5FD274B2748197809F024FE67
:10030000264809F021FE264D2B78002B08D000242A
:10031000244E305D09F04AFD2B780134A342F8DC0D
:100320000A2009F043FD29781F4809F00DFE1F4BF4
:100330001F481A685B6809F007FE1E4809F080FD37
:100340001D4B1E481A685B6809F0FEFD1C4B1D48DA
:10035000198809F0F9FD1C4809F072FD1B4B1C4877
:10036000197809F0F1FD1B4809F06AFD1A4B1B488A
:10037000197809F0E9FD1A4809F062FD70BDC04620
:1003800058D5001060D50010E12B002070D500106A
:100390007CD50010DF2B0020A0D50010D8D5001090
:1003A000D80F0020DC0F0020E8D500101810002026
:1003B00000D600101CD600101010002024D600100B
:1003C0000E10002040D6001054D600100810002057
:1003D00058D600106CD600108014002074D600107F
:1003E00088D60010F0B5D024042583B0240609F087
:1003F0008DFC022004F02EFE0A20656204F02AFE25
:100400008023DB000B20636204F024FE80231B01A9
:100410000D20636204F01EFE80239B010F206362A7
:1004200004F018FE80231B020E20636204F012FE0B
:100430008023DB011020636204F00CFE80235B024A
:100440001120636204F006FE80239B021220636287
:1004500004F000FE8023DB021420636204F0FAFD46
:1004600080235B031520A36204F0F4FD80239B032B
:100470001620A36204F0EEFD8023DB030820A362B4
:1004800004F0E8FD80235B000920636204F0E2FDD4
:1004900080239B00A362656102F0BEFC0022002164
:1004A0008020A56100F086FC1F4B00221868596867
:1004B00001F0ECF91D480CF07BF90023502100936A
:1004C0001B4A1C4801330CF0F9FA002828D01A48BE
:1004D00009F0B6FCD02480260125FF2003F0D0FFD0
:1004E000FFF7FAFE154809F02FFD154F24063601D7
:1004F00003F02AFC03F070FF04F0FCF93B785A0883
:10050000154206D066611D4206D08023DB00636180
:10051000EEE7A6611D42F8D18023DB00A361E7E787
:10052000084809F08DFCD5E718100020D50200100E
:10053000E02B00204815002090D60010BCD60010FB
:10054000E12B0020A4D60010F0B5454657464E4694
:10055000DE46E0B58FB08A46914680460D00099090
:10056000142900D963E100D15DE10D2900D2B3E087
:1005700000D1ADE04B46002B00D0B4E0CD4B64225F
:100580001C78CD4BA400E0580021002307F092FC1A
:1005900006000F00C94BCA4AE058C1174308C907F3
:1005A0001943C007002305F0B9FF32003B0007F0F4
:1005B00081FC4900C00F08430200C317B6185F4111
:1005C000404632003B00290005F0C0FF04000E2821
:1005D00000D93CE1310F3B010B433201921BBB417F
:1005E00090461D00290032003B00404605F0AEFF5A
:1005F0000393039D0292D30E69011943029A039B50
:100600005001801A9941C50D4B022B4342020298BA
:10061000039912184B41950E990190012943801AB4
:100620009941029A039B8018594132003B0005F022
:100630008DFF002800D11EE1C5012800A14905F069
:1006400047FF10270B0C7F421F430B0ADBB2280029
:10065000CEB29C49984605F03BFF4223402599467F
:10066000FFB2994BE4019C4664442418142007F01F
:1006700033FD4A462D022A431500A3039B0F1B049A
:100680001D434346220A3F02E4B21B043C431C4381
:100690001A2312061543360608AA1373344308AB0F
:1006A0009C4601000560446083460D20082260449A
:1006B00007F04EFD00230BAA009360210933834805
:1006C0000CF0F2F9824B099A1A6052465A60A0E087
:1006D000804B984200D34DE77E4B0D2598464B4604
:1006E000002B00D14AE77C4B64221C78724BA4009B
:1006F000E0580021002307F0DDFB704B0690E05826
:100700000791C1174308C9076D4A1943C007002361
:1007100005F004FF069A079B07F0CCFB069B079C9D
:100720004900C00F08430600C7179B197C4140468B
:100730001A001E002900230005F008FF270004000E
:100740000E2800D977E0310F3B010B433201921B99
:10075000BB4190461D00290032003B00404605F099
:10076000F5FE0593059D0492D30E69011943049A81
:10077000059B5001801A9941C50D4B022B43420243
:100780000498059912184B41950E9901900129433F
:10079000801A9941049A059B8018594132003B0008
:1007A00005F0D4FE00285ED0C5012800454905F0BB
:1007B0008FFE10270B0C7F421F430B0ADBB2280071
:1007C000CEB24049984605F083FE40234225FFB251
:1007D00002933D4BE4019C4664442418142007F026
:1007E0007BFC029B3F021A02A3039B0F1B041543D1
:1007F0001D434346220AE4B21B043C431C434B46C0
:100800001206360615433443834605604460012BC7
:1008100037D0584607F07EFC0FB0F0BCBB46B2465E
:10082000A946A046F0BD2D4B984200D8A2E62B4B1E
:10083000142598469EE65A2800D88CE75A220023B1
:100840003000390007F036FB80460D0083E75A2858
:1008500000D8C7E65A2200233000390007F02AFBEF
:1008600080460D00BEE6002398460133002600278F
:1008700000250293ADE700230026984600270125B6
:10088000EFE6213308AA137308AB9C4601000D2044
:100890000822604407F05CFC00230BAA009360214F
:1008A00009330A480CF000F90D4B099A1A605246B8
:1008B0005A60AEE7E62B0020D02B00209C2B0020B6
:1008C00000CA9A3B40420F0000FEFFFF481500207F
:1008D000881C0020005847F8E72B002000046BF428
:1008E000901C0020F0B5DE4657464E464546E0B522
:1008F000002787B0FC4DFD4B05AC2380220002236E
:100900006021280000970CF0CFF8F94B22002380DB
:1009100060210223280000970CF0C6F8F54B220056
:10092000238060210223280000970CF0BDF8F24BD1
:100930002200238060210223280000970CF0B4F8E5
:10094000EE4B2200238060210223280000970CF048
:10095000ABF8EB4B22002380602102232800009794
:100960000CF0A2F8E74B220023806021022328002C
:1009700000970CF099F8E44B2200238060210223B9
:10098000280000970CF090F8C1231B01238022005F
:1009900002236021280000970CF086F8DB4B220030
:1009A000238060210223280000970CF07DF8D84BAB
:1009B0002200238060210223280000970CF074F8A5
:1009C000D44B2200238060210223280000970CF0E2
:1009D0006BF8D14B2200238060210223280000976E
:1009E0000CF062F8CD4B2200238060210223280006
:1009F00000970CF059F8CA4B220023806021022393
:100A0000280000970CF050F8C64B2200238060218C
:100A10000223280000970CF047F800221221C24858
:100A2000FFF792FD01221221BF48FFF78DFDBF4B5A
:100A300004AE984642461F60BD4B602153601023B0
:100A400001229A462370BB4B914603931B782800E2
:100A5000337002930092012322000CF025F8012349
:100A600032006021280000970CF028F852463378B5
:100A70002270103293439346637022000223602158
:100A8000280000970CF010F8424617701122924689
:100A900022704A46029B6021337028000123009295
:100AA00022000CF001F80123320060212800009799
:100AB0000CF004F8524622705A4633786021934372
:100AC000637022000223280000970BF0EDFF4246DE
:100AD00057701222924622704A46029B6021337060
:100AE00028000123009222000BF0DEFF01233200D8
:100AF0006021280000970BF0E1FF524622705A4611
:100B0000337860219343637022000223280000970A
:100B10000BF0CAFF424697701322924622704A4653
:100B2000029B6021337028000123009222000BF009
:100B3000BBFF012332006021280000970BF0BEFFAD
:100B4000524622705A4633786021934363702200E4
:100B50000223280000970BF0A7FF4246D77014220B
:100B6000924622704A46029B60213370280001237E
:100B7000009222000BF098FF012332006021280030
:100B800000970BF09BFF524622705A463378602143
:100B90009343637022000223280000970BF084FF28
:100BA000424617711522924622704A46029B6021E6
:100BB000337028000123009222000BF075FF0123FF
:100BC00032006021280000970BF078FF5246227017
:100BD0005A46337860219343637022000223280031
:100BE00000970BF061FF4246577116229246227021
:100BF0004A46029B602133702800012300922200A4
:100C00000BF052FF012332006021280000970BF007
:100C100055FF524622702022924652463378602178
:100C20001343637022000223280000970BF03CFF5F
:100C300042464946917117229346029B22703370B7
:100C400022004B46009128005F310BF02DFF01235D
:100C500032006021280000970BF030FF5A462270C6
:100C60005246337860211343637022000223280028
:100C700000970BF019FF43464A46DA71A22322007F
:100C800023806021A03B280000970BF00DFFA323D9
:100C9000220023806021A13B280000970BF004FF75
:100CA000A423220023806021A23B280000970BF0A0
:100CB000FBFE214B220023806021022328000097A5
:100CC0000BF0F2FE1D4B220023806021022328003E
:100CD00000970BF0E9FE1A4BA8469B46194B02936E
:100CE00003239A4630E0C046481500201080FFFFDD
:100CF0001180FFFF1280FFFF1380FFFF1480FFFFB2
:100D00001580FFFF1680FFFF1780FFFF110C00000A
:100D1000120C0000130C0000140C0000150C000055
:100D2000160C0000170C000000205FA0842B002090
:100D30000000010178DB0010B1200000B180FFFF4E
:100D4000B81A0020B02600205946002200230CC10A
:100D500053462370039B00251B78220033704B46BB
:100D60008B4600936021012340460BF09DFE01233A
:100D700032006021404600950BF0A0FE52462270E2
:100D80004A46BA403378602113436370220002233D
:100D9000404600950BF088FE029BDB1901371D7061
:100DA000082FD1D107B0F0BCBB46B246A946A04639
:100DB000F0BDC046F0B5DE4657464E464546474B69
:100DC000E0B59B4687B003925A46454B454E1360AB
:100DD0000023454A02901370444A8A461370444ADD
:100DE0004449300013700BF037FE0321042004F057
:100DF00003F90321052004F0FFF80022012104205B
:100E000004F014F900220121052004F00FF93A4BF7
:100E100000271B7805AD99460123984604AC4B4644
:100E2000237043462A0060212F7030000093012375
:100E30000BF03AFE012322006021300000970BF0F6
:100E40003DFE2378DB09012BE9D0B723029A2B70F2
:100E5000783B9A431300122213436B702A0002233B
:100E60006021300000970BF01FFE5346002B1AD173
:100E70005A461B4B1360039A204B1A60204B0022EA
:100E800018685968FFF760FB1E4B01221868596803
:100E9000FFF75AFBFFF726FD07B0F0BCBB46B24692
:100EA000A946A046F0BD184B9A4509D9174B184AD8
:100EB0005344934208D853465A465B081360DAE716
:100EC0005B4652461A60D6E7124B134A534493428C
:100ED000D1D853465A469B081360CCE7D02B00204C
:100EE00040787D0148150020E62B0020E72B0020EC
:100EF000DD2B0020801A060078DB00109C2B0020E0
:100F0000881C0020901C002080C3C9017F3C36FE55
:100F10007FC3C901FF786CFCFF596202F0B5DE4661
:100F200045464E465746E0B591B01D1C08930B93BD
:100F30001AAB1B78884603931BAB1B7807929B4622
:100F40001CAB1B780A92049353BA6A46040014201F
:100F50005383099107F0C0F84346DBB206006DBA2F
:100F60000593052C00D876E0063CE4B2012C68D845
:100F7000E04BA4001B590DAC9F4652232B7006ABCF
:100F80009C461D20002460440822310007F0E0F850
:100F900009232A006021380000940BF085FD1523F9
:100FA0002B7053464A461B786021137001232A0098
:100FB000009338000BF078FD01234A466021380089
:100FC00000940BF07BFD4B46039A1B78012A00D15D
:100FD000A5E240229343152200242A706B702A0058
:100FE00002236021380000940BF05EFD54232B7027
:100FF00053464A461B786021137001232A00009350
:1010000038000BF051FD01234A466021380000945E
:101010000BF054FD4B467C221B789343049A002A24
:1010200001D00C22134354222A705A461201134352
:101030006B7000232A0000936021380002330BF00C
:1010400033FD300007F066F811B0F0BCBB46B24685
:10105000A946A046F0BDE30005802C330DAD2B70F2
:101060000CAB99464A46A44BA44F9A461B78602184
:10107000137001232A00009338000BF015FD0023A4
:101080004A4660210093380001330BF017FD4B46B0
:101090001A78434603211B0C8A430B401343B37059
:1010A00043461B0AF370059B079A3371089B0C316A
:1010B0001B0B120C8B4311400B4373716B465B8B04
:1010C000A400F3808E4B1B599F465B2300278B4D5A
:1010D0002370059B22006370602102232800009783
:1010E0000BF0E2FC5C23237098460CAB99464A4611
:1010F000814B60211B78280013700123220000938C
:101100000BF0D2FC01234A466021280000970BF027
:10111000D5FC4B4670221B7893431A00434623703C
:101120005B461B01134363702200022360212800E9
:1011300000970BF0B9FC84E75A2300276F4D23700A
:10114000059B2200637060210223280000970BF0AA
:10115000ABFC5C23237098460CAB99464A46664B21
:1011600060211B78280013700123220000930BF0EC
:101170009BFC01234A466021280000970BF09EFC4F
:101180004B4607221B789343424622705A461A4325
:101190001300C8E742232B7006AB9C461D20002499
:1011A00060440822310006F0D3FF09232A006021A1
:1011B000380000940BF078FC13232B7053464A46FA
:1011C0001B786021137001232A00009338000BF074
:1011D0006BFC01234A466021380000940BF06EFC42
:1011E0004B46039A1B78012A00D192E14022934397
:1011F000132200242A706B702A0002236021380019
:1012000000940BF051FC44232B7053464A461B7844
:101210006021137001232A00009338000BF044FC76
:1012200001234A466021380000940BF047FC4B46EE
:101230007C221B789343049A002A01D00C2213438A
:101240004422F1E63A232B7006AB9C461D20002475
:1012500060440822310006F07BFF09232A00602148
:10126000380000940BF020FC12232B7053464A46A2
:101270001B786021137001232A00009338000BF0C3
:1012800013FC01234A466021380000940BF016FC41
:101290004B46039A1B78012A00D149E1402293432F
:1012A000122200242A706B702A0002236021380069
:1012B00000940BF0F9FB3C232B7053464A461B78F5
:1012C0006021137001232A00009338000BF0ECFB1F
:1012D00001234A466021380000940BF0EFFB4B4697
:1012E0007C221B789343049A002A01D00C221343DA
:1012F0003C2299E65CE1001078DB001048150020E4
:1013000064E100104A232B7006AB9C461D2000248C
:1013100060440822310006F01BFF09232A006021E7
:10132000380000940BF0C0FB14232B7053464A4640
:101330001B786021137001232A00009338000BF002
:10134000B3FB01234A466021380000940BF0B6FB42
:101350004B46039A1B78012A00D1E6E040229343D2
:10136000142200242A706B702A00022360213800A6
:1013700000940BF099FB4C232B7053464A461B7884
:101380006021137001232A00009338000BF08CFBBE
:1013900001234A466021380000940BF08FFB4B4636
:1013A0007C221B789343049A002A01D00C22134319
:1013B0004C2239E632232B7006AB9C461D200024BC
:1013C00060440822310006F0C3FE09232A00602190
:1013D000380000940BF068FB11232B7053464A46EB
:1013E0001B786021137001232A00009338000BF052
:1013F0005BFB01234A466021380000940BF05EFB42
:101400004B46039A1B78012A00D18BE0402293437C
:10141000112200242A706B702A00022360213800F8
:1014200000940BF041FB34232B7053464A461B7843
:101430006021137001232A00009338000BF034FB65
:1014400001234A466021380000940BF037FB4B46DD
:101450007C221B789343049A002A01D00C22134368
:101460003422E1E52A232B7006AB9C461D20002484
:1014700060440822310006F06BFE09232A00602137
:10148000380000940BF010FB10232B7053464A4693
:101490001B786021137001232A00009338000BF0A1
:1014A00003FB01234A466021380000940BF006FB41
:1014B0004B46039A1B78012A2ED0402293431022D8
:1014C00000242A706B702A000223602138000094E7
:1014D0000BF0EAFA2C232B7053464A461B78602106
:1014E000137001232A00009338000BF0DDFA01236A
:1014F0004A466021380000940BF0E0FA4B467C220B
:101500001B789343049A002A01D00C2213432C2207
:101510008AE53F3213436BE63F321343CFE73F3256
:10152000134358E53F32134372E73F32134317E743
:101530003F321343B4E6C046F0B5CE4647460323D8
:1015400080B585B003AC237002AB994601254A46AD
:10155000174B184E1B78804613700F000123220092
:101560006021009530000BF09FFA00234A4600935B
:101570006021013330000BF0A1FA4B4642461B7844
:101580009540012F11D02B43DBB26370032200235F
:101590002270602100932200300002330BF084FAA5
:1015A00005B0C0BCB946B046F0BDAB43EDE7C046A0
:1015B00078DB001048150020F0B5C64600B51E4B7C
:1015C00084B01B7802AD2B701C4B10309846012361
:1015D000C4B203AE320034700F0000936021404665
:1015E0000BF062FA00232A00602100934046013389
:1015F0000BF064FA2A780323110099430B00022FA1
:1016000016D0032F11D0012F01D101221343737083
:1016100000233470320000936021404602330BF007
:1016200043FA04B080BCB846F0BD03231343EEE791
:1016300002221343EBE7C04678DB00104815002078
:1016400010B584B0002803D001280DD004B010BD1F
:101650006A460B4B0B4C93816021009002232000C3
:1016600003AA0BF021FAF1E76A46074B6021938148
:10167000002303AA0093034802330BF015FAE5E7B1
:10168000B120000048150020B180FFFFF0B557469B
:101690004E464546DE46E0B585B09A460E9B009024
:1016A000019191460099019A9846052A74D870D004
:1016B0000099019A002A00D088E06C4B994200D929
:1016C00084E04B465246134300D1AFE0002300258F
:1016D000674C009322002B004846514604F036FF29
:1016E00006228346052805D9E123DB00984208D964
:1016F000E122D20000234846514604F027FF0400AF
:101700000D0022002B004846514604F01FFF0393B2
:101710000292D30E039A51011943029B5801029A77
:10172000039B801A9941C30D9C4606004B026146FB
:1017300072020B430298039912184B41910E8C468A
:1017400016001F0099016346320019433B00B001A7
:10175000801A9941029A039B801859412B0022005C
:1017600004F0F4FE009B00285BD0012B62D0C60180
:101770003000404904F0ACFE30000F003D4904F059
:10178000A7FE3C4A3C495B468C46DB016344C018DB
:101790000FE03A4B99428BD90525384C4B465246BF
:1017A000134334D1002000270122A30FAD001D43B5
:1017B000A40043462900186020005F609A6005B0CD
:1017C000F0BCBB46B246A946A046F0BD009B019CBA
:1017D000032C46D841D04B46524613431AD1009AA7
:1017E000019B1421264804F0B1FE06000B000728D7
:1017F00022D000980199320006F05CFB1E4B0D00D0
:101800009C460400F001604400270122D1E7012337
:1018100000935FE7009A019B1D00002314000093D2
:1018200058E700270122012BACD1C2E71425154847
:10183000134CE9E70020E7E70029DAD10098019985
:1018400002000B0012184B4112184B4180209218D5
:101850005B41400014001D00D6E70B4B009A9A42F2
:10186000B9D9009A019B14001D0097E77FF0FA0296
:1018700080F0FA0240420F0000FEFFFF00C11A3D57
:1018800000046BF400820300FFD5117EF0B55746CB
:101890004E464546DE46E0B50F0006001500012223
:1018A0005242D31792197B418FB01100052D00D9F8
:1018B000F4E0002B39D1CD4B994236D8CC4BEA001D
:1018C0009B180022CB4908A806C3CB4B0E000593FA
:1018D0005B5D17008346002B00D1ABE3720EFB016A
:1018E0001A4317000724F601C44B5B5D002B00D0A0
:1018F000ACE2C34B59461A685B683000009139006E
:10190000FFF7C4FE0023029300935B4601945A68DC
:10191000280008999B68FFF701FB00200FB0F0BC7E
:10192000BB46B246A946A046F0BD052F01D800F03F
:101930001EFF0527B34EAE4C6368022B00D8A9E109
:10194000002D01D100F036FCAC4B9A465A5D1B7855
:101950009A4200D1B4E1E368022B00D9A7E1022B3F
:1019600004D1A94BA2689A4200D9A0E16369022B75
:1019700000D9AFE104D1A44B22699A4200D9A9E170
:10198000E369022B04D80CD19F4BA2699A4208D973
:10199000032D00D138E353465A5DDB789A4200D1DB
:1019A0008EE1636A022B04D80CD1974B226A9A42CB
:1019B00008D9042D00D131E353465A5D1B799A4270
:1019C00000D17DE1E36A022B00D98EE104D18E4B78
:1019D000A26A9A4200D988E1874B98465B5D994696
:1019E00008AB9B464B46002B00D1F6E1EB00E31819
:1019F0001E605F60032F00D9E6E100D1E0E13B000B
:101A000032001421814804F0A1FD80460B00072814
:101A100000D0AAE2002900D0A7E23B0032009219D0
:101A20007B4192197B4192185B41802799461000B7
:101A300005927F005A460023089753600133936054
:101A4000534649465A5DFEF77FFD53465A5D0023D3
:101A500098462B002500444698462E686F68330050
:101A60003B4304D053461B5D934200D148E101340F
:101A70000835062CF1D1002A00D1DBE1012A00D083
:101A80004BE76A46624B60219385002361480093CF
:101A90000BAA02330BF008F800203FE7002B00D020
:101AA000D0E05D4B994200D9CCE00024514B270097
:101AB0001E004F4C062D00D1CEE0236B626B13430A
:101AC00000D1C5E1554B1A685B68914698463200D3
:101AD0003B004846414604F039FD01001A4301200D
:101AE000002A00D01AE7C90700D517E730003900EF
:101AF000EB00E318186059600123494A5B428018E3
:101B000059410A1E01D100F094FC01233000390034
:101B1000444A5B42801859410A1E00D126E3012342
:101B200030003900404A5B42801859410A1E01D1F9
:101B300000F0D9FC0123300039003C4A5B42801898
:101B400059410A1E01D100F030FD01233000390057
:101B5000374A5B42801859410A1E01D100F097FDB7
:101B6000012330003900334A5B42801859410A1E74
:101B700001D100F0BAFD0123300039002E4A5B424A
:101B8000801859410A1E01D000F08FFD2B4B98425E
:101B900001D900F08AFD33003C009B197C412700ED
:101BA0001E0001243200B2463E1E03D1244B9A424D
:101BB00000D29A4642464B461343524601D100F0AA
:101BC000F6FB33004846414604F0C0FC1A4301D0FE
:101BD00000F03DFC08A9831F8B46F82B00D991E645
:101BE000C0B208904A608A608CE6C0467E1A060041
:101BF000B81A0020801A0600B0260020842B00208E
:101C0000881C002000C11A3D00E40B5400046BF452
:101C1000B180FFFF4815002096281C00901C002072
:101C200068D7E3FFD0AEC7FFA05D8FFF40BB1EFFAC
:101C300080763DFE00ED7AFC00DAF5F8FF250A0714
:101C400080F0FA02032F3DD90324CE4B27001E005B
:101C5000CD4C062D00D030E7A36BE26B134300D1CF
:101C60000EE3CA4B1A685B689146984632003B0007
:101C70004846414604F06AFC01001A430120002A4C
:101C800000D04BE6C90700D548E630003900206394
:101C9000616331E7022B04D1BD4B22689A4200D91F
:101CA0004EE6BC4B9A46E368022B00D857E6012D5E
:101CB00000D1A1E253465A5D5B789A4200D055E6C6
:101CC00001202BE6032F00D0F3E6AE4BB34200D346
:101CD000EFE6B9E7022D00D18CE153465A5D9B78BF
:101CE0009A4200D04CE6012018E6052D00D173E69B
:101CF00053465A795B5D9A4200D06DE601200DE6AD
:101D00000123A54A5B4292197B411100002B00D1AF
:101D10003EE20123A14A5B4292197B411100002B54
:101D200000D165E301239E4A5B4292197B41110079
:101D3000002B00D1F1E101239A4A5B4292197B41C9
:101D40001100002B00D1A4E30123974A5B429219B2
:101D50007B411100002B01D100F0DFFB0123934AEE
:101D60005B4292197B411100002B01D100F062FC13
:101D700001238F4A5B4292197B411100002B01D055
:101D800000F0EAFB8B4B994201D900F0E5FB3000F3
:101D900039000BAB059A0093801979419B464B465D
:101DA000FFF774FC01220023029300935B4601922B
:101DB0000ECBE0B2FFF7B2F8534642469A5C56E6C5
:101DC000704B9E4200D81AE6B30FBA001A43B30014
:101DD00091460027180005932CE604A903330B77DE
:101DE0005946754B75481B780BAA0B7001210123CE
:101DF00000915F3105900AF057FE4B465A4660212C
:101E00000093059801230AF059FE032204A95B46BA
:101E10000A77023AAA401B78059893434B774B46C2
:101E2000602100930BAA02230AF03EFE43460121E3
:101E30005955DBE56946624B60488B850092022369
:101E400060210BAA0AF030FE002067E54F4B51E5F8
:101E5000EB00E4180123300039005A4A5B4220604D
:101E60006160801859410A1E00D173E101233000DE
:101E70003900554A5B42801859410A1E00D126E3B9
:101E8000012330003900514A5B42801859410A1E33
:101E900000D177E30123300039004D4A5B428018BE
:101EA00059410A1E01D100F0E5FB01233000390041
:101EB000484A5B42801859410A1E01D100F004FCD7
:101EC000012330003900444A5B42801859410A1E00
:101ED00001D100F024FC0123300039003F4A5B426D
:101EE000801859410A1E01D000F0FCFB3C4B98427F
:101EF00001D900F0F7FB33003C009B197C4127001F
:101F00001E000124B846002F03D1364B9E4200D25A
:101F10001E00434632001421334804F017FB01230E
:101F2000471C9F43FE2F00D9FE273200434638004E
:101F3000002105F0BFFF142904D800D025E22B4B67
:101F4000984206D9023F320043463800002105F08E
:101F5000B1FF08AB9B4600235A4608975360936035
:101F60000C4B5A5DFEF7F0FACCE4390042463000E3
:101F700005F0A0FF4346DF011D4B89469C460590B6
:101F8000674457E5FFD5117EB81A0020901C002049
:101F900000E40B54842B002080E5F9FF00CBF3FF15
:101FA0000096E7FF002CCFFF00589EFF00B03CFFDB
:101FB000006079FEFF9F860178DB00104815002045
:101FC000B120000068D7E3FFD0AEC7FFA05D8FFF50
:101FD00040BB1EFF80763DFE00ED7AFC00DAF5F88E
:101FE000FF250A0780F0FA02002375EE00046BF467
:101FF00000FEFFFFE369022B00D9CCE404D1914B32
:10200000A2699A4200D9C6E4636A022B00D9D3E4DC
:1020100004D18C4B226A9A4200D9CDE4E36A022BA8
:1020200000D965E600D0D7E4864BA26A9A4200D96F
:102030005EE6D1E4002300240693079403240BAB4F
:1020400098461C7008AB9B465A467F4B7F481B78CE
:10205000602113700123424600939A4681460AF09C
:1020600023FD00235A4660210093484601330AF0BD
:1020700025FD5A461378424614705246AA409343AF
:1020800042465370002360210093484602330AF011
:102090000BFD5346059A5355079B002B72D0012325
:1020A0006B4A5B4292197B411100002B00D1B1E1D8
:1020B0000123684A5B4292197B411100002B3ED0FC
:1020C0000123654A5B4292197B411100002B00D12C
:1020D000F1E10123614A5B4292197B411100002B1F
:1020E00000D12DE201235E4A5B4292197B4111002F
:1020F000002B00D1B2E201235A4A5B4292197B4184
:102100001100002B00D049E2574B994200D945E21B
:10211000B6197F410124FFF7E7FB544B994200D9E0
:1021200009E6F30E790119430BAB059A00939B4620
:1021300070014B46FFF7AAFA0522002334E64B4B09
:102140009942BDD8F20E7B011A431700052476018F
:10215000FFF7CAFB464B984200D987E6720EFB0197
:10216000F1011A430E0017000724CBE6414B9842B9
:1021700000D9D4E4B20EBB01B1011A430E0017001E
:1021800006240FE53C4B069A9A4288D8FFF7A6FB37
:10219000394B994200D9BCE5730EF90119430BABD9
:1021A000059A00939B46F0014B46FFF76FFA072212
:1021B0000023F9E5E368022B00D937E104D1214B74
:1021C000A2689A4200D931E16369022B00D95CE12F
:1021D00004D11C4B22699A4200D956E1E369022BD3
:1021E00000D9DEE104D1174BA2699A4200D9D8E1A7
:1021F000224B9A46FFF7D5FB6369022B00D96CE5A9
:1022000004D1104B22699A4200D966E5E369022B9A
:1022100001D9FFF7C0FB05D10A4BA2699A4201D947
:10222000FFF7B9FB636A022B01D9FFF7C5FB01D0A9
:10223000FFF7C8FB034B226A9A4201D9FFF7BCFBA8
:10224000FFF7C0FB00E40B5478DB001048150020BA
:1022500000CBF3FF0096E7FF002CCFFF00589EFF56
:1022600000B03CFF006079FEFF9F8601FF69180007
:1022700097281C002F5138007F1A0600842B00205D
:10228000012330003900D04A5B422063616380182B
:1022900059410A1E00D134E1012330003900CB4AF4
:1022A0005B42801859410A1E00D1B7E1012330007A
:1022B0003900C74A5B42801859410A1E00D1F7E134
:1022C000012330003900C34A5B42801859410A1E7D
:1022D00000D118E2012330003900BF4A5B42801868
:1022E00059410A1E00D128E2012330003900BB4ABF
:1022F0005B42801859410A1E00D12CE201233000B4
:102300003900B74A5B42801859410A1E00D020E2CA
:10231000B44B984200D91CE233003C009B197C412D
:1023200027001E000124B846002F03D1AE4B9E4269
:1023300000D21E00434632001421AC4804F006F9D6
:102340000123471C9F43FE2F00D9FE27320043463E
:102350003800002105F0AEFD142903D87BD1A44B31
:10236000984206D9023F320043463800002105F06A
:10237000A1FD08AB9B4600235A4608975360936023
:102380000122FEF7E1F8FFF7BDFA0D2900D9E0E5DB
:1023900003D1984B984200D9DBE502374346380019
:1023A0003200002105F086FDFF231F40D1E53300F8
:1023B00014218E4804F0CAF80123471C9F43FE2FC6
:1023C00000D9FE27524633003800002105F072FD87
:1023D000142903D84FD1864B984200D9023F08AB4D
:1023E0009B4600235A46089753609360FFF78AFA8A
:1023F000814B994200D995E4B30EB90119430BAB57
:10240000059A00939B46B0014B46FFF73FF9062221
:102410000023C9E4784B994200D949E6B20EBB01CA
:102420001A4317000624B601FFF75EFA734B9A466B
:1024300040E4734B984201D9FFF767FB720EFB0132
:10244000F1011A430E0017000724FFF7ABFB08AB9E
:102450009B46FFF757FA0D298BD802D1654B98425E
:1024600087D80237434638003200002105F022FDAC
:10247000FF231F407DE70D29B1D802D15D4B984263
:10248000ADD8FF2302371F40A9E75C4B9A46FFF700
:1024900024FC5C4B994200D956E4330F39011943AF
:1024A0000BAB059A00939B4630014B46FFF7EEF8C5
:1024B0000422002378E4534B994200D909E6320FF5
:1024C0003B011A43170004243601FFF70DFA4E4B67
:1024D000984200D9D4E4B20EBB01B1011A430E00F8
:1024E000170006240EE5494B984201D9FFF722FB5D
:1024F000F20E7B0171011A430E0017000524FFF74D
:1025000051FB3F4B984200D9C6E6720EFB01F10128
:102510001A430E001700072405E73D4B994201D9E5
:10252000FFF71CFC730FF90019430BAB059A0093DE
:102530009B46F0004B46FFF7A9F80322002333E443
:10254000334B994200D9CDE5720FFB001A431700B7
:102550000324F600FFF7C8F90BAB00939B4630004D
:102560004B463900059AFFF791F80123032F01D854
:1025700004D000230022DBB2FFF716FC254A964266
:10258000F8D8F6E7214B984200D983E4F20E7B019C
:1025900071011A430E0017000524B3E40024FFF76D
:1025A000A3F9164B9A46FFF7F6F91B4B984201D94F
:1025B000FFF7CBFA320F3B0131011A430E0017002F
:1025C0000424FFF7EFFAC04668D7E3FFD0AEC7FF99
:1025D000A05D8FFF40BB1EFF80763DFE00ED7AFCC4
:1025E00000DAF5F8FF250A0780F0FA02002375EEFD
:1025F00000046BF4FF5747F8FF340C00842B0020D5
:1026000097281C00FFD330002F5138005FA27000C4
:10261000FFA76100FFD5117EBF44E100674B9842E0
:1026200000D943E6B20EBB01B1011A430E001700F8
:10263000062478E6624B994201D9FFF799FBB30F64
:10264000B90019430BAB059A00939B46B0004B466B
:10265000FFF71CF802220023FFF7A6FB584B994214
:1026600000D948E5B20FBB001A4317000224B60098
:10267000FFF73AF9534B984201D9FFF716FC320F96
:102680003B0131011A430E00170004243AE44E4B7B
:10269000984201D9FFF764FA720FFB00F1001A4368
:1026A0000E0017000324FFF77DFA0024FFF77AFAE3
:1026B000464B984200D903E6F20E7B0171011A43A2
:1026C0000E00170005242EE63F4B984201D9FFF774
:1026D000F7FB720FFB00F1001A430E0017000324F2
:1026E000FFF710FC0024FFF70DFC394B984201D98D
:1026F000FFF741FAB20FBB00B1001A430E001700FA
:102700000224FFF74FFA2F4B984200D9E2E5320F2F
:102710003B0131011A430E001700042403E62C4B41
:10272000984201D9FFF7D7FBB20FBB00B1001A43A3
:102730000E0017000224FFF7E5FB234B984200D957
:10274000D2E5720FFB00F1001A430E0017000324BC
:10275000E9E50024E7E51E4B984200D9CEE5B20F2B
:10276000BB00B1001A430E0017000224DBE5052F61
:1027700004D1184B9E4201D9FFF7DBF8022F01D993
:10278000FFF7D9F814D00123134A5B4292197B4119
:1027900006920793114BEA009B181E605F60104B76
:1027A00008AA05935B5D9346002B00D074E445E4D2
:1027B0000C4B9E42E7D9FFF7BEF8C0462F513800B8
:1027C000FF4FC300BF44E1007F89C2015FA27000D8
:1027D000FF12850300C11A3D80E5F9FFB81A0020F9
:1027E000B026002000E40B54F0B5066847680125C8
:1027F0003F4C6D42A4197D41002D34D001253D4C44
:102800006D42A4197D41002D38D001253A4C6D420E
:10281000A4197D41002D47D00125384C6D42A419E3
:102820007D41002D35D00125354C6D42A4197D41E7
:10283000002D46D00125334C6D42A4197D41002D59
:102840004AD00125304C6D42A4197D41002D36D16E
:102850002E498C4233D832003B0092197B410260F2
:102860004360012009E02A498C42C7D8710EFB0160
:102870000B43F201436002600720F0BD25498C4202
:10288000C3D8B10EBB010B43B20143600260062006
:10289000F3E721498C42C6D8310F3B010B4332018B
:1028A000436002600420E8E71C498C42B4D8F10E72
:1028B0007B010B437201436002600520DDE70020CD
:1028C000DBE717498C42B5D8710FFB000B43F200D0
:1028D000436002600320D0E712498C42B1D8B10FA7
:1028E000BB000B43B200436002600220C5E7C04654
:1028F00080E5F9FF00CBF3FF0096E7FF002CCFFF48
:1029000000589EFF00B03CFF006079FEFF9F8601EB
:102910007F1A0600FF340C00FFD33000FF69180057
:10292000FFA76100FF4FC300F0B516001F000400B1
:102930000D0002000B00A41BBD4192197B41122126
:1029400089B0069407952448244C254E049205939B
:1029500000222060616030607160FDF7F5FD04A821
:10296000FFF742FF1F4D287006A8FFF73DFF1E4BE3
:102970001870226863681D4C049805990094FEF74E
:1029800085FE3268736806980799194E00960026EE
:10299000FEF77CFE02962B7800960193A3682168CF
:1029A00062680020FEF7BAFA0020FEF749FE0296A0
:1029B0002B78009601930ECC0020FEF7AFFAD023BF
:1029C00080221B0612029A618022D2015A61802263
:1029D00052005A6109B0F0BD00205FA02010002015
:1029E000801C0020E82B0020E92B0020482B002031
:1029F000542B002000B585B0002815D1164A02904E
:102A00001278164B019200900ECBFEF787FAD02376
:102A100080221B0612025A618022D2019A61802212
:102A200052009A6105B000BD00220D49029209785A
:102A30000C4B019100920ECB0020FEF76FFAD023D1
:102A400080221B0612029A618022D2015A618022E2
:102A500052005A61E6E7C046E92B0020542B0020C3
:102A6000E82B0020482B002010B5002803D10021BE
:102A7000FEF762FD10BD01210020FEF75DFDF9E7C4
:102A8000010010B50020032900D910BD024B1970B8
:102A9000FEF792FD0120F8E7DF2B0020F8B5DE46B7
:102AA00057464E464546E0B52A4E0700335C9B0626
:102AB000DB0F9846284B9B461B68434501D10029F4
:102AC00046D00020FFF796FF802343449A46012317
:102AD00000249946214D0021288803F067F95346C8
:102AE000F05C4B46204101341840FFF783FF052C72
:102AF000F1D10021288803F059F90120FFF77AFF6E
:102B00005B4642461A60164B0021188803F04EF9C6
:102B10000020FFF76FFF012300249846002128883A
:102B200003F044F9F05D4346204101341840FFF7BB
:102B300061FF052CF2D12888002103F037F901202C
:102B4000FFF758FFF0BCBB46B246A946A046F8BD09
:102B5000024DDDE7281000203C2B00200C10002047
:102B60000A100020124B10B5188805F0E1F9011C7D
:102B7000104805F0C2F9104905F0B9F905F000FA5E
:102B80000E4A0F4B944680B2188060440D4B4000B3
:102B900018800D490D4B086849681A685B68FFF793
:102BA000C3FE0120FFF726FF0120FFF75DFF10BDE8
:102BB0000E1000200024744900005244B8FCFFFFAE
:102BC0000C1000200A100020181000201010002007
:102BD000114B10B5188805F0ABF9011C0F4805F032
:102BE0008CF90F4905F083F905F0CAF90D4A0E4B2F
:102BF000944680B218800D4B6044400018800C4908
:102C00000C4B086849681A685B68FFF78DFE012065
:102C1000FFF7F0FE10BDC0460E10002000247449DE
:102C200000005244B8FCFFFF0C1000200A100020E6
:102C300018100020101000200B4B10B5188005F064
:102C400077F9011C094805F058F9094905F04FF9D1
:102C500005F096F9074A084B944680B21880074B56
:102C600060444000188010BD0E10002000247449FC
:102C700000005244B8FCFFFF0C1000200A10002096
:102C800010B5054B002218685968FEF7FFFD0020BB
:102C9000FFF7EAFE10BDC046181000200F4B10B51C
:102CA000186859680022FEF7F1FD0D4B0D4C18789D
:102CB00005F03EF90C4905F020F90C4905F031F911
:102CC000011CFE20800505F018F9094905F029F9D5
:102CD00005F05CF92060616010BDC046181000204E
:102CE0000810002000100020000070420000484240
:102CF000002474490C4B10B5187005F019F90B49F4
:102D000005F0FBF80A4905F00CF9011CFE208005CE
:102D100005F0F3F8074905F004F905F037F9064C1A
:102D20002060616010BDC0460810002000007042A5
:102D3000000048420024744900100020F8B5030048
:102D4000DE4657464E464546613BE0B5192B55D801
:102D50004038C3B22D4A9B009A58920191462C4AA2
:102D60009D58063527D4012398468023D026DB01C1
:102D70009A46284F36064B462C00EB40203CE41781
:102D80001C40434623409B461800FFF76DFE5B4600
:102D9000002B19D05346736180231B02736180237B
:102DA0005B0073614346386879681C4219D102F0B0
:102DB000FDFF013DDFD20020FFF756FEF0BCBB4611
:102DC000B246A946A046F8BD5346B36180231B0214
:102DD000B36180235B00B3614346386879681C4265
:102DE000E5D0CB0740081843490802F0DFFF3868F8
:102DF000796802F0DBFF013DBDD2DCE72038C0B2CC
:102E00001F233B28A6D80300A4E7C0469811002042
:102E1000AC1000200010002010B507F02BFB00289C
:102E200009D1012002F0F6FF02F0B6FF002902D11D
:102E3000034B9842F1D9034807F002F810BDC04691
:102E4000404B4C00C0D60010F0B5D6464F46464623
:102E5000C0B500293DD08246214B00209A444B1E2C
:102E6000994600211EE003F015FE02000B00002031
:102E70001C4904F01DFA434606000F0058B203F047
:102E800009FE32003B0003F08EFD2B00220003F010
:102E900063FD03F053FE01239C464B46E244013B95
:102EA00019D3994603F03EFE5346040018780D00EE
:102EB0003038C3B298464846092BD4D903F0EAFD0E
:102EC00002000B000020074904F0F2F90022002361
:102ED000D9E700200021E0BCBA46B146A846F0BDC3
:102EE000E026002000002440F0B5DE4657464E465E
:102EF0004546E0B5AE4B8BB01A78682A5ED15A7859
:102F0000652A00D018E19A786C2A00D014E1DA78AA
:102F1000702A00D010E1A74807F016F8A64806F07E
:102F20008FFFA64806F08CFFA54806F089FFA5484C
:102F300006F086FFA44806F083FFA44806F080FF51
:102F4000A34806F07DFFA34C200006F079FF200087
:102F500006F076FFA04806F073FFA04806F070FF69
:102F60009F4806F06DFF9F4806F06AFF9E4806F0F6
:102F700067FF9E4806F064FF9D4806F061FF9D488C
:102F800006F05EFF9C4806F05BFF9C4806F058FF89
:102F90009B4806F055FF9B4806F052FF9A4806F002
:102FA0004FFF9A4806F04CFF994806F049FF0BB0D6
:102FB000F0BCBB46B246A946A046F0BD632A00D08D
:102FC000A2E15A786F2A0ED19A786E2A0BD1DA785C
:102FD000662A08D11A79692A05D15A79672A02D155
:102FE000FDF77AF9E3E75A78662A00D02CE19A785F
:102FF000722A00D0A0E0DA78652A00D09CE01A7925
:10300000712A00D098E05A79202A00D094E09A7969
:10301000303A092A6FD8DA79303A092A6BD81A7A05
:10302000303A092A67D85A7A303A092A63D89A7A04
:10303000303A092A5FD8DA7A303A092A5BD81A7B03
:10304000303A092A57D85A7B303A092A53D89A7B02
:10305000303A092A4FD89A1D91460F229246013ADA
:103060009046002400259A44984421E043464A466D
:10307000981A03F00FFD02000B000020654904F0D0
:1030800017F95B460090019158B203F003FD009AD6
:10309000019B03F088FC3B00320003F05DFC03F071
:1030A0004DFD01239C46E14404000D00D1451AD09A
:1030B0002000290003F036FD4B46060018780F006B
:1030C0003038C3B29B46092BD0D943464A46981A9A
:1030D00003F0E0FC02000B0000204E4904F0E8F889
:1030E00000220023D5E701234B4A5B4212196B41B2
:1030F0001100002B03D0494806F0A2FE57E7484BC9
:103100009942F8D8474B48481C605D602B0022006C
:1031100006F01AFF454B1B78022B46D0032B26D016
:10312000012B01D1FFF7BAFDFF2000F0D7FF3EE7EA
:10313000732A01D100F05CFC00223D499C5C885C54
:10314000844200D047E30132062AF7D1374D2B786D
:10315000002B00D0CAE3D02404252406354806F00D
:103160006FFE6420656102F055FEA5611FE701F066
:10317000AFFED9E79422431F9BB25200934200D383
:103180001EE1FFF759FD2C4B2C48198806F0DCFE98
:103190002B4B1988D2239B009C466144294806F09A
:1031A000D3FE224B1B78022BB8D1FFF711FDBBE7F2
:1031B000E0260020D8D60010E0D60010F4D600108B
:1031C00028D700103CD700105CD7001094D700100F
:1031D000ECD7001040D8001050D8001064D8001070
:1031E00074D8001090D80010B4D80010E8D800109F
:1031F00028D9001058D9001094D90010C4D9001053
:10320000ECD9001030DA00104CDA001088DA001027
:1032100088D6001000002440F0D8FFFF30DB0010FB
:10322000F09AEB0B181000200CDB0010E12B0020B3
:1032300044DE00104CDE00100E100020C8DA001032
:103240000C100020E4DA0010772A00D074E79A7896
:10325000732A00D070E7DA78702A00D06CE71A7908
:10326000652A00D068E75A79652A00D064E79A7920
:10327000642A00D060E7DA79202A00D05CE7187A67
:103280003038C0B2092837D85B7A303BDBB2984679
:10329000092B31D840B203F0FDFB0022D14B03F0E3
:1032A00082FB0022002303F057FB03F047FC03F0EE
:1032B00039FC4346060058B20F0003F0EBFB020056
:1032C0000B003000390003F047FB03F037FC01220C
:1032D0005242D31704000D0012196B41002B0FD17D
:1032E000622A0DD8C04CC0B22070FFF703FD2178D0
:1032F000BE4806F029FE17E7BD4806F0A1FD13E71A
:10330000BC4806F09DFD0FE7622A5DD15A78612A1C
:1033100000D011E79A78752A00D00DE7DA78642A90
:1033200000D009E71A79202A00D005E75A79303A07
:10333000092A45D89A79303A092A41D8DB79303BB5
:10334000092B3DD8AC4B00209A460223994620E039
:1033500003F0A0FB02000B000020A24903F0A8FF2D
:10336000434606000F0058B203F094FB32003B00C6
:1033700003F019FB2B00220003F0EEFA03F0C6FB6A
:1033800001239C464B4680B2E244013B00D2F1E669
:10339000994603F07FFB5346040018780D0030383F
:1033A000C3B298464846092BD2D903F073FB0200FA
:1033B0000B0000208B4903F07BFF00220023D7E79E
:1033C0008E4806F03DFDF2E5732A00D09AE05A7867
:1033D000662A00D025E19A78722A00D021E1DA78B5
:1033E000652A00D01DE11A79712A00D019E15A79B5
:1033F000202A00D015E19A79303A092A00D97AE6D4
:10340000DA79303A092A00D975E61A7A303A092A67
:1034100000D970E65A7A303A092A00D96BE69A7ACE
:10342000303A092A00D966E6DA7A303A092A00D910
:1034300061E61A7B303A092A00D95CE65A7B303AB9
:10344000092A00D957E69A7B303A092A00D952E670
:103450009A1D91460F229246013A93460024002578
:103460009A449B4421E05B464A46981A03F012FBBB
:1034700002000B0000205B4903F01AFF4346009056
:10348000019158B203F006FB009A019B03F08BFAFE
:103490003B00320003F060FA03F050FB01239C462E
:1034A000E14404000D00D1451AD02000290003F0AA
:1034B00039FB4B46060018780F003038C3B29846E7
:1034C000092BD0D95B464A46981A03F0E3FA02006A
:1034D0000B000020434903F0EBFE00220023D5E758
:1034E00005225242D31712196B411100002B00D054
:1034F00001E6434B994200D9FDE5424B42481C602E
:103500005D6003E6742A00D0B6E05A78782A23D1A9
:103510009A78652A20D1DA786E2A1DD11A79202A64
:103520001AD158793038C0B2092811D840B203F006
:10353000B1FA0022002303F00FFA03F0FFFA084368
:1035400049D10020FFF790FA304806F079FC2EE5CB
:10355000274806F075FC2AE55A78782A00D0EBE572
:103560009A786D2A00D0E7E5DA786F2A00D0E3E593
:103570001A79642A00D0DFE55A79652A00D0DBE5A4
:103580009A79202A00D0D7E5D8793038C0B20928F6
:10359000DED840B203F07EFA0022002303F0DCF90B
:1035A00003F0CCFA002963D1032861D8184DC3B2C7
:1035B0002B70022B00D1E5E1032B00D1DFE1012BC1
:1035C00001D1FFF75DFBFF2000F088FD297811484D
:1035D00006F0BAFCEBE40120FFF746FA0E4806F0CD
:1035E0002FFCE4E4000024400810002064DB0010FD
:1035F0008CDB00107CDB0010E5260020F8DA0010E0
:103600000B2700001010002044DB00109CDB001092
:10361000E12B0020D4DB0010A8DB0010732A00D0BF
:103620003AE15A78612A00D0E2E19A78762A00D00D
:10363000DEE1DA78652A00D0DAE11A79702A00D062
:10364000D6E15A79202A00D0D2E19B79303B092B70
:1036500000D97DE701210620FFF7F6FBC0B200F09C
:103660003DFD002800D190E1CA4806F0E9FB9EE448
:10367000C94806F0E5FB9AE46D2ACFD15A78612A51
:103680001CD19A786E2A19D1DA78722A16D11A7951
:10369000742A13D15A79742A10D19A79792A0DD1C2
:1036A000DA79742A0AD11A7A782A07D1BB4B1B78A7
:1036B000022B48D0BA4806F0C3FB78E45A78612A56
:1036C00000D039E59A786E2A00D035E5DA78632A99
:1036D00000D031E51A79772A00D02DE55A79742A7D
:1036E00000D029E59A79782A00D025E5AB4B1B78E4
:1036F000012BDFD12020FFF721FBD02380221B06E6
:1037000092015A61002006F005FB45B20400AB1C93
:103710005DD00A2D13D00D2D11D0280006F046FBE8
:10372000E0B2FFF70BFB032DECD1D02380221B0668
:10373000920103219A619B4806F006FC37E40A20B7
:1037400006F034FBDEE701212020FFF7A7F9D023A4
:1037500080221B069201944E944F5A61002006F07D
:10376000D9FA45B20400AB1C2DD00A2D12D00D2D74
:1037700010D0280006F01AFB0021E0B2FFF78EF906
:1037800031888B4802F07CFEC11702F00FFB032D3D
:10379000E4D1CAE70A2006F009FB00210A20FFF75E
:1037A0007DF93B8800219800C01802F0FFFA002143
:1037B0000D20FFF773F931887D4802F061FEC117D3
:1037C00002F0F4FACAE7012002F024FBC6E7012068
:1037D00002F020FB96E7002276499C5C885C8442DC
:1037E00000D044E201320A2AF7D19A7A303A092A03
:1037F00000D946E1DA7A303A092A00D941E11B7B47
:10380000303B092B00D93CE10023994618006A4B54
:103810009B4602239A4603F03DF95B464A46040064
:10382000985C0D003038C3B29846092B01D90023AB
:1038300098464A465346981A03F02CF902000B00AA
:1038400000205E4903F034FD434606000F0058B2E5
:1038500003F020F932003B0003F0A5F82B00220012
:1038600003F07AF803F052F901239C46E1444B46F9
:1038700080B2032BCFD19422431F9BB252009342BC
:1038800000D3FEE001F040FB4D4B4E48197806F0A6
:103890005BFB4D4B198881E46C2A00D02EE15A78ED
:1038A0006F2A00D048E49A78612A00D044E4DA789C
:1038B000642A00D040E41A79702A00D03CE45A7996
:1038C000202A00D038E49B79303B092B00D93FE611
:1038D00001210620FFF7B8FAC0B200F0D1FD0028A0
:1038E00048D03A4806F0ACFAFFF761FB384806F0DA
:1038F0002BFB384B00249846374F03E0385D06F029
:1039000055FA013443461B78A342F7DC334806F0EE
:1039100097FA334B3C000026994612E0032B00D166
:103920001FE1012B02D12078FFF708FA002006F0F2
:10393000F1F92C4B40B218700134032800D114E186
:10394000013643461B78B34200DC16E1207806F0CE
:103950002DFA2B78022BE1D1002E00D012E138781D
:103960000121FFF79BF81E4B00211888400002F050
:103970001DFADBE71C4806F063FAFFF718FB01F0BD
:1039800087FA20E6FFF7EEF81DE6184806F058FA29
:10399000FFF70DFBF8DB0010E4DB0010E12B00204B
:1039A000B4DB001068D600100E1000200A100020B2
:1039B00040420F00D4DE0010EA2600200000244020
:1039C00080140020E0DE00108214002044DC00108F
:1039D00088DE0010D80F0020DC0F0020A0DE0010D1
:1039E0000C100020DC2B002054DC001008DC001040
:1039F0005A78652A01D0FFF79FFB9A78742A01D084
:103A0000FFF79AFBDA78742A01D0FFF795FB1A7951
:103A1000652A01D0FFF790FB5A79782A01D0FFF789
:103A20008BFB9A79742A01D0FFF786FB002006F001
:103A300071F9AA4C02AE207020220021300004F05F
:103A400081FB0025002006F065F941B221708B1C36
:103A5000F8D0082949D0032938D00A291DD00D29CA
:103A60001BD01F2D15D82038C0B25E2811D80800F1
:103A700006F09CF9237873550135EDB200232370CD
:103A8000E0E7962205215200954806F05DFAFFF71F
:103A90008EFA012002F0BEF9F0E70023914A02E01D
:103AA000F15CD15401339D42FADC8F4BFF201D7035
:103AB0000023237000F012FB8C4806F0C1F90020AF
:103AC00006F028F90230FAD1FFF771FA884806F0BB
:103AD0003BFA00238748237006F036FA002006F0F0
:103AE00019F90230FAD1FFF762FA002DD1D00A009D
:103AF000013D8148EDB206F027FABFE7642A01D004
:103B0000FFF716FB5A78722A5BD19A78692A58D146
:103B1000DA78762A55D11A79652A52D15A79732AD8
:103B20004FD19A79202A4CD1DB79303B092B00D92F
:103B30000EE501210720FFF787F9C4B2032C3BD81B
:103B40002000FEF79DFF6D4806F0FEF9022C2ED0F6
:103B5000032C27D0012C20D0694806F071F9FFF71B
:103B6000E3FA207801F0E6F9E0E6664806F0ECF9C1
:103B7000002006F0CFF80230FAD10A2006F016F93C
:103B8000FFF715FA20780021FEF788FF4B461888CA
:103B90000021400002F00AF9C8E65B4806F050F93F
:103BA000FFF7C2FA594806F04BF9FFF7BDFA58483B
:103BB00006F046F9FFF7B8FA564806F041F9FFF764
:103BC000F6F95A78652A01D0FFF7B6FA9A78662A8C
:103BD00001D0FFF7B1FADA78612A01D0FFF7ACFA29
:103BE0001A79752A01D0FFF7A7FA5A796C2A01D001
:103BF000FFF7A2FA9A79742A01D0FFF79DFA464896
:103C000006F01EF9454806F01BF9454806F018F97C
:103C1000444806F015F9002006F07CF82F4C424D80
:103C20002070002006F076F840B203004E3BDBB275
:103C300020702B2BF5D89B00EB589F463B4806F095
:103C4000FFF801F021F93A4806F0FAF8FFF7AFF96A
:103C5000364806F0F5F800F017FF364806F0F0F8A1
:103C6000FFF7A5F9344806F0EBF8FFF7A0F90022BA
:103C700032499C5C885C844223D10132072AF8D106
:103C80002F4B1B78032B00D014E5202001F052F9B4
:103C9000D02380221B0692015A61002006F03AF8D8
:103CA00044B20500A31C15D00A2C0FD00D2C0DD04A
:103CB000200006F07BF8E8B201F03CF9032CECD1CF
:103CC00033E5204806F0BCF8FFF771F90A2006F04A
:103CD0006DF8E2E7012002F09DF8DEE7DC2B002022
:103CE000FCDE0010DC0F0020D80F002028DE0010C2
:103CF00010DE0010BCD6001008DE001090DC0010B2
:103D0000A8DC0010BCDE0010B0DC0010C0DC00102D
:103D1000B8DC0010C8DC0010E0DC001018DD00107A
:103D200040DD001078DD00107CE10010A0DD001007
:103D3000C4DD0010DCDD0010F4DD001040DF0010F9
:103D4000E12B00204CDF001070B5002005F0E2FFF1
:103D5000224C42B22270931C20D0082A15D00A2A85
:103D600025D00D2A23D01E4D2B781F2B11D820389B
:103D7000C0B25E280DD8100006F018F82B78194A4A
:103D80002178D15401332B7006E0154A1378002BAB
:103D900005D1012002F03EF80023237070BD013BE5
:103DA000137008210822104806F0CEF8F4E70A2024
:103DB00005F0FCFFFFF798F80022094B22701A70FB
:103DC00000210848203204F0BDF9084806F0BCF88C
:103DD000002005F09FFF0230FAD1DFE7DC2B002046
:103DE000DE2B0020E026002008DE0010BCD60010EC
:103DF000F0B5CE46474680B500270500914685B010
:103E0000414E03AC984643BA2380A270032322009C
:103E100050213000009708F047FE052001F0FAFF1E
:103E20006B1C5BBA23804B461B0A2200A3705021F7
:103E300003233000009708F037FE052001F0EAFF69
:103E4000AB1C5BBA23804B461B0C2200A370502195
:103E500003233000009708F027FE052001F0DAFF69
:103E6000EB1C5BBA23804B461B0E2200A370502133
:103E700003233000009708F017FE052001F0CAFF69
:103E80002B1D5BBA238043462200A37050210323DD
:103E90003000009708F008FE052001F0BBFF6B1D05
:103EA0005BBA238043461B0A2200A37050210323E0
:103EB0003000009708F0F8FD052001F0ABFFAB1DC6
:103EC0005BBA238043461B0C2200A37050210323BE
:103ED0003000009708F0E8FD052001F09BFF434605
:103EE00007356DBA1B0EA3702200032350212580D5
:103EF0003000009708F0D8FD052001F08BFF05B0D9
:103F0000C0BCB946B046F0BD48150020F0B5DE464D
:103F100057464E464546E0B5030085B06A4607332E
:103F20005BBA0B2400279381012380466A4E6C44C0
:103F30009946277003AA009350213000013308F0FE
:103F4000B3FD2200012350213000009708F0B6FD98
:103F500023786A461B029A46434606335BBA93812E
:103F60004B46277003AA009350213000013308F01C
:103F70009BFD2200012350213000009708F09EFD98
:103F8000534625786A461D43434605335BBA938101
:103F90004B46277003AA009350213000013308F0EC
:103FA00083FD2200012350213000009708F086FD98
:103FB00023782D021D4343466A4604335BBA93813E
:103FC0004B46277003AA009350213000013308F0BC
:103FD0006BFD2200012350213000009708F06EFD98
:103FE00023782D022B432A0E1D02434692466A4631
:103FF00003335BBA93814B46277003AA0093502189
:104000003000013308F050FD220001235021300020
:10401000009708F053FD514622782B0E2A430D02DB
:104020001D4313029B4643466A4602335BBA9381A3
:104030004B46277003AA009350213000013308F04B
:1040400033FD2200012350213000009708F036FD97
:104050005B4622782D021A431B0E1D4313029A461B
:1040600043466A4601335BBA93814B46277003AAE5
:10407000009350213000013308F016FD2200012387
:1040800050213000009708F019FD534622782D0288
:104090001A431B0E1D4313029A4643466A465BBAF7
:1040A00093814B46277003AA0093502130000133BF
:1040B00008F0FAFC0123220050213000009708F09C
:1040C000FDFC534629002078184305B0F0BCBB46E0
:1040D000B246A946A046F0BD48150020F0B5D64628
:1040E0004F464646C0B584B0072800D8AFE0FF2849
:1040F00011D0D02404252406AC4805F0A1FE64208C
:10410000656101F087FE0020A56104B0E0BCBA46FD
:10411000B146A846F0BD0025A54BA64E1B7803ACC2
:1041200050212200A370258003233000009508F061
:10413000BBFC052001F06EFE9F4B01201A685B68F6
:10414000FFF756FE9D4B09201A685B68FFF750FE8B
:104150009B4B22001F8888235B0150212380A7707E
:1041600003233000009508F09FFC052001F052FE6B
:1041700090233F0A5B01220050212380A770032374
:104180003000009508F090FC052001F043FE9822D5
:104190008C4B52011B7850212280A37022000323F4
:1041A0003000009508F080FC052001F033FEA022CD
:1041B000854B52011B7850212280A37022000323DB
:1041C0003000009508F070FC052001F023FEA822C5
:1041D0007E4B52011B7850212280A37022000323C2
:1041E0003000009508F060FC052001F013FEF82275
:1041F000774B520198461B782280A370220003233C
:1042000050213000009508F04FFC052001F002FE1F
:1042100043461B78002B18D06E4B002799464B461F
:104220002A005B5D20326270A370220003235021BC
:1042300027703000009708F037FC052001F0EAFDF8
:1042400043461B780135AB42E9DC01205DE70027DE
:10425000574B01308501574E1B7803AC6ABA502189
:104260002280A370220003233000009708F01CFC7A
:10427000052001F0CFFD504B681C1A685B68FFF702
:10428000B7FD28004D4B09301A685B68FFF7B0FD99
:104290004B4B22001B88502198462B0011335BBAF0
:1042A000238043463000A3700323009708F0FCFBF3
:1042B000052001F0AFFD2B0012335BBA238043468B
:1042C0001B0A22005021A37030000323009708F03E
:1042D000EBFB052001F09EFD3A4B50211A782B0094
:1042E00013335BBA2380A2700323220030000097AF
:1042F00008F0DAFB052001F08DFD334B50211A78D0
:104300002B0014335BBA2380A270032322003000F9
:10431000009708F0C9FB052001F07CFD2B4B5021D4
:104320001A782B0015335BBA2380A2700323220076
:104330003000009708F0B8FB052001F06BFD244B1E
:1043400050211A7898462B001F335BBA2380A27045
:10435000032322003000009708F0A6FB052001F09F
:1043600059FD43461B78002B00D16EE7194B0027FF
:10437000994600239A4620354B46DB5D6ABAA37006
:10438000534622805021220000933000032308F07E
:104390008BFB052001F03EFD43461B7801350137BC
:1043A000ADB2BB42E8DC0120AFE6C04674DF0010CE
:1043B000E12B0020481500201810002010100020CC
:1043C0000E10002008100020DF2B00208014002099
:1043D000D80F0020DC0F002070B5274C2378DA07B7
:1043E00034D5D02280211206490251619A0727D57F
:1043F000D02280211206890251615B071AD5D02391
:1044000080221B06D2025A61D0231B065A688023E1
:1044100015005B031D401A4203D1184E3378012B5F
:104420001AD0D0231B065B68DB0202D50122134B96
:104430001A7070BDD02380221B06D2029A61E3E776
:10444000D0228021120689029161D6E7D0228021F4
:10445000120649029161C9E7642001F0DBFC0722E2
:104460002900237835700133DBB29A4269414A4210
:1044700013402370DDE7C046A6120020A5120020DD
:10448000F0B5DE4657464E464546E0B587B00728AC
:1044900000D815E1FF2812D0D024042524067D4839
:1044A00005F0CEFC6420656101F0B4FC0020A5613C
:1044B00007B0F0BCBB46B246A946A046F0BD02AB71
:1044C0009C4600230B24002699460123724F644426
:1044D00005AD98462A00502126702E8038000093A2
:1044E000013308F0E1FA0123220050213800009640
:1044F00008F0E4FA694A2378012013700392FFF769
:1045000005FD674B186059600920FFF7FFFC654BFC
:104510002A00186059604B46237090235B012B8062
:104520004346502100933800013308F0BDFA0123BF
:10453000220050213800009608F0C0FA23782A00A3
:104540001B029A464B46237088235B012B8043460F
:10455000502100933800013308F0A6FA012322000D
:1045600050213800009608F0A9FA22784E4B5244A8
:104570001A804B46237098235B012B8043462A0008
:10458000502100933800013308F08EFA01232200F5
:1045900050213800009608F091FA2278434B5021C0
:1045A0001A704B462370A0235B012B8043462A00E0
:1045B00000933800013308F077FA012322005021DC
:1045C0003800009608F07AFA2278394B50211A7098
:1045D0004B462370A8235B012B8043462A0000939F
:1045E0003800013308F060FA01232200502138001E
:1045F000009608F063FA22782E4B50211A704B4631
:104600002370F8235B012B8043462A000093380077
:10461000013308F049FA01232200502138000096A6
:1046200008F04CFA244B22789B461A70002A24D0BA
:10463000224B002699460023984601339A4643466A
:1046400023702B70330020336B7053462A005021A7
:1046500000933800022308F027FA43462200009313
:1046600050210123380008F029FA4A46237893554F
:104670005B461B780136B342E1DC039B1B78022BBF
:1046800000D116E1032B00D11BE1012B00D114E175
:1046900001200DE7A8DF001048150020E12B0020C5
:1046A00018100020101000200E100020081000200C
:1046B000DF2B002080140020D80F0020DC0F00200A
:1046C00002AB9C460B2400230130644486019846CB
:1046D00005AD237073BA2B8001237C4F99462A00C5
:1046E000502100933800013308F0DEF943462200E0
:1046F000502100933800013308F0E0F9744A237820
:10470000701C13700392FFF701FC724B1860596024
:1047100030000930FFF7FAFB6F4B2A001860596030
:1047200043462370330012335BBA2B804B46502133
:1047300000933800013308F0B7F9434622005021B6
:1047400000933800013308F0B9F923782A001B02DE
:104750009A4643462370330011335BBA2B804B4695
:10476000502100933800013308F09EF9434622009F
:10477000502100933800013308F0A0F92278574BFC
:1047800052441A8043462370330013335BBA2B80A4
:104790004B462A00502100933800013308F084F979
:1047A00043462200502100933800013308F086F977
:1047B00022784B4B50211A70434623703300143338
:1047C0005BBA2B804B462A0000933800013308F077
:1047D0006BF943462200502100933800013308F062
:1047E0006DF922783F4B50211A70434623703300F5
:1047F00015335BBA2B804B462A00009338000133F7
:1048000008F052F94346220050210093380001334A
:1048100008F054F92278344B50211A704346237023
:1048200033001F335BBA2B804B462A0000933800BD
:10483000013308F039F94346220000935021013337
:10484000380008F03BF9294B22789B461A70002A61
:1048500000D112E700239846254B203699460023C5
:104860009A463B002F0025004446984653462B703D
:1048700073BA3B8001233A00502100934046013334
:1048800008F012F953462A000093502101234046B4
:1048900008F014F94A462B78013613555B461B780D
:1048A0000134B6B2A342E1DC039B1B78022B00D09B
:1048B000E8E6FEF757F90120FAE5FEF7E1F90120F5
:1048C000F6E500F0E5FA0120F2E5C04648150020C3
:1048D000E12B002018100020101000200E100020E6
:1048E00008100020DF2B002080140020D80F0020AB
:1048F000DC0F0020F8B5D024CE4647462406636876
:1049000080B55B0203D4564D2E78012E0BD0D023F8
:104910001B065B685B0202D50122514B1A70C0BCBA
:10492000B946B046F8BD802780237F029B026761AD
:10493000994663618023DB0264206361984601F03D
:1049400069FA4B46A761A36143466420A36101F065
:1049500061FA444B98461B781E4227D067619A073C
:1049600073D5D02280211206890251615B0766D57A
:10497000D02380221B06D2025A61322001F04AFA6B
:1049800043461878FFF77CFD0023374F2B703B78A8
:10499000002B0DD1D02404252406344805F050FA0C
:1049A0006420656101F036FAA561B8E7A761D6E732
:1049B0002F4805F0C9FA2F4E3378002B0AD02E4B22
:1049C000002498464346185D05F0F0F93378013429
:1049D000A342F7DC294805F033FA3378002B2AD0BC
:1049E000254B002598461C0013E0022B06D1002D14
:1049F00031D1434601211878FEF750F8002005F028
:104A000089F940B203280ED0337801350134AB4226
:104A100011DD207805F0CAF93B78012BE5D120782B
:104A2000FEF78CF9EAE7164805F08EFA002005F04B
:104A300071F90230FAD1134805F086FA6FE7D023F6
:104A400080221B06D2029A6197E7D02280211206AB
:104A5000890291618AE700212078FEF71FF8CDE7EF
:104A6000A4120020A6120020E12B00204CDE001032
:104A700088DE0010D80F0020DC0F0020A0DE001020
:104A8000BCDE0010DCDF0010F0B55746DE464546C0
:104A90004E460023E0B500279B469A46E44B87B07C
:104AA0009846E44B05AC039353461B0A23705B46C0
:104AB000220050216370A77003234046009707F03F
:104AC000F3FF052001F0A6F9534601339BB21B0A00
:104AD00023705B4601336370602322005021A37072
:104AE00040465D3B009707F0DFFF052001F092F99B
:104AF000534602339BB21B0A23705B46023363703A
:104B0000562322005021A3704046533B009707F0E4
:104B1000CBFF052001F07EF9534603339BB21B0AFD
:104B200023705B46033363706C2322005021A37013
:104B30004046693B009707F0B7FF052001F06AF98E
:104B4000534604339BB21B0A23705B460433220096
:104B500050216370A77003234046009707F0A4FF1D
:104B6000052001F057F9534605339BB21B0A237009
:104B70005B460533220050216370A7700323404633
:104B8000009707F091FF052001F044F953460633E2
:104B90009BB21B0A23705B460633220050216370D0
:104BA000A77003234046009707F07EFF052001F021
:104BB00031F9534607339BB21B0A23705B46073318
:104BC000220050216370A77003234046009707F02E
:104BD0006BFF052001F01EF9534608339BB21B0AF8
:104BE00023705B460833220050216370A7700323B3
:104BF0004046009707F058FF052001F00BF9534697
:104C000009339BB21B0A23705B467D2509332200C2
:104C100050216370A57003234046009707F044FFBE
:104C2000052001F0F7F853460A339BB21B0A2370A4
:104C30005B460A33220050216370A770032340466D
:104C4000009707F031FF052001F0E4F853460B33DD
:104C50009BB21B0A23705B460B332200502163700A
:104C6000A77003234046009707F01EFF052001F0C0
:104C7000D1F853460C339BB21B0A23705B460C33AE
:104C8000220050216370A77003234046009707F06D
:104C90000BFF052001F0BEF853460D339BB21B0AF3
:104CA00023705B460D33220050216370A7700323ED
:104CB0004046009707F0F8FE052001F0ABF8534698
:104CC0000E339BB21B0A23705B460E332200502129
:104CD0006370A77003234046009707F0E5FE0520A8
:104CE00001F098F853460F339BB21B0A23705B46C2
:104CF0000F33220050216370A770032340460097B2
:104D000007F0D2FE052001F085F8534610339BB220
:104D10001B0A23705B461033220050216370A7707A
:104D200003234046009707F0BFFE052001F072F80C
:104D3000534611339BB21B0A23705B4611336370D9
:104D4000322322005021A37040462F3B009707F0EA
:104D5000ABFE052001F05EF8534612339BB21B0AEE
:104D600023705B461233220050216370A770032327
:104D70004046009707F098FE052001F04BF8534697
:104D800013339BB21B0A23705B46133363701423E7
:104D900022005021A3704046113B009707F084FE8B
:104DA000052001F037F8534614339BB21B0A2370D9
:104DB0005B461433220050216370A77003234046E2
:104DC000009707F071FE052001F024F853461533D3
:104DD0009BB21B0A23705B4615332200502163707F
:104DE000A57003234046009707F05EFE052001F002
:104DF00011F853461F339BB21B0A23705B461F33C7
:104E0000637020232200A37050211D3B4046009771
:104E100007F04AFE052000F0FDFF20229446039B88
:104E200055461E00634499462035ADB204E0C046A5
:104E3000481500208412002033786ABA2280A370BB
:104E40002200032350214046009707F02DFE013534
:104E50000520013600F0DEFFADB2B145ECD153467E
:104E600040339BB29A465B464033DBB29B4690236D
:104E70009B009A4500D017E607B0F0BCBB46B2468F
:104E8000A946A046F0BDC04610B5FFF7FDFD10BD18
:104E900010B50B4B0B4C187803F04AF8011C0A486C
:104EA00003F02BF803F06CF8084B00222080186800
:104EB0005968FCF7EBFC0020FDF7D6FD10BDC0469D
:104EC000801400208214002000247449181000204F
:104ED00010B5094B094C187803F02AF8011C084852
:104EE00003F00BF803F04CF8064B20800022186802
:104EF0005968FCF7CBFC10BD801400208214002000
:104F00000024744918100020074BC0B210B5187067
:104F100003F00EF8011C054802F0EFFF03F030F833
:104F2000034C208010BDC04680140020002474492A
:104F300082140020F8B50300DE4657464E4645462B
:104F4000613BE0B5192B4BD84038C2B2284BD20098
:104F50009B181A685B68D0269946264B934698465C
:104F6000202330249A46012736060DE07361802302
:104F70001B02736180235B00736143460021188824
:104F800000F014FF013C1AD32300203B20D44D46EF
:104F9000DD403D402800FDF767FD8023DB01002D4B
:104FA000E4D1B36180231B02B36180235B00B36152
:104FB00043460021188800F0F9FE013CE4D20020AD
:104FC000FDF752FDF0BCBB46B246A946A046F8BD6F
:104FD00053464A465D461B1B9A40E5401543D8E7B9
:104FE0002038C0B21F223B28B0D80200AEE7C0462E
:104FF000A812002082140020094A83009A1810B5D4
:1050000014684022544080322240064CC000A4461E
:1050100063441A60044B9C466044416010BDC04626
:1050200004C0014004D0014000400140074B800013
:10503000C3181B68C90092000A435A400C2313404E
:10504000034A9446604403607047C04604C0014070
:1050500004D001400123D022834012069362936161
:10506000094A83009A1811684022514080320A4050
:105070000649C0008C4663441A60054B9C460523D4
:10508000604443607047C04604C0014004D0014002
:10509000004001408023DB051868000F7047C046C0
:1050A0000FB400B5084883B004F0CAFE049B002B7F
:1050B00007D005A91800019104F0B2FC034804F0E0
:1050C000BFFE012004F0C4FCE0DF001068D6001031
:1050D00070B5EFF3108C72B60D4D2B68002BFCD021
:1050E000BFF35F8F0724CB08C618C05C01230C40B8
:1050F000A3401C000440034207D118433070BFF3A3
:105100005F8F2C608CF3108870BD1000FFF7C8FF14
:105110002C0100D0F8B54746CE46884680B5EFF35F
:10512000108C72B61C4D2C68002CFCD0BFF35F8F26
:105130009A4222D807210126894602E00132934291
:1051400018D34D4637001540AF40D4080119045D0F
:105150002742F3D110003C430C70BFF35F8F002255
:105160000D4B1A608CF3108800280EDBC0BCB946CA
:10517000B046F8BD01204042EFE7BFF35F8F002348
:105180002B608CF31088012040424346002BEDD069
:105190000898FFF785FFC0462C0100D0044A10781C
:1051A000431CDBB2172B00D9102313707047C04685
:1051B0008414002010B5064B064C82B00100009309
:1051C00018221F232000FFF7A5FF02B010BDC04624
:1051D000F0DF0010A82600200021044B044ABFF392
:1051E0005F8F02C39342FAD17047C046000100D0DE
:1051F000800100D0054B064A1360064A13605360D5
:105200009360D360136153619361704780808080A5
:1052100000E400E004E400E01F2318401E3B83404C
:10522000002905D0C021044A49005350136070473B
:10523000802201498B50FAE700E100E00122824020
:10524000034B1B6813405A1E9341D8B27047C046A7
:1052500000E100E001238340014A13607047C0462B
:1052600000E200E0064B10309B688000C358054AFE
:1052700000209B1A2F229A424041C0B27047C0467C
:1052800000ED00E08814002070B50D00EFF31086EB
:1052900072B60F4A1368002BFCD0BFF35F8F0D4B23
:1052A00010309B6884001B590B4A934203D09D42E7
:1052B00001D000F0F3FF074B9B681D51BFF35F8FD8
:1052C000BFF35F8F0022024B1A6086F3108870BD17
:1052D000240100D000ED00E0CD010010F0B55746EC
:1052E0004E46DE464546E0B585B006000091170003
:1052F000EFF3108B72B66A4A1368002BFCD0BFF331
:105300005F8F0025674B5D579A46002D00DAA9E0B4
:105310006B00654C01935B199B009846A146C14404
:105320004B4652469B7910361370604BB6009B6813
:1053300099590B1B2F2B33D95D4B994200D0ACE010
:10534000019B42469C465B4B6544AD0063535A4B00
:105350000232A218043B9B1A1B05584A5B0D6519C3
:1053600013436B80564B0121AB80FF23AB71009B35
:10537000EF71AB604B460B4319004C4B9B68995146
:10538000BFF35F8FBFF35F8F0022454B1A608BF333
:10539000108805B0F0BCBB46B246A946A046F0BD99
:1053A00001200A008243D3798C46BB4231D845465E
:1053B000130044491B1B5B415943090D3D4B63538B
:1053C0003D4B02356519043B5B1B1B053B4D5B0DDB
:1053D0002B43AA464D466B800425AC465546E04417
:1053E000131F44441B1B1B055B0D1D434B4699714A
:1053F00000999D8099604946DF71334B01431360EA
:10540000BBE75800C01880002018C179B9422FD9D5
:1054100002000623D356002BF3DA02932B4B61468E
:105420000393131D9A4604235B429C46E144504675
:105430004B461B1A1B055B0D9C46204B95719846ED
:105440006346404603439380019B5A199200039B95
:10545000A418A380029B1C4AA371009B2260E771E1
:10546000A3608AE700F01AFF002553465D574FE717
:10547000908802934005131D9A46031561469C4689
:105480004046D444634604302018181AE02300052F
:10549000400D1B0218430390C5E700F0FFFE4FE7E5
:1054A000240100D0E22B00208814002000ED00E051
:1054B000CD01001000A1FFFFB814002000E0FFFFA5
:1054C00001BDFFFFAAAA00000148804701BD0000FE
:1054D00070B501240443EFF30581EFF3108C72B62D
:1054E000214A1368002BFCD0BFF35F8F1F4B0500D0
:1054F0001F4AED1A6D416A43120D1E4D8900AE68B8
:1055000052B27658A6421CD00621595691421CD060
:1055100012215956914222D01E215956914220D033
:105520002A2159560324914210D0134B19781A702E
:105530008171BFF35F8F00220B4B1A608CF31088D0
:1055400070BDAB680D4C5C50EFE700246100091999
:1055500089005B18FF21997109499980E5E70124C9
:10556000F4E70224F2E7C046240100D088140020AA
:10557000AAAA000000ED00E0E22B0020CD010010FF
:1055800001BDFFFF10B5084B084C82B0010000932D
:10559000002205232000FFF7BDFD002801DB1F23AB
:1055A000181A02B010BDC0460CE00010EA2B002013
:1055B000024B9C4661448900016070474000003402
:1055C00070B5114C114DAC420FD2FF262368002B51
:1055D0000CD0FFF7E3FD01002000FFF7E9FFA680F4
:1055E000BFF35F8F0834AC42F0D370BDFFF7D6FD38
:1055F00001002000FFF7DCFF2671BFF35F8F083446
:10560000AC42E3D3F1E7C046A81A0020B81A002044
:1056100010B50400FFF7C2FD01002000FFF7C8FF2E
:10562000FF232371BFF35F8F10BDC04610B5040088
:105630000120FFF7BFFD034BC3189B002360BFF39E
:105640005F8F10BD40000034034B9C4661448900CD
:105650000160BFF35F8F7047400000340A4B196848
:10566000EFF3108072B60A68002AFCD0BFF35F8F98
:105670001B68BFF35F8F00221A6080F3108840BF61
:10568000002000217047C046B02B0020F0B5DE4658
:1056900057464E464546E0B587B0EFF305830322F3
:1056A00001251A40954091008846A946B34B0392C4
:1056B0005C58B34B1D60B34B04934B46B2484363F5
:1056C0000823E55E002D37DAA3881BB2002B00DB30
:1056D000ADE0A379002B00D0EEE00823E05E0028C7
:1056E00020DB430062691B18DB00D3189E68DD686D
:1056F000731C00D111E1A44801004144826A0B6986
:10570000B71A9B1A9F4215D30123026A039883405C
:105710001A420FD09C4800F037FB8D4202DCCCD1FE
:105720008642CAD940BF07B0F0BCBB46B246A946C4
:10573000A046F0BD0E61EDE762696B0092465B1911
:10574000DB009A4453469E68DF6800F01DFB8F42E1
:10575000BADC00D103E1002F00DAE8E052465346FC
:1057600052691B699346049A934200D1D9E052468C
:105770000821605E52880004594610439847009003
:1057800001910099019A0B001000134300D1CEE063
:1057900013000A00B61A9F41002806DB7A4800F081
:1057A000F3FA009E019F36184F4153469E60DF601A
:1057B00000229A5E002A00DA86E753009918606991
:1057C000C900411802938B68C9689B46B94200DD45
:1057D0007AE702D1B34200D976E708239C46A44475
:1057E000059565462281A446029B2C0006E05300E5
:1057F0009918C90041188D68C968AB469B18DB0031
:10580000C318B94206DC00D1B3E01C000023E25EFD
:10581000002AECDA230064469C4653461A8063460D
:10582000059D1D80A3881BB2002B00DA51E7226979
:10583000EFF3108172B61368002BFCD0BFF35F8FBB
:105840000123A7885B42A3803FB22369BFF35F8F28
:1058500000221A6081F31088002F00DA39E7230054
:10586000083322009A4666697B00DB19DB00F318D7
:10587000996850468C460824115FDD68002910DBCA
:10588000029306E0AB4244D00023E15E20000029F1
:1058900006DB4C006418E4003419E368AB42F1DD28
:1058A000029B078000201F5E1980002FDCDA1400A5
:1058B000A379002B00D110E70023A3712600082351
:1058C000E15E08364B1C00D12CE70800A246656952
:1058D00002E03E004B1C1AD04B005B18DB00EF18B7
:1058E0000A008C46E95E7B881BB2002BF1DA0123AB
:1058F0005B42DC17BB60FC60824205D053463180BE
:105900001B893B8053461A8160464B1CE4D15446A8
:10591000E5E6A3686345B7D9C2E76B1C00D0EAE6A9
:10592000F8E65B4658461B69984700281BD153464A
:105930001B8822692381EFF3108372B61168002956
:10594000FCD0BFF35F8F514662880A802269658070
:10595000BFF35F8F0021116083F31088B4E68642A5
:1059600000D8F8E6B0E65B461A685B6800920193DF
:1059700007E7B34500D848E74CE7C0468C2B00202A
:105980003C7005408D5600100040054070B52E4C0F
:105990002569002D04D00A212C48FFF709FE70BDAF
:1059A0002B4E0321300000F0E5F9E660FFF7F6FB2F
:1059B000284B03229C46D02322701B061B68012122
:1059C0006370254B6044A3600F2380002061022098
:1059D000638063694942A180198002311986473189
:1059E0001D83585218315A5275325C399952183207
:1059F00001319952183201319952183201319952BC
:105A0000083518329D52023118329952183201313C
:105A10009952183201319952183201319952183283
:105A2000013199521832013199520C4B0C49DC600A
:105A300001303562FFF728FC01210320FFF7ECFB62
:105A4000084B1D60A7E7C046D0140020B02B0020F3
:105A50000040054040000034FFFF10008C2B002068
:105A60008D5600103860054000487047D014002063
:105A7000F8B51F0008AB1B7804001600002B08D1F6
:105A800000F08AF932003B00121A8B41002B00DA39
:105A900052E02269EFF3108072B61368002BFCD03D
:105AA000BFF35F8F0223E15E63694A005218D200A0
:105AB0009B182269002936DB1D886580BFF35F8F44
:105AC0000025156080F31088069A9E60DF601A61D9
:105AD000079A5A615A8801325204520C101C002A4B
