:020000041000EA
:1000000000B5324B212058609868022188439860DF
:10001000D860186158612E4B002199600221596106
:100020000121F02299502B49196001219960352056
:1000300000F044F80222904214D00621196600F024
:1000400034F8196E01211966002018661A6600F04E
:100050002CF8196E196E196E052000F02FF8012189
:100060000842F9D1002199601B49196000215960AB
:100070001A491B48016001219960EB211966A021F2
:10008000196600F012F800219960164914480160C1
:100090000121996001BC002800D000471248134993
:1000A000086003C880F30888084703B5996A0420EC
:1000B0000142FBD001200142F8D103BD02B5186610
:1000C0001866FFF7F2FF186E186E02BD00000240BE
:1000D000000000180000070000035F00212200005C
:1000E000F4000018222000A00001001008ED00E03C
:1000F00000000000000000000000000074B24E7A12
:1001000000200420F7010010C3010010C5010010F9
:10011000C1010010C1010010C1010010C101001097
:10012000C1010010C1010010C1010010C701001081
:10013000C1010010C1010010C9010010CB01001065
:10014000CD010010CD010010CD010010CD01001037
:10015000CD010010CD010010CD010010CD01001027
:10016000CD010010CD010010CD010010CD01001017
:10017000CD010010CD010010CD010010CD01001007
:10018000CD010010CD010010CD010010CD010010F7
:10019000CD010010CD010010CD010010CD010010E7
:1001A000CD010010CD010010CD010010CD010010D7
:1001B000CD010010CD010010CD010010CD010010C7
:1001C00000BE00BE00BE00BE00BE00BEEFF3058054
:1001D000103800BEF2EB887104E5001028E500102D
:1001E0003802001090A31AE71E481F49086006C88D
:1001F00081F3088810471D480068002801D019487D
:10020000F3E70DA40ECC002902D000F012F8F9E7B4
:100210001749184A002000E001C19142FCD116495B
:100220008847164988471649884700BEFDE701C937
:1002300001C29A42FBD3704728E50010C00000209D
:10024000B81A002020FF0010000004200000042045
:1002500020FF001000100420001004200000000007
:10026000704700000000000008ED00E0000000D032
:10027000B81A0020EC2B0020F9980010E5030010BC
:10028000F1980010F8B5C04606480749091A8B10C6
:10029000C90FC91810B5491003D0044B002B00D06A
:1002A000984710BDB81A0020B81A002000000000BE
:1002B000054B10B5002B03D00449054800E000BFF2
:1002C000FFF7E2FF10BDC04600000000642B0020D5
:1002D000BCD300107047C04670B5294809F068FDCE
:1002E000284809F0E1FC284B2848197809F060FDFE
:1002F000274809F0D9FC274B2748197809F058FD01
:10030000264809F055FD264D2B78002B08D00024F7
:10031000244E305D09F07EFC2B780134A342F8DCDA
:100320000A2009F077FC29781F4809F041FD1F4B8E
:100330001F481A685B6809F03BFD1E4809F0B4FCD1
:100340001D4B1E481A685B6809F032FD1C4B1D48A6
:10035000198809F02DFD1C4809F0A6FC1B4B1C4810
:10036000197809F025FD1B4809F09EFC1A4B1B4823
:10037000197809F01DFD1A4809F096FC70BDC046B9
:10038000C0D30010C8D30010E12B0020D8D3001038
:10039000E4D30010DF2B002008D4001040D400105C
:1003A000D80F0020DC0F002050D4001018100020BF
:1003B00068D4001084D40010101000208CD40010D9
:1003C0000E100020A8D40010BCD40010081000208B
:1003D000C0D40010D4D4001080140020DCD400104D
:1003E000F0D40010F0B5D024042583B0240609F021
:1003F000C1FB022004F062FD0A20656204F05EFD8C
:100400008023DB000B20636204F058FD80231B0176
:100410000D20636204F052FD80239B010F20636274
:1004200004F04CFD80231B020E20636204F046FDA5
:100430008023DB011020636204F040FD80235B0217
:100440001120636204F03AFD80239B021220636254
:1004500004F034FD8023DB021420636204F02EFDDF
:1004600080235B031520A36204F028FD80239B03F7
:100470001620A36204F022FD8023DB03A3626561E2
:1004800002F0B0FC002200218020A56100F086FC73
:100490001F4B00221868596801F0ECF91D480CF058
:1004A000BBF80023502100931B4A1C4801330CF079
:1004B00039FA002828D01A4809F0F6FBD024802603
:1004C0000125FF2003F09EFFFFF706FF154809F006
:1004D0006FFC154F2406360103F01CFC03F03EFFB1
:1004E00004F07CF93B785A08154206D066611D423B
:1004F00006D08023DB006361EEE7A6611D42F8D1E0
:100500008023DB00A361E7E7084809F0CDFBD5E7CE
:1005100018100020D5020010E02B00204815002004
:10052000F8D4001024D50010E12B00200CD50010C9
:10053000F0B5454657464E46DE46E0B58FB08A4692
:10054000914680460D000990142900D963E100D13D
:100550005DE10D2900D2B3E000D1ADE04B46002BA8
:1005600000D0B4E0CD4B64221C78CD4BA400E05801
:100570000021002307F0D2FB06000F00C94BCA4A36
:10058000E058C1174308C9071943C007002305F005
:10059000F9FE32003B0007F0C1FB4900C00F0843E1
:1005A0000200C317B6185F41404632003B002900E5
:1005B00005F000FF04000E2800D93CE1310F3B019B
:1005C0000B433201921BBB4190461D0029003200B3
:1005D0003B00404605F0EEFE0393039D0292D30ECE
:1005E00069011943029A039B5001801A9941C50D74
:1005F0004B022B4342020298039912184B41950E6D
:10060000990190012943801A9941029A039B80180D
:10061000594132003B0005F0CDFE002800D11EE11B
:10062000C5012800A14905F087FE10270B0C7F4269
:100630001F430B0ADBB22800CEB29C49984605F056
:100640007BFE422340259946FFB2994BE4019C462C
:1006500064442418142007F073FC4A462D022A43F0
:100660001500A3039B0F1B041D434346220A3F02B0
:10067000E4B21B043C431C431A23120615433606FE
:1006800008AA1373344308AB9C460100056044601C
:1006900083460D200822604407F08EFC00230BAA3D
:1006A00000936021093383480CF032F9824B099A98
:1006B0001A6052465A60A0E0804B984200D34DE742
:1006C0007E4B0D2598464B46002B00D14AE77C4BCC
:1006D00064221C78724BA400E0580021002307F02C
:1006E0001DFB704B0690E0580791C1174308C907DE
:1006F0006D4A1943C007002305F044FE069A079B84
:1007000007F00CFB069B079C4900C00F084306003E
:10071000C7179B197C4140461A001E002900230080
:1007200005F048FE270004000E2800D977E0310FBD
:100730003B010B433201921BBB4190461D00290037
:1007400032003B00404605F035FE0593059D0492BE
:10075000D30E69011943049A059B5001801A9941EF
:10076000C50D4B022B4342020498059912184B41C8
:10077000950E990190012943801A9941049A059B8D
:100780008018594132003B0005F014FE00285ED06D
:10079000C5012800454905F0CFFD10270B0C7F420D
:1007A0001F430B0ADBB22800CEB24049984605F041
:1007B000C3FD40234225FFB202933D4BE4019C461A
:1007C00064442418142007F0BBFB029B3F021A026A
:1007D000A3039B0F1B0415431D434346220AE4B2A7
:1007E0001B043C431C434B46120636061543344358
:1007F000834605604460012B37D0584607F0BEFBA6
:100800000FB0F0BCBB46B246A946A046F0BD2D4B8A
:10081000984200D8A2E62B4B142598469EE65A280B
:1008200000D88CE75A2200233000390007F076FA0E
:1008300080460D0083E75A2800D8C7E65A220023D5
:100840003000390007F06AFA80460D00BEE600234A
:10085000984601330026002700250293ADE70023C8
:100860000026984600270125EFE6213308AA1373D6
:1008700008AB9C4601000D200822604407F09CFB59
:1008800000230BAA0093602109330A480CF040F8BA
:100890000D4B099A1A6052465A60AEE7E62B0020CB
:1008A000D02B00209C2B002000CA9A3B40420F0016
:1008B00000FEFFFF48150020881C0020005847F864
:1008C000E72B002000046BF4901C0020F0B5DE46FE
:1008D00057464E464546E0B5002787B0FC4DFD4BD8
:1008E00005AC2380220002236021280000970CF031
:1008F0000FF8F94B22002380602102232800009783
:100900000CF006F8F54B220023806021022328001A
:1009100000970BF0FDFFF24B2200238060210223A1
:10092000280000970BF0F4FFEE4B2200238060219B
:100930000223280000970BF0EBFFEB4B22002380F3
:1009400060210223280000970BF0E2FFE74B220012
:10095000238060210223280000970BF0D9FFE44B8D
:100960002200238060210223280000970BF0D0FF93
:10097000C1231B012380220002236021280000974D
:100980000BF0C6FFDB4B22002380602102232800EE
:1009900000970BF0BDFFD84B22002380602102237B
:1009A000280000970BF0B4FFD44B22002380602175
:1009B0000223280000970BF0ABFFD14B22002380CD
:1009C00060210223280000970BF0A2FFCD4B2200EC
:1009D000238060210223280000970BF099FFCA4B67
:1009E0002200238060210223280000970BF090FF53
:1009F000C64B2200238060210223280000970BF0C1
:100A000087FF00221221C248FFF792FD0122122126
:100A1000BF48FFF78DFDBF4B04AE984642461F60AE
:100A2000BD4B60215360102301229A462370BB4BBB
:100A3000914603931B7828003370029300920123A0
:100A400022000BF065FF012332006021280000978F
:100A50000BF068FF5246337822701032934393466E
:100A60006370220002236021280000970BF050FFE2
:100A7000424617701122924622704A46029B60211C
:100A8000337028000123009222000BF041FF012364
:100A900032006021280000970BF044FF524622707C
:100AA0005A46337860219343637022000223280062
:100AB00000970BF02DFF424657701222924622708B
:100AC0004A46029B602133702800012300922200D5
:100AD0000BF01EFF012332006021280000970BF06D
:100AE00021FF524622705A46337860219343637047
:100AF00022000223280000970BF00AFF424697705D
:100B00001322924622704A46029B602133702800CD
:100B10000123009222000BF0FBFE01233200602132
:100B2000280000970BF0FEFE524622705A4633789A
:100B300060219343637022000223280000970BF08A
:100B4000E7FE4246D7701422924622704A46029B24
:100B50006021337028000123009222000BF0D8FEA0
:100B6000012332006021280000970BF0DBFE524683
:100B700022705A4633786021934363702200022327
:100B8000280000970BF0C4FE4246177115229246CA
:100B900022704A46029B6021337028000123009294
:100BA00022000BF0B5FE01233200602128000097DF
:100BB0000BF0B8FE524622705A46337860219343B8
:100BC000637022000223280000970BF0A1FE42462A
:100BD00057711622924622704A46029B602133705A
:100BE00028000123009222000BF092FE0123320024
:100BF0006021280000970BF095FE524622702022BB
:100C000092465246337860211343637022000223D8
:100C1000280000970BF07CFE42464946917117224E
:100C20009346029B2270337022004B4600912800AD
:100C30005F310BF06DFE0123320060212800009728
:100C40000BF070FE5A4622705246337860211343EF
:100C5000637022000223280000970BF059FE4346E0
:100C60004A46DA71A223220023806021A03B28009B
:100C700000970BF04DFEA323220023806021A13BAF
:100C8000280000970BF044FEA4232200238060215B
:100C9000A23B280000970BF03BFE214B2200238053
:100CA00060210223280000970BF032FE1D4B22002A
:100CB000238060210223280000970BF029FE1A4BA5
:100CC000A8469B46194B029303239A4630E0C04640
:100CD000481500201080FFFF1180FFFF1280FFFFEA
:100CE0001380FFFF1480FFFF1580FFFF1680FFFFBA
:100CF0001780FFFF110C0000120C0000130C000005
:100D0000140C0000150C0000160C0000170C00005D
:100D100000205FA0842B002000000101E0D900101A
:100D2000B1200000B180FFFFB81A0020B0260020DB
:100D30005946002200230CC153462370039B002513
:100D40001B78220033704B468B46009360210123B1
:100D500040460BF0DDFD0123320060214046009546
:100D60000BF0E0FD524622704A46BA4033786021CB
:100D70001343637022000223404600950BF0C8FD28
:100D8000029BDB1901371D70082FD1D107B0F0BCD1
:100D9000BB46B246A946A046F0BDC046F0B5DE4609
:100DA00057464E464546474BE0B59B4687B00392B3
:100DB0005A46454B454E13600023454A0290137036
:100DC000444A8A461370444A4449300013700BF079
:100DD00077FD0321042004F043F80321052004F0EB
:100DE0003FF800220121042004F054F800220121E0
:100DF000052004F04FF83A4B00271B7805AD9946C3
:100E00000123984604AC4B46237043462A006021D8
:100E10002F703000009301230BF07AFD0123220094
:100E20006021300000970BF07DFD2378DB09012B5A
:100E3000E9D0B723029A2B70783B9A431300122211
:100E400013436B702A0002236021300000970BF0DF
:100E50005FFD5346002B1AD15A461B4B1360039A71
:100E6000204B1A60204B002218685968FFF760FB7E
:100E70001E4B012218685968FFF75AFBFFF726FD41
:100E800007B0F0BCBB46B246A946A046F0BD184B21
:100E90009A4509D9174B184A5344934208D85346E8
:100EA0005A465B081360DAE75B4652461A60D6E79B
:100EB000124B134A53449342D1D853465A469B0887
:100EC0001360CCE7D02B002040787D01481500202E
:100ED000E62B0020E72B0020DD2B0020801A0600E7
:100EE000E0D900109C2B0020881C0020901C0020C2
:100EF00080C3C9017F3C36FE7FC3C901FF786CFC0B
:100F0000FF596202F0B5DE4645464E465746E0B50B
:100F100091B01D1C08930B931AAB1B788846039362
:100F20001BAB1B7807929B461CAB1B780A92049361
:100F300053BA6A46040014205383099107F000F85D
:100F40004346DBB206006DBA0593052C00D876E067
:100F5000063CE4B2012C68D8E04BA4001B590DAC50
:100F60009F4652232B7006AB9C461D2000246044F4
:100F70000822310007F020F809232A0060213800F8
:100F800000940BF0C5FC15232B7053464A461B7882
:100F90006021137001232A00009338000BF0B8FC85
:100FA00001234A466021380000940BF0BBFC4B46FD
:100FB000039A1B78012A00D1A5E24022934315220F
:100FC00000242A706B702A000223602138000094EC
:100FD0000BF09EFC54232B7053464A461B7860212D
:100FE000137001232A00009338000BF091FC0123B9
:100FF0004A466021380000940BF094FC4B467C225A
:101000001B789343049A002A01D00C2213435422E4
:101010002A705A46120113436B7000232A00009372
:101020006021380002330BF073FC300006F0A6FF9D
:1010300011B0F0BCBB46B246A946A046F0BDE300E5
:1010400005802C330DAD2B700CAB99464A46A44B52
:10105000A44F9A461B786021137001232A00009345
:1010600038000BF055FC00234A46602100933800FD
:1010700001330BF057FC4B461A78434603211B0CF7
:101080008A430B401343B37043461B0AF370059B1E
:10109000079A3371089B0C311B0B120C8B431140C8
:1010A0000B4373716B465B8BA400F3808E4B1B5913
:1010B0009F465B2300278B4D2370059B22006370A6
:1010C00060210223280000970BF022FC5C23237090
:1010D00098460CAB99464A46814B60211B78280004
:1010E00013700123220000930BF012FC01234A46E7
:1010F0006021280000970BF015FC4B4670221B78EE
:1011000093431A00434623705B461B0113436370ED
:10111000220002236021280000970BF0F9FB84E7EE
:101120005A2300276F4D2370059B220063706021B6
:101130000223280000970BF0EBFB5C2323709846FA
:101140000CAB99464A46664B60211B782800137009
:101150000123220000930BF0DBFB01234A466021B0
:10116000280000970BF0DEFB4B4607221B789343C9
:10117000424622705A461A431300C8E742232B7096
:1011800006AB9C461D20002460440822310006F076
:1011900013FF09232A006021380000940BF0B8FBEC
:1011A00013232B7053464A461B786021137001238A
:1011B0002A00009338000BF0ABFB01234A46602164
:1011C000380000940BF0AEFB4B46039A1B78012AC3
:1011D00000D192E140229343132200242A706B70C5
:1011E0002A0002236021380000940BF091FB442375
:1011F0002B7053464A461B786021137001232A0046
:10120000009338000BF084FB01234A46602138002C
:1012100000940BF087FB4B467C221B789343049A87
:10122000002A01D00C2213434422F1E63A232B700A
:1012300006AB9C461D20002460440822310006F0C5
:10124000BBFE09232A006021380000940BF060FBEC
:1012500012232B7053464A461B78602113700123DA
:101260002A00009338000BF053FB01234A4660210B
:10127000380000940BF056FB4B46039A1B78012A6A
:1012800000D149E140229343122200242A706B705E
:101290002A0002236021380000940BF039FB3C2324
:1012A0002B7053464A461B786021137001232A0095
:1012B000009338000BF02CFB01234A4660213800D4
:1012C00000940BF02FFB4B467C221B789343049A2F
:1012D000002A01D00C2213433C2299E680DF001043
:1012E000E0D900104815002088DF00104A232B7039
:1012F00006AB9C461D20002460440822310006F005
:101300005BFE09232A006021380000940BF000FBEB
:1013100014232B7053464A461B7860211370012317
:101320002A00009338000BF0F3FA01234A466021AB
:10133000380000940BF0F6FA4B46039A1B78012A0A
:1013400000D1E6E040229343142200242A706B70FF
:101350002A0002236021380000940BF0D9FA4C23B4
:101360002B7053464A461B786021137001232A00D4
:10137000009338000BF0CCFA01234A466021380074
:1013800000940BF0CFFA4B467C221B789343049ACF
:10139000002A01D00C2213434C2239E632232B7051
:1013A00006AB9C461D20002460440822310006F054
:1013B00003FE09232A006021380000940BF0A8FAEC
:1013C00011232B7053464A461B786021137001236A
:1013D0002A00009338000BF09BFA01234A46602153
:1013E000380000940BF09EFA4B46039A1B78012AB2
:1013F00000D18BE040229343112200242A706B70AD
:101400002A0002236021380000940BF081FA342373
:101410002B7053464A461B786021137001232A0023
:10142000009338000BF074FA01234A46602138001B
:1014300000940BF077FA4B467C221B789343049A76
:10144000002A01D00C2213433422E1E52A232B7019
:1014500006AB9C461D20002460440822310006F0A3
:10146000ABFD09232A006021380000940BF050FAEC
:1014700010232B7053464A461B78602113700123BA
:101480002A00009338000BF043FA01234A466021FA
:10149000380000940BF046FA4B46039A1B78012A59
:1014A0002ED040229343102200242A706B702A0011
:1014B00002236021380000940BF02AFA2C232B70B1
:1014C00053464A461B786021137001232A0000937B
:1014D00038000BF01DFA01234A46602138000094C1
:1014E0000BF020FA4B467C221B789343049A002A87
:1014F00001D00C2213432C228AE53F3213436BE6C2
:101500003F321343CFE73F32134358E53F32134393
:1015100072E73F32134317E73F321343B4E6C04646
:10152000F0B5CE464746032380B585B003AC2370A3
:1015300002AB994601254A46174B184E1B78804648
:1015400013700F00012322006021009530000BF082
:10155000DFF900234A4600936021013330000BF08D
:10156000E1F94B4642461B789540012F11D02B43A1
:10157000DBB26370032200232270602100932200FB
:10158000300002330BF0C4F905B0C0BCB946B04618
:10159000F0BDAB43EDE7C046E0D900104815002090
:1015A000F0B5C64600B51E4B84B01B7802AD2B705B
:1015B0001C4B103098460123C4B203AE3200347085
:1015C0000F000093602140460BF0A2F900232A008F
:1015D00060210093404601330BF0A4F92A780323DD
:1015E000110099430B00022F16D0032F11D0012FA9
:1015F00001D1012213437370002334703200009331
:101600006021404602330BF083F904B080BCB84639
:10161000F0BD03231343EEE702221343EBE7C0467A
:10162000E0D900104815002010B584B0002803D080
:1016300001280DD004B010BD6A460B4B0B4C9381B2
:10164000602100900223200003AA0BF061F9F1E76A
:101650006A46074B60219381002303AA0093034845
:1016600002330BF055F9E5E7B120000048150020E2
:10167000B180FFFFF0B557464E464546DE46E0B521
:1016800085B09A460E9B0090019191460099019A6F
:101690009846052A74D870D00099019A002A00D083
:1016A00088E06C4B994200D984E04B465246134384
:1016B00000D1AFE000230025674C009322002B00EF
:1016C0004846514604F076FE06228346052805D991
:1016D000E123DB00984208D9E122D20000234846EA
:1016E000514604F067FE04000D0022002B0048461E
:1016F000514604F05FFE03930292D30E039A510108
:101700001943029B5801029A039B801A9941C30D09
:101710009C4606004B02614672020B4302980399F5
:1017200012184B41910E8C4616001F00990163461A
:10173000320019433B00B001801A9941029A039B81
:10174000801859412B00220004F034FE009B002831
:101750005BD0012B62D0C6013000404904F0ECFDA3
:1017600030000F003D4904F0E7FD3C4A3C495B4630
:101770008C46DB016344C0180FE03A4B99428BD989
:101780000525384C4B465246134334D100200027E0
:101790000122A30FAD001D43A40043462900186099
:1017A00020005F609A6005B0F0BCBB46B246A94617
:1017B000A046F0BD009B019C032C46D841D04B466F
:1017C000524613431AD1009A019B1421264804F073
:1017D000F1FD06000B00072822D000980199320085
:1017E00006F09CFA1E4B0D009C460400F00160447C
:1017F00000270122D1E7012300935FE7009A019BB4
:101800001D0000231400009358E700270122012B3C
:10181000ACD1C2E714251548134CE9E70020E7E7EF
:101820000029DAD10098019902000B0012184B41EF
:1018300012184B41802092185B41400014001D009B
:10184000D6E70B4B009A9A42B9D9009A019B140033
:101850001D0097E77FF0FA0280F0FA0240420F0085
:1018600000FEFFFF00C11A3D00046BF4008203007C
:10187000FFD5117EF0B557464E464546DE46E0B5EB
:101880000F000600150001225242D31792197B4126
:101890008FB01100052D00D9F4E0002B39D1CD4BCC
:1018A000994236D8CC4BEA009B180022CB4908A8B5
:1018B00006C3CB4B0E0005935B5D17008346002BE0
:1018C00000D1ABE3720EFB011A4317000724F601A7
:1018D000C44B5B5D002B00D0ACE2C34B59461A6889
:1018E0005B68300000913900FFF7C4FE00230293CB
:1018F00000935B4601945A68280008999B68FFF79B
:1019000001FB00200FB0F0BCBB46B246A946A04682
:10191000F0BD052F01D800F01EFF0527B34EAE4CD9
:101920006368022B00D8A9E1002D01D100F036FC3C
:10193000AC4B9A465A5D1B789A4200D1B4E1E368F9
:10194000022B00D9A7E1022B04D1A94BA2689A422D
:1019500000D9A0E16369022B00D9AFE104D1A44B07
:1019600022699A4200D9A9E1E369022B04D80CD17B
:101970009F4BA2699A4208D9032D00D138E3534600
:101980005A5DDB789A4200D18EE1636A022B04D85B
:101990000CD1974B226A9A4208D9042D00D131E329
:1019A00053465A5D1B799A4200D17DE1E36A022BCE
:1019B00000D98EE104D18E4BA26A9A4200D988E107
:1019C000874B98465B5D994608AB9B464B46002B80
:1019D00000D1F6E1EB00E3181E605F60032F00D931
:1019E000E6E100D1E0E13B0032001421814804F03F
:1019F000E1FC80460B00072800D0AAE2002900D0B5
:101A0000A7E23B00320092197B4192197B41921868
:101A10005B4180279946100005927F005A460023BB
:101A20000897536001339360534649465A5DFEF769
:101A30007FFD53465A5D002398462B0025004446FF
:101A400098462E686F6833003B4304D053461B5DB5
:101A5000934200D148E101340835062CF1D1002A27
:101A600000D1DBE1012A00D04BE76A46624B6021DE
:101A700093850023614800930BAA02330AF048FFC4
:101A800000203FE7002B00D0D0E05D4B994200D909
:101A9000CCE00024514B27001E004F4C062D00D1F6
:101AA000CEE0236B626B134300D1C5E1554B1A683E
:101AB0005B689146984632003B004846414604F038
:101AC00079FC01001A430120002A00D01AE7C90757
:101AD00000D517E730003900EB00E31818605960B3
:101AE0000123494A5B42801859410A1E01D100F086
:101AF00094FC012330003900444A5B42801859416C
:101B00000A1E00D126E3012330003900404A5B421F
:101B1000801859410A1E01D100F0D9FC0123300080
:101B200039003C4A5B42801859410A1E01D100F03D
:101B300030FD012330003900374A5B42801859419B
:101B40000A1E01D100F097FD012330003900334A0D
:101B50005B42801859410A1E01D100F0BAFD0123F1
:101B6000300039002E4A5B42801859410A1E01D0CC
:101B700000F08FFD2B4B984201D900F08AFD330015
:101B80003C009B197C4127001E0001243200B24614
:101B90003E1E03D1244B9A4200D29A4642464B46FF
:101BA0001343524601D100F0F6FB3300484641464C
:101BB00004F000FC1A4301D000F03DFC08A9831F8B
:101BC0008B46F82B00D991E6C0B208904A608A6033
:101BD0008CE6C0467E1A0600B81A0020801A06005D
:101BE000B0260020842B0020881C002000C11A3D54
:101BF00000E40B5400046BF4B180FFFF4815002093
:101C000096281C00901C002068D7E3FFD0AEC7FFC9
:101C1000A05D8FFF40BB1EFF80763DFE00ED7AFC8D
:101C200000DAF5F8FF250A0780F0FA02032F3DD904
:101C30000324CE4B27001E00CD4C062D00D030E7EC
:101C4000A36BE26B134300D10EE3CA4B1A685B68C7
:101C50009146984632003B004846414604F0AAFBB4
:101C600001001A430120002A00D04BE6C90700D525
:101C700048E6300039002063616331E7022B04D16C
:101C8000BD4B22689A4200D94EE6BC4B9A46E368A7
:101C9000022B00D857E6012D00D1A1E253465A5D30
:101CA0005B789A4200D055E601202BE6032F00D046
:101CB000F3E6AE4BB34200D3EFE6B9E7022D00D115
:101CC0008CE153465A5D9B789A4200D04CE6012045
:101CD00018E6052D00D173E653465A795B5D9A42AA
:101CE00000D06DE601200DE60123A54A5B42921962
:101CF0007B411100002B00D13EE20123A14A5B424F
:101D000092197B411100002B00D165E301239E4A0B
:101D10005B4292197B411100002B00D1F1E10123BC
:101D20009A4A5B4292197B411100002B00D1A4E337
:101D30000123974A5B4292197B411100002B01D18C
:101D400000F0DFFB0123934A5B4292197B411100B3
:101D5000002B01D100F062FC01238F4A5B429219F3
:101D60007B411100002B01D000F0EAFB8B4B994224
:101D700001D900F0E5FB300039000BAB059A009368
:101D8000801979419B464B46FFF774FC01220023E2
:101D9000029300935B4601920ECBE0B2FFF7B2F8DC
:101DA000534642469A5C56E6704B9E4200D81AE66D
:101DB000B30FBA001A43B3009146002718000593E9
:101DC0002CE604A903330B775946754B75481B78ED
:101DD0000BAA0B700121012300915F3105900AF0DD
:101DE00097FD4B465A4660210093059801230AF05F
:101DF00099FD032204A95B460A77023AAA401B78A0
:101E0000059893434B774B46602100930BAA02231E
:101E10000AF07EFD434601215955DBE56946624BD8
:101E200060488B850092022360210BAA0AF070FDA6
:101E3000002067E54F4B51E5EB00E418012330002B
:101E400039005A4A5B4220606160801859410A1E7D
:101E500000D173E1012330003900554A5B428018FC
:101E600059410A1E00D126E3012330003900514AAE
:101E70005B42801859410A1E00D177E301233000EC
:101E800039004D4A5B42801859410A1E01D100F0C9
:101E9000E5FB012330003900484A5B428018594174
:101EA0000A1E01D100F004FC012330003900444A2D
:101EB0005B42801859410A1E01D100F024FC012325
:101EC000300039003F4A5B42801859410A1E01D058
:101ED00000F0FCFB3C4B984201D900F0F7FB3300CB
:101EE0003C009B197C4127001E000124B846002FAE
:101EF00003D1364B9E4200D21E00434632001421CD
:101F0000334804F057FA0123471C9F43FE2F00D9A2
:101F1000FE27320043463800002105F0FFFE142959
:101F200004D800D025E22B4B984206D9023F32005C
:101F300043463800002105F0F1FE08AB9B46002324
:101F40005A460897536093600C4B5A5DFEF7F0FABF
:101F5000CCE439004246300005F0E0FE4346DF01A4
:101F60001D4B89469C460590674457E5FFD5117E79
:101F7000B81A0020901C002000E40B54842B002091
:101F800080E5F9FF00CBF3FF0096E7FF002CCFFFC1
:101F900000589EFF00B03CFF006079FEFF9F860165
:101FA000E0D9001048150020B120000068D7E3FFF9
:101FB000D0AEC7FFA05D8FFF40BB1EFF80763DFE09
:101FC00000ED7AFC00DAF5F8FF250A0780F0FA0246
:101FD000002375EE00046BF400FEFFFFE369022BA3
:101FE00000D9CCE404D1914BA2699A4200D9C6E44D
:101FF000636A022B00D9D3E404D18C4B226A9A4243
:1020000000D9CDE4E36A022B00D965E600D0D7E41D
:10201000864BA26A9A4200D95EE6D1E400230024EE
:102020000693079403240BAB98461C7008AB9B46A1
:102030005A467F4B7F481B7860211370012342462C
:1020400000939A4681460AF063FC00235A466021B9
:102050000093484601330AF065FC5A46137842461D
:1020600014705246AA4093434246537000236021A5
:102070000093484602330AF04BFC5346059A5355E9
:10208000079B002B72D001236B4A5B4292197B4164
:102090001100002B00D1B1E10123684A5B42921983
:1020A0007B411100002B3ED00123654A5B4292190F
:1020B0007B411100002B00D1F1E10123614A5B4219
:1020C00092197B411100002B00D12DE201235E4AC1
:1020D0005B4292197B411100002B00D1B2E2012337
:1020E0005A4A5B4292197B411100002B00D049E211
:1020F000574B994200D945E2B6197F410124FFF7B9
:10210000E7FB544B994200D909E6F30E79011943D4
:102110000BAB059A00939B4670014B46FFF7AAFA5A
:102120000522002334E64B4B9942BDD8F20E7B01C9
:102130001A43170005247601FFF7CAFB464B984265
:1021400000D987E6720EFB01F1011A430E00170059
:102150000724CBE6414B984200D9D4E4B20EBB0130
:10216000B1011A430E00170006240FE53C4B069AF6
:102170009A4288D8FFF7A6FB394B994200D9BCE5B3
:10218000730EF90119430BAB059A00939B46F001BE
:102190004B46FFF76FFA07220023F9E5E368022BAD
:1021A00000D937E104D1214BA2689A4200D931E12C
:1021B0006369022B00D95CE104D11C4B22699A426D
:1021C00000D956E1E369022B00D9DEE104D1174BB7
:1021D000A2699A4200D9D8E1224B9A46FFF7D5FB73
:1021E0006369022B00D96CE504D1104B22699A4235
:1021F00000D966E5E369022B01D9FFF7C0FB05D1E1
:102200000A4BA2699A4201D9FFF7B9FB636A022B14
:1022100001D9FFF7C5FB01D0FFF7C8FB034B226ACA
:102220009A4201D9FFF7BCFBFFF7C0FB00E40B5457
:10223000E0D900104815002000CBF3FF0096E7FF1F
:10224000002CCFFF00589EFF00B03CFF006079FEDD
:10225000FF9F8601FF69180097281C002F51380046
:102260007F1A0600842B0020012330003900D04A59
:102270005B4220636163801859410A1E00D134E13A
:10228000012330003900CB4A5B42801859410A1EB5
:1022900000D1B7E1012330003900C74A5B42801802
:1022A00059410A1E00D1F7E1012330003900C34A29
:1022B0005B42801859410A1E00D118E20123300008
:1022C0003900BF4A5B42801859410A1E00D128E2FA
:1022D000012330003900BB4A5B42801859410A1E75
:1022E00000D12CE2012330003900B74A5B4280184C
:1022F00059410A1E00D020E2B44B984200D91CE29A
:1023000033003C009B197C4127001E000124B84685
:10231000002F03D1AE4B9E4200D21E004346320036
:102320001421AC4804F046F80123471C9F43FE2FBC
:1023300000D9FE27320043463800002105F0EEFCAC
:10234000142903D87BD1A44B984206D9023F32000E
:1023500043463800002105F0E1FC08AB9B46002312
:102360005A460897536093600122FEF7E1F8FFF7A1
:10237000BDFA0D2900D9E0E503D1984B984200D968
:10238000DBE50237434638003200002105F0C6FC89
:10239000FF231F40D1E5330014218E4804F00AF8D2
:1023A0000123471C9F43FE2F00D9FE2752463300CE
:1023B0003800002105F0B2FC142903D84FD1864B18
:1023C000984200D9023F08AB9B4600235A46089723
:1023D00053609360FFF78AFA814B994200D995E4E4
:1023E000B30EB90119430BAB059A00939B46B0019C
:1023F0004B46FFF73FF906220023C9E4784B994288
:1024000000D949E6B20EBB011A4317000624B601F3
:10241000FFF75EFA734B9A4640E4734B984201D93A
:10242000FFF767FB720EFB01F1011A430E00170064
:102430000724FFF7ABFB08AB9B46FFF757FA0D29C4
:102440008BD802D1654B984287D802374346380073
:102450003200002105F062FCFF231F407DE70D29BB
:10246000B1D802D15D4B9842ADD8FF2302371F404F
:10247000A9E75C4B9A46FFF724FC5C4B994200D9D4
:1024800056E4330F390119430BAB059A00939B4671
:1024900030014B46FFF7EEF80422002378E4534B5B
:1024A000994200D909E6320F3B011A431700042470
:1024B0003601FFF70DFA4E4B984200D9D4E4B20E24
:1024C000BB01B1011A430E00170006240EE5494B6B
:1024D000984201D9FFF722FBF20E7B0171011A43EA
:1024E0000E0017000524FFF751FB3F4B984200D91F
:1024F000C6E6720EFB01F1011A430E001700072415
:1025000005E73D4B994201D9FFF71CFC730FF90019
:1025100019430BAB059A00939B46F0004B46FFF71F
:10252000A9F80322002333E4334B994200D9CDE5C7
:10253000720FFB001A4317000324F600FFF7C8F9D7
:102540000BAB00939B4630004B463900059AFFF7D2
:1025500091F80123032F01D804D000230022DBB21D
:10256000FFF716FC254A9642F8D8F6E7214B984229
:1025700000D983E4F20E7B0171011A430E001700AB
:102580000524B3E40024FFF7A3F9164B9A46FFF79E
:10259000F6F91B4B984201D9FFF7CBFA320F3B01FA
:1025A00031011A430E0017000424FFF7EFFAC0466A
:1025B00068D7E3FFD0AEC7FFA05D8FFF40BB1EFF13
:1025C00080763DFE00ED7AFC00DAF5F8FF250A077B
:1025D00080F0FA02002375EE00046BF4FF5747F811
:1025E000FF340C00842B002097281C00FFD3300000
:1025F0002F5138005FA27000FFA76100FFD5117E48
:10260000BF44E100674B984200D943E6B20EBB01DC
:10261000B1011A430E001700062478E6624B994276
:1026200001D9FFF799FBB30FB90019430BAB059A1A
:1026300000939B46B0004B46FFF71CF80222002394
:10264000FFF7A6FB584B994200D948E5B20FBB00F3
:102650001A4317000224B600FFF73AF9534B984289
:1026600001D9FFF716FC320F3B0131011A430E006E
:10267000170004243AE44E4B984201D9FFF764FA5C
:10268000720FFB00F1001A430E0017000324FFF73E
:102690007DFA0024FFF77AFA464B984200D903E608
:1026A000F20E7B0171011A430E00170005242EE67D
:1026B0003F4B984201D9FFF7F7FB720FFB00F10087
:1026C0001A430E0017000324FFF710FC0024FFF745
:1026D0000DFC394B984201D9FFF741FAB20FBB000C
:1026E000B1001A430E0017000224FFF74FFA2F4BD8
:1026F000984200D9E2E5320F3B0131011A430E0046
:102700001700042403E62C4B984201D9FFF7D7FBAE
:10271000B20FBB00B1001A430E0017000224FFF7EE
:10272000E5FB234B984200D9D2E5720FFB00F10084
:102730001A430E0017000324E9E50024E7E51E4BC9
:10274000984200D9CEE5B20FBB00B1001A430E008B
:1027500017000224DBE5052F04D1184B9E4201D956
:10276000FFF7DBF8022F01D9FFF7D9F814D00123C6
:10277000134A5B4292197B4106920793114BEA0080
:102780009B181E605F60104B08AA05935B5D934623
:10279000002B00D074E445E40C4B9E42E7D9FFF7D0
:1027A000BEF8C0462F513800FF4FC300BF44E100C0
:1027B0007F89C2015FA27000FF12850300C11A3D2C
:1027C00080E5F9FFB81A0020B026002000E40B5481
:1027D000F0B50668476801253F4C6D42A4197D415C
:1027E000002D34D001253D4C6D42A4197D41002DB2
:1027F00038D001253A4C6D42A4197D41002D47D0B7
:102800000125384C6D42A4197D41002D35D001259C
:10281000354C6D42A4197D41002D46D00125334C25
:102820006D42A4197D41002D4AD00125304C6D42E6
:10283000A4197D41002D36D12E498C4233D8320067
:102840003B0092197B4102604360012009E02A4964
:102850008C42C7D8710EFB010B43F201436002604A
:102860000720F0BD25498C42C3D8B10EBB010B43F4
:10287000B201436002600620F3E721498C42C6D8CA
:10288000310F3B010B433201436002600420E8E753
:102890001C498C42B4D8F10E7B010B43720143609A
:1028A00002600520DDE70020DBE717498C42B5D840
:1028B000710FFB000B43F200436002600320D0E77E
:1028C00012498C42B1D8B10FBB000B43B200436038
:1028D00002600220C5E7C04680E5F9FF00CBF3FFA8
:1028E0000096E7FF002CCFFF00589EFF00B03CFF92
:1028F000006079FEFF9F86017F1A0600FF340C00FE
:10290000FFD33000FF691800FFA76100FF4FC3002D
:10291000F0B516001F0004000D0002000B00A41B00
:10292000BD4192197B41122189B006940795234835
:10293000234C244E04920593002220606160306095
:102940007160FDF7F5FD04A8FFF742FF1E4D2870EA
:1029500006A8FFF73DFF1D4B1870226863681C4CEA
:10296000049805990094FEF785FE3268736806980E
:102970000799184E00960026FEF77CFE02962B78EB
:1029800000960193A368216862680020FEF7BAFAF6
:102990000020FEF749FE02962B78009601930ECC9C
:1029A0000020FEF7AFFAD02380221B0612029A61A4
:1029B0008022D2015A6109B0F0BDC04600205FA05C
:1029C00020100020801C0020E82B0020E92B002094
:1029D000482B0020542B002000B585B0002812D1D0
:1029E000134A02901278134B019200900ECBFEF71F
:1029F00089FAD02380221B0612025A618022D2015A
:102A00009A6105B000BD00220B49029209780B4B78
:102A1000019100920ECB0020FEF774FAD0238022A1
:102A20001B0612029A618022D2015A61E9E7C04670
:102A3000E92B0020542B0020E82B0020482B0020FD
:102A400010B5002803D10021FEF76AFD10BD012159
:102A50000020FEF765FDF9E7010010B5002003290D
:102A600000D910BD024B1970FEF79AFD0120F8E75E
:102A7000DF2B0020F8B5DE4657464E464546E0B50A
:102A80002A4E0700335C9B06DB0F9846284B9B467B
:102A90001B68434501D1002946D00020FFF79CFF69
:102AA000802343449A46012300249946214D002166
:102AB000288803F0AFF85346F05C4B4620410134C0
:102AC0001840FFF789FF052CF1D10021288803F079
:102AD000A1F80120FFF780FF5B4642461A60164BC3
:102AE0000021188803F096F80020FFF775FF0123F6
:102AF000002498460021288803F08CF8F05D4346B6
:102B0000204101341840FFF767FF052CF2D12888D7
:102B1000002103F07FF80120FFF75EFFF0BCBB4609
:102B2000B246A946A046F8BD024DDDE728100020B8
:102B30003C2B00200C1000200A100020124B10B576
:102B4000188805F029F9011C104805F00AF9104908
:102B500005F001F905F048F90E4A0F4B944680B292
:102B6000188060440D4B400018800D490D4B0868DB
:102B700049681A685B68FFF7CBFE0120FFF72CFF5E
:102B80000120FFF75DFF10BD0E10002000247449E6
:102B900000005244B8FCFFFF0C1000200A10002077
:102BA0001810002010100020114B10B5188805F0E7
:102BB000F3F8011C0F4805F0D4F80F4905F0CBF8E5
:102BC00005F012F90D4A0E4B944680B218800D4B59
:102BD0006044400018800C490C4B086849681A682A
:102BE0005B68FFF795FE0120FFF7F6FE10BDC046BB
:102BF0000E1000200024744900005244B8FCFFFF6E
:102C00000C1000200A1000201810002010100020C6
:102C10000B4B10B5188005F0BFF8011C094805F0F2
:102C2000A0F8094905F097F805F0DEF8074A084BC7
:102C3000944680B21880074B60444000188010BD55
:102C40000E1000200024744900005244B8FCFFFF1D
:102C50000C1000200A10002010B5054B0022186847
:102C60005968FEF707FE0020FFF7EAFE10BDC046D8
:102C7000181000200F4B10B5186859680022FEF795
:102C8000F9FD0D4B0D4C187805F086F80C4905F050
:102C900068F80C4905F079F8011CFE20800505F064
:102CA00060F8094905F071F805F0A4F8206061604A
:102CB00010BDC04618100020081000200010002091
:102CC0000000704200004842002474490C4B10B5CB
:102CD000187005F061F80B4905F043F80A4905F052
:102CE00054F8011CFE20800505F03BF8074905F06B
:102CF0004CF805F07FF8064C2060616010BDC046BE
:102D0000081000200000704200004842002474496E
:102D100000100020F8B50300DE4657464E464546F3
:102D2000613BE0B5192B4FD84038C3B22A4A9B000B
:102D30009A5892019146294A9D58063524D4012378
:102D400098468023D026DB019A46254F36064B460F
:102D50002C00EB40203CE4171C40434623409B469C
:102D60001800FFF76DFE5B46002B16D053467361CB
:102D700080231B0273614346386879681C4216D170
:102D800002F048FF013DE2D20020FFF759FEF0BCFF
:102D9000BB46B246A946A046F8BD5346B361802360
:102DA0001B02B3614346386879681C42E8D0CB0700
:102DB00040081843490802F02DFF3868796802F08E
:102DC00029FF013DC3D2DFE72038C0B21F233B28D3
:102DD000ACD80300AAE7C04698110020AC10002030
:102DE0000010002010B507F079FA002809D1012061
:102DF00002F044FF02F004FF002902D1034B984285
:102E0000F1D9034806F050FF10BDC046404B4C00BE
:102E100028D50010F0B5D6464F464646C0B5002925
:102E20003DD08246214B00209A444B1E99460021FA
:102E30001EE003F063FD02000B0000201C4904F0BB
:102E40006BF9434606000F0058B203F057FD3200FD
:102E50003B0003F0DCFC2B00220003F0B1FC03F08C
:102E6000A1FD01239C464B46E244013B19D3994600
:102E700003F08CFD5346040018780D003038C3B2BF
:102E800098464846092BD4D903F038FD02000B00C0
:102E90000020074904F040F900220023D9E7002070
:102EA0000021E0BCBA46B146A846F0BDE0260020AD
:102EB00000002440F0B5DE4657464E464546E0B594
:102EC000AC4B8BB01A78682A5ED15A78652A00D04C
:102ED00016E19A786C2A00D012E1DA78702A00D0D4
:102EE0000EE1A54806F064FFA44806F0DDFEA44804
:102EF00006F0DAFEA34806F0D7FEA34806F0D4FE9B
:102F0000A24806F0D1FEA24806F0CEFEA14806F087
:102F1000CBFEA14C200006F0C7FE200006F0C4FE48
:102F20009E4806F0C1FE9E4806F0BEFE9D4806F093
:102F3000BBFE9D4806F0B8FE9C4806F0B5FE9C48D6
:102F400006F0B2FE9B4806F0AFFE9B4806F0ACFED2
:102F50009A4806F0A9FE9A4806F0A6FE994806F09F
:102F6000A3FE994806F0A0FE984806F09DFE9848FA
:102F700006F09AFE974806F097FE0BB0F0BCBB46F1
:102F8000B246A946A046F0BD632A00D09EE15A7819
:102F90006F2A0ED19A786E2A0BD1DA78662A08D178
:102FA0001A79692A05D15A79672A02D1FDF794F96D
:102FB000E3E75A78662A00D028E19A78722A00D08E
:102FC0009EE0DA78652A00D09AE01A79712A00D05A
:102FD00096E05A79202A00D092E09A79303A092A6C
:102FE0006FD8DA79303A092A6BD81A7A303A092A36
:102FF00067D85A7A303A092A63D89A7A303A092A35
:103000005FD8DA7A303A092A5BD81A7B303A092A33
:1030100057D85A7B303A092A53D89A7B303A092A32
:103020004FD89A1D91460F229246013A90460024AD
:1030300000259A44984421E043464A46981A03F0F2
:103040005DFC02000B000020634904F065F85B465C
:103050000090019158B203F051FC009A019B03F0DB
:10306000D6FB3B00320003F0ABFB03F09BFC0123DB
:103070009C46E14404000D00D1451AD020002900EF
:1030800003F084FC4B46060018780F003038C3B2BA
:103090009B46092BD0D943464A46981A03F02EFC8A
:1030A00002000B0000204C4904F036F800220023F7
:1030B000D5E70123494A5B4212196B411100002BED
:1030C00003D0474806F0F0FD57E7464B9942F8D841
:1030D000454B46481C605D602B00220006F068FEF0
:1030E000434B1B78012B41D0022B01D1FFF75CFD34
:1030F000FF2000F0D9FF40E7732A01D100F061FC06
:1031000000223C499C5C885C844200D045E301324B
:10311000062AF7D1364D2B78002B00D0D6E3D024E9
:1031200004252406344806F0BFFD6420656102F0E2
:10313000A5FDA56121E79422431F9BB25200934253
:1031400000D31FE1FFF764FD2C4B2D48198806F0D2
:103150002FFE2C4B2C481988D2239B009C4661449F
:1031600006F026FE224B1B78012BBDD1FFF782FD16
:10317000BEE7C046E026002040D5001048D500102C
:103180005CD5001090D50010A4D50010C4D5001057
:10319000FCD5001054D60010A8D60010B8D60010E8
:1031A000CCD60010DCD60010F8D600101CD70010CA
:1031B00050D7001090D70010C0D70010FCD70010D7
:1031C0002CD8001054D8001098D80010B4D8001093
:1031D000F0D80010F0D4001000002440F0D8FFFF19
:1031E00098D90010F09AEB0B1810002074D9001039
:1031F000E12B0020ACDC0010B4DC00100E1000202D
:1032000030D900100C1000204CD90010772A00D0C3
:1032100076E79A78732A00D072E7DA78702A00D0BD
:103220006EE71A79652A00D06AE75A79652A00D0D4
:1032300066E79A79642A00D062E7DA79202A00D01A
:103240005EE7187A3038C0B2092837D85B7A303B4D
:10325000DBB29846092B31D840B203F04FFB002275
:10326000D14B03F0D4FA0022002303F0A9FA03F0B3
:1032700099FB03F08BFB4346060058B20F0003F0A6
:103280003DFB02000B003000390003F099FA03F017
:1032900089FB01225242D31704000D0012196B4121
:1032A000002B0FD1622A0DD8C04CC0B22070FFF79E
:1032B0000DFD2178BE4806F07BFD19E7BD4806F0FC
:1032C000F3FC15E7BC4806F0EFFC11E7622A5DD17C
:1032D0005A78612A00D013E79A78752A00D00FE750
:1032E000DA78642A00D00BE71A79202A00D007E7A1
:1032F0005A79303A092A45D89A79303A092A41D878
:10330000DB79303B092B3DD8AC4B00209A46022399
:10331000994620E003F0F2FA02000B000020A249D7
:1033200003F0FAFE434606000F0058B203F0E6FA37
:1033300032003B0003F06BFA2B00220003F040FA4E
:1033400003F018FB01239C464B4680B2E244013B4C
:1033500000D2F0E6994603F0D1FA534604001878FB
:103360000D003038C3B298464846092BD2D903F035
:10337000C5FA02000B0000208B4903F0CDFE0022AD
:103380000023D7E78E4806F08FFCF6E5732A00D0BD
:103390009AE05A78662A00D025E19A78722A00D0FD
:1033A00021E1DA78652A00D01DE11A79712A00D06E
:1033B00019E15A79202A00D015E19A79303A092A80
:1033C00000D97EE6DA79303A092A00D979E61A7A04
:1033D000303A092A00D974E65A7A303A092A00D9D3
:1033E0006FE69A7A303A092A00D96AE6DA7A303AF0
:1033F000092A00D965E61A7B303A092A00D960E625
:103400005A7B303A092A00D95BE69A7B303A092A7E
:1034100000D956E69A1D91460F229246013A9346EC
:10342000002400259A449B4421E05B464A46981AB2
:1034300003F064FA02000B0000205B4903F06CFE0D
:1034400043460090019158B203F058FA009A019B4C
:1034500003F0DDF93B00320003F0B2F903F0A2FA09
:1034600001239C46E14404000D00D1451AD0200000
:10347000290003F08BFA4B46060018780F0030380D
:10348000C3B29846092BD0D95B464A46981A03F036
:1034900035FA02000B000020434903F03DFE0022F4
:1034A0000023D5E705225242D31712196B411100B0
:1034B000002B00D005E6434B994200D901E6424B70
:1034C00042481C605D6007E6742A00D0B6E05A7876
:1034D000782A23D19A78652A20D1DA786E2A1DD1EC
:1034E0001A79202A1AD158793038C0B2092811D84F
:1034F00040B203F003FA0022002303F061F903F065
:1035000051FA084349D10020FFF79AFA304806F0F3
:10351000CBFB32E5274806F0C7FB2EE55A78782A20
:1035200000D0EDE59A786D2A00D0E9E5DA786F2AC7
:1035300000D0E5E51A79642A00D0E1E55A79652AD8
:1035400000D0DDE59A79202A00D0D9E5D879303845
:10355000C0B20928DED840B203F0D0F9002200231F
:1035600003F02EF903F01EFA002963D1032861D875
:10357000184DC3B22B70022B00D1EDE1032B00D10B
:10358000E7E1012B01D1FFF767FBFF2000F08CFD85
:103590002978114806F00CFCEFE40120FFF750FAFF
:1035A0000E4806F081FBE8E40000244008100020EB
:1035B000CCD90010F4D90010E4D90010E526002081
:1035C00060D900100B27000010100020ACD90010AB
:1035D00004DA0010E12B00203CDA001010DA0010B1
:1035E000732A00D048E15A78612A00D0E9E19A783C
:1035F000762A00D0E5E1DA78652A00D0E1E11A798F
:10360000702A00D0DDE15A79202A00D0D9E19B79D7
:10361000303B092B00D97DE701210620FFF7FAFB9B
:10362000C0B200F041FD002800D1C5E1CC4806F051
:103630003BFBA2E4CB4806F037FB9EE46D2ACFD1DA
:103640005A78612A1CD19A786E2A19D1DA78722AAE
:1036500016D11A79742A13D15A79742A10D19A7909
:10366000792A0DD1DA79742A0AD11A7A782A07D1FF
:10367000BD4B1B78022B48D0BC4806F015FB7CE400
:103680005A78612A00D03BE59A786E2A00D037E557
:10369000DA78632A00D033E51A79772A00D02FE54B
:1036A0005A79742A00D02BE59A79782A00D027E538
:1036B000AD4B1B78012BDFD12020FFF72BFBD02354
:1036C00080221B0692015A61002006F057FA45B28B
:1036D0000400AB1C5DD00A2D13D00D2D11D0280095
:1036E00006F098FAE0B2FFF715FB032DECD1D023DA
:1036F00080221B06920103219A619D4806F058FB27
:103700003BE40A2006F086FADEE701212020FFF7DD
:10371000B1F9D02380221B069201964E964F5A6132
:10372000002006F02BFA45B20400AB1C2DD00A2D68
:1037300012D00D2D10D0280006F06CFA0021E0B256
:10374000FFF798F931888D4802F0CEFDC11702F0DD
:1037500061FA032DE4D1CAE70A2006F05BFA0021E2
:103760000A20FFF787F93B8800219800C01802F073
:1037700051FA00210D20FFF77DF931887F4802F0D2
:10378000B3FDC11702F046FACAE7012002F076FA4B
:10379000C6E7012002F072FA96E7002278499C5CA5
:1037A000885C844200D057E101320A2AF7D19A7A24
:1037B000303A092A00D9E5E5DA7A303A092A00D9FF
:1037C000E0E51B7B303B092B00D9DBE50023994664
:1037D00018006C4B9B4602239A4603F08FF85B4619
:1037E0004A460400985C0D003038C3B29846092B55
:1037F00001D9002398464A465346981A03F07EF8AA
:1038000002000B000020604903F086FC43460600DE
:103810000F0058B203F072F832003B0002F0F7FFDD
:103820002B00220002F0CCFF03F0A4F801239C46F9
:10383000E1444B4680B2032BCFD19422431F9BB26D
:103840005200934200D39DE501F098FA4F4B504847
:10385000197806F0ADFA4F4B4F48198806F0A8FAD0
:10386000414B1B78022B00D140E4032B00D18EE1A9
:10387000012B00D17AE43BE46C2A00D037E15A787E
:103880006F2A00D03CE49A78612A00D038E4DA78D4
:10389000642A00D034E41A79702A00D030E45A79CE
:1038A000202A00D02CE49B79303B092B00D931E64B
:1038B00001210620FFF7AEFAC0B200F0A3FD0028F8
:1038C00042D0364806F0F0F9FFF757FB344806F0CF
:1038D0006FFA344B00249846334F03E0385D06F00E
:1038E00099F9013443461B78A342F7DC2F4806F0D0
:1038F000DBF92F4B3C000026994612E0032B00D148
:1039000049E1012B02D12078FFF704FA002006F0EC
:1039100035F94B4640B218700134032800D13EE11E
:10392000013643461B78B34200DC40E1207806F0C4
:1039300071F92B78022BE1D1002E00D03CE101215E
:103940003878FFF797F8E1E71A4806F0ADF9FFF786
:1039500014FB01F0FBF918E6FFF7F0F815E6C04696
:1039600060DA00104CDA0010E12B00201CDA0010A5
:10397000D0D400100E1000200A10002040420F008A
:103980003CDD0010E52600200000244080140020CB
:1039900048DD0010821400204CD90010ACDA001071
:1039A000F0DC0010D80F0020DC0F002008DD001034
:1039B000DC2B0020BCDA0010BB4806F075F9FFF7DD
:1039C000DCFA5A78652A01D0FFF79AFB9A78742AB4
:1039D00001D0FFF795FBDA78742A01D0FFF790FB4E
:1039E0001A79652A01D0FFF78BFB5A79782A01D022
:1039F000FFF786FB9A79742A01D0FFF781FB00203C
:103A000006F0BCF8A94C02AE207020220021300044
:103A100004F0CCFA0025002006F0B0F841B2217085
:103A20008B1CF8D0082900D1A3E0032900D191E034
:103A30000A2943D00D2941D01F2D3BD82038C0B2D0
:103A40005E2837D8080006F0E5F82378735501356D
:103A5000EDB200232370DEE7002295499C5C885C70
:103A6000844200D08EE00132072AF7D1914B1B78B7
:103A7000032B00D000E6202001F096F9D02380220D
:103A80001B0692015A61002006F078F844B2050046
:103A9000A31C00D199E00A2C00D192E00D2C00D19A
:103AA0008FE0200006F0B6F8E8B201F07DF9032CB3
:103AB000E9D11CE6012002F0E1F8CAE700237E4AC2
:103AC00002E0F15CD15401339D42FADC7B4BFF20D4
:103AD0001D700023237000F0E7FA794806F0E4F83F
:103AE000002006F04BF80230FAD1FFF746FA642ABC
:103AF00001D0FFF701FB5A78722A7ED19A78692AA1
:103B00007BD1DA78762A78D11A79652A75D15A79F3
:103B1000732A72D19A79202A6FD1DB79303B092B35
:103B200000D9F7E401210720FFF774F9C4B2032C90
:103B30005ED82000FEF790FF624806F039F9022CAB
:103B400051D0032C4AD0012C43D05F4806F0ACF88A
:103B5000FFF7CEFA5D4806F02BF900235C4823708E
:103B600006F026F9002006F009F80230FAD1FFF736
:103B700004FA002D9ED00A00013D5648EDB206F031
:103B800017F966E7544806F08FF8FFF7F6F901F0E9
:103B9000EBF8FFF7ADFA207801F006F9B6E64F48EA
:103BA00006F006F9002005F0E9FF0230FAD10A20FC
:103BB00006F030F8FFF7E1F900212078FEF75AFF10
:103BC000A4E60A2006F026F85DE7012002F056F888
:103BD00059E7434806F068F8FFF78AFA414806F0CB
:103BE00063F8FFF785FA404806F05EF8FFF780FAC1
:103BF0003E4806F059F8FFF7C0F95A78652A01D017
:103C0000FFF77EFA9A78662A01D0FFF779FADA7818
:103C1000612A01D0FFF774FA1A79752A01D0FFF7EB
:103C20006FFA5A796C2A01D0FFF76AFA9A79742AE6
:103C300001D0FFF765FA2E4806F036F82D4806F059
:103C400033F82D4806F030F82C4806F02DF8002007
:103C500005F094FF154C2A4D2070002005F08EFFD2
:103C600040B203004E3BDBB220702B2BF5D89B00FB
:103C7000EB589F46234806F017F801F063F82248F6
:103C800006F012F8FFF779F91E4806F00DF800F07B
:103C90006FFE1E4806F008F8FFF76FF91C4806F0A3
:103CA00003F8FFF76AF9C04670DA0010DC2B002039
:103CB00064DD0010E12B0020DC0F0020D80F002075
:103CC00090DC0010F8DA001010DB001078DC001037
:103CD00024D5001070DC001070DD001024DD001011
:103CE00018DB001028DB001020DB001030DB001098
:103CF00048DB001080DB0010A8DB0010E0DB0010C8
:103D0000A0DF001008DC00102CDC001044DC0010E8
:103D10005CDC001070B5002005F030FF224C42B290
:103D20002270931C20D0082A15D00A2A25D00D2AEB
:103D300023D01E4D2B781F2B11D82038C0B25E28FF
:103D40000DD8100005F066FF2B78194A2178D15460
:103D500001332B7006E0154A1378002B05D10120A2
:103D600001F08CFF0023237070BD013B137008210C
:103D70000822104806F01CF8F4E70A2005F04AFF74
:103D8000FFF798F80022094B22701A7000210848AA
:103D9000203204F00BF9084806F00AF8002005F07C
:103DA000EDFE0230FAD1DFE7DC2B0020DE2B002015
:103DB000E026002070DC001024D50010F0B5CE46BF
:103DC000474680B500270500914685B0414E03ACBB
:103DD000984643BA2380A27003232200502130006A
:103DE000009708F095FD052001F048FF6B1C5BBAB9
:103DF00023804B461B0A2200A3705021032330006E
:103E0000009708F085FD052001F038FFAB1C5BBA78
:103E100023804B461B0C2200A3705021032330004B
:103E2000009708F075FD052001F028FFEB1C5BBA38
:103E300023804B461B0E2200A37050210323300029
:103E4000009708F065FD052001F018FF2B1D5BBAF7
:103E5000238043462200A3705021032330000097A3
:103E600008F056FD052001F009FF6B1D5BBA2380A9
:103E700043461B0A2200A370502103233000009701
:103E800008F046FD052001F0F9FEAB1D5BBA23806A
:103E900043461B0C2200A3705021032330000097DF
:103EA00008F036FD052001F0E9FE434607356DBAFE
:103EB0001B0EA370220003235021258030000097A1
:103EC00008F026FD052001F0D9FE05B0C0BCB946BA
:103ED000B046F0BD48150020F0B5DE4657464E46C8
:103EE0004546E0B5030085B06A4607335BBA0B244C
:103EF00000279381012380466A4E6C4499462770BF
:103F000003AA009350213000013308F001FD220084
:103F1000012350213000009708F004FD23786A4601
:103F20001B029A46434606335BBA93814B46277081
:103F300003AA009350213000013308F0E9FC22006D
:103F4000012350213000009708F0ECFC53462578FF
:103F50006A461D43434605335BBA93814B4627703F
:103F600003AA009350213000013308F0D1FC220055
:103F7000012350213000009708F0D4FC23782D0253
:103F80001D4343466A4604335BBA93814B46277010
:103F900003AA009350213000013308F0B9FC22003D
:103FA000012350213000009708F0BCFC23782D023B
:103FB0002B432A0E1D02434692466A4603335BBAE0
:103FC00093814B46277003AA0093502130000133A0
:103FD00008F09EFC2200012350213000009708F0D9
:103FE000A1FC514622782B0E2A430D021D431302D9
:103FF0009B4643466A4602335BBA93814B46277021
:1040000003AA009350213000013308F081FC220004
:10401000012350213000009708F084FC5B46227891
:104020002D021A431B0E1D4313029A4643466A464D
:1040300001335BBA93814B46277003AA009350214A
:104040003000013308F064FC2200012350213000CD
:10405000009708F067FC534622782D021A431B0E86
:104060001D4313029A4643466A465BBA93814B4608
:10407000277003AA009350213000013308F048FC58
:104080000123220050213000009708F04BFC5346DA
:1040900029002078184305B0F0BCBB46B246A946BB
:1040A000A046F0BD48150020F0B5D6464F4646461E
:1040B000C0B584B0072800D89FE0FF2811D0D024D5
:1040C000042524069B4805F0EFFD6420656101F09E
:1040D000D5FD0020A56104B0E0BCBA46B146A846B3
:1040E000F0BD0025944B954E1B7803AC5021220067
:1040F000A370258003233000009508F009FC0520FB
:1041000001F0BCFD8E4B01201A685B68FFF756FE7C
:104110008C4B09201A685B68FFF750FE8A4B22001F
:104120001F8888235B0150212380A7700323300060
:10413000009508F0EDFB052001F0A0FD90233F0A5B
:104140005B01220050212380A770032330000095DB
:1041500008F0DEFB052001F091FD98227B4B520117
:104160001B7850212280A370220003233000009589
:1041700008F0CEFB052001F081FDA022744B520116
:104180001B7850212280A370220003233000009569
:1041900008F0BEFB052001F071FDF8226D4B5201C5
:1041A00098461B782280A370220003235021300000
:1041B000009508F0ADFB052001F060FD43461B783B
:1041C000002B18D0644B002799464B462A005B5DB4
:1041D00020326270A3702200032350212770300028
:1041E000009708F095FB052001F048FD43461B7839
:1041F0000135AB42E9DC01206DE700274E4B013071
:1042000085014E4E1B7803AC6ABA50212280A37000
:10421000220003233000009708F07AFB052001F00C
:104220002DFD474B681C1A685B68FFF7C7FD280027
:10423000444B09301A685B68FFF7C0FD424B22000F
:104240001B88502198462B0011335BBA23804346CC
:104250003000A3700323009708F05AFB052001F0FB
:104260000DFD2B0012335BBA238043461B0A22004C
:104270005021A37030000323009708F049FB05206C
:1042800001F0FCFC314B50211A782B0013335BBA40
:104290002380A270032322003000009708F038FB2F
:1042A000052001F0EBFC2A4B50211A782B00143327
:1042B0005BBA2380A270032322003000009708F02D
:1042C00027FB052001F0DAFC224B50211A78984692
:1042D0002B001F335BBA2380A2700323220030001F
:1042E000009708F015FB052001F0C8FC43461B7839
:1042F000002B00D17FE7184B0027994600239A46F0
:1043000020354B46DB5D6ABAA370534622805021AC
:10431000220000933000032308F0FAFA052001F090
:10432000ADFC43461B7801350137ADB2BB42E8DC3A
:104330000120D0E698DD0010E12B00204815002078
:1043400018100020101000200E100020081000206F
:10435000DF2B0020D80F0020DC0F002070B5274C89
:104360002378DA0734D5D022802112064902516120
:104370009A0727D5D02280211206890251615B0756
:104380001AD5D02380221B06D2025A61D0231B06E5
:104390005A68802315005B031D401A4203D1184E52
:1043A0003378012B1AD0D0231B065B68DB0202D5C1
:1043B0000122134B1A7070BDD02380221B06D2023B
:1043C0009A61E3E7D0228021120689029161D6E743
:1043D000D0228021120649029161C9E7642001F0D0
:1043E0004DFC07222900237835700133DBB29A4255
:1043F00069414A4213402370DDE7C046A6120020FF
:10440000A5120020F0B5DE4657464E464546E0B5BB
:1044100087B0072800D8E5E0FF2812D0D024042573
:104420002406E44805F040FC6420656101F026FCA8
:104430000020A56107B0F0BCBB46B246A946A04625
:10444000F0BD02AB9C4600230B24002699460123B5
:10445000D94F644405AD98462A00502126702E801D
:1044600038000093013308F053FA01232200502151
:104470003800009608F056FAD04A237801201370CD
:104480000392FFF729FDCE4B186059600920FFF712
:1044900023FDCC4B2A00186059604B4623709023B3
:1044A0005B012B804346502100933800013308F014
:1044B0002FFA0123220050213800009608F032FA2A
:1044C00023782A001B029A464B46237088235B01FF
:1044D0002B804346502100933800013308F018FA2E
:1044E0000123220050213800009608F01BFA2278A0
:1044F000B54B52441A804B46237098235B012B80A6
:1045000043462A00502100933800013308F000FA96
:104510000123220050213800009608F003FA227887
:10452000AA4B50211A704B462370A0235B012B80AD
:1045300043462A0000933800013308F0E9F90123CB
:10454000220050213800009608F0ECF92278A04BA8
:1045500050211A704B462370F8235B012B80434691
:104560002A0000933800013308F0D2F90123220019
:1045700050213800009608F0D5F9964B22789B46DA
:104580001A70002A24D0944B00269946002398469E
:1045900001339A46434623702B70330020336B70EF
:1045A00053462A00502100933800022308F0B0F946
:1045B00043462200009350210123380008F0B2F94D
:1045C0004A46237893555B461B780136B342E1DCBB
:1045D000039B1B78012B00D1E4E0022B00D1E5E026
:1045E000012027E702AB9C460B24002301306444E2
:1045F0008601984605AD237073BA2B8001236E4F58
:1046000099462A00502100933800013308F080F9C0
:1046100043462200502100933800013308F082F90C
:10462000664A2378701C13700392FFF755FC644BA5
:104630001860596030000930FFF74EFC614B2A00CA
:104640001860596043462370330012335BBA2B80E5
:104650004B46502100933800013308F059F9434686
:104660002200502100933800013308F05BF92378D1
:104670002A001B029A4643462370330011335BBA6B
:104680002B804B46502100933800013308F040F94D
:1046900043462200502100933800013308F042F9CC
:1046A0002278494B52441A80434623703300133317
:1046B0005BBA2B804B462A0050210093380001330F
:1046C00008F026F9434622005021009338000133B8
:1046D00008F028F922783D4B50211A704346237088
:1046E000330014335BBA2B804B462A00009338000A
:1046F000013308F00DF943462200502100933800A1
:10470000013308F00FF92278314B50211A704346DB
:10471000237033001F335BBA2B804B462A00009373
:104720003800013308F0F4F843462200009350218A
:104730000133380008F0F6F8264B22789B461A70B1
:10474000002A00D144E700239846234B203699469F
:1047500000239A463B002F002500444698465346C6
:104760002B7073BA3B8001233A00502100934046DE
:10477000013308F0CDF853462A000093502101235D
:10478000404608F0CFF84A462B78013613555B4671
:104790001B780134B6B2A342E1DC039B1B78012BEA
:1047A00000D01AE7FEF758FA012043E6FEF7C6F9F3
:1047B00001203FE6CCDD001048150020E12B002051
:1047C00018100020101000200E10002008100020EB
:1047D000DF2B0020D80F0020DC0F0020F8B5D024FC
:1047E000CE4647462406636880B55B0203D4564D27
:1047F0002E78012E0BD0D0231B065B685B0202D5FE
:104800000122514B1A70C0BCB946B046F8BD802792
:1048100080237F029B026761994663618023DB02EC
:1048200064206361984601F029FA4B46A761A361B1
:1048300043466420A36101F021FA444B98461B785B
:104840001E4227D067619A0773D5D02280211206B5
:10485000890251615B0766D5D02380221B06D202F4
:104860005A61322001F00AFA43461878FFF7CAFD70
:104870000023374F2B703B78002B0DD1D02404251B
:104880002406344805F010FA6420656101F0F6F959
:10489000A561B8E7A761D6E72F4805F089FA2F4E42
:1048A0003378002B0AD02E4B002498464346185DDF
:1048B00005F0B0F933780134A342F7DC294805F05C
:1048C000F3F93378002B2AD0254B002598461C009D
:1048D00013E0022B06D1002D31D143460121187877
:1048E000FEF7C8F8002005F049F940B203280ED0C1
:1048F000337801350134AB4211DD207805F08AF9B7
:104900003B78012BE5D12078FEF704FAEAE7164858
:1049100005F04EFA002005F031F90230FAD11348C3
:1049200005F046FA6FE7D02380221B06D2029A6177
:1049300097E7D02280211206890291618AE700213F
:104940002078FEF797F8CDE7A4120020A6120020E9
:10495000E12B0020B4DC0010F0DC0010D80F0020A8
:10496000DC0F002008DD001024DD001000DE001048
:10497000F0B55746DE4645464E460023E0B50027D3
:104980009B469A46ED4B87B09846ED4B05AC03939A
:1049900053461B0A23705B46220050216370A770A8
:1049A00003234046009707F0B3FF052001F066F9A6
:1049B000534601339BB21B0A23705B46013363707D
:1049C000602322005021A37040465D3B009707F012
:1049D0009FFF052001F052F9534602339BB21B0A98
:1049E00023705B4602336370562322005021A3706C
:1049F0004046533B009707F08BFF052001F03EF93E
:104A0000534603339BB21B0A23705B460333637028
:104A10006C2322005021A3704046693B009707F0A9
:104A200077FF052001F02AF9534604339BB21B0A95
:104A300023705B460433220050216370A770032368
:104A40004046009707F064FF052001F017F9534630
:104A500005339BB21B0A23705B46053322005021AD
:104A60006370A77003234046009707F051FF0520AD
:104A700001F004F9534606339BB21B0A23705B46D0
:104A80000633220050216370A7700323404600972D
:104A900007F03EFF052001F0F1F8534607339BB2C3
:104AA0001B0A23705B460733220050216370A770F6
:104AB00003234046009707F02BFF052001F0DEF8A6
:104AC000534608339BB21B0A23705B46083322000F
:104AD00050216370A77003234046009707F018FF2A
:104AE000052001F0CBF8534609339BB21B0A237013
:104AF0005B46093363707D2322005021A37040463A
:104B00007A3B009707F004FF052001F0B7F8534601
:104B10000A339BB21B0A23705B460A3322005021E2
:104B20006370A77003234046009707F0F1FE05204D
:104B300001F0A4F853460B339BB21B0A23705B466B
:104B40000B33220050216370A77003234046009767
:104B500007F0DEFE052001F091F853460C339BB2BE
:104B60001B0A23705B460C33220050216370A77030
:104B700003234046009707F0CBFE052001F07EF8A6
:104B800053460D339BB21B0A23705B460D33220044
:104B900050216370A77003234046009707F0B8FECA
:104BA000052001F06BF853460E339BB21B0A2370AD
:104BB0005B460E33220050216370A77003234046EA
:104BC000009707F0A5FE052001F058F853460F3373
:104BD0009BB21B0A23705B460F3322005021637087
:104BE000A77003234046009707F092FE052001F0CE
:104BF00045F8534610339BB21B0A23705B461033B3
:104C0000220050216370A77003234046009707F0ED
:104C10007FFE052001F032F8534611339BB21B0A88
:104C200023705B4611336370322322005021A3703E
:104C300040462F3B009707F06BFE052001F01EF861
:104C4000534612339BB21B0A23705B461233220079
:104C500050216370A77003234046009707F058FE69
:104C6000052001F00BF8534613339BB21B0A237047
:104C70005B4613336370142322005021A370404617
:104C8000113B009707F044FE052000F0F7FF534664
:104C900014339BB21B0A23705B461433220050214D
:104CA0006370A77003234046009707F031FE05208C
:104CB00000F0E4FF53461F339BB21B0A23705B4690
:104CC0001F33637020232200A37050211D3B4046F8
:104CD000009707F01DFE052000F0D0FF202294462B
:104CE000039B55461E00634499462035ADB2337888
:104CF0006ABA2280A3702200032350214046009705
:104D000007F006FE01350520013600F0B7FFADB211
:104D1000B145ECD1534640339BB29A465B46403393
:104D2000DBB29B4690239B009A4500D030E607B04B
:104D3000F0BCBB46B246A946A046F0BD48150020CF
:104D40008412002010B5FFF713FE10BD10B5054BFF
:104D5000002218685968FCF78DFD0020FDF770FEF1
:104D600010BDC0461810002010B5034B0022186873
:104D70005968FCF77FFD10BD18100020074BC0B22A
:104D800010B5187003F008F8011C054802F0E9FF9F
:104D900003F02AF8034C208010BDC0468014002088
:104DA0000024744982140020F8B50300DE465746FB
:104DB0004E464546613BE0B5192B45D84038C2B256
:104DC000254BD2009B181A685B68D0269946234B66
:104DD00093469846202330249A46012736060AE057
:104DE000736180231B02736143460021188800F021
:104DF00011FF013C17D32300203B1DD44D46DD405D
:104E00003D402800FDF71CFE8023DB01002DE7D18B
:104E1000B36180231B02B36143460021188800F070
:104E2000F9FE013CE7D20020FDF70AFEF0BCBB46CC
:104E3000B246A946A046F8BD53464A465D461B1BEE
:104E40009A40E5401543DBE72038C0B21F223B28DB
:104E5000B6D80200B4E7C046A81200208214002091
:104E6000094A83009A1810B51468402254408032D1
:104E70002240064CC000A44663441A60044B9C4682
:104E80006044416010BDC04604C0014004D00140F0
:104E900000400140074B8000C3181B68C900920006
:104EA0000A435A400C231340034A9446604403606B
:104EB0007047C04604C0014004D001400123D02205
:104EC0008340120693629361094A83009A1811681D
:104ED0004022514080320A400649C0008C4663445B
:104EE0001A60054B9C460523604443607047C046EA
:104EF00004C0014004D00140004001408023DB0594
:104F00001868000F7047C0460FB400B5084883B05A
:104F100004F0CAFE049B002B07D005A918000191DC
:104F200004F0B2FC034804F0BFFE012004F0C4FC0E
:104F300004DE0010D0D4001070B5EFF3108C72B600
:104F40000D4D2B68002BFCD0BFF35F8F0724CB08DF
:104F5000C618C05C01230C40A3401C00044003425F
:104F600007D118433070BFF35F8F2C608CF310882B
:104F700070BD1000FFF7C8FF2C0100D0F8B5474600
:104F8000CE46884680B5EFF3108C72B61C4D2C6867
:104F9000002CFCD0BFF35F8F9A4222D80721012654
:104FA000894602E00132934218D34D46370015403E
:104FB000AF40D4080119045D2742F3D110003C43EF
:104FC0000C70BFF35F8F00220D4B1A608CF31088BA
:104FD00000280EDBC0BCB946B046F8BD01204042F7
:104FE000EFE7BFF35F8F00232B608CF31088012065
:104FF00040424346002BEDD00898FFF785FFC0469E
:105000002C0100D0044A1078431CDBB2172B00D9C6
:10501000102313707047C0468414002010B5064B4F
:10502000064C82B00100009318221F232000FFF7D6
:10503000A5FF02B010BDC04614DE0010A826002057
:105040000021044B044ABFF35F8F02C39342FAD19D
:105050007047C046000100D0800100D0054B064AD1
:105060001360064A136053609360D3601361536109
:10507000936170478080808000E400E004E400E0F9
:105080001F2318401E3B8340002905D0C021044A3D
:105090004900535013607047802201498B50FAE752
:1050A00000E100E001228240034B1B6813405A1EBE
:1050B0009341D8B27047C04600E100E0012383402D
:1050C000014A13607047C04600E200E0064B103012
:1050D0009B688000C358054A00209B1A2F229A42E1
:1050E0004041C0B27047C04600ED00E08814002087
:1050F00070B50D00EFF3108672B60F4A1368002BDF
:10510000FCD0BFF35F8F0D4B10309B6884001B59A0
:105110000B4A934203D09D4201D000F0F3FF074BAE
:105120009B681D51BFF35F8FBFF35F8F0022024B5F
:105130001A6086F3108870BD240100D000ED00E0F5
:10514000CD010010F0B557464E46DE464546E0B567
:1051500085B0060000911700EFF3108B72B66A4A13
:105160001368002BFCD0BFF35F8F0025674B5D57A2
:105170009A46002D00DAA9E06B00654C01935B199B
:105180009B009846A146C1444B4652469B79103637
:105190001370604BB6009B6899590B1B2F2B33D9AA
:1051A0005D4B994200D0ACE0019B42469C465B4B74
:1051B0006544AD0063535A4B0232A218043B9B1A5C
:1051C0001B05584A5B0D651913436B80564B012133
:1051D000AB80FF23AB71009BEF71AB604B460B4381
:1051E00019004C4B9B689951BFF35F8FBFF35F8FE2
:1051F0000022454B1A608BF3108805B0F0BCBB460B
:10520000B246A946A046F0BD01200A008243D379E8
:105210008C46BB4231D84546130044491B1B5B41B9
:105220005943090D3D4B63533D4B02356519043B12
:105230005B1B1B053B4D5B0D2B43AA464D466B800C
:105240000425AC465546E044131F44441B1B1B0574
:105250005B0D1D434B46997100999D8099604946AD
:10526000DF71334B01431360BBE75800C018800067
:105270002018C179B9422FD902000623D356002B3A
:10528000F3DA02932B4B61460393131D9A460423D2
:105290005B429C46E14450464B461B1A1B055B0D86
:1052A0009C46204B95719846634640460343938045
:1052B000019B5A199200039BA418A380029B1C4ACD
:1052C000A371009B2260E771A3608AE700F01AFFD8
:1052D000002553465D574FE7908802934005131D04
:1052E0009A46031561469C464046D44463460430C2
:1052F0002018181AE0230005400D1B0218430390E4
:10530000C5E700F0FFFE4FE7240100D0E22B0020AC
:105310008814002000ED00E0CD01001000A1FFFF87
:10532000B814002000E0FFFF01BDFFFFAAAA0000A3
:105330000148804701BD000070B501240443EFF32C
:105340000581EFF3108C72B6214A1368002BFCD054
:10535000BFF35F8F1F4B05001F4AED1A6D416A4373
:10536000120D1E4D8900AE6852B27658A6421CD06E
:105370000621595691421CD012215956914222D0F1
:105380001E215956914220D02A2159560324914278
:1053900010D0134B19781A708171BFF35F8F002200
:1053A0000B4B1A608CF3108870BDAB680D4C5C50D1
:1053B000EFE700246100091989005B18FF2199714A
:1053C00009499980E5E70124F4E70224F2E7C046A1
:1053D000240100D088140020AAAA000000ED00E0FB
:1053E000E22B0020CD01001001BDFFFF10B5084BDE
:1053F000084C82B001000093002205232000FFF733
:10540000BDFD002801DB1F23181A02B010BDC046E5
:1054100030DE0010EA2B0020024B9C4661448900DC
:10542000016070474000003470B5114C114DAC4222
:105430000FD2FF262368002B0CD0FFF7E3FD0100FD
:105440002000FFF7E9FFA680BFF35F8F0834AC426E
:10545000F0D370BDFFF7D6FD01002000FFF7DCFFA1
:105460002671BFF35F8F0834AC42E3D3F1E7C04647
:10547000A81A0020B81A002010B50400FFF7C2FDDA
:1054800001002000FFF7C8FFFF232371BFF35F8FE8
:1054900010BDC04610B504000120FFF7BFFD034B4F
:1054A000C3189B002360BFF35F8F10BD4000003422
:1054B000034B9C46614489000160BFF35F8F7047D6
:1054C000400000340A4B1968EFF3108072B60A6886
:1054D000002AFCD0BFF35F8F1B68BFF35F8F0022F1
:1054E0001A6080F3108840BF002000217047C0463A
:1054F000B02B0020F0B5DE4657464E464546E0B597
:1055000087B0EFF30583032201251A4095409100EF
:105510008846A946B34B03925C58B34B1D60B34B0E
:1055200004934B46B24843630823E55E002D37DA07
:10553000A3881BB2002B00DBADE0A379002B00D0C9
:10554000EEE00823E05E002820DB430062691B18C0
:10555000DB00D3189E68DD68731C00D111E1A448FC
:1055600001004144826A0B69B71A9B1A9F4215D306
:105570000123026A039883401A420FD09C4800F02E
:1055800037FB8D4202DCCCD18642CAD940BF07B07E
:10559000F0BCBB46B246A946A046F0BD0E61EDE7A1
:1055A00062696B0092465B19DB009A4453469E6821
:1055B000DF6800F01DFB8F42BADC00D103E1002F51
:1055C00000DAE8E05246534652691B699346049A52
:1055D000934200D1D9E052460821605E528800040F
:1055E000594610439847009001910099019A0B0089
:1055F0001000134300D1CEE013000A00B61A9F41F9
:10560000002806DB7A4800F0F3FA009E019F361866
:105610004F4153469E60DF6000229A5E002A00DA06
:1056200086E7530099186069C900411802938B6896
:10563000C9689B46B94200DD7AE702D1B34200D97E
:1056400076E708239C46A444059565462281A44636
:10565000029B2C0006E053009918C90041188D6880
:10566000C968AB469B18DB00C318B94206DC00D101
:10567000B3E01C000023E25E002AECDA230064465B
:105680009C4653461A806346059D1D80A3881BB225
:10569000002B00DA51E72269EFF3108172B613682C
:1056A000002BFCD0BFF35F8F0123A7885B42A38050
:1056B0003FB22369BFF35F8F00221A6081F3108825
:1056C000002F00DA39E72300083322009A46666982
:1056D0007B00DB19DB00F318996850468C460824E0
:1056E000115FDD68002910DB029306E0AB4244D075
:1056F0000023E15E2000002906DB4C006418E40072
:105700003419E368AB42F1DD029B078000201F5E85
:105710001980002FDCDA1400A379002B00D110E7E8
:105720000023A37126000823E15E08364B1C00D13C
:105730002CE70800A246656902E03E004B1C1AD027
:105740004B005B18DB00EF180A008C46E95E7B8893
:105750001BB2002BF1DA01235B42DC17BB60FC605B
:10576000824205D0534631801B893B8053461A81C3
:1057700060464B1CE4D15446E5E6A3686345B7D9BF
:10578000C2E76B1C00D0EAE6F8E65B4658461B69A8
:10579000984700281BD153461B8822692381EFF3C9
:1057A000108372B611680029FCD0BFF35F8F514699
:1057B00062880A8022696580BFF35F8F00211160D3
:1057C00083F31088B4E6864200D8F8E6B0E65B467C
:1057D0001A685B680092019307E7B34500D848E771
:1057E0004CE7C0468C2B00203C700540F55400105F
:1057F0000040054070B52E4C2569002D04D00A21CB
:105800002C48FFF709FE70BD2B4E0321300000F03D
:10581000E5F9E660FFF7F6FB284B03229C46D02310
:1058200022701B061B6801216370254B6044A36036
:105830000F23800020610220638063694942A180B8
:1058400019800231198647311D83585218315A5236
:1058500075325C399952183201319952183201313E
:105860009952183201319952083518329D5202313D
:105870001832995218320131995218320131995225
:1058800018320131995218320131995218320131CE
:1058900099520C4B0C49DC6001303562FFF728FC53
:1058A00001210320FFF7ECFB084B1D60A7E7C04672
:1058B000D0140020B02B00200040054040000034F0
:1058C000FFFF10008C2B0020F554001038600540BD
:1058D00000487047D0140020F8B51F0008AB1B78B3
:1058E00004001600002B08D100F08AF932003B00BA
:1058F000121A8B41002B00DA52E02269EFF310807C
:1059000072B61368002BFCD0BFF35F8F0223E15EF9
:1059100063694A005218D2009B182269002936DBBD
:105920001D886580BFF35F8F0025156080F31088A8
:10593000069A9E60DF601A61079A5A615A8801329E
:105940005204520C101C002A1FD082B25880080446
:1059500010432669EFF3108772B63268002AFCD034
:10596000BFF35F8FA2881A80A1802369BFF35F8F86
:1059700000221A6087F310880A4923788C46013286
:105980009A40E36863441A60F8BD0120DDE7BFF385
:105990005F8F0023136080F3108801204042F3E7FB
:1059A0000020F1E73C20000070B501000469EFF32E
:1059B000108C72B620680028FCD0BFF35F8F0220E5
:1059C0000D5E4C6968004019C00024180869002D5C
:1059D00036DB26884E80BFF35F8F002606608CF38F
:1059E0001088E36063880498013320615B040598A4
:1059F0005B0CA26060611A1C002B1FD093B22804BC
:105A0000628018430A69EFF3108C72B61368002B9A
:105A1000FCD0BFF35F8F8B8823808D800B69BFF331
:105A20005F8F00221A608CF310880B7801329A4045
:105A3000CB6808498C4663441A6070BD0122DDE7DB
:105A4000BFF35F8F002303608CF310880120404276
:105A5000F3E7C0463C20000010B543890A14934286
:105A60001ADD53009B184269DB00D3180469EFF379
:105A7000108C72B62268002AFCD0BFF35F8F5A8860
:105A8000090494B2090C8A4208D00369BFF35F8FFE
:105A900000221A608CF31088002010BD80221202B0
:105AA00014435C80012302698371BFF35F8F00217F
:105AB00011608CF31088044902788C469340C268C8
:105AC000012062441360E8E73C2000004078704702
:105AD000F0B557464E46DE464546E0B506000F0097
