:020000041000EA
:1000000000B5324B212058609868022188439860DF
:10001000D860186158612E4B002199600221596106
:100020000121F02299502B49196001219960352056
:1000300000F044F80222904214D00621196600F024
:1000400034F8196E01211966002018661A6600F04E
:100050002CF8196E196E196E052000F02FF8012189
:100060000842F9D1002199601B49196000215960AB
:100070001A491B48016001219960EB211966A021F2
:10008000196600F012F800219960164914480160C1
:100090000121996001BC002800D000471248134993
:1000A000086003C880F30888084703B5996A0420EC
:1000B0000142FBD001200142F8D103BD02B5186610
:1000C0001866FFF7F2FF186E186E02BD00000240BE
:1000D000000000180000070000035F00212200005C
:1000E000F4000018222000A00001001008ED00E03C
:1000F00000000000000000000000000074B24E7A12
:1001000000200420F7010010C3010010C5010010F9
:10011000C1010010C1010010C1010010C101001097
:10012000C1010010C1010010C1010010C701001081
:10013000C1010010C1010010C9010010CB01001065
:10014000CD010010CD010010CD010010CD01001037
:10015000CD010010CD010010CD010010CD01001027
:10016000CD010010CD010010CD010010CD01001017
:10017000CD010010CD010010CD010010CD01001007
:10018000CD010010CD010010CD010010CD010010F7
:10019000CD010010CD010010CD010010CD010010E7
:1001A000CD010010CD010010CD010010CD010010D7
:1001B000CD010010CD010010CD010010CD010010C7
:1001C00000BE00BE00BE00BE00BE00BEEFF3058054
:1001D000103800BEF2EB88713CE1001060E10010C5
:1001E0003802001090A31AE71E481F49086006C88D
:1001F00081F3088810471D480068002801D019487D
:10020000F3E70DA40ECC002902D000F012F8F9E7B4
:100210001749184A002000E001C19142FCD116495B
:100220008847164988471649884700BEFDE701C937
:1002300001C29A42FBD3704760E10010C000002069
:10024000D818002078F900100000042000000420D5
:1002500078F90010001004200010042000000000B5
:10026000704700000000000008ED00E0000000D032
:10027000D81800200C2A002009960010C90300108D
:1002800001960010F8B5C04606480749091A8B10B8
:10029000C90FC91810B5491003D0044B002B00D06A
:1002A000984710BDD8180020D81800200000000082
:1002B000054B10B5002B03D00449054800E000BFF2
:1002C000FFF7E2FF10BDC0460000000084290020B7
:1002D000CCD000107047C04670B5254809F0F0FB3F
:1002E000244809F069FB244B2448197809F0E8FBFD
:1002F000234809F061FB234B2348197809F0E0FB00
:10030000224809F0DDFB224D2B78002B08D0002479
:10031000204E305D09F006FB2B780134A342F8DC57
:100320000A2009F0FFFA29781B4809F0C9FB1B4B8A
:100330001B481A685B6809F0C3FB1A4809F03CFBCC
:10034000194B1A481A685B6809F0BAFB184B194830
:10035000198809F0B5FB184809F02EFB174B18480F
:10036000197809F0ADFB174809F026FB70BDC046AF
:10037000D0D00010D8D00010012A0020E8D0001002
:10038000F4D00010FF29002010D1001048D1001037
:10039000D80F0020DC0F002058D1001018100020CA
:1003A00070D100108CD100101010002094D10010DA
:1003B0000E100020B0D10010C4D100100810002091
:1003C000C8D10010DCD10010F0B5D024042583B0D2
:1003D000240609F057FA022004F0F8FB0A206562AF
:1003E00004F0F4FB8023DB000B20636204F0EEFBDF
:1003F00080231B010D20636204F0E8FB80239B0136
:100400000F20636204F0E2FB80231B020E20636274
:1004100004F0DCFB8023DB011020636204F0D6FBD8
:1004200080235B021120636204F0D0FB80239B02D7
:100430001220636204F0CAFB8023DB021420636293
:1004400004F0C4FB80235B031520A36204F0BEFB11
:1004500080239B031620A36204F0B8FB8023DB03F8
:10046000A362656102F0B0FC002200218020A5613A
:1004700000F086FC1F4B00221868596801F0ECF967
:100480001D480BF051FF0023502100931B4A1C48CC
:1004900001330CF0CFF8002828D01A4809F08CFA64
:1004A000D02480260125FF2003F0BEFEFFF714FFB5
:1004B000154809F005FB154F2406360103F03CFBF7
:1004C00003F05EFE04F09CF83B785A08154206D013
:1004D00066611D4206D08023DB006361EEE7A66102
:1004E0001D42F8D18023DB00A361E7E7084809F04B
:1004F00063FAD5E718100020D5020010002A00206A
:1005000068130020E4D1001010D20010012A00204E
:10051000F8D10010F0B5454657464E46DE46E0B5E8
:100520008FB08A46914680460D000990142900D963
:1005300063E100D15DE10D2900D2B3E000D1ADE06F
:100540004B46002B00D0B4E0CD4B64221C78CD4B41
:10055000A400E0580021002307F068FA06000F000D
:10056000C94BCA4AE058C1174308C9071943C00715
:10057000002305F08FFD32003B0007F057FA4900D9
:10058000C00F08430200C317B6185F41404632004F
:100590003B00290005F096FD04000E2800D93CE13F
:1005A000310F3B010B433201921BBB4190461D00B2
:1005B000290032003B00404605F084FD0393039D73
:1005C0000292D30E69011943029A039B5001801ACB
:1005D0009941C50D4B022B43420202980399121810
:1005E0004B41950E990190012943801A9941029A35
:1005F000039B8018594132003B0005F063FD002841
:1006000000D11EE1C5012800A14905F01DFD1027FC
:100610000B0C7F421F430B0ADBB22800CEB29C4971
:10062000984605F011FD422340259946FFB2994BAB
:10063000E4019C4664442418142007F009FB4A4650
:100640002D022A431500A3039B0F1B041D434346A1
:10065000220A3F02E4B21B043C431C431A23120645
:100660001543360608AA1373344308AB9C460100B1
:100670000560446083460D200822604407F024FB97
:1006800000230BAA00936021093383480BF0C8FFB5
:10069000824B099A1A6052465A60A0E0804B9842F9
:1006A00000D34DE77E4B0D2598464B46002B00D1DD
:1006B0004AE77C4B64221C78724BA400E05800216E
:1006C000002307F0B3F9704B0690E0580791C1176B
:1006D0004308C9076D4A1943C007002305F0DAFC37
:1006E000069A079B07F0A2F9069B079C4900C00FDA
:1006F00008430600C7179B197C4140461A001E009C
:100700002900230005F0DEFC270004000E2800D994
:1007100077E0310F3B010B433201921BBB41904606
:100720001D00290032003B00404605F0CBFC05933C
:10073000059D0492D30E69011943049A059B50014B
:10074000801A9941C50D4B022B434202049805992A
:1007500012184B41950E990190012943801A994135
:10076000049A059B8018594132003B0005F0AAFC11
:1007700000285ED0C5012800454905F065FC10271A
:100780000B0C7F421F430B0ADBB22800CEB240495C
:10079000984605F059FC40234225FFB202933D4B99
:1007A000E4019C4664442418142007F051FA029B8B
:1007B0003F021A02A3039B0F1B0415431D4343462C
:1007C000220AE4B21B043C431C434B461206360685
:1007D00015433443834605604460012B37D05846A7
:1007E00007F054FA0FB0F0BCBB46B246A946A0468B
:1007F000F0BD2D4B984200D8A2E62B4B142598460D
:100800009EE65A2800D88CE75A220023300039008F
:1008100007F00CF980460D0083E75A2800D8C7E698
:100820005A2200233000390007F000F980460D00FD
:10083000BEE60023984601330026002700250293D8
:10084000ADE700230026984600270125EFE6213377
:1008500008AA137308AB9C4601000D2008226044CF
:1008600007F032FA00230BAA0093602109330A48EB
:100870000BF0D6FE0D4B099A1A6052465A60AEE74D
:10088000062A0020F0290020BC29002000CA9A3B3B
:1008900040420F0000FEFFFF68130020A81A00204E
:1008A000005847F8072A002000046BF4B01A002013
:1008B000F0B5DE4657464E464546E0B5002787B0C0
:1008C000FC4DFD4B05AC2380220002236021280053
:1008D00000970BF0A5FEF94B220023806021022334
:1008E000280000970BF09CFEF54B2200238060212E
:1008F0000223280000970BF093FEF24B2200238086
:1009000060210223280000970BF08AFEEE4B2200A4
:10091000238060210223280000970BF081FEEB4B1F
:100920002200238060210223280000970BF078FE2C
:10093000E74B2200238060210223280000970BF060
:100940006FFEE44B220023806021022328000097E1
:100950000BF066FEC1231B012380220002236021CD
:10096000280000970BF05CFEDB4B22002380602107
:100970000223280000970BF053FED84B220023805F
:1009800060210223280000970BF04AFED44B22007E
:10099000238060210223280000970BF041FED14BF9
:1009A0002200238060210223280000970BF038FEEC
:1009B000CD4B2200238060210223280000970BF0FA
:1009C0002FFECA4B220023806021022328000097BB
:1009D0000BF026FEC64B2200238060210223280054
:1009E00000970BF01DFE00221221C248FFF792FD76
:1009F00001221221BF48FFF78DFDBF4B04AE984680
:100A000042461F60BD4B60215360102301229A466D
:100A10002370BB4B914603931B78280033700293DD
:100A20000092012322000BF0FBFD01233200602124
:100A3000280000970BF0FEFD5246337822701032EA
:100A4000934393466370220002236021280000979D
:100A50000BF0E6FD424617701122924622704A467C
:100A6000029B6021337028000123009222000BF0CA
:100A7000D7FD012332006021280000970BF0DAFD3A
:100A8000524622705A4633786021934363702200A5
:100A90000223280000970BF0C3FD42465770122234
:100AA000924622704A46029B60213370280001233F
:100AB000009222000BF0B4FD0123320060212800D7
:100AC00000970BF0B7FD524622705A4633786021EA
:100AD0009343637022000223280000970BF0A0FDCF
:100AE000424697701322924622704A46029B60212A
:100AF000337028000123009222000BF091FD0123A6
:100B000032006021280000970BF094FD52462270BD
:100B10005A463378602193436370220002232800F1
:100B200000970BF07DFD4246D7701422924622704A
:100B30004A46029B60213370280001230092220064
:100B40000BF06EFD012332006021280000970BF0AE
:100B500071FD524622705A46337860219343637088
:100B600022000223280000970BF05AFD424617711D
:100B70001522924622704A46029B6021337028005B
:100B80000123009222000BF04BFD01233200602173
:100B9000280000970BF04EFD524622705A463378DB
:100BA00060219343637022000223280000970BF01A
:100BB00037FD424657711622924622704A46029BE2
:100BC0006021337028000123009222000BF028FDE1
:100BD000012332006021280000970BF02BFD5246C4
:100BE000227020229246524633786021134363706C
:100BF00022000223280000970BF012FD42464946CE
:100C0000917117229346029B2270337022004B464B
:100C1000009128005F310BF003FD012332006021B9
:100C2000280000970BF006FD5A4622705246337892
:100C300060211343637022000223280000970BF009
:100C4000EFFC43464A46DA71A2232200238060214A
:100C5000A03B280000970BF0E3FCA3232200238095
:100C60006021A13B280000970BF0DAFCA4232200AE
:100C700023806021A23B280000970BF0D1FC214B80
:100C80002200238060210223280000970BF0C8FC7B
:100C90001D4B2200238060210223280000970BF0C7
:100CA000BFFC1A4BA8469B46194B029303239A4656
:100CB00030E0C046681300201080FFFF1180FFFF66
:100CC0001280FFFF1380FFFF1480FFFF1580FFFFDE
:100CD0001680FFFF1780FFFF110C0000120C0000B0
:100CE000130C0000140C0000150C0000160C000082
:100CF000170C000000205FA0A429002000000101C3
:100D0000D8D10010B1200000B180FFFFD81800201A
:100D1000D02400205946002200230CC153462370E2
:100D2000039B00251B78220033704B468B460093B3
:100D30006021012340460BF073FC01233200602147
:100D4000404600950BF076FC524622704A46BA4067
:100D500033786021134363702200022340460095DC
:100D60000BF05EFC029BDB1901371D70082FD1D1FF
:100D700007B0F0BCBB46B246A946A046F0BDC0468F
:100D8000F0B5DE4657464E464546474BE0B59B46D6
:100D900087B003925A46454B454E13600023454A9F
:100DA00002901370444A8A461370444A4449300002
:100DB00013700BF00DFC0321042003F0D9FE032176
:100DC000052003F0D5FE00220121042003F0EAFEF5
:100DD00000220121052003F0E5FE3A4B00271B7895
:100DE00005AD99460123984604AC4B462370434613
:100DF0002A0060212F703000009301230BF010FCBB
:100E0000012322006021300000970BF013FC2378AF
:100E1000DB09012BE9D0B723029A2B70783B9A4368
:100E20001300122213436B702A000223602130004A
:100E300000970BF0F5FB5346002B1AD15A461B4B7B
:100E40001360039A204B1A60204B002218685968DF
:100E5000FFF760FB1E4B012218685968FFF75AFB29
:100E6000FFF726FD07B0F0BCBB46B246A946A04638
:100E7000F0BD184B9A4509D9174B184A5344934271
:100E800008D853465A465B081360DAE75B46524679
:100E90001A60D6E7124B134A53449342D1D85346B3
:100EA0005A469B081360CCE7F029002040787D016A
:100EB00068130020062A0020072A0020FD290020B0
:100EC000801A0600D8D10010BC290020A81A0020E2
:100ED000B01A002080C3C9017F3C36FE7FC3C90120
:100EE000FF786CFCFF596202F0B5DE4645464E467F
:100EF0005746E0B591B01D1C08930B931AAB1B78B5
:100F0000884603931BAB1B7807929B461CAB1B7850
:100F10000A92049353BA6A46040014205383099139
:100F200006F096FE4346DBB206006DBA0593052C2B
:100F300000D876E0063CE4B2012C68D8E04BA4006F
:100F40001B590DAC9F4652232B7006AB9C461D20AF
:100F5000002460440822310006F0B6FE09232A006E
:100F60006021380000940BF05BFB15232B70534677
:100F70004A461B786021137001232A000093380031
:100F80000BF04EFB01234A466021380000940BF021
:100F900051FB4B46039A1B78012A00D1A5E240225F
:100FA0009343152200242A706B702A0002236021CB
:100FB000380000940BF034FB54232B7053464A4600
:100FC0001B786021137001232A00009338000BF076
:100FD00027FB01234A466021380000940BF02AFBCE
:100FE0004B467C221B789343049A002A01D00C22A2
:100FF000134354222A705A46120113436B70002384
:101000002A0000936021380002330BF009FB300006
:1010100006F03CFE11B0F0BCBB46B246A946A04665
:10102000F0BDE30005802C330DAD2B700CAB994661
:101030004A46A44BA44F9A461B78602113700123A3
:101040002A00009338000BF0EBFA00234A46602197
:101050000093380001330BF0EDFA4B461A78434603
:1010600003211B0C8A430B401343B37043461B0AF6
:10107000F370059B079A3371089B0C311B0B120C04
:101080008B4311400B4373716B465B8BA400F38061
:101090008E4B1B599F465B2300278B4D2370059B6E
:1010A0002200637060210223280000970BF0B8FA39
:1010B0005C23237098460CAB99464A46814B6021CD
:1010C0001B78280013700123220000930BF0A8FA6C
:1010D00001234A466021280000970BF0ABFA4B46EB
:1010E00070221B7893431A00434623705B461B0112
:1010F00013436370220002236021280000970BF045
:101100008FFA84E75A2300276F4D2370059B220036
:10111000637060210223280000970BF081FA5C23A2
:10112000237098460CAB99464A46664B60211B7863
:10113000280013700123220000930BF071FA0123A1
:101140004A466021280000970BF074FA4B460722AC
:101150001B789343424622705A461A431300C8E74D
:1011600042232B7006AB9C461D20002460440822BD
:10117000310006F0A9FD09232A00602138000094FF
:101180000BF04EFA13232B7053464A461B7860210E
:10119000137001232A00009338000BF041FA012359
:1011A0004A466021380000940BF044FA4B46039AFB
:1011B0001B78012A00D192E140229343132200249C
:1011C0002A706B702A0002236021380000940BF013
:1011D00027FA44232B7053464A461B78602113702C
:1011E00001232A00009338000BF01AFA01234A4623
:1011F0006021380000940BF01DFA4B467C221B78CE
:101200009343049A002A01D00C2213434422F1E6AE
:101210003A232B7006AB9C461D2000246044082214
:10122000310006F051FD09232A00602138000094A6
:101230000BF0F6F912232B7053464A461B786021B7
:10124000137001232A00009338000BF0E9F9012301
:101250004A466021380000940BF0ECF94B46039AA3
:101260001B78012A00D149E1402293431222002435
:101270002A706B702A0002236021380000940BF062
:10128000CFF93C232B7053464A461B7860211370DC
:1012900001232A00009338000BF0C2F901234A46CB
:1012A0006021380000940BF0C5F94B467C221B7876
:1012B0009343049A002A01D00C2213433C2299E65E
:1012C000BCDB0010D8D1001068130020C4DB001074
:1012D0004A232B7006AB9C461D2000246044082244
:1012E000310006F0F1FC09232A0060213800009447
:1012F0000BF096F914232B7053464A461B78602155
:10130000137001232A00009338000BF089F90123A0
:101310004A466021380000940BF08CF94B46039A42
:101320001B78012A00D1E6E04022934314220024D6
:101330002A706B702A0002236021380000940BF0A1
:101340006FF94C232B7053464A461B78602113706B
:1013500001232A00009338000BF062F901234A466A
:101360006021380000940BF065F94B467C221B7815
:101370009343049A002A01D00C2213434C2239E6ED
:1013800032232B7006AB9C461D20002460440822AB
:10139000310006F099FC09232A00602138000094EE
:1013A0000BF03EF911232B7053464A461B786021FF
:1013B000137001232A00009338000BF031F9012348
:1013C0004A466021380000940BF034F94B46039AEA
:1013D0001B78012A00D18BE0402293431122002484
:1013E0002A706B702A0002236021380000940BF0F1
:1013F00017F934232B7053464A461B78602113702B
:1014000001232A00009338000BF00AF901234A4611
:101410006021380000940BF00DF94B467C221B78BC
:101420009343049A002A01D00C2213433422E1E5AD
:101430002A232B7006AB9C461D2000246044082202
:10144000310006F041FC09232A0060213800009495
:101450000BF0E6F810232B7053464A461B786021A8
:10146000137001232A00009338000BF0D9F80123F0
:101470004A466021380000940BF0DCF84B46039A92
:101480001B78012A2ED040229343102200242A7078
:101490006B702A0002236021380000940BF0C0F822
:1014A0002C232B7053464A461B786021137001236E
:1014B0002A00009338000BF0B3F801234A4660215C
:1014C000380000940BF0B6F84B467C221B7893430F
:1014D000049A002A01D00C2213432C228AE53F32C1
:1014E00013436BE63F321343CFE73F32134358E5D4
:1014F0003F32134372E73F32134317E73F32134340
:10150000B4E6C046F0B5CE464746032380B585B065
:1015100003AC237002AB994601254A46174B184E7F
:101520001B78804613700F00012322006021009574
:1015300030000BF075F800234A4600936021013318
:1015400030000BF077F84B4642461B789540012F50
:1015500011D02B43DBB26370032200232270602181
:1015600000932200300002330BF05AF805B0C0BCE3
:10157000B946B046F0BDAB43EDE7C046D8D1001048
:1015800068130020F0B5C64600B51E4B84B01B782A
:1015900002AD2B701C4B103098460123C4B203AE31
:1015A000320034700F000093602140460BF038F891
:1015B00000232A0060210093404601330BF03AF8E3
:1015C0002A780323110099430B00022F16D0032F12
:1015D00011D0012F01D10122134373700023347005
:1015E000320000936021404602330BF019F804B03A
:1015F00080BCB846F0BD03231343EEE70222134339
:10160000EBE7C046D8D100106813002010B584B0B5
:10161000002803D001280DD004B010BD6A460B4B42
:101620000B4C9381602100900223200003AA0AF052
:10163000F7FFF1E76A46074B60219381002303AA75
:101640000093034802330AF0EBFFE5E7B120000006
:1016500068130020B180FFFFF0B557464E4645465F
:10166000DE46E0B585B09A460E9B0090019191460A
:101670000099019A9846052A74D870D00099019A69
:10168000002A00D088E06C4B994200D984E04B4698
:101690005246134300D1AFE000230025674C00936E
:1016A00022002B004846514604F00CFD06228346DA
:1016B000052805D9E123DB00984208D9E122D200B0
:1016C00000234846514604F0FDFC04000D002200B2
:1016D0002B004846514604F0F5FC03930292D30ECA
:1016E000039A51011943029B5801029A039B801AE5
:1016F0009941C30D9C4606004B02614672020B43A2
:101700000298039912184B41910E8C4616001F0047
:1017100099016346320019433B00B001801A994198
:10172000029A039B801859412B00220004F0CAFC46
:10173000009B00285BD0012B62D0C60130004049DD
:1017400004F082FC30000F003D4904F07DFC3C4A6F
:101750003C495B468C46DB016344C0180FE03A4BC2
:1017600099428BD90525384C4B465246134334D108
:10177000002000270122A30FAD001D43A400434613
:101780002900186020005F609A6005B0F0BCBB467D
:10179000B246A946A046F0BD009B019C032C46D84A
:1017A00041D04B46524613431AD1009A019B142153
:1017B000264804F087FC06000B00072822D000987A
:1017C0000199320006F032F91E4B0D009C460400D0
:1017D000F001604400270122D1E7012300935FE775
:1017E000009A019B1D0000231400009358E7002776
:1017F0000122012BACD1C2E714251548134CE9E7AF
:101800000020E7E70029DAD10098019902000B00D7
:1018100012184B4112184B41802092185B41400036
:1018200014001D00D6E70B4B009A9A42B9D9009AD2
:10183000019B14001D0097E77FF0FA0280F0FA0286
:1018400040420F0000FEFFFF00C11A3D00046BF490
:1018500000820300FFD5117EF0B557464E4645463F
:10186000DE46E0B50F000600150001225242D317F4
:1018700092197B418FB01100052D00D9F4E0002BA7
:1018800039D1CD4B994236D8CC4BEA009B18002277
:10189000CB4908A806C3CB4B0E0005935B5D170030
:1018A0008346002B00D1ABE3720EFB011A431700F5
:1018B0000724F601C44B5B5D002B00D0ACE2C34BA8
:1018C00059461A685B68300000913900FFF7C4FE82
:1018D0000023029300935B4601945A6828000899FC
:1018E0009B68FFF701FB00200FB0F0BCBB46B2467F
:1018F000A946A046F0BD052F01D800F01EFF052720
:10190000B34EAE4C6368022B00D8A9E1002D01D183
:1019100000F036FCAC4B9A465A5D1B789A4200D1D7
:10192000B4E1E368022B00D9A7E1022B04D1A94B53
:10193000A2689A4200D9A0E16369022B00D9AFE105
:1019400004D1A44B22699A4200D9A9E1E369022B90
:1019500004D80CD19F4BA2699A4208D9032D00D11B
:1019600038E353465A5DDB789A4200D18EE1636AD0
:10197000022B04D80CD1974B226A9A4208D9042D25
:1019800000D131E353465A5D1B799A4200D17DE183
:10199000E36A022B00D98EE104D18E4BA26A9A42EF
:1019A00000D988E1874B98465B5D994608AB9B461A
:1019B0004B46002B00D1F6E1EB00E3181E605F60A0
:1019C000032F00D9E6E100D1E0E13B003200142111
:1019D000814804F077FB80460B00072800D0AAE27C
:1019E000002900D0A7E23B00320092197B419219F6
:1019F0007B4192185B4180279946100005927F0039
:101A00005A46002308975360013393605346494672
:101A10005A5DFEF77FFD53465A5D002398462B0022
:101A20002500444698462E686F6833003B4304D037
:101A300053461B5D934200D148E101340835062C22
:101A4000F1D1002A00D1DBE1012A00D04BE76A4640
:101A5000624B602193850023614800930BAA0233F7
:101A60000AF0DEFD00203FE7002B00D0D0E05D4B08
:101A7000994200D9CCE00024514B27001E004F4C66
:101A8000062D00D1CEE0236B626B134300D1C5E17C
:101A9000554B1A685B689146984632003B004846B1
:101AA000414604F00FFB01001A430120002A00D038
:101AB0001AE7C90700D517E730003900EB00E31833
:101AC000186059600123494A5B42801859410A1E37
:101AD00001D100F094FC012330003900444A5B42FC
:101AE000801859410A1E00D126E301233000390035
:101AF000404A5B42801859410A1E01D100F0D9FCCE
:101B00000123300039003C4A5B42801859410A1ECB
:101B100001D100F030FD012330003900374A5B422B
:101B2000801859410A1E01D100F097FD01233000B1
:101B30003900334A5B42801859410A1E01D100F036
:101B4000BAFD0123300039002E4A5B42801859410A
:101B50000A1E01D000F08FFD2B4B984201D900F0F6
:101B60008AFD33003C009B197C4127001E000124A4
:101B70003200B2463E1E03D1244B9A4200D29A460E
:101B800042464B461343524601D100F0F6FB330068
:101B90004846414604F096FA1A4301D000F03DFC55
:101BA00008A9831F8B46F82B00D991E6C0B2089094
:101BB0004A608A608CE6C0467E1A0600D81800206B
:101BC000801A0600D0240020A4290020A81A002092
:101BD00000C11A3D00E40B5400046BF4B180FFFF18
:101BE0006813002096281C00B01A002068D7E3FF75
:101BF000D0AEC7FFA05D8FFF40BB1EFF80763DFECD
:101C000000ED7AFC00DAF5F8FF250A0780F0FA0209
:101C1000032F3DD90324CE4B27001E00CD4C062DAB
:101C200000D030E7A36BE26B134300D10EE3CA4B45
:101C30001A685B689146984632003B004846414628
:101C400004F040FA01001A430120002A00D04BE6BC
:101C5000C90700D548E6300039002063616331E7E9
:101C6000022B04D1BD4B22689A4200D94EE6BC4BF0
:101C70009A46E368022B00D857E6012D00D1A1E275
:101C800053465A5D5B789A4200D055E601202BE618
:101C9000032F00D0F3E6AE4BB34200D3EFE6B9E733
:101CA000022D00D18CE153465A5D9B789A4200D0B8
:101CB0004CE6012018E6052D00D173E653465A790B
:101CC0005B5D9A4200D06DE601200DE60123A54A36
:101CD0005B4292197B411100002B00D13EE20123AF
:101CE000A14A5B4292197B411100002B00D165E3B0
:101CF00001239E4A5B4292197B411100002B00D1C7
:101D0000F1E101239A4A5B4292197B411100002BB9
:101D100000D1A4E30123974A5B4292197B41110051
:101D2000002B01D100F0DFFB0123934A5B429219A3
:101D30007B411100002B01D100F062FC01238F4A8E
:101D40005B4292197B411100002B01D000F0EAFBAD
:101D50008B4B994201D900F0E5FB300039000BAB09
:101D6000059A0093801979419B464B46FFF774FC16
:101D700001220023029300935B4601920ECBE0B256
:101D8000FFF7B2F8534642469A5C56E6704B9E42C5
:101D900000D81AE6B30FBA001A43B30091460027E1
:101DA000180005932CE604A903330B775946754BAD
:101DB00075481B780BAA0B700121012300915F313C
:101DC00005900AF02DFC4B465A4660210093059879
:101DD00001230AF02FFC032204A95B460A77023A8A
:101DE000AA401B78059893434B774B46602100939C
:101DF0000BAA02230AF014FC434601215955DBE5E6
:101E00006946624B60488B850092022360210BAAD1
:101E10000AF006FC002067E54F4B51E5EB00E418A3
:101E20000123300039005A4A5B422060616080180B
:101E300059410A1E00D173E1012330003900554A8F
:101E40005B42801859410A1E00D126E3012330006D
:101E50003900514A5B42801859410A1E00D177E38C
:101E60000123300039004D4A5B42801859410A1E57
:101E700001D100F0E5FB012330003900484A5B4204
:101E8000801859410A1E01D100F004FC01233000E2
:101E90003900444A5B42801859410A1E01D100F0C2
:101EA00024FC0123300039003F4A5B42801859412D
:101EB0000A1E01D000F0FCFB3C4B984201D900F017
:101EC000F7FB33003C009B197C4127001E000124D6
:101ED000B846002F03D1364B9E4200D21E00434627
:101EE00032001421334804F0EDF80123471C9F43CE
:101EF000FE2F00D9FE27320043463800002105F0AE
:101F000095FD142904D800D025E22B4B984206D920
:101F1000023F320043463800002105F087FD08AB40
:101F20009B4600235A460897536093600C4B5A5DBA
:101F3000FEF7F0FACCE439004246300005F076FDB9
:101F40004346DF011D4B89469C460590674457E593
:101F5000FFD5117ED8180020B01A002000E40B54E1
:101F6000A429002080E5F9FF00CBF3FF0096E7FFEE
:101F7000002CCFFF00589EFF00B03CFF006079FEB0
:101F8000FF9F8601D8D1001068130020B120000007
:101F900068D7E3FFD0AEC7FFA05D8FFF40BB1EFF39
:101FA00080763DFE00ED7AFC00DAF5F8FF250A07A1
:101FB00080F0FA02002375EE00046BF400FEFFFFD0
:101FC000E369022B00D9CCE404D1914BA2699A4277
:101FD00000D9C6E4636A022B00D9D3E404D18C4B48
:101FE000226A9A4200D9CDE4E36A022B00D965E661
:101FF00000D0D7E4864BA26A9A4200D95EE6D1E4CB
:10200000002300240693079403240BAB98461C700E
:1020100008AB9B465A467F4B7F481B786021137064
:102020000123424600939A4681460AF0F9FA0023BA
:102030005A4660210093484601330AF0FBFA5A469B
:102040001378424614705246AA4093434246537056
:10205000002360210093484602330AF0E1FA534618
:10206000059A5355079B002B72D001236B4A5B42A4
:1020700092197B411100002B00D1B1E10123684A84
:102080005B4292197B411100002B3ED00123654A2F
:102090005B4292197B411100002B00D1F1E1012339
:1020A000614A5B4292197B411100002B00D12DE265
:1020B00001235E4A5B4292197B411100002B00D143
:1020C000B2E201235A4A5B4292197B411100002B74
:1020D00000D049E2574B994200D945E2B6197F41F9
:1020E0000124FFF7E7FB544B994200D909E6F30EB0
:1020F000790119430BAB059A00939B4670014B463F
:10210000FFF7AAFA0522002334E64B4B9942BDD8CB
:10211000F20E7B011A43170005247601FFF7CAFB74
:10212000464B984200D987E6720EFB01F1011A4333
:102130000E0017000724CBE6414B984200D9D4E4A7
:10214000B20EBB01B1011A430E00170006240FE5C1
:102150003C4B069A9A4288D8FFF7A6FB394B994226
:1021600000D9BCE5730EF90119430BAB059A009336
:102170009B46F0014B46FFF76FFA07220023F9E573
:10218000E368022B00D937E104D1214BA2689A42BF
:1021900000D931E16369022B00D95CE104D11C4B09
:1021A00022699A4200D956E1E369022B00D9DEE1A7
:1021B00004D1174BA2699A4200D9D8E1224B9A4622
:1021C000FFF7D5FB6369022B00D96CE504D1104BF6
:1021D00022699A4200D966E5E369022B01D9FFF72B
:1021E000C0FB05D10A4BA2699A4201D9FFF7B9FB9E
:1021F000636A022B01D9FFF7C5FB01D0FFF7C8FBCB
:10220000034B226A9A4201D9FFF7BCFBFFF7C0FBE0
:1022100000E40B54D8D100106813002000CBF3FF6A
:102220000096E7FF002CCFFF00589EFF00B03CFF58
:10223000006079FEFF9F8601FF69180097281C0047
:102240002F5138007F1A0600A429002001233000F6
:102250003900D04A5B4220636163801859410A1EED
:1022600000D134E1012330003900CB4A5B428018B1
:1022700059410A1E00D1B7E1012330003900C74A95
:102280005B42801859410A1E00D1F7E1012330005A
:102290003900C34A5B42801859410A1E00D118E236
:1022A000012330003900BF4A5B42801859410A1EA1
:1022B00000D128E2012330003900BB4A5B4280187C
:1022C00059410A1E00D12CE2012330003900B74ADF
:1022D0005B42801859410A1E00D020E2B44B98425C
:1022E00000D91CE233003C009B197C4127001E00F2
:1022F0000124B846002F03D1AE4B9E4200D21E00EF
:10230000434632001421AC4803F0DCFE0123471C95
:102310009F43FE2F00D9FE2732004346380000219C
:1023200005F084FB142903D87BD1A44B984206D92D
:10233000023F320043463800002105F077FB08AB2E
:102340009B4600235A460897536093600122FEF78C
:10235000E1F8FFF7BDFA0D2900D9E0E503D1984B6C
:10236000984200D9DBE502374346380032000021AD
:1023700005F05CFBFF231F40D1E5330014218E489C
:1023800003F0A0FE0123471C9F43FE2F00D9FE2728
:10239000524633003800002105F048FB142903D8C9
:1023A0004FD1864B984200D9023F08AB9B46002391
:1023B0005A46089753609360FFF78AFA814B994217
:1023C00000D995E4B30EB90119430BAB059A0093FC
:1023D0009B46B0014B46FFF73FF906220023C9E4B4
:1023E000784B994200D949E6B20EBB011A43170057
:1023F0000624B601FFF75EFA734B9A4640E4734B2E
:10240000984201D9FFF767FB720EFB01F1011A43F5
:102410000E0017000724FFF7ABFB08AB9B46FFF746
:1024200057FA0D298BD802D1654B984287D80237CD
:10243000434638003200002105F0F8FAFF231F4020
:102440007DE70D29B1D802D15D4B9842ADD8FF236D
:1024500002371F40A9E75C4B9A46FFF724FC5C4B10
:10246000994200D956E4330F390119430BAB059A51
:1024700000939B4630014B46FFF7EEF80422002301
:1024800078E4534B994200D909E6320F3B011A43D5
:10249000170004243601FFF70DFA4E4B984200D97D
:1024A000D4E4B20EBB01B1011A430E00170006249A
:1024B0000EE5494B984201D9FFF722FBF20E7B0152
:1024C00071011A430E0017000524FFF751FB3F4B23
:1024D000984200D9C6E6720EFB01F1011A430E00C4
:1024E0001700072405E73D4B994201D9FFF71CFC73
:1024F000730FF90019430BAB059A00939B46F0004C
:102500004B46FFF7A9F80322002333E4334B9942EB
:1025100000D9CDE5720FFB001A4317000324F60023
:10252000FFF7C8F90BAB00939B4630004B463900D0
:10253000059AFFF791F80123032F01D804D0002357
:102540000022DBB2FFF716FC254A9642F8D8F6E7E0
:10255000214B984200D983E4F20E7B0171011A43AA
:102560000E0017000524B3E40024FFF7A3F9164B6F
:102570009A46FFF7F6F91B4B984201D9FFF7CBFAC1
:10258000320F3B0131011A430E0017000424FFF7FC
:10259000EFFAC04668D7E3FFD0AEC7FFA05D8FFF5C
:1025A00040BB1EFF80763DFE00ED7AFC00DAF5F8B8
:1025B000FF250A0780F0FA02002375EE00046BF491
:1025C000FF5747F8FF340C00A429002097281C006F
:1025D000FFD330002F5138005FA27000FFA76100C9
:1025E000FFD5117EBF44E100674B984200D943E616
:1025F000B20EBB01B1011A430E001700062478E6A3
:10260000624B994201D9FFF799FBB30FB900194307
:102610000BAB059A00939B46B0004B46FFF71CF8A6
:1026200002220023FFF7A6FB584B994200D948E548
:10263000B20FBB001A4317000224B600FFF73AF9A5
:10264000534B984201D9FFF716FC320F3B01310181
:102650001A430E00170004243AE44E4B984201D965
:10266000FFF764FA720FFB00F1001A430E00170027
:102670000324FFF77DFA0024FFF77AFA464B9842CD
:1026800000D903E6F20E7B0171011A430E00170018
:1026900005242EE63F4B984201D9FFF7F7FB720F56
:1026A000FB00F1001A430E0017000324FFF710FC93
:1026B0000024FFF70DFC394B984201D9FFF741FA8E
:1026C000B20FBB00B1001A430E0017000224FFF73F
:1026D0004FFA2F4B984200D9E2E5320F3B0131010E
:1026E0001A430E001700042403E62C4B984201D92C
:1026F000FFF7D7FBB20FBB00B1001A430E00170063
:102700000224FFF7E5FB234B984200D9D2E5720F74
:10271000FB00F1001A430E0017000324E9E5002432
:10272000E7E51E4B984200D9CEE5B20FBB00B100E1
:102730001A430E0017000224DBE5052F04D1184BC5
:102740009E4201D9FFF7DBF8022F01D9FFF7D9F834
:1027500014D00123134A5B4292197B4106920793DE
:10276000114BEA009B181E605F60104B08AA05938E
:102770005B5D9346002B00D074E445E40C4B9E4215
:10278000E7D9FFF7BEF8C0462F513800FF4FC3000E
:10279000BF44E1007F89C2015FA27000FF12850380
:1027A00000C11A3D80E5F9FFD8180020D024002090
:1027B00000E40B54F0B50668476801253F4C6D42B4
:1027C000A4197D41002D34D001253D4C6D42A41942
:1027D0007D41002D38D001253A4C6D42A4197D4130
:1027E000002D47D00125384C6D42A4197D41002DA4
:1027F00035D00125354C6D42A4197D41002D46D0C0
:102800000125334C6D42A4197D41002D4AD001258C
:10281000304C6D42A4197D41002D36D12E498C4299
:1028200033D832003B0092197B41026043600120A3
:1028300009E02A498C42C7D8710EFB010B43F20113
:10284000436002600720F0BD25498C42C3D8B10E19
:10285000BB010B43B201436002600620F3E721494C
:102860008C42C6D8310F3B010B43320143600260FA
:102870000420E8E71C498C42B4D8F10E7B010B43DD
:102880007201436002600520DDE70020DBE71749A5
:102890008C42B5D8710FFB000B43F200436002601D
:1028A0000320D0E712498C42B1D8B10FBB000B43D3
:1028B000B200436002600220C5E7C04680E5F9FF30
:1028C00000CBF3FF0096E7FF002CCFFF00589EFFE0
:1028D00000B03CFF006079FEFF9F86017F1A060072
:1028E000FF340C00FFD33000FF691800FFA7610020
:1028F000FF4FC300F0B516001F0004000D000200DA
:102900000B00A41BBD4192197B41122189B0069492
:1029100007952348234C244E0492059300222060FF
:10292000616030607160FDF7F5FD04A8FFF742FFBC
:102930001E4D287006A8FFF73DFF1D4B187022683A
:1029400063681C4C049805990094FEF785FE326874
:10295000736806980799184E00960026FEF77CFECD
:1029600002962B7800960193A36821686268002084
:10297000FEF7BAFA0020FEF749FE02962B78009681
:1029800001930ECC0020FEF7AFFAD02380221B0665
:1029900012029A618022D2015A6109B0F0BDC0468C
:1029A00000205FA020100020A01A0020082A00208C
:1029B000092A0020682900207429002000B585B06C
:1029C000002812D1134A02901278134B0192009002
:1029D0000ECBFEF789FAD02380221B0612025A6121
:1029E0008022D2019A6105B000BD00220B490292FB
:1029F00009780B4B019100920ECB0020FEF774FA80
:102A0000D02380221B0612029A618022D2015A61D1
:102A1000E9E7C046092A002074290020082A00207E
:102A20006829002010B5002803D10021FEF76AFDB7
:102A300010BD01210020FEF765FDF9E7010010B58A
:102A40000020032900D910BD024B1970FEF79AFD32
:102A50000120F8E7FF290020F8B5DE4657464E462C
:102A60004546E0B52A4E0700335C9B06DB0F9846CF
:102A7000284B9B461B68434501D1002946D00020C6
:102A8000FFF79CFF802343449A4601230024994684
:102A9000214D0021288802F045FF5346F05C4B464B
:102AA000204101341840FFF789FF052CF1D10021A6
:102AB000288802F037FF0120FFF780FF5B4642467F
:102AC0001A60164B0021188802F02CFF0020FFF737
:102AD00075FF0123002498460021288802F022FF78
:102AE000F05D4346204101341840FFF767FF052C95
:102AF000F2D12888002102F015FF0120FFF75EFFC8
:102B0000F0BCBB46B246A946A046F8BD024DDDE783
:102B1000281000205C2900200C1000200A10002042
:102B2000124B10B5188804F0BFFF011C104804F0C8
:102B3000A0FF104904F097FF04F0DEFF0E4A0F4B90
:102B4000944680B2188060440D4B400018800D49B7
:102B50000D4B086849681A685B68FFF7CBFE0120D7
:102B6000FFF72CFF0120FFF75DFF10BD0E100020C6
:102B70000024744900005244B8FCFFFF0C100020F0
:102B80000A1000201810002010100020114B10B562
:102B9000188804F089FF011C0F4804F06AFF0F49F0
:102BA00004F061FF04F0A8FF0D4A0E4B944680B27A
:102BB00018800D4B6044400018800C490C4B08688D
:102BC00049681A685B68FFF795FE0120FFF7F6FE7B
:102BD00010BDC0460E10002000247449000052446D
:102BE000B8FCFFFF0C1000200A1000201810002075
:102BF000101000200B4B10B5188004F055FF011C7D
:102C0000094804F036FF094904F02DFF04F074FF71
:102C1000074A084B944680B21880074B6044400036
:102C2000188010BD0E10002000247449000052448A
:102C3000B8FCFFFF0C1000200A10002010B5054B57
:102C4000002218685968FEF707FE0020FFF7EAFE29
:102C500010BDC046181000200F4B10B518685968F9
:102C60000022FEF7F9FD0D4B0D4C187804F01CFF07
:102C70000C4904F0FEFE0C4904F00FFF011CFE207D
:102C8000800504F0F6FE094904F007FF04F03AFF5E
:102C90002060616010BDC0461810002008100020A0
:102CA00000100020000070420000484200247449D7
:102CB0000C4B10B5187004F0F7FE0B4904F0D9FE68
:102CC0000A4904F0EAFE011CFE20800504F0D1FE52
:102CD000074904F0E2FE04F015FF064C2060616035
:102CE00010BDC0460810002000007042000048429D
:102CF0000024744900100020F8B50300DE46574652
:102D00004E464546613BE0B5192B4FD84038C3B21B
:102D10002A4A9B009A5892019146294A9D580635A5
:102D200024D4012398468023D026DB019A46254FE0
:102D300036064B462C00EB40203CE4171C40434633
:102D400023409B461800FFF76DFE5B46002B16D014
:102D50005346736180231B02736143463868796868
:102D60001C4216D102F0DEFD013DE2D20020FFF749
:102D700059FEF0BCBB46B246A946A046F8BD534634
:102D8000B36180231B02B3614346386879681C42F3
:102D9000E8D0CB0740081843490802F0C3FD386863
:102DA000796802F0BFFD013DC3D2DFE72038C0B231
:102DB0001F233B28ACD80300AAE7C0469811002087
:102DC000AC1000200010002010B507F00FF900280B
:102DD00009D1012002F0DAFD02F09AFD002902D1AA
:102DE000034B9842F1D9034806F0E6FD10BDC046FA
:102DF000404B4C0014D20010F0B5D6464F46464624
:102E0000C0B500293DD08246214B00209A444B1E7C
:102E1000994600211EE003F0F9FB02000B000020A0
:102E20001C4904F001F8434606000F0058B203F0B5
:102E3000EDFB32003B0003F072FB2B00220003F09D
:102E400047FB03F037FC01239C464B46E244013B21
:102E500019D3994603F022FC5346040018780D005C
:102E60003038C3B298464846092BD4D903F0CEFB7C
:102E700002000B000020074903F0D6FF00220023C8
:102E8000D9E700200021E0BCBA46B146A846F0BD13
:102E90000025002000002440F0B5DE4657464E468F
:102EA0004546E0B5A84B8BB01A78682A58D15A78B5
:102EB000652A00D00FE19A786C2A00D00BE1DA780D
:102EC000702A00D007E1A14806F0FAFDA04806F0FC
:102ED00073FDA04806F070FD9F4806F06DFD9F4809
:102EE00006F06AFD9E4806F067FD9E4806F064FD08
:102EF0009D4806F061FD9D4C200006F05DFD200020
:102F000006F05AFD9A4806F057FD9A4806F054FD1F
:102F1000994806F051FD994806F04EFD984806F094
:102F20004BFD984806F048FD974806F045FD974848
:102F300006F042FD964806F03FFD964806F03CFD3F
:102F4000954806F039FD954806F036FD944806F0A0
:102F500033FD0BB0F0BCBB46B246A946A046F0BD5F
:102F6000632A00D098E15A786F2A0ED19A786E2A97
:102F70000BD1DA78662A08D11A79692A05D15A79EB
:102F8000672A02D1FDF7A8F9E3E75A78662A00D04C
:102F900022E19A78722A00D09DE0DA78652A00D082
:102FA00099E01A79712A00D095E05A79202A00D048
:102FB00091E09A79303A092A6FD8DA79303A092AB9
:102FC0006BD81A7A303A092A67D85A7A303A092ADD
:102FD00063D89A7A303A092A5FD8DA7A303A092ADD
:102FE0005BD81A7B303A092A57D85A7B303A092ADB
:102FF00053D89A7B303A092A4FD89A1D91460F220E
:103000009246013A9046002400259A44984421E0D3
:1030100043464A46981A03F0F9FA02000B000020D2
:10302000604903F001FF5B460090019158B203F044
:10303000EDFA009A019B03F072FA3B00320003F0B4
:1030400047FA03F037FB01239C46E14404000D00DE
:10305000D1451AD02000290003F020FB4B46060082
:1030600018780F003038C3B29B46092BD0D943469D
:103070004A46981A03F0CAFA02000B000020494998
:1030800003F0D2FE00220023D5E70123464A5B422B
:1030900012196B411100002B03D0444806F08CFC40
:1030A00057E7434B9942F8D8424B43481C605D6058
:1030B0002B00220006F004FD404B1B78012B40D072
:1030C000022B01D1FFF762FDFF2000F0FFFE40E779
:1030D000732A00D17BE3002239499C5C885C8442DE
:1030E00000D044E30132062AF7D1344C2378002B78
:1030F00000D0B1E3D02404252406324806F05CFC5D
:103100006420656102F042FCA56122E79422431F1E
:103110009BB25200934200D31AE1FFF76BFD2A4B9A
:103120002A48198806F0CCFC294B2A481988D22352
:103130009B009C46614406F0C3FC204B1B78012B8E
:10314000BED1FFF789FDBFE7002500202CD200107B
:1031500034D2001048D200107CD2001090D200105F
:10316000B0D20010E8D2001040D3001094D3001069
:10317000A4D30010B8D30010C8D30010E4D30010BB
:1031800008D400103CD400107CD40010ACD4001043
:10319000E8D4001018D5001040D5001084D50010D8
:1031A000DCD1001000002440F0D8FFFF08D600104A
:1031B000F09AEB0B18100020E4D50010012A002033
:1031C0001CD9001024D900100E100020A0D500102A
:1031D0000C100020BCD50010772A00D07BE79A782D
:1031E000732A00D077E7DA78702A00D073E71A796B
:1031F000652A00D06FE75A79652A00D06BE79A7983
:10320000642A00D067E7DA79202A00D063E7187AC9
:103210003038C0B2092837D85B7A303BDBB29846E9
:10322000092B31D840B203F0F1F90022CF4B03F063
:1032300076F90022002303F04BF903F03BFA03F088
:103240002DFA4346060058B20F0003F0DFF90200E2
:103250000B003000390003F03BF903F02BFA012298
:103260005242D31704000D0012196B41002B0FD1ED
:10327000622A0DD8BE4CC0B22070FFF719FD21782C
:10328000BC4806F01DFC1FE7BB4806F095FB1BE79A
:10329000BA4806F091FB17E7622A5DD15A78612A95
:1032A00000D018E79A78752A00D014E7DA78642AF3
:1032B00000D010E71A79202A00D00CE75A79303A6A
:1032C000092A45D89A79303A092A41D8DB79303B26
:1032D000092B3DD8AA4B00209A460223994620E0AC
:1032E00003F094F902000B000020A04903F09CFDBC
:1032F000434606000F0058B203F088F932003B0045
:1033000003F00DF92B00220003F0E2F803F0BAF904
:1033100001239C464B4680B2E244013B00D2F5E6D5
:10332000994603F073F95346040018780D003038BD
:10333000C3B298464846092BD2D903F067F9020078
:103340000B000020894903F06FFD00220023D7E71E
:103350008C4806F031FBFCE5732A00D09AE05A78DD
:10336000662A00D021E19A78722A00D01DE1DA782D
:10337000652A00D019E11A79712A00D015E15A792D
:10338000202A00D011E19A79303A092A00D984E63E
:10339000DA79303A092A00D97FE61A7A303A092ACE
:1033A00000D97AE65A7A303A092A00D975E69A7A2B
:1033B000303A092A00D970E6DA7A303A092A00D977
:1033C0006BE61A7B303A092A00D966E65A7B303A16
:1033D000092A00D961E69A7B303A092A00D95CE6CD
:1033E0009A1D91460F229246013A934600240025E9
:1033F0009A449B4421E05B464A46981A03F006F93A
:1034000002000B000020594903F00EFD43460090D6
:10341000019158B203F0FAF8009A019B03F07FF88B
:103420003B00320003F054F803F044F901239C46BA
:10343000E14404000D00D1451AD02000290003F01A
:103440002DF94B46060018780F003038C3B2984665
:10345000092BD0D95B464A46981A03F0D7F80200E8
:103460000B000020414903F0DFFC00220023D5E7D8
:1034700005225242D31712196B411100002B00D0C4
:103480000BE6414B994200D907E6404B40481C608F
:103490005D600DE6742A00D0B5E05A78782A23D111
:1034A0009A78652A20D1DA786E2A1DD11A79202AD5
:1034B0001AD158793038C0B2092811D840B203F077
:1034C000A5F80022002303F003F803F0F3F8084303
:1034D00045D10020FFF7A6FA2E4806F06DFA38E530
:1034E000254806F069FA34E55A78782A00D0F2E5E2
:1034F0009A786D2A00D0EEE5DA786F2A00D0EAE5F6
:103500001A79642A00D0E6E55A79652A00D0E2E506
:103510009A79202A00D0DEE5D8793038C0B209285F
:10352000DED840B203F072F80022002302F0D0FF90
:1035300003F0C0F800295FD102285DD8164CC3B251
:103540002370012B5CD0022B01D1FFF7E9FAFF2099
:1035500000F0BCFC2178114806F0B2FAF9E4012031
:10356000FFF760FA0E4806F027FAF2E40000244064
:10357000081000203CD6001064D6001054D600106D
:1035800005250020D0D500100B27000010100020CA
:103590001CD6001074D60010012A0020ACD60010F2
:1035A00080D60010732A00D0E6E05A78612A00D055
:1035B0000DE19A78762A00D009E1DA78652A00D000
:1035C00005E11A79702A00D001E15A79202A00D049
:1035D000FDE09B79303B092B00D981E701210620D2
:1035E000FFF70AFCC0B200F071FC002800D1B9E07E
:1035F000C54806F0E1F9ACE4C44806F0DDF9A8E4FA
:10360000FFF71CFBA3E76D2ACCD15A78612A1CD1A5
:103610009A786E2A19D1DA78722A16D11A79742A10
:1036200013D15A79742A10D19A79792A0DD1DA797D
:10363000742A0AD11A7A782A07D1B54B1B78022B43
:1036400048D0B44806F0B8F983E45A78612A00D02B
:1036500041E59A786E2A00D03DE5DA78632A00D0F9
:1036600039E51A79772A00D035E55A79742A00D0DD
:1036700031E59A79782A00D02DE5A54B1B78012BEE
:10368000DFD12020FFF738FBD02380221B069201D8
:103690005A61002006F0FAF845B20400AB1C5DD078
:1036A0000A2D13D00D2D11D0280006F03BF9E0B201
:1036B000FFF722FB032DECD1D02380221B069201C1
:1036C00003219A61944806F0FBF942E40A2006F0CF
:1036D00029F9DEE701212020FFF7BEF9D02380225F
:1036E0001B0692018D4E8E4F5A61002006F0CEF8D7
:1036F00045B20400AB1C2DD00A2D12D00D2D10D0D8
:10370000280006F00FF90021E0B2FFF7A5F9318893
:10371000844802F071FCC11702F004F9032DE4D1D2
:10372000CAE70A2006F0FEF800210A20FFF794F904
:103730003B8800219800C01802F0F4F800210D2009
:10374000FFF78AF93188774802F056FCC11702F07A
:10375000E9F8CAE7012002F019F9C6E7012002F0F2
:1037600015F996E7704806F027F9FFF7F2FB6F4866
:1037700006F022F9FFF7EDFB6C2A00D003E15A783E
:103780006F2A00D0A7E49A78612A00D0A3E4DA78FF
:10379000642A00D09FE41A79702A00D09BE45A79F9
:1037A000202A00D097E49B79303B092B00D997E67B
:1037B00001210620FFF720FBC0B200F035FD0028F4
:1037C00000D1DBE05A4806F0F7F8FFF7C2FB5A7861
:1037D000652A00D07FE49A78742A00D07BE4DA78F6
:1037E000742A00D077E41A79652A00D073E45A79F4
:1037F000782A00D06FE49A79742A00D06BE4002014
:1038000006F044F84B4C02AE20702022002130001C
:1038100004F054FA0025002006F038F841B2217077
:103820008B1CF8D0082900D19FE0032900D18DE03E
:103830000A2950D00D294ED01F2D48D82038C0B2AB
:103840005E2844D8080006F06DF8237873550135DA
:10385000EDB200232370DEE7374806F031F9374B2D
:1038600000259846364F03E0785D06F05BF8013599
:1038700043461B78AB42F7DC324806F09DF82D4BEF
:103880003D000026994613E0022B06D1002E00D001
:10389000ACE001213878FFF7DFF8002005F0F6FFF3
:1038A0004B4640B218700135032800D1A3E0013621
:1038B00043461B78B34200DCA5E0287806F032F8D6
:1038C0002378012BE0D12878FFF716FAE5E70120ED
:1038D00002F05CF8BDE70023194A02E0F15CD15424
:1038E00001339D42FADC154BFF201D70002323702D
:1038F00000F0ECFA144806F05FF8002005F0C6FF6F
:103900000230FAD1FFF725FBD0D60010BCD600104C
:10391000012A00208CD60010F0D000100E100020DC
:103920000A10002040420F00E0D60010ACD9001071
:103930001CD70010FC29002060D90010D80F0020EF
:10394000DC0F002078D9001000D90010654806F07F
:10395000B7F800236448237006F0B2F8002005F0A1
:1039600095FF0230FAD1FFF7F4FA002DAFD00A002C
:10397000013D5E48EDB206F0A3F86AE75C4806F048
:103980001BF8FFF7E6FA642A01D0FFF7A1FB5A788B
:10399000722A51D19A78692A4ED1DA78762A4BD197
:1039A0001A79652A48D15A79732A45D19A79202AF9
:1039B00042D1DB79303B092B00D991E50121072069
:1039C000FFF71AFAC4B2032C31D82000FFF736F8FB
:1039D000484806F075F8022C24D0032C1DD0012C89
:1039E00016D0454805F0E8FFFFF76EFB0021287868
:1039F000FFF732F851E7414806F062F8002005F081
:103A000045FF0230FAD10A2005F08CFFFFF7A1FA3A
:103A10003B4805F0D1FFFFF757FB3A4805F0CCFFD4
:103A2000FFF752FB384805F0C7FFFFF74DFB37485B
:103A300005F0C2FFFFF78DFA5A78652A01D0FFF72B
:103A40004AFB9A78662A01D0FFF745FBDA78612AAB
:103A500001D0FFF740FB1A79752A01D0FFF73BFB35
:103A60005A796C2A01D0FFF736FB9A79742A01D073
:103A7000FFF731FB264805F09FFF264805F09CFF25
:103A8000254805F099FF254805F096FF002005F030
:103A9000FDFE234C234D2070002005F0F7FE40B2C0
:103AA00003004E3BDBB220702B2BF5D89B00EB586C
:103AB0009F461D4805F080FF01F056F81B4805F0B1
:103AC0007BFFFFF746FA184805F076FF00F062FE2C
:103AD000174805F071FFFFF73CFA164805F06CFF38
:103AE000FFF737FAE8D8001010D20010E0D8001025
:103AF0002CD7001068D7001080D7001094D9001080
:103B000088D7001098D7001090D70010A0D70010C9
:103B1000B8D70010F0D7001018D8001050D80010F7
:103B2000FC290020DCDB001078D800109CD80010A5
:103B3000B4D80010CCD8001070B5002005F0A6FE57
:103B4000224C42B22270931C20D0082A15D00A2A97
:103B500025D00D2A23D01E4D2B781F2B11D82038AD
:103B6000C0B25E280DD8100005F0DCFE2B78194A93
:103B70002178D15401332B7006E0154A1378002BBD
:103B800005D1012001F002FF0023237070BD013B2D
:103B9000137008210822104805F092FFF4E70A206C
:103BA00005F0C0FEFFF778F90022094B22701A7069
:103BB00000210848203204F081F8084805F080FF11
:103BC000002005F063FE0230FAD1DFE7FC29002077
:103BD000FE29002000250020E0D8001010D200109F
:103BE000F0B5CE46474680B500270500914685B022
:103BF000414E03AC984643BA2380A27003232200AF
:103C000050213000009708F00BFD052001F0BEFEAA
:103C10006B1C5BBA23804B461B0A2200A370502109
:103C200003233000009708F0FBFC052001F0AEFEF6
:103C3000AB1C5BBA23804B461B0C2200A3705021A7
:103C400003233000009708F0EBFC052001F09EFEF6
:103C5000EB1C5BBA23804B461B0E2200A370502145
:103C600003233000009708F0DBFC052001F08EFEF6
:103C70002B1D5BBA238043462200A37050210323EF
:103C80003000009708F0CCFC052001F07FFE6B1D92
:103C90005BBA238043461B0A2200A37050210323F2
:103CA0003000009708F0BCFC052001F06FFEAB1D52
:103CB0005BBA238043461B0C2200A37050210323D0
:103CC0003000009708F0ACFC052001F05FFE434691
:103CD00007356DBA1B0EA3702200032350212580E7
:103CE0003000009708F09CFC052001F04FFE05B065
:103CF000C0BCB946B046F0BD68130020F0B5DE4642
:103D000057464E464546E0B5030085B06A46073340
:103D10005BBA0B2400279381012380466A4E6C44D2
:103D20009946277003AA009350213000013308F010
:103D300077FC2200012350213000009708F07AFC24
:103D400023786A461B029A46434606335BBA938140
:103D50004B46277003AA009350213000013308F02E
:103D60005FFC2200012350213000009708F062FC24
:103D7000534625786A461D43434605335BBA938113
:103D80004B46277003AA009350213000013308F0FE
:103D900047FC2200012350213000009708F04AFC24
:103DA00023782D021D4343466A4604335BBA938150
:103DB0004B46277003AA009350213000013308F0CE
:103DC0002FFC2200012350213000009708F032FC24
:103DD00023782D022B432A0E1D02434692466A4643
:103DE00003335BBA93814B46277003AA009350219B
:103DF0003000013308F014FC220001235021300070
:103E0000009708F017FC514622782B0E2A430D022A
:103E10001D4313029B4643466A4602335BBA9381B5
:103E20004B46277003AA009350213000013308F05D
:103E3000F7FB2200012350213000009708F0FAFB25
:103E40005B4622782D021A431B0E1D4313029A462D
:103E500043466A4601335BBA93814B46277003AAF7
:103E6000009350213000013308F0DAFB22000123D7
:103E700050213000009708F0DDFB534622782D02D8
:103E80001A431B0E1D4313029A4643466A465BBA09
:103E900093814B46277003AA0093502130000133D1
:103EA00008F0BEFB0123220050213000009708F0EB
:103EB000C1FB534629002078184305B0F0BCBB462F
:103EC000B246A946A046F0BD68130020F0B5D6461C
:103ED0004F464646C0B584B0072800D89FE0FF286B
:103EE00011D0D024042524069B4805F065FD6420EC
:103EF000656101F04BFD0020A56104B0E0BCBA464D
:103F0000B146A846F0BD0025944B954E1B7803ACF6
:103F100050212200A370258003233000009508F073
:103F20007FFB052001F032FD8E4B01201A685B6893
:103F3000FFF756FE8C4B09201A685B68FFF750FEAE
:103F40008A4B22001F8888235B0150212380A770A1
:103F500003233000009508F063FB052001F016FDF7
:103F600090233F0A5B01220050212380A770032386
:103F70003000009508F054FB052001F007FD982261
:103F80007B4B52011B7850212280A3702200032317
:103F90003000009508F044FB052001F0F7FCA0225A
:103FA000744B52011B7850212280A37022000323FE
:103FB0003000009508F034FB052001F0E7FCF82202
:103FC0006D4B520198461B782280A3702200032378
:103FD00050213000009508F023FB052001F0D6FCAD
:103FE00043461B78002B18D0644B002799464B465C
:103FF0002A005B5D20326270A370220003235021EF
:1040000027703000009708F00BFB052001F0BEFC84
:1040100043461B780135AB42E9DC01206DE7002700
:104020004E4B013085014E4E1B7803AC6ABA5021CD
:104030002280A370220003233000009708F0F0FADA
:10404000052001F0A3FC474B681C1A685B68FFF76A
:10405000C7FD2800444B09301A685B68FFF7C0FDB4
:10406000424B22001B88502198462B0011335BBA2B
:10407000238043463000A3700323009708F0D0FA52
:10408000052001F083FC2B0012335BBA23804346EA
:104090001B0A22005021A37030000323009708F070
:1040A000BFFA052001F072FC314B50211A782B0029
:1040B00013335BBA2380A2700323220030000097E1
:1040C00008F0AEFA052001F061FC2A4B50211A7865
:1040D0002B0014335BBA2380A2700323220030002C
:1040E000009708F09DFA052001F050FC224B50216A
:1040F0001A7898462B001F335BBA2380A2700323E3
:1041000022003000009708F08BFA052001F03EFCF9
:1041100043461B78002B00D17FE7184B00279946B8
:1041200000239A4620354B46DB5D6ABAA37053469E
:1041300022805021220000933000032308F070FAFF
:10414000052001F023FC43461B7801350137ADB251
:10415000BB42E8DC0120D0E6D4D90010012A0020BF
:104160006813002018100020101000200E100020EE
:1041700008100020FF290020D80F0020DC0F0020AD
:1041800070B5274C2378DA0734D5D0228021120667
:10419000490251619A0727D5D0228021120689024F
:1041A00051615B071AD5D02380221B06D2025A61C7
:1041B000D0231B065A68802315005B031D401A425A
:1041C00003D1184E3378012B1AD0D0231B065B681D
:1041D000DB0202D50122134B1A7070BDD02380225E
:1041E0001B06D2029A61E3E7D022802112068902DF
:1041F0009161D6E7D0228021120649029161C9E778
:10420000642001F0C3FB07222900237835700133B5
:10421000DBB29A4269414A4213402370DDE7C0464F
:10422000A6120020A5120020F0B5DE4657464E46E5
:104230004546E0B587B0072800D8E5E0FF2812D052
:10424000D02404252406E44805F0B6FB642065610B
:1042500001F09CFB0020A56107B0F0BCBB46B24654
:10426000A946A046F0BD02AB9C4600230B240026C5
:1042700099460123D94F644405AD98462A00502140
:1042800026702E8038000093013308F0C9F901230D
:10429000220050213800009608F0CCF9D04A23784B
:1042A000012013700392FFF729FDCE4B186059606F
:1042B0000920FFF723FDCC4B2A00186059604B46BC
:1042C000237090235B012B804346502100933800DC
:1042D000013308F0A5F9012322005021380000968F
:1042E00008F0A8F923782A001B029A464B4623704F
:1042F00088235B012B804346502100933800013313
:1043000008F08EF90123220050213800009608F0B1
:1043100091F92278B54B52441A804B46237098236A
:104320005B012B8043462A00502100933800013363
:1043300008F076F90123220050213800009608F099
:1043400079F92278AA4B50211A704B462370A0238A
:104350005B012B8043462A0000933800013308F0AC
:104360005FF90123220050213800009608F062F91D
:104370002278A04B50211A704B462370F8235B0122
:104380002B8043462A0000933800013308F048F997
:104390000123220050213800009608F04BF9964B7B
:1043A00022789B461A70002A24D0944B0026994606
:1043B0000023984601339A46434623702B703300FE
:1043C00020336B7053462A0050210093380002239B
:1043D00008F026F9434622000093502101233800BB
:1043E00008F028F94A46237893555B461B78013636
:1043F000B342E1DC039B1B78012B00D1E4E0022BEC
:1044000000D1E5E0012027E702AB9C460B24002306
:10441000013064448601984605AD237073BA2B8041
:1044200001236E4F99462A00502100933800013332
:1044300008F0F6F84346220050210093380001337B
:1044400008F0F8F8664A2378701C13700392FFF79F
:1044500055FC644B1860596030000930FFF74EFC82
:10446000614B2A00186059604346237033001233B1
:104470005BBA2B804B46502100933800013308F083
:10448000CFF843462200502100933800013308F052
:10449000D1F823782A001B029A4643462370330042
:1044A00011335BBA2B804B46502100933800013307
:1044B00008F0B6F84346220050210093380001333B
:1044C00008F0B8F82278494B52441A8043462370CA
:1044D000330013335BBA2B804B462A0050210093E4
:1044E0003800013308F09CF8434622005021009325
:1044F0003800013308F09EF822783D4B50211A70A5
:1045000043462370330014335BBA2B804B462A009A
:1045100000933800013308F083F84346220050210D
:1045200000933800013308F085F82278314B502190
:104530001A704346237033001F335BBA2B804B46FF
:104540002A0000933800013308F06AF8434622003D
:10455000009350210133380008F06CF8264B227884
:104560009B461A70002A00D144E700239846234B4B
:104570002036994600239A463B002F0025004446EA
:10458000984653462B7073BA3B8001233A00502162
:1045900000934046013308F043F853462A00009345
:1045A00050210123404608F045F84A462B78013651
:1045B00013555B461B780134B6B2A342E1DC039B82
:1045C0001B78012B00D01AE7FEF738FB012043E6E9
:1045D000FEF7A6FA01203FE608DA00106813002073
:1045E000012A002018100020101000200E100020BA
:1045F00008100020FF290020D80F0020DC0F002029
:10460000F8B5D024CE4647462406636880B55B02E1
:1046100003D4564D2E78012E0BD0D0231B065B6899
:104620005B0202D50122514B1A70C0BCB946B0469C
:10463000F8BD802780237F029B02676199466361F2
:104640008023DB0264206361984601F09FF94B46AA
:10465000A761A36143466420A36101F097F9444B2D
:1046600098461B781E4227D067619A0773D5D022DF
:1046700080211206890251615B0766D5D023802212
:104680001B06D2025A61322001F080F943461878A5
:10469000FFF7CAFD0023374F2B703B78002B0DD15D
:1046A000D02404252406344805F086F96420656189
:1046B00001F06CF9A561B8E7A761D6E72F4805F0CE
:1046C000FFF92F4E3378002B0AD02E4B002498464A
:1046D0004346185D05F026F933780134A342F7DC30
:1046E000294805F069F93378002B2AD0254B00259D
:1046F00098461C0013E0022B06D1002D31D1434611
:1047000001211878FEF7A8F9002005F0BFF840B2A3
:1047100003280ED0337801350134AB4211DD207807
:1047200005F000F93B78012BE5D12078FEF7E4FA9B
:10473000EAE7164805F0C4F9002005F0A7F80230B2
:10474000FAD1134805F0BCF96FE7D02380221B068D
:10475000D2029A6197E7D0228021120689029161E4
:104760008AE700212078FEF777F9CDE7A412002030
:10477000A6120020012A002024D9001060D90010C0
:10478000D80F0020DC0F002078D9001094D9001039
:104790003CDA0010F0B55746DE4645464E4600234B
:1047A000E0B500279B469A46ED4B87B09846ED4B07
:1047B00005AC039353461B0A23705B46220050212D
:1047C0006370A77003234046009707F029FF052078
:1047D00001F0DCF8534601339BB21B0A23705B46A1
:1047E00001336370602322005021A37040465D3B7B
:1047F000009707F015FF052001F0C8F85346023373
:104800009BB21B0A23705B4602336370562322005F
:104810005021A3704046533B009707F001FF05204D
:1048200001F0B4F8534603339BB21B0A23705B4676
:10483000033363706C2322005021A3704046693B10
:10484000009707F0EDFE052001F0A0F85346043371
:104850009BB21B0A23705B46043322005021637015
:10486000A77003234046009707F0DAFE052001F009
:104870008DF8534605339BB21B0A23705B46053304
:10488000220050216370A77003234046009707F071
:10489000C7FE052001F07AF8534606339BB21B0A87
:1048A00023705B460633220050216370A7700323F8
:1048B0004046009707F0B4FE052001F067F8534624
:1048C00007339BB21B0A23705B460733220050213B
:1048D0006370A77003234046009707F0A1FE0520F0
:1048E00001F054F8534608339BB21B0A23705B4611
:1048F0000833220050216370A770032340460097BD
:1049000007F08EFE052001F041F8534609339BB2B3
:104910001B0A23705B46093363707D2322005021FC
:10492000A37040467A3B009707F07AFE052001F01D
:104930002DF853460A339BB21B0A23705B460A3399
:10494000220050216370A77003234046009707F0B0
:1049500067FE052001F01AF853460B339BB21B0A81
:1049600023705B460B33220050216370A770032332
:104970004046009707F054FE052001F007F8534623
:104980000C339BB21B0A23705B460C332200502170
:104990006370A77003234046009707F041FE05208F
:1049A00000F0F4FF53460D339BB21B0A23705B46A5
:1049B0000D33220050216370A770032340460097F7
:1049C00007F02EFE052000F0E1FF53460E339BB2A8
:1049D0001B0A23705B460E33220050216370A770C0
:1049E00003234046009707F01BFE052000F0CEFF92
:1049F00053460F339BB21B0A23705B460F332200D2
:104A000050216370A77003234046009707F008FE0B
:104A1000052000F0BBFF534610339BB21B0A2370E6
:104A20005B461033220050216370A7700323404679
:104A3000009707F0F5FD052000F0A8FF534611335D
:104A40009BB21B0A23705B46113363703223220032
:104A50005021A37040462F3B009707F0E1FD052051
:104A600000F094FF534612339BB21B0A23705B463F
:104A70001233220050216370A77003234046009731
:104A800007F0CEFD052000F081FF534613339BB2A3
:104A90001B0A23705B4613336370142322005021DA
:104AA000A3704046113B009707F0BAFD052000F0C7
:104AB0006DFF534614339BB21B0A23705B461433BD
:104AC000220050216370A77003234046009707F02F
:104AD000A7FD052000F05AFF53461F339BB21B0A67
:104AE00023705B461F33637020232200A370502184
:104AF0001D3B4046009707F093FD052000F046FF60
:104B000020229446039B55461E0063449946203557
:104B1000ADB233786ABA2280A370220003235021F9
:104B20004046009707F07CFD01350520013600F076
:104B30002DFFADB2B145ECD1534640339BB29A46FE
:104B40005B464033DBB29B4690239B009A4500D0E6
:104B500030E607B0F0BCBB46B246A946A046F0BD61
:104B6000681300208412002010B5FFF713FE10BD5B
:104B7000094A83009A1810B51468402254408032C4
:104B80002240064CC000A44663441A60044B9C4675
:104B90006044416010BDC04604C0014004D00140E3
:104BA00000400140074B8000C3181B68C9009200F9
:104BB0000A435A400C231340034A9446604403605E
:104BC0007047C04604C0014004D001400123D022F8
:104BD0008340120693629361094A83009A18116810
:104BE0004022514080320A400649C0008C4663444E
:104BF0001A60054B9C460523604443607047C046DD
:104C000004C0014004D00140004001408023DB0586
:104C10001868000F7047C0460FB400B5084883B04D
:104C200004F0CAFE049B002B07D005A918000191CF
:104C300004F0B2FC034804F0BFFE012004F0C4FC01
:104C400040DA0010F0D0001070B5EFF3108C72B69F
:104C50000D4D2B68002BFCD0BFF35F8F0724CB08D2
:104C6000C618C05C01230C40A3401C000440034252
:104C700007D118433070BFF35F8F2C608CF310881E
:104C800070BD1000FFF7C8FF2C0100D0F8B54746F3
:104C9000CE46884680B5EFF3108C72B61C4D2C685A
:104CA000002CFCD0BFF35F8F9A4222D80721012647
:104CB000894602E00132934218D34D463700154031
:104CC000AF40D4080119045D2742F3D110003C43E2
:104CD0000C70BFF35F8F00220D4B1A608CF31088AD
:104CE00000280EDBC0BCB946B046F8BD01204042EA
:104CF000EFE7BFF35F8F00232B608CF31088012058
:104D000040424346002BEDD00898FFF785FFC04690
:104D10002C0100D0044A1078431CDBB2172B00D9B9
:104D2000102313707047C046A712002010B5064B21
:104D3000064C82B00100009318221F232000FFF7C9
:104D4000A5FF02B010BDC04650DA0010C8240020F4
:104D50000021044B044ABFF35F8F02C39342FAD190
:104D60007047C046000100D0800100D0054B064AC4
:104D70001360064A136053609360D36013615361FC
:104D8000936170478080808000E400E004E400E0EC
:104D90001F2318401E3B8340002905D0C021044A30
:104DA0004900535013607047802201498B50FAE745
:104DB00000E100E001228240034B1B6813405A1EB1
:104DC0009341D8B27047C04600E100E00123834020
:104DD000014A13607047C04600E200E0064B103005
:104DE0009B688000C358054A00209B1A2F229A42D4
:104DF0004041C0B27047C04600ED00E0A81200205C
:104E000070B50D00EFF3108672B60F4A1368002BD1
:104E1000FCD0BFF35F8F0D4B10309B6884001B5993
:104E20000B4A934203D09D4201D000F0F3FF074BA1
:104E30009B681D51BFF35F8FBFF35F8F0022024B52
:104E40001A6086F3108870BD240100D000ED00E0E8
:104E5000CD010010F0B557464E46DE464546E0B55A
:104E600085B0060000911700EFF3108B72B66A4A06
:104E70001368002BFCD0BFF35F8F0025674B5D5795
:104E80009A46002D00DAA9E06B00654C01935B198E
:104E90009B009846A146C1444B4652469B7910362A
:104EA0001370604BB6009B6899590B1B2F2B33D99D
:104EB0005D4B994200D0ACE0019B42469C465B4B67
:104EC0006544AD0063535A4B0232A218043B9B1A4F
:104ED0001B05584A5B0D651913436B80564B012126
:104EE000AB80FF23AB71009BEF71AB604B460B4374
:104EF00019004C4B9B689951BFF35F8FBFF35F8FD5
:104F00000022454B1A608BF3108805B0F0BCBB46FD
:104F1000B246A946A046F0BD01200A008243D379DB
:104F20008C46BB4231D84546130044491B1B5B41AC
:104F30005943090D3D4B63533D4B02356519043B05
:104F40005B1B1B053B4D5B0D2B43AA464D466B80FF
:104F50000425AC465546E044131F44441B1B1B0567
:104F60005B0D1D434B46997100999D8099604946A0
:104F7000DF71334B01431360BBE75800C01880005A
:104F80002018C179B9422FD902000623D356002B2D
:104F9000F3DA02932B4B61460393131D9A460423C5
:104FA0005B429C46E14450464B461B1A1B055B0D79
:104FB0009C46204B95719846634640460343938038
:104FC000019B5A199200039BA418A380029B1C4AC0
:104FD000A371009B2260E771A3608AE700F01AFFCB
:104FE000002553465D574FE7908802934005131DF7
:104FF0009A46031561469C464046D44463460430B5
:105000002018181AE0230005400D1B0218430390D6
:10501000C5E700F0FFFE4FE7240100D0022A002080
:10502000A812002000ED00E0CD01001000A1FFFF5C
:10503000D812002000E0FFFF01BDFFFFAAAA000078
:105040000148804701BD000070B501240443EFF31F
:105050000581EFF3108C72B6214A1368002BFCD047
:10506000BFF35F8F1F4B05001F4AED1A6D416A4366
:10507000120D1E4D8900AE6852B27658A6421CD061
:105080000621595691421CD012215956914222D0E4
:105090001E215956914220D02A215956032491426B
:1050A00010D0134B19781A708171BFF35F8F0022F3
:1050B0000B4B1A608CF3108870BDAB680D4C5C50C4
:1050C000EFE700246100091989005B18FF2199713D
:1050D00009499980E5E70124F4E70224F2E7C04694
:1050E000240100D0A8120020AAAA000000ED00E0D0
:1050F000022A0020CD01001001BDFFFF10B5084BB2
:10510000084C82B001000093002205232000FFF725
:10511000BDFD002801DB1F23181A02B010BDC046D8
:105120006CDA00100A2A0020024B9C466144890078
:10513000016070474000003470B5114C114DAC4215
:105140000FD2FF262368002B0CD0FFF7E3FD0100F0
:105150002000FFF7E9FFA680BFF35F8F0834AC4261
:10516000F0D370BDFFF7D6FD01002000FFF7DCFF94
:105170002671BFF35F8F0834AC42E3D3F1E7C0463A
:10518000C8180020D818002010B50400FFF7C2FD91
:1051900001002000FFF7C8FFFF232371BFF35F8FDB
:1051A00010BDC04610B504000120FFF7BFFD034B42
:1051B000C3189B002360BFF35F8F10BD4000003415
:1051C000034B9C46614489000160BFF35F8F7047C9
:1051D000400000340A4B1968EFF3108072B60A6879
:1051E000002AFCD0BFF35F8F1B68BFF35F8F0022E4
:1051F0001A6080F3108840BF002000217047C0462D
:10520000D0290020F0B5DE4657464E464546E0B56B
:1052100087B0EFF30583032201251A4095409100E2
:105220008846A946B34B03925C58B34B1D60B34B01
:1052300004934B46B24843630823E55E002D37DAFA
:10524000A3881BB2002B00DBADE0A379002B00D0BC
:10525000EEE00823E05E002820DB430062691B18B3
:10526000DB00D3189E68DD68731C00D111E1A448EF
:1052700001004144826A0B69B71A9B1A9F4215D3F9
:105280000123026A039883401A420FD09C4800F021
:1052900037FB8D4202DCCCD18642CAD940BF07B071
:1052A000F0BCBB46B246A946A046F0BD0E61EDE794
:1052B00062696B0092465B19DB009A4453469E6814
:1052C000DF6800F01DFB8F42BADC00D103E1002F44
:1052D00000DAE8E05246534652691B699346049A45
:1052E000934200D1D9E052460821605E5288000402
:1052F000594610439847009001910099019A0B007C
:105300001000134300D1CEE013000A00B61A9F41EB
:10531000002806DB7A4800F0F3FA009E019F361859
:105320004F4153469E60DF6000229A5E002A00DAF9
:1053300086E7530099186069C900411802938B6889
:10534000C9689B46B94200DD7AE702D1B34200D971
:1053500076E708239C46A444059565462281A44629
:10536000029B2C0006E053009918C90041188D6873
:10537000C968AB469B18DB00C318B94206DC00D1F4
:10538000B3E01C000023E25E002AECDA230064464E
:105390009C4653461A806346059D1D80A3881BB218
:1053A000002B00DA51E72269EFF3108172B613681F
:1053B000002BFCD0BFF35F8F0123A7885B42A38043
:1053C0003FB22369BFF35F8F00221A6081F3108818
:1053D000002F00DA39E72300083322009A46666975
:1053E0007B00DB19DB00F318996850468C460824D3
:1053F000115FDD68002910DB029306E0AB4244D068
:105400000023E15E2000002906DB4C006418E40064
:105410003419E368AB42F1DD029B078000201F5E78
:105420001980002FDCDA1400A379002B00D110E7DB
:105430000023A37126000823E15E08364B1C00D12F
:105440002CE70800A246656902E03E004B1C1AD01A
:105450004B005B18DB00EF180A008C46E95E7B8886
:105460001BB2002BF1DA01235B42DC17BB60FC604E
:10547000824205D0534631801B893B8053461A81B6
:1054800060464B1CE4D15446E5E6A3686345B7D9B2
:10549000C2E76B1C00D0EAE6F8E65B4658461B699B
:1054A000984700281BD153461B8822692381EFF3BC
:1054B000108372B611680029FCD0BFF35F8F51468C
:1054C00062880A8022696580BFF35F8F00211160C6
:1054D00083F31088B4E6864200D8F8E6B0E65B466F
:1054E0001A685B680092019307E7B34500D848E764
:1054F0004CE7C046AC2900203C7005400552001026
:105500000040054070B52E4C2569002D04D00A21BD
:105510002C48FFF709FE70BD2B4E0321300000F030
:10552000E5F9E660FFF7F6FB284B03229C46D02303
:1055300022701B061B6801216370254B6044A36029
:105540000F23800020610220638063694942A180AB
:1055500019800231198647311D83585218315A5229
:1055600075325C3999521832013199521832013131
:105570009952183201319952083518329D52023130
:105580001832995218320131995218320131995218
:1055900018320131995218320131995218320131C1
:1055A00099520C4B0C49DC6001303562FFF728FC46
:1055B00001210320FFF7ECFB084B1D60A7E7C04665
:1055C000F0120020D02900200040054040000034A7
:1055D000FFFF1000AC290020055200103860054084
:1055E00000487047F0120020F8B51F0008AB1B7888
:1055F00004001600002B08D100F08AF932003B00AD
:10560000121A8B41002B00DA52E02269EFF310806E
:1056100072B61368002BFCD0BFF35F8F0223E15EEC
:1056200063694A005218D2009B182269002936DBB0
:105630001D886580BFF35F8F0025156080F310889B
:10564000069A9E60DF601A61079A5A615A88013291
:105650005204520C101C002A1FD082B25880080439
:1056600010432669EFF3108772B63268002AFCD027
:10567000BFF35F8FA2881A80A1802369BFF35F8F79
:1056800000221A6087F310880A4923788C46013279
:105690009A40E36863441A60F8BD0120DDE7BFF378
:1056A0005F8F0023136080F3108801204042F3E7EE
:1056B0000020F1E73C20000070B501000469EFF321
:1056C000108C72B620680028FCD0BFF35F8F0220D8
:1056D0000D5E4C6968004019C00024180869002D4F
:1056E00036DB26884E80BFF35F8F002606608CF382
:1056F0001088E36063880498013320615B04059897
:105700005B0CA26060611A1C002B1FD093B22804AE
:10571000628018430A69EFF3108C72B61368002B8D
:10572000FCD0BFF35F8F8B8823808D800B69BFF324
:105730005F8F00221A608CF310880B7801329A4038
:10574000CB6808498C4663441A6070BD0122DDE7CE
:10575000BFF35F8F002303608CF310880120404269
:10576000F3E7C0463C20000010B543890A14934279
:105770001ADD53009B184269DB00D3180469EFF36C
:10578000108C72B62268002AFCD0BFF35F8F5A8853
:10579000090494B2090C8A4208D00369BFF35F8FF1
:1057A00000221A608CF31088002010BD80221202A3
:1057B00014435C80012302698371BFF35F8F002172
:1057C00011608CF31088044902788C469340C268BB
:1057D000012062441360E8E73C20000040787047F5
:1057E000F0B557464E46DE464546E0B506000F008A
:1057F00085B0EFF3058399468B46002B12D03849CC
:1058000000204B6ABB4206D38A6ADB1B591E8B41C0
:10581000B2424041184305B0F0BCBB46B246A9466F
:10582000A046F0BD2F4B9A46DB68984653461B783E
:105830004046039300F064F84246039B040004339F
:105840009B009B580D001B1A39003000001BA9411A
:10585000894510DC0DD020BF214A0020536A5B45EA
:10586000D9D3926ADB1B591E8B41B2424041184387
:10587000D1E78342EFD900F04BF832003B00121A17
:105880008B41002B1ADB00230193174B320000934E
:1058900050463B00FFF710FF011E0FDD104B5A6A08
:1058A0005A451BD39B6AB34216D35046FFF75CFFA1
:1058B0000B4A0020536A5B45ADD3D2E7084A00206B
:1058C000536A5B45A7D30020926ADB1BB24240417A
:1058D0005A1E934118439EE75A45E6D120BFE4E79C
:1058E00000400540F0120020D551001010B5024ACA
:1058F0000248FFF7A9F910BD88DA0010CC24002077
:105900000300416A0A00986A596A8A42FAD17047CC
:10591000034B596A0A00986A596A9142FAD1704752
:105920000040054070B504000D00174A536A190085
:10593000966A536A8B42FAD13000190024184D41FF
:10594000AB4216D813D0104B2A005B6A9D4203D994
:105950000D494B6A9342FCD3934207D10A4A02E0B5
:10596000516A994202D1916AA142F9D370BDA6420F
:10597000E9D9054B5B6A1C005A1CEFD001220124B7
:105980006442E5175242E3E700400540244B70B5FE
:1059900098420BD843011B1A224A9B001818916A9F
:1059A000C000936A5B1A9842FBD870BDFA220023AC
:1059B0009200002102F03AF804000D00194A536ADF
:1059C0001900966A536A8B42FAD1300019002418E4
:1059D0004D41AB4218D9134B5B6A1C005A1C0AD0CC
:1059E000012301246442E5175B420E494A6A9A4248
:1059F000FCD39A42D9D10B4A02E0516A9942D4D1E0
:105A0000916AA142F9D3D0E7AB4205D0054A2B00F9
:105A1000526A9542E9D8ECE7A642F7D9DBE7C046DF
:105A20009BC4200000400540F8B5DE464E46574670
:105A30004546E0B58B4605000A991800160000F0AF
:105A400003FB0A9B6C001F02324B64199C46A400A6
:105A50006444636881469F4200D967602B1FDBB2B4
:105A60009846012B30D9C02380229B01E3181201F4
:105A70001A60294BAD0059599A4600291BD1730170
:105A8000E026226853401E40802342465B01E31813
:105A90001E60012A30D9802380229B01E318120165
:105AA0001A6053464A4667605A51F0BCBB46B2463C
:105AB000A946A046F8BD586900F0C6FA0130430077
:105AC0001B18033BFDD2DAE75B46012BCBD1C02389
:105AD00003229B01E3181A60023AA3681A42FCD021
