:020000041000EA
:1000000000B5324B212058609868022188439860DF
:10001000D860186158612E4B002199600221596106
:100020000121F02299502B49196001219960352056
:1000300000F044F80222904214D00621196600F024
:1000400034F8196E01211966002018661A6600F04E
:100050002CF8196E196E196E052000F02FF8012189
:100060000842F9D1002199601B49196000215960AB
:100070001A491B48016001219960EB211966A021F2
:10008000196600F012F800219960164914480160C1
:100090000121996001BC002800D000471248134993
:1000A000086003C880F30888084703B5996A0420EC
:1000B0000142FBD001200142F8D103BD02B5186610
:1000C0001866FFF7F2FF186E186E02BD00000240BE
:1000D000000000180000070000035F00212200005C
:1000E000F4000018222000A00001001008ED00E03C
:1000F00000000000000000000000000074B24E7A12
:1001000000200420F7010010C3010010C5010010F9
:10011000C1010010C1010010C1010010C101001097
:10012000C1010010C1010010C1010010C701001081
:10013000C1010010C1010010C9010010CB01001065
:10014000CD010010CD010010CD010010CD01001037
:10015000CD010010CD010010CD010010CD01001027
:10016000CD010010CD010010CD010010CD01001017
:10017000CD010010CD010010CD010010CD01001007
:10018000CD010010CD010010CD010010CD010010F7
:10019000CD010010CD010010CD010010CD010010E7
:1001A000CD010010CD010010CD010010CD010010D7
:1001B000CD010010CD010010CD010010CD010010C7
:1001C00000BE00BE00BE00BE00BE00BEEFF3058054
:1001D000103800BEF2EB887140CB001064CB0010E9
:1001E0003402001090A31AE700201F49086006C8D7
:1001F00081F3088810471D48006800282FD10DA4FE
:100200000ECC002902D000F012F8F9E71849194A7B
:10021000002000E001C19142FCD1174988471749ED
:1002200088471749884700BEFDE701C901C29A42C5
:10023000FBD3704764CB0010C00000200C140020DA
:10024000B0DE00100000042000000420B0DE00102A
:10025000001004200010042000000000704709482E
:1002600005F00AFB0047000008ED00E0000000D0A8
:10027000101400206025002089450010590300104B
:10028000494500105756000006005250ABB360536A
:10029000A4BE001006005250861C0302B4BE00101B
:1002A000060052505422A29DBCBE001005005250C0
:1002B000DE65F468B0DE0010F8B5C0460448054BB2
:1002C00010B5834203D0044B002B00D0984710BDDB
:1002D0000C1400200C140020000000000648074900
:1002E000091A8B10C90FC91810B5491003D0044B57
:1002F000002B00D0984710BD0C1400200C140020D7
:100300000000000010B5074C2378002B09D1FFF73F
:10031000D5FF054B002B02D0044800E000BF0123AD
:10032000237010BD701500200000000000AE00100A
:10033000054B10B5002B03D00449054800E000BF71
:10034000FFF7CCFF10BDC046000000007415002070
:1003500000AE00107047000030B583B007F054FACB
:10036000022002F0C7FAD0242406042565620A2080
:1003700002F0C0FA8023DB0063620B2002F0BAFABD
:1003800080231B0163620D2002F0B4FA80239B01DD
:1003900063620F2002F0AEFA80231B0263620E201C
:1003A00002F0A8FA8023DB016362102002F0A2FAB7
:1003B00080235B026362112002F09CFA80239B027F
:1003C0006362122002F096FA8023DB02636214203B
:1003D00002F090FA80235B03A362152002F08AFAF0
:1003E00080239B03A362162002F084FA8023DB03A0
:1003F000A362656101F0B8FBA561002200218020A5
:1004000000F0CCFB364B18685968002200F0F4FF6E
:10041000344809F0A7FD344A3448002300930133DF
:10042000502109F077FF002833D0314807F0B0F9A8
:10043000FF2002F05FF92F4807F0AAF92E4B197838
:100440002E4807F0D5F92E4807F0A2F9244B1A6878
:100450005B682C4807F0CCF92B4807F099F92B4B37
:100460001A685B682A4807F0C3F92A4B19882A489A
:1004700007F0BEF9294807F08BF9294B197829486C
:1004800007F0B6F90A2007F04FF9274807F0B0F94E
:100490000EE0264807F07CF9CAE7D0221206802138
:1004A0000901916113E0D0231B068022D2005A611A
:1004B00001F04EFF02F0CCF802F08EF90E4B1B78E3
:1004C0009A07EAD5D0221206802109015161DB0783
:1004D000E9D4D0231B068022D2009A61E8E7C04607
:1004E000600B00205503001053250020A00E0020B3
:1004F00000AE00102CAE0010542500203CAE0010C1
:1005000048AE001064AE001080AE0010580B002002
:1005100088AE0010560B0020A4AE0010B8AE00103C
:10052000500B0020BCAE0010D0AE001014AE001076
:10053000154B984209D8154B8A00D050012900D09C
:100540007047134B00221A70FAE7124A124BC31875
:10055000934209D840080D4B8A00D0500129EFD1B1
:100560000B4B40221A70EBE70C4A0D4BC318934219
:10057000E6D88008054B8A00D0500129E0D1044B11
:1005800080221A70DCE7C04680C3C90144250020E0
:10059000512500207FC3C9017F3C36FEFF5962020E
:1005A000FF786CFCB0B582B002AF14000D004B1C9C
:1005B0000831C908C9006A46521A954602AA107045
:1005C000002103E060180131007850548D42F9DCBD
:1005D000034800210091603109F090FEBD46B0BD96
:1005E000A00E002000B585B06B46187359730548FE
:1005F00000230093023303AA602109F07FFE05B0B7
:1006000000BDC046A00E002010B5002802D0012871
:1006100005D010BD2021B130FFF7E4FFF9E78021BC
:10062000B030FFF7DFFFF4E710B586B00F226A4461
:1006300010700B4B1B7869460B750A4C0123009315
:100640006021200009F05AFE00230093013305AA1F
:100650006021200009F05EFE6B46187D06B010BDDB
:10066000CCAE0010A00E002070B504000D000320D9
:10067000FFF7DAFF012D07D00123A3401843C1B2D1
:100680000320FFF7AFFF70BD0123A340DB435BB244
:100690000340D9B2F4E7000070B505000C00060075
:1006A0001036F6B23000FFF7BFFF0100002C08D172
:1006B00020239843C1B23000FFF794FF044B5C55F0
:1006C00070BD012CF7D120230343D9B2F3E7C04614
:1006D000E822002070B50D001030C4B22000FFF7F2
:1006E000A3FF012D06D040239843C1B22000FFF79D
:1006F00079FF70BD40231843C1B2F7E7F0B5DE467D
:1007000057464E464546E0B587B015001C00109B85
:10071000994612AB1B789A4600282ED1804B1A7846
:10072000804B9200D05864220023002106F0A0FCE8
:1007300006000F00119B5910D8077B4A002305F0D3
:1007400015F932003B0006F093FC4900C30F0B4340
:100750001800D91780197941009001910D2C03D808
:1007600018D1724B9D4215D9142C03D814D1704B5B
:100770009D4211D96E4D14240EE06E4B1A78694BD0
:100780009200D05864220023002106F071FC06007C
:100790000F00CFE7684D0D24009E019F32003B0003
:1007A0002800210005F0FAF880460E2809D8340008
:1007B0003D00310F3B010B433201121BAB411500D1
:1007C0001C005A2807D95A2200230098019906F0E4
:1007D0004FFC05000C005346002B00D178E0009A36
:1007E000019B2800210005F0D9F814001D00D30E4C
:1007F0006F011F436601361BAF41F10D7B020B43B6
:10080000720212196B41910E9F010F439601B61AA5
:100810009F413000390000196941009A019B05F0A1
:10082000BDF80500454C4346DF01EE0121003000D4
:1008300005F076F83818424B9B468344210030007F
:1008400005F06EF8059100220023029203930295B1
:1008500000230393009A019B0298039906F008FC79
:100860002200002305F09AF805000E00009A019B73
:100870004046002106F0FCFB401971414A465D46A6
:100880001560059D556094605246002A19D03C00C1
:100890000025F90E7801001BA941C60D4B02334318
:1008A000420212196B41960E990131439001801A50
:1008B000994100196941029B039C1B184C41180087
:1008C000210007B0F0BCBB46B246A946A046F0BD29
:1008D000009A019B2800210005F060F814001D001B
:1008E000D30E6F011F436601361BAF41F10D7B0232
:1008F0000B43720212196B41910E9F010F43960137
:10090000B61A9F413000390000196941009A019BD5
:1009100005F044F8051E01D0084C84E7012482E765
:10092000592500204425002000CA9A3BFF5747F86C
:1009300000046BF45A250020005847F840420F008D
:1009400000FEFFFFF0B5C64600B588B080460F0038
:10095000161E35D1002302932B4B2C4A127892009D
:10096000D358019305AB009302000B000020FFF762
:10097000C5FE142006F0F8FC0400079D2B0A037046
:100980004570059B1A0C03210A4082701A0AC27036
:1009900003712D0BEDB20F239D43069A110C0B40F2
:1009A0002B434371130A8371C271002E18D0012E9C
:1009B00020D0200006F0EEFC08B080BCB846F0BDA8
:1009C00000230293104B124A12789200D3580193DD
:1009D00005AB009302000B000120FFF78FFEC8E774
:1009E000020008211A20FFF7DDFD0A4B42461A607B
:1009F0005F60DEE7020008212220FFF7D3FD064BEF
:100A000042461A605F60D4E7002300205925002089
:100A10005A250020601500206815002070B580213F
:100A20001020FFF7DFFD80211120FFF7DBFD802183
:100A30001220FFF7D7FD80211320FFF7D3FD80217F
:100A40001420FFF7CFFD80211520FFF7CBFD80217B
:100A50001620FFF7C7FD80211720FFF7C3FD0C21EB
:100A60001020FFF7BFFD0C211120FFF7BBFD0C216B
:100A70001220FFF7B7FD0C211320FFF7B3FD0C2167
:100A80001420FFF7AFFD0C211520FFF7ABFD0C2163
:100A90001620FFF7A7FD0C211720FFF7A3FD2F4C11
:100AA0001225002220002900FFF74CFF0122200020
:100AB0002900FFF747FF2A4B00221A705A709A70DC
:100AC000DA701A715A7101329A71DA7100210020BC
:100AD000FFF7E2FD00210120FFF7DEFD00210220EB
:100AE000FFF7DAFD00210320FFF7D6FD00210420E7
:100AF000FFF7D2FD00210520FFF7CEFD01210620E2
:100B0000FFF7CAFD01210720FFF7C6FD0021A22043
:100B1000FFF768FD0021A320FFF764FD0021A4205A
:100B2000FFF760FD0020FFF76FFD0120FFF76CFD70
:100B300000240FE00B4BE2009B18002000211860FE
:100B4000596000212000FFF78FFD074B00221A5546
:100B50000134E4B2072CEDD970BDC04600205FA07F
:100B6000E822002010140020F41D002010B5084BCE
:100B700089005850074B186859680022FFF7E2FEB9
:100B8000054B186859680122FFF7DCFE10BDC0460E
:100B900000230020601500206815002070B50400B7
:100BA0000D001600204B214A1A60214A00231370C1
:100BB000204A1370204A13702048214909F072FB23
:100BC0000321042001F064FE0321052001F060FEF2
:100BD00000220121042001F073FE002201210520E2
:100BE00001F06EFE0020FFF71FFDC309DBB2012BF1
:100BF000F8D03F239C4312231C43E1B2B720FFF7F8
:100C0000F1FC002D0AD000212800FFF791FC002103
:100C10003000FFF7ABFFFFF701FF70BD0021034875
:100C2000FFF786FCF3E7C0464425002040787D01AD
:100C3000592500205A25002051250020A00E002013
:100C4000801A0600F0B5DE4657464E464546E0B5EA
:100C500087B005000E000192029305290ED802D13B
:100C6000664B98420AD8002E0AD102D1644B9D42AD
:100C700006D8644D00260023994609E05F4D0526FD
:100C8000032E4FD802D1604B9D424BD8002399468A
:100C9000019B029A134353D14B46002B4DD12A009E
:100CA00033005A48142104F079FE05283DD0072866
:100CB0003FD080462A0033004046002106F0D8F994
:100CC00001900291039600239B4601339A4600202F
:100CD0004B46012B00D18BE04346DB019846C30114
:100CE00099465146180004F01BFE4044484B984674
:100CF00080445146484604F013FE4346109A136060
:100D00005160534693605B46002B02D1019D029BCC
:100D100003932800039907B0F0BCBB46B246A9462E
:100D2000A046F0BD01239946B2E70029BFD10420B7
:100D3000BFE70029BDD10620BBE704239846B9E7E9
:100D40002A00330001998A460800029F390004F006
:100D500025FE8046052807D8062200235046390084
:100D600004F01CFE05000E00E123DB00984539D994
:100D7000E122D20000230198029904F00FFE050041
:100D800003912A00039B9A460198029904F006FEFB
:100D900016001F00D30E790119437001801BB94161
:100DA000C20D049005914B02134304994A02921913
:100DB0007B41910E8C460492059399016246114342
:100DC000049A059B9001801A9941801979412A0063
:100DD000534604F0E3FD002806D001239B460D4B4B
:100DE0009A4675E70396CCE701239B469A466FE740
:100DF00001239A460021002398467EE700C11A3D50
:100E00007FF0FA0280F0FA02FFD5117E00046BF445
:100E100000FEFFFF40420F00F0B5D6464F46464663
:100E2000C0B505000C0091469846089B9A460329D8
:100E30000CD802D1414B984208D8002C08D102D1DD
:100E40003F4B9D4204D83F4D002401E03B4D03241D
:100E50004B46424613431CD02A00230048464146D5
:100E600004F09CFD17001E00134363D12A002300E9
:100E70004846414604F092FD831FF82B41D8C0B28A
:100E800053461860002352465360936001270026A2
:100E900037E02A0023002C48142104F07FFD80460F
:100EA0000123034201D0431C98464346052B04D935
:100EB000FE2B04D9FE23984601E0062398462A001B
:100EC00023004046002106F0D3F807000E00142945
:100ED00003D81DD11D4B98421AD902235B429C4670
:100EE000E0442A0023004046002106F0C1F8070034
:100EF0000E00FF2342461340524613600023536006
:100F0000936038003100E0BCBA46B146A846F0BD57
:100F10000D2EEED802D10E4B9F42EAD802239C46FA
:100F2000E0442A0023004046002106F0A1F8070013
:100F30000E00DEE700270026E3E7C04600D6117E5C
:100F40007FF0FA0280F0FA02002375EE00046BF4E1
:100F5000FF5747F8F8B507000E001400072803D81C
:100F600083001C4AD3589F4600250EE034250CE030
:100F70003C250AE0442508E04C2506E0542504E021
:100F80005C2502E05C2500E02C252800FFF74CFBE7
:100F90000100052F0ED87C239843C3B2002C02D049
:100FA0000C221343DBB236013343D9B22800FFF7DA
:100FB00019FBF8BD062F08D0072FF7D170239843EF
:100FC000C0B236013043C1B2F0E707239843C1B243
:100FD0003143EBE7E4C30010F0B5CE46474680B599
:100FE00085B004000191029203930CAB1B789846E4
:100FF0000DAB1E780EAB1F78142006F0B5F9050076
:10100000052C08D9019BDBB20021072C38D8A2009F
:101010004C4882589746039B99461B0A03704B46DF
:101020004370E0002C30C0B2FFF7FEFA0323984370
:10103000C0B2019B190C03220A401043A8701A0A7F
:10104000EA702B714B461A0BD2B20F239A43029BC4
:10105000180C0F2101400A436A711A0AAA71DBB207
:10106000EB710821D1E72A002A20FFF79BFA4146BD
:101070002000FFF72FFB3A0031002000FFF76AFF46
:10108000280006F087F905B0C0BCB946B046F0BDEF
:101090002A003220FFF786FA41462000FFF71AFBAC
:1010A0003A0031002000FFF755FFE9E72A003A2017
:1010B000FFF778FA41462000FFF70CFB3A003100B9
:1010C0002000FFF747FFDBE72A004220FFF76AFA1C
:1010D00041462000FFF7FEFA3A0031002000FFF7FA
:1010E00039FFCDE72A004A20FFF75CFA414620008D
:1010F000FFF7F0FA3A0031002000FFF72BFFBFE7BF
:101100002A005220FFF74EFA41462000FFF7E2FA8C
:101110003A0031002000FFF71DFFB1E719005A2007
:10112000FFF760FA3A0031002000FFF713FFA7E74E
:1011300019005B20FFF756FA3A0031002000FFF754
:1011400009FF9DE704C40010F0B506684768464CE7
:1011500001256D42A4197D41002D35D0434C012558
:101160006D42A4197D41002D3BD0414C01256D42BB
:10117000A4197D41002D41D03E4C01256D42A4199A
:101180007D41002D47D03C4C01256D42A4197D4185
:10119000002D4DD0394C01256D42A4197D41002D03
:1011A00053D0374C01256D42A4197D41002D59D1F2
:1011B00002D134498C4255D832003B0092197B4110
:1011C0000260436001200BE0002D02D12E498C42C9
:1011D000C4D8710EFB010B434360F201026007208B
:1011E000F0BD002D02D129498C42BED8B10EBB0101
:1011F0000B434360B20102600620F1E7002D02D1EB
:1012000023498C42B8D8F10E7B010B434360720135
:1012100002600520E4E7002D02D11E498C42B2D8BD
:10122000310F3B010B434360320102600420D7E7DA
:10123000002D02D118498C42ACD8710FFB000B4332
:101240004360F20002600320CAE7002D02D1134977
:101250008C42A6D8B10FBB000B434360B2000260C2
:101260000220BDE70020BBE780E5F9FF00CBF3FFDC
:101270000096E7FF002CCFFF00589EFF00B03CFF18
:10128000006079FEFF9F86017F1A0600FF340C0084
:10129000FF691800FFD33000FFA76100FF4FC300B4
:1012A000F0B506684768464C01256D42A4197D419A
:1012B000002D35D0434C01256D42A4197D41002DF0
:1012C0003BD0414C01256D42A4197D41002D41D0F8
:1012D0003E4C01256D42A4197D41002D47D03C4C68
:1012E00001256D42A4197D41002D4DD0394C0125B9
:1012F0006D42A4197D41002D53D0374C01256D421C
:10130000A4197D41002D59D102D134498C4255D8C0
:1013100032003B0092197B410260436001200BE0E8
:10132000002D02D12E498C42C4D8710EFB010B4313
:101330004360F20102600720F0BD002D02D129496F
:101340008C42BED8B10EBB010B434360B2010260B8
:101350000620F1E7002D02D123498C42B8D8F10EC6
:101360007B010B434360720102600520E4E7002D1E
:1013700002D11E498C42B2D8310F3B010B4343606E
:10138000320102600420D7E7002D02D118498C42B7
:10139000ACD8710FFB000B434360F20002600320E6
:1013A000CAE7002D02D113498C42A6D8B10FBB0069
:1013B0000B434360B20002600220BDE70020BBE7A0
:1013C00068D7E3FFD0AEC7FFA05D8FFF40BB1EFF15
:1013D00080763DFE00ED7AFC00DAF5F8FF250A077D
:1013E00097281C002F5138005FA27000BF44E10015
:1013F0007F89C201FF128503F0B5C64600B590B0E3
:10140000069007911700052A00D9D7E002000B00CB
:1014100001204042C11712184B411100002B07D187
:1014200002D1B64B994203D8B54A002306920793DE
:10143000069A079B052B03D806D1B24B9A4203D9D3
:10144000B04A0523069207930699079B022B01D900
:10145000002335E0022B02D1AB4A9142F8D8AB4AC7
:10146000F800121811605360A94BDB5D002B00D10E
:1014700092E006A8FFF768FE0400A64BDB5D002B98
:1014800000D091E0A44B1A685B68069807990DADEF
:101490000095FFF7D7FB00230293019400930D9969
:1014A0000E9A0F9B3800FFF797FD70E0BB4205D006
:1014B000984A115CD25D914200D158E10133DBB210
:1014C000052B0CD81800914AD9005218116852689F
:1014D000022AEBD8F2D18C4A9142EFD9E6E78C4B45
:1014E000DB5D002B14D006980799884BFA009B18F7
:1014F000186059600DAB009300220023FFF7A2FB98
:1015000080460E00834BDA5DFFF71CFA002513E0DE
:1015100001213800FFF7A8F87D4B0122DA55E2E7F8
:1015200001230293019400930A990B9A0C9B2800C3
:10153000FFF752FD0135EDB2052D24D8734CEB00B9
:10154000E4182268636811001943F3D07149485DBB
:10155000C95D8842EED10892099308A8FFF7F4FD0F
:101560000400089809990AAB009342463300FFF73C
:1015700069FB089A099B032BD2D802D1674B9A4288
:10158000CED80023CDE7634BD85DFFF73DF80020B0
:1015900010B080BCB846F0BD01213800FFF764F8F8
:1015A0005B4B0122DA5564E75D4B1A685B6806986D
:1015B00007990DAD0095FFF745FB6CE7069A079B71
:1015C00001204042C11712184B411100002B07D1D6
:1015D00002D1544B994203D8494A002306920793FB
:1015E000069A079B032B03D806D14C4B9A4203D98A
:1015F0004A4A032306920793062F20D0434A136BCF
:10160000526B134300D18FE0454B5C681B68180098
:101610002100069C079D22002B000490059104F0F8
:10162000BDF9134300D0A6E022002B0004980599D1
:1016300004F0B4F9012303424DD00120A8E7334A56
:10164000936BD26B13432FD0354B5C681B6818002B
:101650002100069C079D22002B000490059104F0B8
:101660009DF9134300D084E022002B0004980599D3
:1016700004F094F90123034201D0012088E7234BB1
:10168000FA009B181C605D6006A8FFF709FE0600C3
:10169000234B1A685B68069C079D0DA900912000EA
:1016A0002900FFF7B9FB56E0184BFA009B18069883
:1016B00007991860596006A8FFF7F2FD0600069822
:1016C00007990DAB009300220023FFF7A5FB012231
:1016D000FFF738F93FE00D4BFA009B181C605D6086
:1016E00006A8FFF7DDFD06000D4B1A685B6806983B
:1016F00007990DAC0094FFF78FFB2CE07E1A0600D3
:10170000801A060000C11A3D00E40B54101400209A
:10171000F41D0020E822002060150020FFD5117E76
:101720006815002096281C00144BFA009B18069898
:1017300007991860596006A8FFF7B2FD06000698E1
:1017400007990DAB009300220023FFF765FB0C4BBC
:10175000DA5DFFF7F7F800230293019600930D99E5
:101760000E9A0F9B3800FFF737FC002010E701208E
:101770000EE701200CE701200AE7C0461014002004
:10178000E822002000B585B0002815D1154B0022B5
:101790000292154909780191009219685A689B686C
:1017A000FFF71AFCD0231B06802212025A61802206
:1017B000D2019A6105B000BD0C4B002202920C4987
:1017C00009780191009219685A689B680020FFF718
:1017D00003FCD0231B06802212029A618022D201D0
:1017E0005A61E7E7D02200205C250020C4220020B7
:1017F0005B25002070B588B004000D0010001900B2
:1018000022002B0012184B4106920793241A8D4197
:10181000049405951B4C1C481221206061601B4EEE
:10182000306071600022FFF78DF806A8FFF78CFC8E
:10183000174D287004A8FFF787FC164B1870226814
:10184000636806980799144C0094FFF7FBF9326817
:10185000736804980599114E0096FFF7F3F9002379
:1018600002932A780192009321686268A36800209D
:10187000FFF7B2FB0020FEF7C7FE0120FFF782FF53
:1018800008B070BD680B002000205FA05815002034
:101890005B2500205C250020C4220020D0220020EF
:1018A00010B5002803D10021FEF7DEFE10BD012196
:1018B0000020FEF7D9FEF9E770B50500264B1B5C4A
:1018C0005B0901261E40254B1B68B34201D100294C
:1018D00024D00020FFF756FF00240EE0204B18888C
:1018E000002102F059F9330080331B4AD05C2041BB
:1018F00001231840FFF746FF0134042CEEDD184B9E
:101900001888002102F048F90120FFF73BFF134B34
:101910001E60144B1888002102F03EF90020FFF7EA
:1019200031FF00240CE00E4B1888002102F034F93E
:10193000094B585D204101231840FFF723FF013474
:10194000042CF0DD064B1888002102F025F9012057
:10195000FFF718FF70BDC046700B0020BC220020AE
:10196000540B0020520B002010B50B4B188005F0D3
:10197000C5FB011C094805F0A2FB094905F095FBD0
:1019800005F0E4FB80B2074B1880074B074A9446EA
:1019900060444000188010BD560B0020002474499C
:1019A00000005244540B0020520B0020B8FCFFFFF3
:1019B00010B5094B1888FFF7D7FF084B1A685B680A
:1019C000074908684968FFF715FF0120FFF7DAFEAD
:1019D0000120FFF765FF10BD560B0020580B0020BB
:1019E000600B002010B5084B1888FFF7BDFF074BB0
:1019F0001A685B68064908684968FFF7FBFE012022
:101A0000FFF7C0FE10BDC046560B0020580B00204B
:101A1000600B002010B5054B186859680022FFF7CD
:101A2000EBFC0020FFF73CFF10BDC046600B002020
:101A300010B50C4B187005F061FB0B4905F03FFB2E
:101A40000A4905F052FB011CFE20800505F037FB1A
:101A5000074905F04AFB074C05F080FB20606160F8
:101A600010BDC046500B00200000704200004842EC
:101A700000247449480B002010B5054B18685968BC
:101A80000022FFF7B9FC034B1878FFF7D1FF10BD18
:101A9000600B0020500B0020F0B5C64600B50300D7
:101AA000613BDBB2192B01D82038C0B22038C0B25C
:101AB0003B2800D91F20294B8000C3589B01984622
:101AC0000027274BC45806341AE020231B1B3A007A
:101AD0009A404546E540154319E0D0221206802180
:101AE000C901916121E0D022120680210902916191
:101AF000002B22D11B4B1868596802F04DF8013CAD
:101B0000002C24DB2300203BDFD43D00DD400126F8
:101B100001202840FFF7C4FE2B0033403542DCD0C3
:101B2000D02212068021C9015161002BDBD0D022C6
:101B30001206802109025161DAE70A4B5968CA0787
:101B4000186840081043490802F026F8D2E7002040
:101B5000FFF7A6FE80BCB846F0BDC046E00C0020F2
:101B6000F40B0020480B002010B506F089F800287F
:101B70000AD1012002F040F801F0EEFF002903D164
:101B8000F3D1034B9842F0D9024805F001FE10BD95
:101B9000404B4C00D4AE001030B5050000230020AF
:101BA00003E00130C0B20133DBB28B4205D2034AFD
:101BB000D45CEA5C9442F4D0002030BD241E0020A6
:101BC00030B505000022002003E00130C0B2013230
:101BD000D2B28A4207D2AB18034CE35C303BDBB293
:101BE000092BF2D9002030BD241E00203038C0B2AD
:101BF000092800D9002040B270470000F0B5DE4649
:101C0000574680B583B082460D0000240020002195
:101C100027E004F0B1F90090019153461B19144AD2
:101C2000D05CFFF7E3FF8346281B013804F05CF922
:101C300002000B0000200F4904F0F4FC06000F0026
:101C4000584604F051F932003B0004F0D4F8020089
:101C50000B000098019904F0A7F804F099F90134F9
:101C6000E4B2AC42D5D303B0C0BCBB46B246F0BD73
:101C7000241E002000002440F0B5DE46574680B503
:101C800083B082460D000024002028E004F02CF9E7
:101C90000090019153461B19144AD05CFFF7A6FF30
:101CA0008346281B013804F01FF902000B000020B6
:101CB0000F4904F0B7FC06000F00584604F014F971
:101CC00032003B0004F097F802000B0000980199E5
:101CD00004F06AF804F044F980B20134E4B2AC4292
:101CE000D4D303B0C0BCBB46B246F0BD241E002016
:101CF0000000244070B5C4480421FFF74DFF0028C0
:101D00003BD1C2480621FFF747FF002800D072E010
:101D1000BF480521FFF740FF002800D1A7E00321BD
:101D20000520FFF74DFF002800D19CE0032105208E
:101D3000FFF7A2FF431F9BB294225200934200D3AD
:101D40008DE0FFF711FEB34B1988B34805F050FD45
:101D5000B24B1988D2239B009C466144B04805F0E1
:101D600047FDB04B1B78012B00D172E0022B00D154
:101D700072E0FF2000F012FC3CE0AB4805F038FDBB
:101D8000AA4805F005FDAA4805F002FDA94805F09E
:101D9000FFFCA94805F0FCFCA84805F0F9FCA848A0
:101DA00005F0F6FCA74805F0F3FCA74C200005F071
:101DB000EFFC200005F0ECFCA44805F0E9FCA44889
:101DC00005F0E6FCA34805F0E3FCA34805F0E0FCC1
:101DD000A24805F0DDFCA24805F0DAFCA14805F0B8
:101DE000D7FCA14805F0D4FCA04805F001FDA048AF
:101DF00005F0CEFC70BD9F4805F0FAFC9E4805F04A
:101E0000C7FC884B19789D4805F0F2FC9C4805F00A
:101E1000BFFC9C4B1A685B689B4805F0E9FC9B483B
:101E200005F0B6FC9A4B1A685B689A4805F0E0FC2E
:101E3000784B1988984805F0DBFC984805F0A8FC19
:101E4000974B1978974805F0D3FC894805F0A0FC1A
:101E5000D0E7FFF711FE8CE7FFF7C4FD89E7924852
:101E600005F096FCC6E7904805F092FCC2E78F4863
:101E70000621FFF791FE002835D009210620FFF743
:101E80009FFE00282BD009210620FFF7B7FE020095
:101E90000B0087480121494280185941040000295C
:101EA00019D102D183498C4215D876490A604B601A
:101EB000814805F09DFC5B4B1B78012B05D0022B64
:101EC00006D0FF2000F06AFB94E7FFF7D5FDF8E7A6
:101ED000FFF788FDF5E7794805F05AFC8AE777486F
:101EE00005F056FC86E776480621FFF755FE0028E8
:101EF00035D009210620FFF763FE00282BD00921E9
:101F00000620FFF77BFE02000B0005204042C117B0
:101F1000801859410400002919D102D169498C4225
:101F200015D85B490A604B60674805F061FC3D4B82
:101F30001B78012B05D0022B06D0FF2000F02EFBD2
:101F400058E7FFF799FDF8E7FFF74CFDF5E75B4829
:101F500005F01EFC4EE7594805F01AFC4AE75B48BD
:101F60000821FFF719FE00282AD002210820FFF7D8
:101F700027FE00281DD002210820FFF73FFE0200A7
:101F80000B0001204042C1178018594100290CD193
:101F900001D1622809D8D0B2414C2070FFF748FD2A
:101FA00021784B4805F024FC06E04A4805F0F0FB98
:101FB00002E0494805F0ECFBFF2000F0EFFA19E7DA
:101FC00046480521FFF7E8FD002800D18CE00121FB
:101FD0000520FFF7F5FD002812D001210520FFF7AD
:101FE0000DFE084305D1FFF75BFC3D4805F0D0FB33
:101FF00000E70120FFF754FC3A4805F0C9FBF9E679
:10200000354805F0C5FBF5E6ECAE001070AF0010EA
:10201000F0B10010560B0020F8B10010540B002056
:1020200014B2001054250020F4AE0010FCAE0010D5
:1020300010AF001044AF001058AF001078AF001080
:10204000B0AF001008B000105CB000106CB0001011
:1020500080B0001090B00010ACB00010D0B00010F4
:1020600004B1001044B1001074B10010B0B1001000
:10207000E0B10010E8B100102CAE00103CAE001032
:1020800048AE0010600B002064AE001080AE00105F
:10209000580B002088AE0010A4AE0010B8AE00109F
:1020A000500B0020BCAE001028B200103CB2001053
:1020B000F0D8FFFFF09AEB0B44B2001068B20010AA
:1020C0007CB200100B27000084B20010A4B20010F4
:1020D000B0B20010C8B20010D8B20010E8B20010C0
:1020E000F0B20010FCB2001086480921FFF754FD41
:1020F00000284FD0844B1B78022B03D0834805F077
:1021000047FB77E601212020FFF7D6FBD0231B06F3
:10211000802292015A61202419E00A2005F004FB74
:1021200000210A20FFF7C8FB794B1B889800C018D4
:10213000002101F031FD00210D20FFF7BDFB754BA3
:102140001988754803F0C4FBC11701F025FD032C65
:1021500016D0002005F05CFB050044B2631C0BD0D8
:102160000A2CDAD00D2CD8D0200005F0DDFAE8B228
:102170000021FFF7A1FBE2E7012001F03DFDE6E7CA
:10218000D0231B06802292019A616448210005F049
:102190002FFB2FE662480721FFF7FEFC00282DD019
:1021A00001210720FFF70CFD002823D00121072083
:1021B000FFF724FD0300002912D10FD0DBB2524AF1
:1021C0001370012B10D0022B11D0FF2000F0E6F984
:1021D0004D4B1978534805F00BFB0BE60228EDD95F
:1021E000514805F0D5FA05E6FFF714FCEDE7FFF7D7
:1021F000DFFBEAE74D4805F0CBFAFBE54C48072149
:10220000FFF7CAFC002836D03F4B1B78012B03D0C8
:102210003E4805F0BDFAEDE52020FFF73DFCD02358
:102220001B06802292015A61202402E00A2005F058
:102230007BFA032C15D0002005F0EAFA050044B221
:10224000631C0AD00A2CF1D00D2CEFD0200005F031
:102250006BFAE8B2FFF720FCEBE7012001F0CCFCC1
:10226000E7E7D0231B06802292019A612B482100C8
:1022700005F0BEFABEE52F480621FFF78DFC0028C9
:102280001AD001210620FFF79BFC002810D0012165
:102290000620FFF7B3FCC0B200F080F9002803D09D
:1022A000254805F075FAA5E5244805F071FAA1E581
:1022B0001E4805F06DFA9DE521480621FFF76CFCEC
:1022C00000281AD001210620FFF77AFC002810D040
:1022D00001210620FFF792FCC0B200F00BFA0028A3
:1022E00003D0184805F054FA84E5174805F050FA71
:1022F00080E50E4805F04CFA7CE5144805F048FAF4
:1023000078E5C04608B300105425002014B300102F
:10231000520B0020560B002040420F0044AE00102C
:1023200034B300103CB300104CB30010D8B200100E
:1023300060B3001068B3001070B3001080B30010D9
:10234000BCB30010C4B30010D4B3001010B400101C
:1023500010B5002005F05CFA40B2264B1870431C03
:1023600013D0082812D00A281DD00D281BD0224BCC
:102370001B781F2B03D81F2801DD7F282ED10120B9
:1023800001F03AFC1B4B00221A7010BD1A4B1B784F
:10239000002BE8D0184A013B137018480822082186
:1023A00005F026FAEEE70A2005F0BEF9FFF7A2FCD9
:1023B000114B00221A700F4B1A70002303E0104AD1
:1023C0000021D15401331F2BF9DD0E4805F010FA1E
:1023D000002005F01DFA0130FAD1D6E705F0A4F986
:1023E00005490B78064A03480078D05401330B7036
:1023F000C8E7C0464F2500205225002038B4001001
:10240000241E0020D0AE001070B584B005000E0070
:1024100003AC03220021200004F0D4FF2B0A237018
:102420006570A670064800230093033322005021F4
:1024300007F064FF052001F0DFFB04B070BDC0466B
:10244000A00E002070B504000D00C9B2FFF7DCFF3C
:10245000290A0134A0B2FFF7D7FF70BD70B50400A0
:102460000D00C9B2FFF7D0FF290AC9B2601C80B2C3
:10247000FFF7CAFF290CC9B2A01C80B2FFF7C4FF46
:10248000290EE01C80B2FFF7BFFF201D80B20021A3
:10249000FFF7BAFF601D80B20021FFF7B5FFA01D56
:1024A00080B20021FFF7B0FF0734A0B20021FFF790
:1024B000ABFF70BD30B585B003AA002515800023A1
:1024C0006946CB72030A137050700A4C01230093C3
:1024D00001335021200007F011FF009501230B224A
:1024E0006A445021200007F015FF6B46D87A05B0EA
:1024F00030BDC046A00E002070B50500013080B28E
:10250000FFF7D8FF0402A4B22800FFF7D3FF001999
:1025100080B270BD70B50500073080B2FFF7CAFF0A
:10252000040E0602A81D80B2FFF7C4FF0643330E57
:1025300024021C433602681D80B2FFF7BBFF06432E
:10254000330E24021C433602281D80B2FFF7B2FF6F
:102550000643330E24021C433602E81C80B2FFF708
:10256000A9FF0643330E24021C433602A81C80B286
:10257000FFF7A0FF0643330E24021C433602681CFB
:1025800080B2FFF797FF0643330E24021C43360246
:102590002800FFF78FFF3043210070BD70B507287A
:1025A0000ED9FF282CD0244805F0F2F8D0242406B8
:1025B00004256561642001F01FFBA561002070BD4A
:1025C000013084011D4B19782000FFF71DFF1C4BC3
:1025D0001968601CFFF742FF1A4B19682000093088
:1025E000FFF73CFF184B198820001130FFF72AFF36
:1025F000164B197820001330FFF706FF0120DEE7A5
:102600000E4B19780020FFF7FFFE0D4B19680120D3
:10261000FFF724FF0B4B19680920FFF71FFF0A4B38
:1026200019881120FFF70EFF084B19781320FFF7C8
:10263000EBFE0120C3E7C04640B400105425002043
:10264000600B0020580B0020560B0020500B002080
:1026500010B5264B1B78DA0724D5D022120680212C
:10266000490251619A0723D5D0221206802189029E
:1026700051615B0722D5D0231B068022D2025A610A
:10268000D0231B065B68DB0203D4194B1B78012B9C
:102690001AD0D0231B065B68DB0202D5144B012243
:1026A0001A7010BDD0221206802149029161D9E72B
:1026B000D0221206802189029161DAE7D0231B061D
:1026C0008022D2029A61DBE7322001F095FA074AB4
:1026D00013780133DBB21370072B02D913000022E9
:1026E0001A70034B00221A70DBE7C046CE0D0020A3
:1026F000CD0D002070B507280ED9FF2838D03048FE
:1027000005F046F8D024240604256561642001F014
:1027100073FAA561002070BD013084012000FFF72D
:10272000C9FE284D2870601CFFF7F4FE264B186088
:10273000596020000930FFF7EDFE244B1860596006
:1027400020001130FFF7D8FE214B188020001330F5
:10275000FFF7B0FE1F4B18702B78012B04D0022B13
:1027600004D1FFF725F901E0FFF754F90120D2E782
:102770000020FFF79FFE134C20700120FFF7CAFED8
:10278000114B186059600920FFF7C4FE0F4B186009
:1027900059601120FFF7B0FE0D4B18801320FFF792
:1027A00089FE0C4B18702378012B04D0022B04D126
:1027B000FFF7FEF801E0FFF72DF90120ABE7C04677
:1027C00074B4001054250020600B0020580B00202A
:1027D000560B0020500B0020F8B5D0231B065B6879
:1027E0005B0203D4284B1B78012B08D0D0231B0697
:1027F0005B685B0202D5244B01221A70F8BDD0241D
:10280000240680277F0267618026B60266618025E4
:10281000ED026561642001F0EFF9A761A661A56191
:10282000642001F0E9F9194B1B78DA0719D56761C3
:102830009A071CD5D02212068021890251615B07BC
:102840001BD5D0231B068022D2025A61322001F010
:10285000D3F90E4B1878FFF74DFF0B4B00221A707F
:10286000CCE7D0221206802149029161E0E7D02214
:102870001206802189029161E1E7D0231B068022A4
:10288000D2029A61E2E7C046CC0D0020CE0D0020B6
:1028900010B58300084A944663441A684024624095
:1028A000803414408022520113431C60C000034B4B
:1028B0009C466044416010BD04C00140004001409E
:1028C00080000B4B9C46604400290DD00823002A51
:1028D0000CD004221343026853400C221A40802378
:1028E0005B0103431A6070470023F0E70022F1E721
:1028F00004C0014010B501238340D0221206936228
:1029000093610521FFF7C4FF10BD0000034B1B6856
:1029100002201840431E9841C0B2704700C00640D4
:10292000EFF3108072B6034B1B68002BFBD0BFF394
:102930005F8F70472C0100D0BFF35F8F024B0022E6
:102940001A6080F3108870472C0100D0F8B506009B
:102950000C001500FFF7E4FFE308F718F15C07220D
:102960002240012393400B4205D1DBB20B433B7065
:10297000FFF7E2FFF8BD2100280001F081FEF0B56D
:1029800083B00600019114001F00FFF7C9FF00E0AB
:102990000134BC420CD8E308F518F35C0721214050
:1029A00001228A401A42F3D1D2B21A432A7001E0BE
:1029B00001246442FFF7C0FF002C02DB200003B0BB
:1029C000F0BD019B002BF9D0089801F059FE0000E2
:1029D000002307E0054A9A189200BFF35F8F002199
:1029E000116001331F2BF5D97047C04640000034F9
:1029F000054A1078431CDBB21370172B02D9130061
:102A000010221A707047C046CF0D002010B582B05A
:102A10000100054C054B00931F2318222000FFF7EF
:102A2000AEFF02B010BDC046F01D0020A8B40010DB
:102A3000074B9B68103080001950BFF35F8FBFF3C6
:102A40005F8F044B0021196082F310887047C046E5
:102A500000ED00E0240100D010B50388DA0A1C2A3A
:102A600005D15B055B1502335B00C01810BD034B3D
:102A7000034A0448B12101F06BFDC046C4B4001004
:102A800078C40010DCB4001010B5091A0B1F0A4AF4
:102A900088180A4A904208D8C90706D45B105B051B
:102AA0005B0D0748184380B210BD064B064A074825
:102AB000A32101F04DFDC046FC070000FE0F000001
:102AC00000E0FFFF1CB500106CC40010DCB4001067
:102AD00010B5091A04394A08090B08D14905490DEE
:102AE000064B0B430380064B1343438010BD054B3D
:102AF000054A0648AB2101F02BFDC04600F0FFFF60
:102B000000F8FFFF4CB5001040C40010DCB400100A
:102B100001238340034A10681840431E9841C0B205
:102B20007047C04600E100E0002904D0034B186064
:102B3000034B18607047034B1860FBE780E200E02E
:102B400000E100E080E100E010B5012383401800BF
:102B5000FFF7EAFF10BD000001238340014A136024
:102B60007047C04600E200E0024B9B6810308000D6
:102B7000C058704700ED00E010B5FFF7F5FF0028E2
:102B800005D0054BC01A2F2803D8012010BD002006
:102B9000FCE70020FAE7C046D00D002070B5040025
:102BA0000D00EFF3108672B60C4B1B68002BFBD0A8
:102BB000BFF35F8F2000FFF7D7FF094B984201D08A
:102BC000A84205D1320029002000FFF731FF70BD77
:102BD000044B054A0548862101F0BAFC240100D0C7
:102BE000CD0100105CB50010A0C40010DCB40010D2
:102BF000F0B5DE4657464E464546E0B589B08146BB
:102C000001911500EFF3108A72B66D4B1B68002B13
:102C1000FBD0BFF35F8F6B4B00269E57002E41DB2E
:102C20007400A419A400684824180622A256654B13
:102C30001A70664B9A684B4610339B00D3589846DF
:102C40001F00181A2F2839D9614B984530D105AF8C
:102C5000604B3B80604973009B46981980005A4B3B
:102C6000984640440230FFF70FFF78805B4BBB80F3
:102C7000FF23BB71FD71019B079333005B449B00F5
:102C8000434407CF07C301231C43A0465246414695
:102C90004846FFF7CDFE09B0F0BCBB46B246A94698
:102CA000A046F0BD4E4B4F4A4F48D72101F050FC93
:102CB0004E4B4C4A4C48DE2101F04AFC01380C21B5
:102CC00002F02EFE002912D101239F43BB463B0098
:102CD0000027DA79AA4211D90621595600290CDBBE
:102CE0004A005218920038491F008B18F1E7404BF8
:102CF0003C4A3D48EA2101F02BFC1F00002F2ED05A
:102D000005AB3C4A1A80813A5A800623FB5602934F
:102D1000002B17DA384805AB9B469880029A9A71C7
:102D2000DD71019A0792381D2100FFF7ADFEB880D2
:102D3000BE71254B7200921992009B185A4613CA15
:102D400013C3A3E7381DFFF787FE01007000801949
:102D500080001D4BC0180430FFF796FEDBE705AF7F
:102D60001C4B3B801C49730002939B199B00164A25
:102D700090461A0042440392901CFFF785FE78802B
:102D8000039A101D5946FFF77FFEB8801B4B5A4629
:102D90004146521A524153431B0DBB71FD71019ABA
:102DA0000792029B9B199B00434407CF07C3114B1B
:102DB0005A461380813B538001231C43A04665E79C
:102DC000240100D055250020D00D002000ED00E0AA
:102DD000CD01001000A1FFFF000E002001BDFFFF8C
:102DE00094B5001088C40010DCB40010BCB500100D
:102DF000E4B500100148000001BD0000AAAA0000CF
:102E0000F0B5CE46474680B583B006000D00EFF31F
:102E1000108872B64F4B1B68002BFBD0BFF35F8F3F
:102E20004D4B9A6834001034A300D7584B4B9F4247
:102E300007D0AF4200D18BE00197494BFB1A2F2BF3
:102E400009D9424639003000FFF7F2FD03B0C0BC9B
:102E5000B946B046F0BD3000FFF75AFE814600216A
:102E60003000FFF771FEBFF35F8FEFF3058100299C
:102E700001D08C4211D10123019C9C430020A36806
:102E8000AB4212D00622A256002A0DDB53009B183B
:102E90009B00334A2000D418F1E7324B324A3621E6
:102EA0003248FF3101F054FB2000AB4249D10625E6
:102EB0006557002D2BDB2A4B6A00521992009B1894
:102EC0009A68A260DA79E2719B795BB2A371002BF8
:102ED0000FDA2748A080224B6A00521992009B18F3
:102EE000244A11789971157049463000FFF72CFE7D
:102EF000A7E7680040198000194BC0180430FFF79D
:102F0000ABFD0100231D1800FFF7BEFDE2E700291D
:102F100012D100280ED0FF238371174B83801549EF
:102F20000B78A3710E4A154BA41A644163431B0D21
:102F30000B70D9E7094FF2E71149201DFFF7C8FDD3
:102F4000D2E7104B084A6A210848FF3101F000FB24
:102F5000024F76E7240100D000ED00E0CD01001023
:102F6000D00D002058B6001058C40010DCB400107A
:102F700001BD00005525002001BDFFFFAAAA0000E9
:102F80000A0E00208CB6001070B5012202432E4BB1
:102F9000D31A2F2B28D8EFF30583002B2BD0EFF378
:102FA000108C72B6294909680029FBD0BFF35F8FE6
:102FB000254C274905002D1B6D416943090D4CB275
:102FC000244989689B00C95891421BD000210329DC
:102FD00032D81D4B4A00521892009B189B795BB265
:102FE000A3421FD00131F2E71B4B1C4AC7211C48EA
:102FF000490001F0ADFA1B4B184A92211848FF31E5
:1030000001F0A6FA134A92681749D150174B1A7863
:1030100082711C70BFF35F8F0C4B00221A608CF31F
:10302000108870BD084B4A005518AD005D19FF2689
:10303000AE710F4AAA80E9E70E4B084AD121084831
:10304000490001F085FAC046D00D0020240100D0CF
:10305000AAAA000000ED00E094B6001024C40010FD
:10306000DCB40010BCB60010CD01001055250020C6
:1030700001BDFFFFC8B600100022044B02E0044966
:1030800002C30132072AFAD97047C04600E400E0C3
:103090008080808010B582B00100074C074B009300
:1030A000052300222000FFF76AFC002801DB1F2314
:1030B000181A02B010BDC0465E250020D0B6001020
:1030C000024B9C4661448900016070474000003417
:1030D00010B5002B02DB0260436010BD024B034AB7
:1030E00003483F2101F034FAECB60010E0C40010B0
:1030F00008B7001070B582B0060014001D00FA2257
:10310000920000230698002103F0B2FF02000B009A
:1031100012196B41002B09DB6846FFF7D9FF009AB3
:10312000019B32607360300002B070BD01225242D8
:10313000004BF1E7FFFFFF7F10B582B0040000F005
:103140000BFD02000B006846FFF7C2FF009A019BCF
:1031500022606360200002B010BD30B585B004006D
:103160000D0002A8FFF7E8FF029A039B00952000DC
:10317000FFF7C0FF200005B030BD10B50400FFF719
:1031800037FC01002000FFF79BFFFF232371BFF3F3
:103190005F8F10BD10B50400FFF72AFC010020006E
:1031A000FFF78EFFFF23237100236371BFF35F8F4F
:1031B00010BD0000034B9C46614489000160BFF3D1
:1031C0005F8F70474000003410B504000120FFF706
:1031D0001DFC01002000FFF7EDFF10BD084B5B6AEE
:1031E000994209D8064A926A824207D2994201D08E
:1031F000012002E0002000E0002070470120FCE7F1
:103200000040054010B500290AD003681B7B8B42A3
:1032100006D38068054B9C4661440901401810BDE7
:10322000034B044A04483C2101F092F9FFFFFF0FD1
:10323000DCB70010C8C5001000B80010F8B50400D5
:103240001700FFF7DFFF0668456839002000FFF729
:10325000D9FF026843680120AB4201D802D00020A8
:10326000C0B2F8BDB242FBD8F9E7000010B5002BA0
:1032700002DB0260436010BD024B034A03483F215A
:1032800001F066F9ECB6001094C5001008B7001004
:1032900010B582B004000498059912184B41002B18
:1032A00009DB6846FFF7E2FF009A019B226063603A
:1032B000200002B010BD01225242014BF1E7C0468E
:1032C000FFFFFF7F10B5002908D0037B8B4205D399
:1032D00000684B005B18033BC01810BD024B034A4B
:1032E0000348682101F034F938B8001070C50010A7
:1032F00054B8001010B5437B8B4201D1012010BDA2
:10330000FFF7E0FF8378002B01D10020F7E70120D1
:10331000F5E770B50400857B002D01D1280070BD54
:103320002900FFF7CFFF4378A373002B00D1E3738D
:103330000023837043700370F0E70000F8B50600C7
:103340000C001500FFF7BEFF0700002C0DD0002D6C
:1033500011D0AC4215D029003000FFF7B3FF8470C4
:103360003B78002B13D13D70F8BD0A4B0A4A0B483D
:103370006F2101F0EDF80A4B074A0848702101F06F
:10338000E7F8084B044A0548712101F0E1F8437061
:103390003D70E9E7A0B800104CC5001054B800100B
:1033A000ACB80010B8B8001070B506000D001400DD
:1033B000002914D0002A14D0436880689847002858
:1033C00006D0220029003000FFF7B8FF280007E0F0
:1033D0002A0021003000FFF7B1FF200000E01000BC
:1033E00070BD0800FCE7000070B504000D1E0CD095
:1033F000FFF768FF0023837043700370617B2A002E
:103400002000FFF7D1FF607370BD034B034A0448EF
:10341000A52101F09DF8C046D0B8001060C500108D
:1034200054B8001070B504000D1E0FD0FFF762FFF6
:1034300000280BD1E17B00290ED1A37B002B03D107
:10344000E37B002B0DD1A573E57370BD084B094AD2
:103450000948F62101F07CF82000FFF733FF4570A2
:10346000EBE7064B034A0448FB2101F071F8C04624
:10347000D4B800103CC5001054B80010F8B80010C3
:1034800010B5002907D003681B7B8B4203D3C068AB
:103490000139401810BD034B034A0448412101F093
:1034A00057F8C046DCB7001028C5001000B800105F
:1034B00070B505000C00080000F072FC09492000FE
:1034C00000F0B2FBFFF794FA074B9C466044800083
:1034D00068602C75D0231B061B786B75034BA4000A
:1034E000E55070BDD935001040000034F0220020B6
:1034F0000A4B1A68EFF3108172B61368002BFCD0E8
:10350000BFF35F8F054B1B68BFF35F8F00221A600C
:1035100081F3108840BF002000217047142500204F
:1035200010B582B0040000F017FB02000B006846E3
:10353000FFF79CFE009A019B22606360200002B0AE
:1035400010BD0000F0B583B0070001921D000AAB6A
:103550001C780BAB1E78002C0BD000682100FFF705
:10356000C9FE002809D0194B194A1A48672100F0F2
:10357000EFFF0068FFF7CDFE0400002C02D1200011
:1035800003B0F0BD21003800FFF73CFE019B036053
:103590004560089B8360099BC36038682100FFF782
:1035A00023FFA042EBD1387D019A2B0000F084FB71
:1035B000051E01D0002E04D00C9B002BDFD01D7007
:1035C000DDE73868210000F031FDF5E70CB90010A7
:1035D0007CC5001000B80010F0B5DE4657464E46D8
:1035E0004546E0B58FB00B900021794B8200D4584E
:1035F000894683E029002000FFF704FE8046026828
:103600004368921BBB41002B09DD43461A685B6887
:103610000B9800F051FB0023984600268AE0002B0F
:1036200001D1002AF1D10021584600F0F5FC070035
:10363000A84215D143461A685B680892099343462D
:103640009E68DB689846002E10D029002000FFF706
:1036500017FF037899461B021F432761002069E08A
:103660005C4B5D4A5D488E2100F072FF5C4B5A4A0C
:103670005A48922100F06CFF2369002B00D177E0BB
:10368000BB4219D106980799002342428B41009210
:103690000193089A099B0CA8FFF7FAFD0C9A0D9B61
:1036A0000021049101310391029541460191009658
:1036B0002000FFF747FF16E04A4B474A4748A12141
:1036C00000F046FF069A079B002B01D1002A52D139
:1036D00020682900FFF7A6FE29002000FFF7D0FE92
:1036E000037801330370002323616268BFF35F8FA7
:1036F00013608AF310880120002861D00CA8FFF71E
:103700000FFF0C9E0D9F0022002308920993626810
:10371000EFF3108A72B61368002BFCD0BFF35F8FF3
:1037200023689B465D7B002D00D063E7002398460D
:10373000002600206368BFF35F8F00221A608AF3BF
:103740001088002ED8D04B461F022F434146380028
:10375000B047069007916268EFF3108A72B613685B
:10376000002BFCD0BFF35F8F079B002B00DA83E7B1
:10377000079B002BA6DD2369002BA9D0BB4219D1E2
:103780000CA8FFF7CDFE0C9A0D9B069807990090A8
:1037900001910CA8FFF77CFD0C9A0D9B0021049170
:1037A0000131039102954146019100962000FFF7F7
:1037B000C9FE98E70B4B084A0848A42100F0C8FE50
:1037C0000FB0F0BCBB46B246A946A046F0BDC0460D
:1037D000F022002034B90010ACC5001000B8001071
:1037E0004CB9001058B9001010B50C4B5B68002B99
:1037F00004D00B480A21FFF763FC10BD074C094AAF
:1038000020682300102100F072FB032000F098F9DB
:1038100003212000FFF74CFEEBE7C046180E002006
:10382000142500203D32001010B5064B5B68002BBC
:1038300001D0044810BD044B044A05485E2100F045
:1038400087FEC046180E002094B9001010C5001065
:1038500000B80010F0B5DE4657464E464546E0B586
:103860008DB0060090461F00169B9A46179B9946FE
:1038700018AB1B780793272302AA944663440022BF
:103880001A7021E001003000FFF7FAFD00783CE0FB
:103890000698002B5CD0079B002B59D04946D04797
:1038A00004000D0003000B4359D0002940DB08A899
:1038B000FFF736FE089A099B0094019508A8FFF7C8
:1038C000E7FC089B9846099F7268EFF3108B72B66D
:1038D000136859424B41D9B20691002BF8D1BFF37E
:1038E0005F8F273302AA9446634404930023039313
:1038F00002934B4601935346009342463B003000EF
:10390000FFF720FE0400051EBCD17368BFF35F8F74
:10391000002119608BF31088002D17D0272302AAED
:10392000944663441B78002BB2D100022043B0E7D9
:1039300000236242AB410092019342463B0008A83B
:10394000FFF7A6FC089B9846099FBDE7012040426F
:103950000DB0F0BCBB46B246A946A046F0BD0698E5
:10396000F6E7F0B5C64600B584B0050088461600F7
:103970001F000AAB1C78FFF757FF029401970096CF
:103980002A004346FFF766FF04B080BCB846F0BD8E
:10399000F0B5C64600B505000C1E42D04268EFF3F4
:1039A000108772B61368002BFCD0BFF35F8FE6B2AE
:1039B0002B68984631001800FFF79CFC00282AD09D
:1039C0002B69A34213D0240AE4B231002800FFF788
:1039D00057FD0378A34211D000206B68BFF35F8FBF
:1039E00000221A6087F3108880BCB846F0BD0E4BE9
:1039F0000E4A2C210E48FF3100F0AAFD310040464E
:103A000000F014FB0028E8D10A4B084A9921084825
:103A1000490000F09DFD2B69A342DED100232B61FC
:103A2000DBE70020E0E7C046B8B90010F8C400109A
:103A300000B80010DCB9001010B50400FFF7F4FE68
:103A40002100FFF7A5FF10BD407D704730B583B062
:103A500005000C00EFF30583002B0FD10B4A002368
:103A60000093FFF77EFF00280BDD20BFFFF7E4FF88
:103A700028002100FFF7B2FB03B030BDFFF7AEFB1B
:103A8000FAE728002100FFF7A9FBF5E7F134001061
:103A900010B5002B02DB0260436010BD024B034AED
:103AA00003483F2100F054FDECB60010F0C50010B3
:103AB00008B7001070B5EFF305801038EFF3108CE5
:103AC00072B6194B1B68002BFBD0BFF35F8F01222E
:103AD0001300834015494B6315490B60154909785C
:103AE0000C00C440224213D0104A546A124A850086
:103AF000AA58944205D3114AAA580E4C99432170F2
:103B000007E00A4A031D9B0099589950002200E0E3
:103B10000022BFF35F8F044B002119608CF31088E3
:103B2000002A00D0904770BD280100D00040054019
:103B30003C7005405D25002020250020D81C002079
:103B400010B50100024A034B1800FEF7FFFE10BD3E
:103B5000E0B9001050250020044B5B6A034A906ACC
:103B60001900536A9942F9D17047C0460040054098
:103B7000084B5B6A01E0074B5B6A8B42FBD301E0B9
:103B8000044B5B6A8B4203D1024B9B6A8342F7D39F
:103B90007047C04600400540F0B583B004000D00FA
:103BA000FFF7DAFF06000F0022002B0092197B417D
:103BB000994202D804D1904202D901225242D3172D
:103BC0006846FFF765FF00980199FFF7D1FF03B042
:103BD000F0BD000010B5002807DB064B9A6A054BC4
:103BE0009B6A9B1A8342FAD310BD0021FFF7D4FFD2
:103BF000FAE7C0460040054010B50A4B984207D886
:103C000043011B1A9B001818C000FFF7E3FF10BD0B
:103C1000FA2292000023002103F02AFAFFF7BCFFEA
:103C2000F5E7C0469BC4200070B504000E00EFF31A
:103C3000108572B61B4B1B68002BFBD0BFF35F8F48
:103C4000002E1CD02000FEF78FFF174B83420BD0B5
:103C500019002000FEF7A2FF01212000FEF774FFEB
:103C60000123A340114A1360114BA400E650BFF397
:103C70005F8F0C4B00221A6085F3108870BD0C4BCF
:103C8000A2000021D1500122A2400A490B7893439F
:103C90000B7005492000FFF7B3F800212000FEF764
:103CA00053FFE4E7280100D0B53A00103860054022
:103CB000D81C00205D250020F0B5DE4600B584B09C
:103CC0000400150001921E000293FFF745FF0395C3
:103CD0008E4202D84ED185424CD9EFF3108B72B68A
:103CE000274B1B68002BFBD0BFF35F8F254A17784B
:103CF0000125A540EBB23B431370234B5D63221DAE
:103D000092000199D150214AA100029888501B6A63
:103D10002B4212D11C4B1B6C2B4208D00020BFF34E
:103D20005F8F174B00221A608BF3108823E0184B2B
:103D3000184A1948C52100F00BFCFFF70DFF8E4211
:103D400014D802D1039B834210D80E4B1B78BB4280
:103D50000ED00D4B1D625D631F2222400123934054
:103D60000E4A1360074B1F700120D8E70020D6E7EA
:103D70000120D4E7012004B080BCBB46F0BDC046A2
:103D8000280100D05D2500200040054020250020AE
:103D900004BA0010D4C5001028BA001080E200E078
:103DA000EFF3108C72B60B4B1B68002BFBD0BFF3EC
:103DB0005F8F01238340084A136208490A789A43B7
:103DC0000A70BFF35F8F034B00221A608CF31088D8
:103DD0007047C046280100D0004005405D25002006
:103DE00010B5002908D0037B8B4205D300684B0037
:103DF0005B18033BC01810BD024B034A03486821FF
:103E000000F0A6FB38B8001048C6001054B80010E7
:103E1000F8B506000C001500FFF7E2FF0700002CC4
:103E20000DD0002D11D0AC4215D029003000FFF785
:103E3000D7FF84703B78002B13D13D70F8BD0A4B3F
:103E40000A4A0B486F2100F083FB0A4B074A0848D7
:103E5000702100F07DFB084B044A0548712100F0F9
:103E600077FB43703D70E9E7A0B8001034C600103E
:103E700054B80010ACB80010B8B8001070B5060007
:103E80000D001400002914D0002A14D04368806863
:103E90009847002806D0220029003000FFF7B8FF1D
:103EA000280007E02A0021003000FFF7B1FF2000C2
:103EB00000E0100070BD0800FCE770B505000023AD
:103EC000437301338373037BC373012406E0210032
:103ED0002800FFF785FF0134E4B24470297BA1423A
:103EE000F5D82800FFF77CFF0023437070BD10B5A4
:103EF000017342608360FFF7E0FF10BDF0B5C64676
:103F000000B505000C1E03D1200080BCB846F0BDF2
:103F1000FFF766FF4678002EF6D031002800FFF745
:103F20005FFF477800239846437021002800FFF781
:103F300057FF43464370320021002800FFF79EFFE1
:103F4000040039002800FFF7D9FF020021002800F3
:103F5000FFF794FF0400D7E7F0B5C64600B50400AC
:103F60000D001700002927D0FFF73AFF4378002BF8
:103F700028D18378002B2BD101782000FFF7BEFFDA
:103F800006008046002F0AD0E17B002926D1A37BC2
:103F9000002B03D1E37B002B25D1A573E5734346AA
:103FA000002B26D129002000FFF71AFF00234370C1
:103FB000300080BCB846F0BD114B124A124838217F
:103FC00000F0C6FA114B0F4A0F483A2100F0C0FA30
:103FD0000F4B0C4A0C483B2100F0BAFA2000FFF7C7
:103FE000FFFE4570D3E70B4B064A0748422100F01D
:103FF000AFFA31002000FFF7F3FE00238370D1E712
:104000006CBA001020C6001074BA0010ACBA0010D0
:10401000D4BA0010F8B8001070B504000A00457B4F
:104020002900FFF799FF6073280070BD70B5060086
:104030000C1E40D0437B8B4207D0FFF7D1FE05001A
:104040008178002906D1002036E00121FFF7E4FF46
:10405000012031E03000FFF7C3FE0178A1420DD00E
:104060003000FFF7BDFE4178A1420AD00029F7D108
:10407000124B134A13486B3100F06AFA6B780370E5
:1040800001E06B7843700023AB706B70012221005C
:104090003000FFF761FF0200717B814205D03000E4
:1040A000FFF7ECFE7073012006E0074B044A054859
:1040B000712100F04DFA002070BDC046C8B6001056
:1040C00008C6001074BA0010F8BA0010F8B5DE4641
:1040D00057464E464546E0B506000F0015000A9AC1
:1040E000934250D31A0E92461B0298460A9A002316
:1040F0004046514601F052FC81467400A419A400C8
:104100002F4B9C4664446368834200D26060331F37
:10411000DBB29B46012B3CD9C0239B012343802269
:1041200012011A60274BB200D158002907D05869F4
:1041300001F0F6FB013043001B18033BFDD26D017B
:1041400023685D40E0222A4080235B0123431A60FC
:104150005A46012A28D980239B0123438022120139
:104160001A604B4663604A4600234046514601F0C0
:1041700015FC144BB60098510120F0BCBB46B2466A
:10418000A946A046F8BD104B104A1148332100F053
:10419000DFF9012FC0D1C0239B01234303221A6002
:1041A000A368DB07FCD5CAE72168794003220A40EF
:1041B0001A60A3680125BD401D42FAD0CBE7C04676
:1041C00000800040FC1D002018BB001054C60010E9
:1041D0002CBB001030B583B00C2000F011F9FEF7B5
:1041E00095FB00280DD0002304E02E4A99002E48AC
:1041F00088500133092BF8D92A4B2C4A5A6203B054
:1042000030BD2B4B00229A6700F06CF9294B01223C
:104210001A60274B5B6C012BFBD1274B03221A60E2
:10422000234B9B6B012BFBD1013300930433234AB7
:104230000121234800F054F805230093214A01216D
:10424000214800F04DF8214B009300220221042068
:10425000FFF73CFF1E4D00952B0000220121052099
:10426000FFF734FF104C00942300002200210720A8
:10427000FFF72CFF00942300002200210820FFF705
:1042800025FF0A4B00932300002200210920FFF79D
:104290001DFF00952B00002200210620FFF716FFCE
:1042A000ADE7C046FC1D0020006CDC021BB700001F
:1042B000008000403CB0004030B00040002F685902
:1042C00000800240008C864700C00240001BB700FF
:1042D00040597307014B8000C0587047FC1D0020F7
:1042E000F0B5C64600B504000E0017001D003748A3
:1042F00001F016FB8046364BFA18364B9A4239D8F5
:104300000100380001F00CFB0200103A98235B001A
:104310009A4235D86B1E062B38D8069B013B062BDC
:1043200034D83F09474537D32D04069B1B031D4353
:104330002368002B36DB284B9C4244D080235B0152
:10434000264A1360264A1360264A92681900914350
:10435000FAD12660A060221DC0239B0113432122B5
:104360001A602268002AFCDAE56008221A6080BC24
:10437000B846F0BD1C4B1D4A1D48112100F0E8F85D
:104380001C4B1A4A1A48192100F0E2F81A4B174A36
:1043900017481C2100F0DCF8184B144A144823215C
:1043A00000F0D6F822683F231340B342C3D1A3687C
:1043B0001B051B0D8342BED1E368EE22D2021340DF
:1043C000AB42B8D1D3E780239B01B9E7001BB7000C
:1043D00080E84BD380F8A93200C0024000E00040E2
:1043E00000F0004000C0004070BB001064C6001028
:1043F000D0BB001010BC00102CBC001078BC00100A
:1044000080239B000343014AD3627047008005402C
:10441000024B1A68024B5A607047C046C022002007
:104420000080054010B5174B8022D2051A60164B4C
:10443000164A1A6000290AD0154BE022D2041A60ED
:10444000002809D1124B802212061A6010BD0D4BB4
:10445000E022D2041A60F3E743011B1A9B001818EC
:1044600000010C4B186080235B04984202D3094B77
:10447000094A1A60FFF7CCFF054B8022D2051A606B
:10448000E4E7C04600B0054008200140FCFF010001
:1044900000A00540C0220020FFFFFF0010B5030070
:1044A00010000C4A8024E4051460002B0DD001227A
:1044B0001343094A094CD461094C5C4014625162AF
:1044C00093620021FFF7AEFF10BD034B0022DA61BB
:1044D000F7E7C04600B0054000800540D3C007B0F4
:1044E0002D3FF84F064BAA2212011A602F22DA60E4
:1044F000044B054A1A60024B5B68002BFBDA7047DD
:10450000004002400060024000B0FA0000BEFDE73B
:1045100003000A4A1268002A08D0084A1068C31823
:10452000074A9A4206D3054A13607047034A054971
:104530001160F2E701204042F7E7C046B81E0020B4
:10454000000004206025002010B5FFF7DFFF000009
:1045500030B583B00D001900002A0BD0074B084C72
:10456000019200932B000200200003F041F901208A
:10457000FFF7CCFF034B1A00F1E7C04694BC0010D4
:10458000A4BC0010CCAE001070B52B4B2B4A1A60A7
:104590002B4B2C4A1A602C4B9A682A4B9343FAD126
:1045A0002A4C01E008CC9847294B9C42FAD3FFF7EC
:1045B00011FE234B274A1A60234B9B68DB43DB0128
:1045C000FAD1254B40229A675A671A67DA66234C5C
:1045D00009E0234B234A24488721FFF7B9FF200035
:1045E000FEF7CBFD0834214B9C4209D22368002BF7
:1045F000F5D0012BEDD12000FEF7CCFD0834F2E719
:104600001B4DA9681B4CC022200002F0E1FEAC60EB
:10461000EFF30583002B00D000BEFEF7D9F9FEF7BB
:104620002BFDFFF7E1F8144C01E008CC9847134B41
:104630009C42FAD370BDC04600E00040BFCDFBFEF7
:1046400000F00040FE7F3C0000C00040F01300205E
:1046500000140020FFFFFF0100F00140E0130020E4
:10466000D4BC001070C60010F4BC0010F013002081
:1046700000ED00E000000020001400200C140020D9
:104680000FB400B583B0084803F082F8049B002BF8
:1046900007D005A90191180003F08AF8034803F038
:1046A00077F80120FFF732FF38BD001044AE00104C
:1046B000704710B5002802D00B684968984710BDB4
:1046C0000100002007E083001B185B00501C0860FD
:1046D0001078C01830380A681378303BDBB2092BE9
:1046E000F1D97047F0B5DE4657464E464546E0B52F
:1046F00083B093461F000C9B9A460D9C0E9B9946D7
:104700000F9B9B0703D0B8460F00060022E00192E2
:10471000A34688464E46B9460700B44207D2551C08
:104720004B4641462020B84701342A00F5E73D00BA
:104730004F465C46019B9B46B1464646B84637000D
:104740002E0007E0013C551C5346185D43463900D6
:10475000B0472A00002CF5D135003E0047460F9B9C
:104760009B0707D4100003B0F0BCBB46B246A94675
:10477000A046F0BDB0464E46B9462F005D46531BDD
:10478000B342EFD2541C4B4641462020B84722008A
:10479000F5E7F0B5CE46474680B585B094469846D5
:1047A0000C9D0D9C0EAB1B789946109A119B129E86
:1047B000B7071CD4002B0CD0F7070AD54F46002FA3
:1047C00002D10C37374204D0013B02E030272F558D
:1047D0000134944201D21F2CF8D9F70707D59C4227
:1047E00005D21F2C03D830272F550134F5E7F706E3
:1047F00012D5770505D4002C03D0944221D09C42D9
:104800001FD00F9A102A32D00F9A022A37D01F2CAD
:104810000AD830222A5501341F2C05D84A46002ACE
:1048200033D02D222A55013403960293019400952A
:1048300043466246FFF756FF05B0C0BCB946B046D6
:10484000F0BD621E012C10D00F9F102F0BD0140052
:104850000F9A102AD8D1B206D6D51F2CD4D85822F8
:104860002A550134D3E7023CCBE71400C9E7B2066E
:10487000EED41F2CECD878222A550134C7E71F2C20
:10488000D2D860322A550134C1E7720703D52B22F2
:104890002A550134C8E73207C6D520222A550134EB
:1048A000C2E7F0B5DE4657464E464546E0B593B002
:1048B00081468A46089209931CAB10CB1B789B4615
:1048C0001E9D219B9846002C03D1102342469A43FB
:1048D00090468023DB0046461E4042461A4212D0D4
:1048E000002C22D000260EE03033D9B2771C0AAB60
:1048F00099552900200001F013F8AC4216D31F2F60
:1049000014D83E0004002900200001F009F8CBB2C1
:10491000092BE9D94246920605D54121C918C9B2E9
:104920000A39C9B2E2E76121F8E727004346069356
:10493000209B05931F9B049303955B46029301976D
:104940000AAB0093099B089A51464846FFF721FF9E
:1049500013B0F0BCBB46B246A946A046F0BDF0B5C8
:10496000DE4657464E464546E0B597B00A900B9155
:104970000C929A46209B9946219F22AA13789B4627
:10498000249B0993259C289B98464A463A4302D18A
:104990001032934398468022D20045461540434644
:1049A00013420AD04A463A4341D000252E005346CE
:1049B0000D934D46099B9A461BE02E0053460D93DE
:1049C0004D46099B9A4614E03033DAB2731C99467F
:1049D0000EAB9A55524623002800390000F0DEFF46
:1049E000BC4226D819D04B461F2B1CD84E4605007A
:1049F0000F00524623002800390000F0CFFFD3B249
:104A0000092BE1D94246920605D54122D218D2B2ED
:104A10000A3AD2B2DAE76122F8E7AA45E3D94E466C
:104A20000D9B9A4608E04E460D9B9A4604E00026F0
:104A300002E04E460D9B9A4643460693279B0593FC
:104A4000269B0493099B03935B46029301960EAB4E
:104A5000009353460C9A0B990A98FFF79AFE17B0E9
:104A6000F0BCBB46B246A946A046F0BDF0B5DE4656
:104A700057464E464546E0B591B0804689460C9271
:104A80009A461A9C1B9D22002B002000290001F051
:104A900018FA002800D0ECE001225242D44B20004A
:104AA000290001F009FA002800D0E2E00122524278
:104AB000D04B2000290001F0E9F9002800D0D8E00F
:104AC000002200232000290001F0E0F9002800D096
:104AD000E4E0069407958023DB001E9A1A400D92AD
:104AE0001E9A1A4201D106231C93069807990200C8
:104AF0000B000892099303000A00024300D1D9E099
:104B0000080D4005400DBC4EB44660440A03120B2C
:104B10001E00BA4B13431F0001F0E6F9B84AB94B27
:104B200001F069F9B84AB94B01F03EF908900991D2
:104B30000022B74B3000390001F02DF9B54AB64BD1
:104B400001F059F902000B000898099901F02CF9BD
:104B500001F0E2F9834601F0C7F906000F00AF4A01
:104B6000AF4B01F048F90022AE4B01F01DF901F006
:104B7000D3F90890AC4AAD4B3000390001F03BF955
:104B800006000F00089801F0AFF9A94AA94B01F0FF
:104B900032F902000B003000390001F0FCF8060089
:104BA0000F0002000B0001F026F90A900B91089B00
:104BB000A14A9446634400210022089109921B05F2
:104BC00009930023089332003B003000390001F0C4
:104BD000EBF80E900F9132003B0000208021C905B8
:104BE00001F0D9F806000F000022944B0A980B99A7
:104BF00001F0E3F80022924B01F0D6F802000B001E
:104C00000A980B9901F0D9F800228E4B01F0CCF8EC
:104C100002000B000A980B9901F0CFF802000B007C
:104C20003000390001F0C0F802000B000E980F9917
:104C300001F0C3F80022714B01F0B6F8089A099B05
:104C400001F0D9F806000F0008960997069A079B0D
:104C500001F032F900282FD001235B429C46E34447
:104C60000022774B3000390001F0A7F80890099135
:104C700022E01E9B04931D9B03931C9B02930094B4
:104C8000019553460C9A4946404600F0FFF811B092
:104C9000F0BCBB46B246A946A046F0BD00210022AA
:104CA00006910792069480231B069C46AC446346FB
:104CB000079310E700239B465B466333C62B20D83F
:104CC00004261E9B1B0528D5089A099B1900114331
:104CD0000FD05D4A5D4B0698079901F0E5F8002872
:104CE0007AD000225A4B0698079901F0CFF8002895
:104CF00072D01C9B5B4506DD5A469B1A013B1C93F8
:104D000003E00526DDE700231C938023DB001E9AC9
:104D10001A431E92002600239B461D9B9E4265D28D
:104D20009F1B02231E9A1A400A921E9A134202D017
:104D3000002E00D000275B46002B07D0089A099B65
:104D40000698079901F039F8069007910022002390
:104D50002000290001F09AF8002800D07CE03D4BAB
:104D60001E9A1340049303971C9B0293069B079C77
:104D70000093019453460C9A4946404600F086F849
:104D8000002E00D183E71E9B9B0671D54525441C50
:104D90005346020049462800C0475A46D317D21846
:104DA0005A4005230593013E0496002303930A33DA
:104DB00002935B46DB0F0193009253462200494663
:104DC0004046FFF76EFD0A9B002B00D15FE7020013
:104DD00047460C9E1D9D53E01C9B002B9DD00D9BB8
:104DE000002B9AD01C9B013B1C9396E7002798E769
:104DF000FFFFEF7FFFFFEFFF01FCFFFF0000F03F31
:104E0000FB799F501344D33FB3C8608B288AC63FB9
:104E10000000F83F61436F63A787D23F71A3790910
:104E20004F930A400000E03F1655B5BBB16B0240FE
:104E3000EF39FAFE422EE63FFF03000000002C404F
:104E400000002440000018402D431CEBE2361A3FBE
:104E500080842E41FFF7FFFF069C079D220029005A
:104E600080200006844661440B000692079376E793
:104E700065258CE7541C534649462020B84722003C
:104E8000931BAB42F6D3100001E7C046F0B5DE46F7
:104E900057464E464546E0B595B006900791934675
:104EA0009946209F1E9A1F9B1000190001F009F8D7
:104EB000002831D101225242BF4B1E981F9900F0A9
:104EC000E5FF002837D101225242BC4B1E981F99A2
:104ED00000F0F2FF00283DD10022B94B1E981F9927
:104EE00000F0EAFF002850D10022B64B1E981F990F
:104EF00000F0CCFF002848D1002200231E981F9903
:104F000000F0C4FF002850D100239846229B5B0587
:104F100000D4B6E0002458E0229B0393219B029327
:104F200003230193A84B00934B465A4607990698D2
:104F3000FFF7D8FB0EE1229B0393219B02930423EE
:104F40000193A24B00934B465A4607990698FFF7E8
:104F5000C9FBFFE00423229A1A4022990B4210D089
:104F60009B4B002A0FD00422229903912199029190
:104F7000019200934B465A4607990698FFF7B2FBF9
:104F8000E8E0944BEDE70322EEE7229B0493219B9C
:104F9000039302971E9B1F9C009301944B465A4615
:104FA00007990698FFF762FDD4E01E9A1F9B002028
:104FB000002100F0F0FE1E901F9101239846A5E706
:104FC0000CAB30221A55013F01341F2C01D8092F98
:104FD000F6D81E981F9900F09FFF050000F084FF8F
:104FE00002000B001E981F9900F0D5FE7A4BFA00C4
:104FF0009B181A685B680A920B9300F0FCFE0890FD
:10500000099100F0ADFF060000F06AFF02000B00FE
:105010000898099900F0BFFE0890099100226F4B93
:1050200000F04AFF00282ED00136300000F058FF73
:1050300002000B000A980B9900F02EFF002801D007
:1050400001350026002F2CD1280000F04DFF020072
:105050000B001E981F9900F09EFE06000F00002214
:105060005E4B00F013FF002846D100225B4B30005E
:10507000390000F021FF00283ED1EB073CD5013577
:105080003AE0062746E70022544B0898099900F0B9
:10509000FDFE0028D6D1002E01D0F307D2D501366F
:1050A000D0E7AA461F2C11D8013F0A21300000F09A
:1050B00037FC651C30310CAB19550A21300000F06B
:1050C0002FFC092E0ED906002C00EBE755461F2CAD
:1050D0000CD87B1E002F09D00CAA302111551F00BF
:1050E0000134F4E72B0055461C00F0E71F2C03D8D1
:1050F0000CAB2E221A5501341F2C10D80A2128007F
:1051000000F0E6FB661C30310CAB19550A21280073
:1051100000F0DEFB051E01D03400EDE73400032370
:10512000229A1340012B1CD01F2C06D84346002B7B
:1051300032D00CAB2D221A550134229B0393219BB4
:10514000029301940CAB00934B465A46079906987C
:10515000FFF7C8FA15B0F0BCBB46B246A946A04658
:10516000F0BD219B002B13D04346002B02D10C3302
:1051700013420FD0219B013B2193190003E00CAB9C
:1051800030221A5501348C42CED21F2CF7D9CBE7EE
:105190002199F8E72199F6E7229B5B0704D50CAB30
:1051A0002B221A550134C8E7229B1B07C5D50CAB2F
:1051B00020221A550134C0E7FFFFEFFFFFFFEF7F0A
:1051C00065CDCD4165CDCDC154BD001058BD001099
:1051D00048BD001050BD001020C800100000E03F86
:1051E000F0B5DE4657464E464546E0B593B082469A
:1051F000884693461193002900D10DE300255646B9
:10520000119B1878002800D109E3252809D06C1CCF
:105210005B462A004146B047119B0133119325009C
:10522000EEE701331193002720E001231F430132F1
:105230001192012418E002231F430132119201242C
:1052400012E004231F430132119201240CE00823D1
:105250001F4301321192012406E010231F43013243
:105260001192012400E00024002C09D0119A137837
:10527000203BD9B21029F6D88B00C849CB589F469D
:10528000119B1A781300303BDBB2092B10D92A2A64
:1052900013D00B94119B1A782E2A1ED0119A1378D2
:1052A000683BD9B2122959D88B00BD49CB589F46CB
:1052B00011A8FFF705FA0B90ECE71C9B1A1D1C9236
:1052C0001B68002B04DB0B93119B01331193E1E767
:1052D000022217435B420B93F6E78022D20017436A
:1052E0005A1C11925A781300303BDBB2092B0BD9B0
:1052F0002A2AD3D11C9B1A1D1C921C68002C08DB87
:10530000119B01331193C9E711A8FFF7D9F90400E4
:10531000C4E70024F4E780235B003B43511C119158
:1053200051786C2901D01F0018E0C0239B001F4357
:105330000232119212E080233B43511C11915178AB
:10534000682901D01F0009E0C0231F4302321192D7
:1053500004E080235B001F4301321192119B1878F7
:10536000672818D8252800D24CE20300253BDAB282
:10537000422A00D946E293008A4AD3589F468023A6
:105380009B001F4301321192E8E780235B001F431B
:1053900001321192E2E7782800D933E2692800D27D
:1053A00030E20200693AD2B2012393407E4A1342AE
:1053B00011D11A0600D500E25B0500D422E21C9B45
:1053C0001A1D1C921B689A46002C00D0B2E10122E3
:1053D000524253468EE16F280ED006D858283DD051
:1053E000622804D102239C4608E0782839D0102393
:1053F0009F43063B9C4601E008239C46582833D037
:10540000692803D0642801D00C2297437A0501D57E
:105410000122974369282AD0642828D0BA0500D5EC
:105420009FE0FA0500D5C1E07A0600D4D3E01C9ACB
:10543000111D1C911168FF220A4005970B9B0493D4
:105440000394634602930023019300925B462A0073
:1054500041463000FFF725FA050027E010239C465F
:10546000CCE710239C46C9E720221743C8E7BA05BA
:1054700020D4FA0550D47A0666D51C9A111D1C91C9
:105480001168FF220A40D0171118414005970B9B65
:105490000493039463460293D20F019200915B46FA
:1054A0002A0041463000FFF7FCF90500119B01334B
:1054B0001193A5E61C9A073207218A43110008318F
:1054C0001C91116853689946DB170C930D930C9A45
:1054D0000D9B100048400E904A4653400F930E9883
:1054E0000F990C9A0D9B801A99410E900F91089775
:1054F0000B9B0793069463460493002305934B4646
:10550000DA0F0292009001915B462A00414630007A
:10551000FFF725FA0500C9E71C9A111D1C911268B6
:10552000D0171118414005970B9B049303946346D1
:105530000293D20F019200915B462A00414630004F
:10554000FFF7AFF90500B1E73A0605D51C9A111D22
:105550001C910023D25E96E71C9A111D1C911268C3
:1055600091E71C9A073207218A43110008311C91E8
:1055700008970B9B079306946346049300230593B7
:10558000029353681268009201935B462A004146D9
:105590003000FFF7E4F9050088E7C04680C6001038
:1055A000C4C6001010C70010419000001C9A111DC5
:1055B0001C9105970B9B049303946346029300236D
:1055C0000193136800935B462A0041463000FFF7C1
:1055D00068F905006AE73A0606D51C9A111D1C9168
:1055E00012681204120C28E71C9A111D1C911268F3
:1055F00023E7462819D01C9B0733072293431A0040
:1056000008321C9204970B9A039202941A685B6802
:10561000009201935B462A0041463000FFF736FCBA
:105620000500119B01331193EAE520231F43E2E7B4
:10563000672801D0472802D180231B011F4345283A
:1056400001D0472801D120231F431C9B0733072289
:1056500093431A0008321C9204970B9A0392029407
:105660001A685B68009201935B462A00414630004D
:10567000FFF7FCF90500119B01331193C0E50223EC
:105680001A003A4091463B421DD001241C9B1A1D32
:105690001C926F1C18785B462A004146B0474B4667
:1056A000002B14D1119B013311933D00A8E5571C29
:1056B0005B4641462020B04723003A005C1C9D42D7
:1056C000F5D81500E2E701232A000B9DF6E73A0022
:1056D000B1460B9E06E0571C5B4641462020C8475A
:1056E0002C003A00651CA642F5D817004E46D9E7B3
:1056F00001330A001978002902D0511E002AF7D17F
:1057000052469B1A8022D200390011408946174226
:1057100002D0A34200D92300022211003940109187
:105720003A4209D02A00250057469A4633004E4691
:10573000994621E022004CE62A004546A04606E0B4
:10574000541C5B4629002020B0473B0022005F1C10
:105750000B999942F4D84446A8463B002500574689
:105760009A4633004E46994606E01D000137541C08
:105770005B464146C84722003878002804D0002EF6
:10578000F4D06B1E002DF0D1150053464E46109AF2
:10579000002A03D1119B0133119331E50B9F2A009D
:1057A00006E0551C5B4641462020B04723002A00F6
:1057B0005C1C9F42F5D81500ECE721233B431C9A63
:1057C000111D1C9112680593082304930394083358
:1057D00002930023019300925B462A004146300069
:1057E000FFF75FF80500119B0133119308E56C1C6E
:1057F0005B462A0041462520B047119B0133119397
:105800002500FDE46C1C5B462A004146B047119B15
:10581000013311932500F3E40A4B9A46EEE4B246B5
:105820005D450DD35B465A1E5B4641460020D0477E
:10583000280013B0F0BCBB46B246A946A046F0BD56
:105840002A00F1E7B146001000B585B0029003913F
:1058500001210448009313004A4202A9FFF7C0FC4B
:1058600005B000BDB346001001480421014B1847A4
:10587000400E00209958001010B5010018231B8815
:1058800014221088984710BD10B5010018231B88FA
:1058900016221088984710BDF0B5C64600B507001F
:1058A0000E0000250123984600E00135B5420AD2DA
:1058B000AC003C192068FFF7DFFF20600028F4D11E
:1058C00000239846F1E7404680BCB846F0BD000092
:1058D000124A936F9B0815D29066D166002905D0B5
:1058E000FFE7FFE7FFE7516F106F704704B58021B6
:1058F0000906C2175140002800D0C84305F030FA0D
:10590000002104BDF0B5146E556E576F166FFFF78A
:10591000E3FF1466556657671667F0BD000000D0B8
:10592000114A936F9B0813D210665166002905D067
:10593000FFE7FFE7FFE7516F106F704704B50028DE
:1059400001D00020C04305F00BFA002104BDC04681
:10595000F0B5146E556E576F166FFFF7E5FF1466BE
:10596000556657671667F0BD000000D094464A4A56
:10597000926F9208624601D228E0C046F0B5464ECA
:10598000346E756E776F366F00F020F89446424A99
:1059900014665566576716676246F0BD94463E4AE0
:1059A000926F9208624601D254E0C046F0B53A4E7A
:1059B000346E756E776F366F00F04CF89446364A49
:1059C00014665566576716676246F0BD002B24DBE8
:1059D00011D000293EDA00B5C943404200D101315F
:1059E00000F038F8C943404200D10131DB43524254
:1059F00000D1013300BD002AEBD1002801D10029DC
:105A000005D00020C90FC90701D1C043410800B526
:105A100005F096F90022002300BD00B500290ADB3D
:105A2000DB43524200D1013300F014F8C943404235
:105A300000D1013100BDC943404200D10131DB43F7
:105A4000524200D1013300F005F8DB43524200D14D
:105A5000013300BD002923D1002B18D1002A0CD01E
:105A6000BC460D4F38667A6600210023FFE7FFE74A
:105A7000FFE77A6F386F67467047002801D0074804
:105A8000010000B505F05CF90022002300BD020012
:105A90000B00002000217047000000D0FFFFFFFF37
:105AA000002B00D0BFE0130C28D1002AE7D080B42F
:105AB000114F39667A66FFE7FFE730B4040C7B6F5D
:105AC000396F1B0423433B667A66FFE7FFE7FFE776
:105AD000C04684B27B6F3D6F1B0423433B667A66EE
